{
  "_format": "hh-sol-artifact-1",
  "contractName": "Marketplace",
  "sourceName": "src/backend/contracts/Marketplace.sol",
  "abi": [
    {
      "inputs": [
        {
          "internalType": "uint256",
          "name": "_feePercent",
          "type": "uint256"
        }
      ],
      "stateMutability": "nonpayable",
      "type": "constructor"
    },
    {
      "anonymous": false,
      "inputs": [
        {
          "indexed": false,
          "internalType": "uint256",
          "name": "itemId",
          "type": "uint256"
        },
        {
          "indexed": true,
          "internalType": "address",
          "name": "nft",
          "type": "address"
        },
        {
          "indexed": false,
          "internalType": "uint256",
          "name": "tokenId",
          "type": "uint256"
        },
        {
          "indexed": false,
          "internalType": "uint256",
          "name": "price",
          "type": "uint256"
        },
        {
          "indexed": true,
          "internalType": "address",
          "name": "seller",
          "type": "address"
        },
        {
          "indexed": true,
          "internalType": "address",
          "name": "buyer",
          "type": "address"
        }
      ],
      "name": "Bought",
      "type": "event"
    },
    {
      "anonymous": false,
      "inputs": [
        {
          "indexed": false,
          "internalType": "uint256",
          "name": "itemId",
          "type": "uint256"
        },
        {
          "indexed": true,
          "internalType": "address",
          "name": "nft",
          "type": "address"
        },
        {
          "indexed": false,
          "internalType": "uint256",
          "name": "tokenId",
          "type": "uint256"
        },
        {
          "indexed": false,
          "internalType": "uint256",
          "name": "price",
          "type": "uint256"
        },
        {
          "indexed": true,
          "internalType": "address",
          "name": "seller",
          "type": "address"
        }
      ],
      "name": "Offered",
      "type": "event"
    },
    {
      "inputs": [],
      "name": "auctionItemCount",
      "outputs": [
        {
          "internalType": "uint256",
          "name": "",
          "type": "uint256"
        }
      ],
      "stateMutability": "view",
      "type": "function"
    },
    {
      "inputs": [
        {
          "internalType": "uint256",
          "name": "",
          "type": "uint256"
        }
      ],
      "name": "auctionItems",
      "outputs": [
        {
          "internalType": "uint256",
          "name": "auctionId",
          "type": "uint256"
        },
        {
          "internalType": "contract IERC721",
          "name": "nft",
          "type": "address"
        },
        {
          "internalType": "uint256",
          "name": "tokenId",
          "type": "uint256"
        },
        {
          "internalType": "uint256",
          "name": "price",
          "type": "uint256"
        },
        {
          "internalType": "uint256",
          "name": "timeToEnd",
          "type": "uint256"
        },
        {
          "internalType": "address payable",
          "name": "winner",
          "type": "address"
        },
        {
          "internalType": "bool",
          "name": "claimed",
          "type": "bool"
        }
      ],
      "stateMutability": "view",
      "type": "function"
    },
    {
      "inputs": [
        {
          "internalType": "uint256",
          "name": "_auctionId",
          "type": "uint256"
        }
      ],
      "name": "claimNFT",
      "outputs": [],
      "stateMutability": "nonpayable",
      "type": "function"
    },
    {
      "inputs": [],
      "name": "feeAccount",
      "outputs": [
        {
          "internalType": "address payable",
          "name": "",
          "type": "address"
        }
      ],
      "stateMutability": "view",
      "type": "function"
    },
    {
      "inputs": [],
      "name": "feePercent",
      "outputs": [
        {
          "internalType": "uint256",
          "name": "",
          "type": "uint256"
        }
      ],
      "stateMutability": "view",
      "type": "function"
    },
    {
      "inputs": [
        {
          "internalType": "uint256",
          "name": "_itemId",
          "type": "uint256"
        }
      ],
      "name": "getTotalPrice",
      "outputs": [
        {
          "internalType": "uint256",
          "name": "",
          "type": "uint256"
        }
      ],
      "stateMutability": "view",
      "type": "function"
    },
    {
      "inputs": [],
      "name": "itemCount",
      "outputs": [
        {
          "internalType": "uint256",
          "name": "",
          "type": "uint256"
        }
      ],
      "stateMutability": "view",
      "type": "function"
    },
    {
      "inputs": [
        {
          "internalType": "uint256",
          "name": "",
          "type": "uint256"
        }
      ],
      "name": "items",
      "outputs": [
        {
          "internalType": "uint256",
          "name": "itemId",
          "type": "uint256"
        },
        {
          "internalType": "contract IERC721",
          "name": "nft",
          "type": "address"
        },
        {
          "internalType": "uint256",
          "name": "tokenId",
          "type": "uint256"
        },
        {
          "internalType": "uint256",
          "name": "price",
          "type": "uint256"
        },
        {
          "internalType": "address payable",
          "name": "seller",
          "type": "address"
        },
        {
          "internalType": "bool",
          "name": "sold",
          "type": "bool"
        }
      ],
      "stateMutability": "view",
      "type": "function"
    },
    {
      "inputs": [
        {
          "internalType": "contract IERC721",
          "name": "_nft",
          "type": "address"
        },
        {
          "internalType": "uint256",
          "name": "_tokenId",
          "type": "uint256"
        },
        {
          "internalType": "uint256",
          "name": "_price",
          "type": "uint256"
        }
      ],
      "name": "makeItem",
      "outputs": [],
      "stateMutability": "nonpayable",
      "type": "function"
    },
    {
      "inputs": [
        {
          "internalType": "uint256",
          "name": "_auctionId",
          "type": "uint256"
        },
        {
          "internalType": "uint256",
          "name": "_price",
          "type": "uint256"
        }
      ],
      "name": "makeOffer",
      "outputs": [],
      "stateMutability": "payable",
      "type": "function"
    },
    {
      "inputs": [
        {
          "internalType": "uint256",
          "name": "_itemId",
          "type": "uint256"
        }
      ],
      "name": "purchaseItem",
      "outputs": [],
      "stateMutability": "payable",
      "type": "function"
    },
    {
      "inputs": [
        {
          "internalType": "contract IERC721",
          "name": "_nft",
          "type": "address"
        },
        {
          "internalType": "uint256",
          "name": "_tokenId",
          "type": "uint256"
        },
        {
          "internalType": "uint256",
          "name": "_price",
          "type": "uint256"
        },
        {
          "internalType": "uint256",
          "name": "_timeToEnd",
          "type": "uint256"
        }
      ],
      "name": "startAuction",
      "outputs": [],
      "stateMutability": "nonpayable",
      "type": "function"
    }
  ],
  "bytecode": "0x60c06040523480156200001157600080fd5b5060405162001c5438038062001c5483398181016040528101906200003791906200009c565b60016000819055503373ffffffffffffffffffffffffffffffffffffffff1660808173ffffffffffffffffffffffffffffffffffffffff1660601b815250508060a0818152505050620000ec565b6000815190506200009681620000d2565b92915050565b600060208284031215620000af57600080fd5b6000620000bf8482850162000085565b91505092915050565b6000819050919050565b620000dd81620000c8565b8114620000e957600080fd5b50565b60805160601c60a051611b31620001236000396000818161040101526106e40152600081816103d701526109530152611b316000f3fe6080604052600436106100a75760003560e01c8063ca7dd37511610064578063ca7dd375146101b4578063d2c069f0146101f1578063d38ea5bf14610234578063fa00afc714610250578063fe5c873a14610279578063fe6d7a6e146102a2576100a7565b806305b7cdd3146100ac57806365e17c9d146100c85780636bfb0d01146100f35780637fd6f15c1461011e5780639c16627314610149578063bfb231d214610172575b600080fd5b6100c660048036038101906100c191906110a7565b6102cd565b005b3480156100d457600080fd5b506100dd6103d5565b6040516100ea91906112d2565b60405180910390f35b3480156100ff57600080fd5b506101086103f9565b60405161011591906114a4565b60405180910390f35b34801561012a57600080fd5b506101336103ff565b60405161014091906114a4565b60405180910390f35b34801561015557600080fd5b50610170600480360381019061016b919061101b565b610423565b005b34801561017e57600080fd5b506101996004803603810190610194919061107e565b610655565b6040516101ab969594939291906114bf565b60405180910390f35b3480156101c057600080fd5b506101db60048036038101906101d6919061107e565b6106de565b6040516101e891906114a4565b60405180910390f35b3480156101fd57600080fd5b506102186004803603810190610213919061107e565b610741565b60405161022b9796959493929190611520565b60405180910390f35b61024e6004803603810190610249919061107e565b6107d0565b005b34801561025c57600080fd5b5061027760048036038101906102729190610fcc565b610b58565b005b34801561028557600080fd5b506102a0600480360381019061029b919061107e565b610de4565b005b3480156102ae57600080fd5b506102b7610f42565b6040516102c491906114a4565b60405180910390f35b6102d5610f48565b60008211610318576040517f08c379a000000000000000000000000000000000000000000000000000000000815260040161030f906113c4565b60405180910390fd5b60046000838152602001908152602001600020600301548111610370576040517f08c379a000000000000000000000000000000000000000000000000000000000815260040161036790611464565b60405180910390fd5b60046000838152602001908152602001600020600401544210156103c9576040517f08c379a00000000000000000000000000000000000000000000000000000000081526004016103c090611324565b60405180910390fd5b6103d1610f98565b5050565b7f000000000000000000000000000000000000000000000000000000000000000081565b60015481565b7f000000000000000000000000000000000000000000000000000000000000000081565b61042b610f48565b6000821161046e576040517f08c379a000000000000000000000000000000000000000000000000000000000815260040161046590611444565b60405180910390fd5b600260008154809291906104819061177c565b91905055508373ffffffffffffffffffffffffffffffffffffffff166323b872dd3330866040518463ffffffff1660e01b81526004016104c3939291906112ed565b600060405180830381600087803b1580156104dd57600080fd5b505af11580156104f1573d6000803e3d6000fd5b505050506040518060e0016040528060025481526020018573ffffffffffffffffffffffffffffffffffffffff1681526020018481526020018381526020018281526020013373ffffffffffffffffffffffffffffffffffffffff168152602001600015158152506004600060025481526020019081526020016000206000820151816000015560208201518160010160006101000a81548173ffffffffffffffffffffffffffffffffffffffff021916908373ffffffffffffffffffffffffffffffffffffffff16021790555060408201518160020155606082015181600301556080820151816004015560a08201518160050160006101000a81548173ffffffffffffffffffffffffffffffffffffffff021916908373ffffffffffffffffffffffffffffffffffffffff16021790555060c08201518160050160146101000a81548160ff02191690831515021790555090505061064f610f98565b50505050565b60036020528060005260406000206000915090508060000154908060010160009054906101000a900473ffffffffffffffffffffffffffffffffffffffff16908060020154908060030154908060040160009054906101000a900473ffffffffffffffffffffffffffffffffffffffff16908060040160149054906101000a900460ff16905086565b600060647f0000000000000000000000000000000000000000000000000000000000000000606461070f91906115d7565b6003600085815260200190815260200160002060030154610730919061165e565b61073a919061162d565b9050919050565b60046020528060005260406000206000915090508060000154908060010160009054906101000a900473ffffffffffffffffffffffffffffffffffffffff16908060020154908060030154908060040154908060050160009054906101000a900473ffffffffffffffffffffffffffffffffffffffff16908060050160149054906101000a900460ff16905087565b6107d8610f48565b60006107e3826106de565b9050600060036000848152602001908152602001600020905060008311801561080e57506001548311155b61084d576040517f08c379a0000000000000000000000000000000000000000000000000000000008152600401610844906113e4565b60405180910390fd5b81341015610890576040517f08c379a0000000000000000000000000000000000000000000000000000000008152600401610887906113a4565b60405180910390fd5b8060040160149054906101000a900460ff16156108e2576040517f08c379a00000000000000000000000000000000000000000000000000000000081526004016108d990611344565b60405180910390fd5b8060040160009054906101000a900473ffffffffffffffffffffffffffffffffffffffff1673ffffffffffffffffffffffffffffffffffffffff166108fc82600301549081150290604051600060405180830381858888f19350505050158015610950573d6000803e3d6000fd5b507f000000000000000000000000000000000000000000000000000000000000000073ffffffffffffffffffffffffffffffffffffffff166108fc82600301548461099b91906116b8565b9081150290604051600060405180830381858888f193505050501580156109c6573d6000803e3d6000fd5b5060018160040160146101000a81548160ff0219169083151502179055508060010160009054906101000a900473ffffffffffffffffffffffffffffffffffffffff1673ffffffffffffffffffffffffffffffffffffffff166323b872dd303384600201546040518463ffffffff1660e01b8152600401610a49939291906112ed565b600060405180830381600087803b158015610a6357600080fd5b505af1158015610a77573d6000803e3d6000fd5b505050503373ffffffffffffffffffffffffffffffffffffffff168160040160009054906101000a900473ffffffffffffffffffffffffffffffffffffffff1673ffffffffffffffffffffffffffffffffffffffff168260010160009054906101000a900473ffffffffffffffffffffffffffffffffffffffff1673ffffffffffffffffffffffffffffffffffffffff167f8b4c9c8a607d67b321582dd8461041b1dc2ceeca70c8b7f37f8e02095cf2e76d8685600201548660030154604051610b439392919061158f565b60405180910390a45050610b55610f98565b50565b610b60610f48565b60008111610ba3576040517f08c379a0000000000000000000000000000000000000000000000000000000008152600401610b9a90611364565b60405180910390fd5b60016000815480929190610bb69061177c565b91905055508273ffffffffffffffffffffffffffffffffffffffff166323b872dd3330856040518463ffffffff1660e01b8152600401610bf8939291906112ed565b600060405180830381600087803b158015610c1257600080fd5b505af1158015610c26573d6000803e3d6000fd5b505050506040518060c0016040528060015481526020018473ffffffffffffffffffffffffffffffffffffffff1681526020018381526020018281526020013373ffffffffffffffffffffffffffffffffffffffff168152602001600015158152506003600060015481526020019081526020016000206000820151816000015560208201518160010160006101000a81548173ffffffffffffffffffffffffffffffffffffffff021916908373ffffffffffffffffffffffffffffffffffffffff160217905550604082015181600201556060820151816003015560808201518160040160006101000a81548173ffffffffffffffffffffffffffffffffffffffff021916908373ffffffffffffffffffffffffffffffffffffffff16021790555060a08201518160040160146101000a81548160ff0219169083151502179055509050503373ffffffffffffffffffffffffffffffffffffffff168373ffffffffffffffffffffffffffffffffffffffff167f655a0cf9c8db81512be9a76dc1c5ae5380b8816ce6ad659cd61b715e2999d59a6001548585604051610dcf9392919061158f565b60405180910390a3610ddf610f98565b505050565b610dec610f48565b60008111610e2f576040517f08c379a0000000000000000000000000000000000000000000000000000000008152600401610e2690611404565b60405180910390fd5b3373ffffffffffffffffffffffffffffffffffffffff166004600083815260200190815260200160002060050160009054906101000a900473ffffffffffffffffffffffffffffffffffffffff1673ffffffffffffffffffffffffffffffffffffffff1614610ed3576040517f08c379a0000000000000000000000000000000000000000000000000000000008152600401610eca90611424565b60405180910390fd5b6004600082815260200190815260200160002060050160149054906101000a900460ff1615610f37576040517f08c379a0000000000000000000000000000000000000000000000000000000008152600401610f2e90611384565b60405180910390fd5b610f3f610f98565b50565b60025481565b60026000541415610f8e576040517f08c379a0000000000000000000000000000000000000000000000000000000008152600401610f8590611484565b60405180910390fd5b6002600081905550565b6001600081905550565b600081359050610fb181611acd565b92915050565b600081359050610fc681611ae4565b92915050565b600080600060608486031215610fe157600080fd5b6000610fef86828701610fa2565b935050602061100086828701610fb7565b925050604061101186828701610fb7565b9150509250925092565b6000806000806080858703121561103157600080fd5b600061103f87828801610fa2565b945050602061105087828801610fb7565b935050604061106187828801610fb7565b925050606061107287828801610fb7565b91505092959194509250565b60006020828403121561109057600080fd5b600061109e84828501610fb7565b91505092915050565b600080604083850312156110ba57600080fd5b60006110c885828601610fb7565b92505060206110d985828601610fb7565b9150509250929050565b6110ec816116fe565b82525050565b6110fb816116ec565b82525050565b61110a81611710565b82525050565b61111981611758565b82525050565b600061112c601c836115c6565b915061113782611823565b602082019050919050565b600061114f6011836115c6565b915061115a8261184c565b602082019050919050565b6000611172601f836115c6565b915061117d82611875565b602082019050919050565b60006111956017836115c6565b91506111a08261189e565b602082019050919050565b60006111b86033836115c6565b91506111c3826118c7565b604082019050919050565b60006111db6026836115c6565b91506111e682611916565b604082019050919050565b60006111fe6012836115c6565b915061120982611965565b602082019050919050565b60006112216025836115c6565b915061122c8261198e565b604082019050919050565b6000611244601f836115c6565b915061124f826119dd565b602082019050919050565b60006112676021836115c6565b915061127282611a06565b604082019050919050565b600061128a602b836115c6565b915061129582611a55565b604082019050919050565b60006112ad601f836115c6565b91506112b882611aa4565b602082019050919050565b6112cc8161174e565b82525050565b60006020820190506112e760008301846110e3565b92915050565b600060608201905061130260008301866110f2565b61130f60208301856110f2565b61131c60408301846112c3565b949350505050565b6000602082019050818103600083015261133d8161111f565b9050919050565b6000602082019050818103600083015261135d81611142565b9050919050565b6000602082019050818103600083015261137d81611165565b9050919050565b6000602082019050818103600083015261139d81611188565b9050919050565b600060208201905081810360008301526113bd816111ab565b9050919050565b600060208201905081810360008301526113dd816111ce565b9050919050565b600060208201905081810360008301526113fd816111f1565b9050919050565b6000602082019050818103600083015261141d81611214565b9050919050565b6000602082019050818103600083015261143d81611237565b9050919050565b6000602082019050818103600083015261145d8161125a565b9050919050565b6000602082019050818103600083015261147d8161127d565b9050919050565b6000602082019050818103600083015261149d816112a0565b9050919050565b60006020820190506114b960008301846112c3565b92915050565b600060c0820190506114d460008301896112c3565b6114e16020830188611110565b6114ee60408301876112c3565b6114fb60608301866112c3565b61150860808301856110e3565b61151560a0830184611101565b979650505050505050565b600060e082019050611535600083018a6112c3565b6115426020830189611110565b61154f60408301886112c3565b61155c60608301876112c3565b61156960808301866112c3565b61157660a08301856110e3565b61158360c0830184611101565b98975050505050505050565b60006060820190506115a460008301866112c3565b6115b160208301856112c3565b6115be60408301846112c3565b949350505050565b600082825260208201905092915050565b60006115e28261174e565b91506115ed8361174e565b9250827fffffffffffffffffffffffffffffffffffffffffffffffffffffffffffffffff03821115611622576116216117c5565b5b828201905092915050565b60006116388261174e565b91506116438361174e565b925082611653576116526117f4565b5b828204905092915050565b60006116698261174e565b91506116748361174e565b9250817fffffffffffffffffffffffffffffffffffffffffffffffffffffffffffffffff04831182151516156116ad576116ac6117c5565b5b828202905092915050565b60006116c38261174e565b91506116ce8361174e565b9250828210156116e1576116e06117c5565b5b828203905092915050565b60006116f78261172e565b9050919050565b60006117098261172e565b9050919050565b60008115159050919050565b6000611727826116ec565b9050919050565b600073ffffffffffffffffffffffffffffffffffffffff82169050919050565b6000819050919050565b60006117638261176a565b9050919050565b60006117758261172e565b9050919050565b60006117878261174e565b91507fffffffffffffffffffffffffffffffffffffffffffffffffffffffffffffffff8214156117ba576117b96117c5565b5b600182019050919050565b7f4e487b7100000000000000000000000000000000000000000000000000000000600052601160045260246000fd5b7f4e487b7100000000000000000000000000000000000000000000000000000000600052601260045260246000fd5b7f41756374696f6e2073686f756c64206e6f7420626520656e6465642e00000000600082015250565b7f6974656d20616c726561647920736f6c64000000000000000000000000000000600082015250565b7f5072696365206d7573742062652067726561746572207468616e207a65726f00600082015250565b7f4e465420697320616c726561647920636c61696d65642e000000000000000000600082015250565b7f6e6f7420656e6f75676820657468657220746f20636f766572206974656d207060008201527f7269636520616e64206d61726b65742066656500000000000000000000000000602082015250565b7f41756374696f6e2069642073686f756c6420626520626967676572207468616e60008201527f207a65726f2e0000000000000000000000000000000000000000000000000000602082015250565b7f6974656d20646f65736e27742065786973740000000000000000000000000000600082015250565b7f41756374696f6e2069642073686f756c6420626520626967676572207468616e60008201527f207a65726f000000000000000000000000000000000000000000000000000000602082015250565b7f4f6e6c792077696e6e65722063616e20636c61696d2074686973204e46542e00600082015250565b7f70726963652073686f756c642062652067726561746572207468616e207a657260008201527f6f00000000000000000000000000000000000000000000000000000000000000602082015250565b7f50726963652073686f756c642062652067726561746572207468616e2063757260008201527f72656e742070726963652e000000000000000000000000000000000000000000602082015250565b7f5265656e7472616e637947756172643a207265656e7472616e742063616c6c00600082015250565b611ad68161171c565b8114611ae157600080fd5b50565b611aed8161174e565b8114611af857600080fd5b5056fea26469706673582212204802bdbb12e801e6b14afe2553168fa8d0bf566f9353e60987ec8208c24acfb064736f6c63430008040033",
  "linkReferences": {},
  "deployedLinkReferences": {}
}