{
  "_format": "hh-sol-artifact-1",
  "contractName": "Marketplace",
  "sourceName": "src/backend/contracts/Marketplace.sol",
  "abi": [
    {
      "inputs": [
        {
          "internalType": "uint256",
          "name": "_feePercent",
          "type": "uint256"
        }
      ],
      "stateMutability": "nonpayable",
      "type": "constructor"
    },
    {
      "anonymous": false,
      "inputs": [
        {
          "indexed": false,
          "internalType": "uint256",
          "name": "itemId",
          "type": "uint256"
        },
        {
          "indexed": true,
          "internalType": "address",
          "name": "nft",
          "type": "address"
        },
        {
          "indexed": false,
          "internalType": "uint256",
          "name": "tokenId",
          "type": "uint256"
        },
        {
          "indexed": false,
          "internalType": "uint256",
          "name": "price",
          "type": "uint256"
        },
        {
          "indexed": true,
          "internalType": "address",
          "name": "seller",
          "type": "address"
        },
        {
          "indexed": true,
          "internalType": "address",
          "name": "buyer",
          "type": "address"
        }
      ],
      "name": "Bought",
      "type": "event"
    },
    {
      "anonymous": false,
      "inputs": [
        {
          "indexed": false,
          "internalType": "uint256",
          "name": "itemId",
          "type": "uint256"
        },
        {
          "indexed": true,
          "internalType": "address",
          "name": "nft",
          "type": "address"
        },
        {
          "indexed": false,
          "internalType": "uint256",
          "name": "tokenId",
          "type": "uint256"
        },
        {
          "indexed": false,
          "internalType": "uint256",
          "name": "price",
          "type": "uint256"
        },
        {
          "indexed": true,
          "internalType": "address",
          "name": "seller",
          "type": "address"
        }
      ],
      "name": "Offered",
      "type": "event"
    },
    {
      "stateMutability": "nonpayable",
      "type": "fallback"
    },
    {
      "inputs": [],
      "name": "auctionItemCount",
      "outputs": [
        {
          "internalType": "uint256",
          "name": "",
          "type": "uint256"
        }
      ],
      "stateMutability": "view",
      "type": "function"
    },
    {
      "inputs": [
        {
          "internalType": "uint256",
          "name": "",
          "type": "uint256"
        }
      ],
      "name": "auctionItems",
      "outputs": [
        {
          "internalType": "uint256",
          "name": "auctionId",
          "type": "uint256"
        },
        {
          "internalType": "contract IERC721",
          "name": "nft",
          "type": "address"
        },
        {
          "internalType": "uint256",
          "name": "tokenId",
          "type": "uint256"
        },
        {
          "internalType": "uint256",
          "name": "price",
          "type": "uint256"
        },
        {
          "internalType": "uint256",
          "name": "timeToEnd",
          "type": "uint256"
        },
        {
          "internalType": "address payable",
          "name": "winner",
          "type": "address"
        },
        {
          "internalType": "address payable",
          "name": "seller",
          "type": "address"
        },
        {
          "internalType": "uint256",
          "name": "deposited",
          "type": "uint256"
        },
        {
          "internalType": "bool",
          "name": "claimed",
          "type": "bool"
        }
      ],
      "stateMutability": "view",
      "type": "function"
    },
    {
      "inputs": [
        {
          "internalType": "uint256",
          "name": "_auctionId",
          "type": "uint256"
        }
      ],
      "name": "claimNFT",
      "outputs": [],
      "stateMutability": "nonpayable",
      "type": "function"
    },
    {
      "inputs": [],
      "name": "feeAccount",
      "outputs": [
        {
          "internalType": "address payable",
          "name": "",
          "type": "address"
        }
      ],
      "stateMutability": "view",
      "type": "function"
    },
    {
      "inputs": [],
      "name": "feePercent",
      "outputs": [
        {
          "internalType": "uint256",
          "name": "",
          "type": "uint256"
        }
      ],
      "stateMutability": "view",
      "type": "function"
    },
    {
      "inputs": [
        {
          "internalType": "uint256",
          "name": "_itemId",
          "type": "uint256"
        }
      ],
      "name": "getTotalPrice",
      "outputs": [
        {
          "internalType": "uint256",
          "name": "",
          "type": "uint256"
        }
      ],
      "stateMutability": "view",
      "type": "function"
    },
    {
      "inputs": [],
      "name": "itemCount",
      "outputs": [
        {
          "internalType": "uint256",
          "name": "",
          "type": "uint256"
        }
      ],
      "stateMutability": "view",
      "type": "function"
    },
    {
      "inputs": [
        {
          "internalType": "uint256",
          "name": "",
          "type": "uint256"
        }
      ],
      "name": "items",
      "outputs": [
        {
          "internalType": "uint256",
          "name": "itemId",
          "type": "uint256"
        },
        {
          "internalType": "contract IERC721",
          "name": "nft",
          "type": "address"
        },
        {
          "internalType": "uint256",
          "name": "tokenId",
          "type": "uint256"
        },
        {
          "internalType": "uint256",
          "name": "price",
          "type": "uint256"
        },
        {
          "internalType": "address payable",
          "name": "seller",
          "type": "address"
        },
        {
          "internalType": "bool",
          "name": "sold",
          "type": "bool"
        }
      ],
      "stateMutability": "view",
      "type": "function"
    },
    {
      "inputs": [
        {
          "internalType": "contract IERC721",
          "name": "_nft",
          "type": "address"
        },
        {
          "internalType": "uint256",
          "name": "_tokenId",
          "type": "uint256"
        },
        {
          "internalType": "uint256",
          "name": "_price",
          "type": "uint256"
        }
      ],
      "name": "makeItem",
      "outputs": [],
      "stateMutability": "nonpayable",
      "type": "function"
    },
    {
      "inputs": [
        {
          "internalType": "uint256",
          "name": "_auctionId",
          "type": "uint256"
        },
        {
          "internalType": "uint256",
          "name": "_price",
          "type": "uint256"
        }
      ],
      "name": "makeOffer",
      "outputs": [],
      "stateMutability": "payable",
      "type": "function"
    },
    {
      "inputs": [
        {
          "internalType": "uint256",
          "name": "_itemId",
          "type": "uint256"
        }
      ],
      "name": "purchaseItem",
      "outputs": [],
      "stateMutability": "payable",
      "type": "function"
    },
    {
      "inputs": [
        {
          "internalType": "contract IERC721",
          "name": "_nft",
          "type": "address"
        },
        {
          "internalType": "uint256",
          "name": "_tokenId",
          "type": "uint256"
        },
        {
          "internalType": "uint256",
          "name": "_price",
          "type": "uint256"
        },
        {
          "internalType": "uint256",
          "name": "_timeToEnd",
          "type": "uint256"
        }
      ],
      "name": "startAuction",
      "outputs": [],
      "stateMutability": "nonpayable",
      "type": "function"
    }
  ],
  "bytecode": "0x60c06040523480156200001157600080fd5b50604051620020fa380380620020fa83398181016040528101906200003791906200009c565b60016000819055503373ffffffffffffffffffffffffffffffffffffffff1660808173ffffffffffffffffffffffffffffffffffffffff1660601b815250508060a0818152505050620000ec565b6000815190506200009681620000d2565b92915050565b600060208284031215620000af57600080fd5b6000620000bf8482850162000085565b91505092915050565b6000819050919050565b620000dd81620000c8565b8114620000e957600080fd5b50565b60805160601c60a051611fd06200012a6000396000818161059901526108f20152600081816103dc0152818161056f0152610b8d0152611fd06000f3fe6080604052600436106100ab5760003560e01c8063ca7dd37511610064578063ca7dd375146101c3578063d2c069f014610200578063d38ea5bf14610245578063fa00afc714610261578063fe5c873a1461028a578063fe6d7a6e146102b3576100ac565b806305b7cdd3146100bb57806365e17c9d146100d75780636bfb0d01146101025780637fd6f15c1461012d5780639c16627314610158578063bfb231d214610181576100ac565b5b3480156100b857600080fd5b50005b6100d560048036038101906100d09190611496565b6102de565b005b3480156100e357600080fd5b506100ec61056d565b6040516100f991906116e4565b60405180910390f35b34801561010e57600080fd5b50610117610591565b60405161012491906118d6565b60405180910390f35b34801561013957600080fd5b50610142610597565b60405161014f91906118d6565b60405180910390f35b34801561016457600080fd5b5061017f600480360381019061017a919061140a565b6105bb565b005b34801561018d57600080fd5b506101a860048036038101906101a3919061146d565b610863565b6040516101ba969594939291906118f1565b60405180910390f35b3480156101cf57600080fd5b506101ea60048036038101906101e5919061146d565b6108ec565b6040516101f791906118d6565b60405180910390f35b34801561020c57600080fd5b506102276004803603810190610222919061146d565b61094f565b60405161023c99989796959493929190611952565b60405180910390f35b61025f600480360381019061025a919061146d565b610a0a565b005b34801561026d57600080fd5b50610288600480360381019061028391906113bb565b610d92565b005b34801561029657600080fd5b506102b160048036038101906102ac919061146d565b61101e565b005b3480156102bf57600080fd5b506102c8611331565b6040516102d591906118d6565b60405180910390f35b6102e6611337565b60008211610329576040517f08c379a0000000000000000000000000000000000000000000000000000000008152600401610320906117d6565b60405180910390fd5b60046000838152602001908152602001600020600301548111610381576040517f08c379a000000000000000000000000000000000000000000000000000000000815260040161037890611896565b60405180910390fd5b60046000838152602001908152602001600020600401544210156103da576040517f08c379a00000000000000000000000000000000000000000000000000000000081526004016103d190611736565b60405180910390fd5b7f000000000000000000000000000000000000000000000000000000000000000073ffffffffffffffffffffffffffffffffffffffff166108fc829081150290604051600060405180830381858888f19350505050158015610440573d6000803e3d6000fd5b506000600460008481526020019081526020016000206007015411156104f4576004600083815260200190815260200160002060050160009054906101000a900473ffffffffffffffffffffffffffffffffffffffff1673ffffffffffffffffffffffffffffffffffffffff166108fc60046000858152602001908152602001600020600701549081150290604051600060405180830381858888f193505050501580156104f2573d6000803e3d6000fd5b505b6000600460008481526020019081526020016000209050818160030181905550338160050160006101000a81548173ffffffffffffffffffffffffffffffffffffffff021916908373ffffffffffffffffffffffffffffffffffffffff16021790555081816007018190555050610569611387565b5050565b7f000000000000000000000000000000000000000000000000000000000000000081565b60015481565b7f000000000000000000000000000000000000000000000000000000000000000081565b6105c3611337565b60008211610606576040517f08c379a00000000000000000000000000000000000000000000000000000000081526004016105fd90611876565b60405180910390fd5b6002600081548092919061061990611bcc565b91905055508373ffffffffffffffffffffffffffffffffffffffff166323b872dd3330866040518463ffffffff1660e01b815260040161065b939291906116ff565b600060405180830381600087803b15801561067557600080fd5b505af1158015610689573d6000803e3d6000fd5b5050505060405180610120016040528060025481526020018573ffffffffffffffffffffffffffffffffffffffff1681526020018481526020018381526020018281526020013373ffffffffffffffffffffffffffffffffffffffff1681526020013373ffffffffffffffffffffffffffffffffffffffff16815260200160008152602001600015158152506004600060025481526020019081526020016000206000820151816000015560208201518160010160006101000a81548173ffffffffffffffffffffffffffffffffffffffff021916908373ffffffffffffffffffffffffffffffffffffffff16021790555060408201518160020155606082015181600301556080820151816004015560a08201518160050160006101000a81548173ffffffffffffffffffffffffffffffffffffffff021916908373ffffffffffffffffffffffffffffffffffffffff16021790555060c08201518160060160006101000a81548173ffffffffffffffffffffffffffffffffffffffff021916908373ffffffffffffffffffffffffffffffffffffffff16021790555060e082015181600701556101008201518160080160006101000a81548160ff02191690831515021790555090505061085d611387565b50505050565b60036020528060005260406000206000915090508060000154908060010160009054906101000a900473ffffffffffffffffffffffffffffffffffffffff16908060020154908060030154908060040160009054906101000a900473ffffffffffffffffffffffffffffffffffffffff16908060040160149054906101000a900460ff16905086565b600060647f0000000000000000000000000000000000000000000000000000000000000000606461091d9190611a27565b600360008581526020019081526020016000206003015461093e9190611aae565b6109489190611a7d565b9050919050565b60046020528060005260406000206000915090508060000154908060010160009054906101000a900473ffffffffffffffffffffffffffffffffffffffff16908060020154908060030154908060040154908060050160009054906101000a900473ffffffffffffffffffffffffffffffffffffffff16908060060160009054906101000a900473ffffffffffffffffffffffffffffffffffffffff16908060070154908060080160009054906101000a900460ff16905089565b610a12611337565b6000610a1d826108ec565b90506000600360008481526020019081526020016000209050600083118015610a4857506001548311155b610a87576040517f08c379a0000000000000000000000000000000000000000000000000000000008152600401610a7e906117f6565b60405180910390fd5b81341015610aca576040517f08c379a0000000000000000000000000000000000000000000000000000000008152600401610ac1906117b6565b60405180910390fd5b8060040160149054906101000a900460ff1615610b1c576040517f08c379a0000000000000000000000000000000000000000000000000000000008152600401610b1390611756565b60405180910390fd5b8060040160009054906101000a900473ffffffffffffffffffffffffffffffffffffffff1673ffffffffffffffffffffffffffffffffffffffff166108fc82600301549081150290604051600060405180830381858888f19350505050158015610b8a573d6000803e3d6000fd5b507f000000000000000000000000000000000000000000000000000000000000000073ffffffffffffffffffffffffffffffffffffffff166108fc826003015484610bd59190611b08565b9081150290604051600060405180830381858888f19350505050158015610c00573d6000803e3d6000fd5b5060018160040160146101000a81548160ff0219169083151502179055508060010160009054906101000a900473ffffffffffffffffffffffffffffffffffffffff1673ffffffffffffffffffffffffffffffffffffffff166323b872dd303384600201546040518463ffffffff1660e01b8152600401610c83939291906116ff565b600060405180830381600087803b158015610c9d57600080fd5b505af1158015610cb1573d6000803e3d6000fd5b505050503373ffffffffffffffffffffffffffffffffffffffff168160040160009054906101000a900473ffffffffffffffffffffffffffffffffffffffff1673ffffffffffffffffffffffffffffffffffffffff168260010160009054906101000a900473ffffffffffffffffffffffffffffffffffffffff1673ffffffffffffffffffffffffffffffffffffffff167f8b4c9c8a607d67b321582dd8461041b1dc2ceeca70c8b7f37f8e02095cf2e76d8685600201548660030154604051610d7d939291906119df565b60405180910390a45050610d8f611387565b50565b610d9a611337565b60008111610ddd576040517f08c379a0000000000000000000000000000000000000000000000000000000008152600401610dd490611776565b60405180910390fd5b60016000815480929190610df090611bcc565b91905055508273ffffffffffffffffffffffffffffffffffffffff166323b872dd3330856040518463ffffffff1660e01b8152600401610e32939291906116ff565b600060405180830381600087803b158015610e4c57600080fd5b505af1158015610e60573d6000803e3d6000fd5b505050506040518060c0016040528060015481526020018473ffffffffffffffffffffffffffffffffffffffff1681526020018381526020018281526020013373ffffffffffffffffffffffffffffffffffffffff168152602001600015158152506003600060015481526020019081526020016000206000820151816000015560208201518160010160006101000a81548173ffffffffffffffffffffffffffffffffffffffff021916908373ffffffffffffffffffffffffffffffffffffffff160217905550604082015181600201556060820151816003015560808201518160040160006101000a81548173ffffffffffffffffffffffffffffffffffffffff021916908373ffffffffffffffffffffffffffffffffffffffff16021790555060a08201518160040160146101000a81548160ff0219169083151502179055509050503373ffffffffffffffffffffffffffffffffffffffff168373ffffffffffffffffffffffffffffffffffffffff167f655a0cf9c8db81512be9a76dc1c5ae5380b8816ce6ad659cd61b715e2999d59a6001548585604051611009939291906119df565b60405180910390a3611019611387565b505050565b611026611337565b60008111611069576040517f08c379a000000000000000000000000000000000000000000000000000000000815260040161106090611856565b60405180910390fd5b60046000828152602001908152602001600020600401544210156110c2576040517f08c379a00000000000000000000000000000000000000000000000000000000081526004016110b990611816565b60405180910390fd5b3373ffffffffffffffffffffffffffffffffffffffff166004600083815260200190815260200160002060050160009054906101000a900473ffffffffffffffffffffffffffffffffffffffff1673ffffffffffffffffffffffffffffffffffffffff16148061119357503373ffffffffffffffffffffffffffffffffffffffff166004600083815260200190815260200160002060060160009054906101000a900473ffffffffffffffffffffffffffffffffffffffff1673ffffffffffffffffffffffffffffffffffffffff16145b6111d2576040517f08c379a00000000000000000000000000000000000000000000000000000000081526004016111c990611836565b60405180910390fd5b6004600082815260200190815260200160002060080160009054906101000a900460ff1615611236576040517f08c379a000000000000000000000000000000000000000000000000000000000815260040161122d90611796565b60405180910390fd5b6004600082815260200190815260200160002060010160009054906101000a900473ffffffffffffffffffffffffffffffffffffffff1673ffffffffffffffffffffffffffffffffffffffff166323b872dd303360046000868152602001908152602001600020600201546040518463ffffffff1660e01b81526004016112bf939291906116ff565b600060405180830381600087803b1580156112d957600080fd5b505af11580156112ed573d6000803e3d6000fd5b50505050600060046000838152602001908152602001600020905060018160080160006101000a81548160ff0219169083151502179055505061132e611387565b50565b60025481565b6002600054141561137d576040517f08c379a0000000000000000000000000000000000000000000000000000000008152600401611374906118b6565b60405180910390fd5b6002600081905550565b6001600081905550565b6000813590506113a081611f6c565b92915050565b6000813590506113b581611f83565b92915050565b6000806000606084860312156113d057600080fd5b60006113de86828701611391565b93505060206113ef868287016113a6565b9250506040611400868287016113a6565b9150509250925092565b6000806000806080858703121561142057600080fd5b600061142e87828801611391565b945050602061143f878288016113a6565b9350506040611450878288016113a6565b9250506060611461878288016113a6565b91505092959194509250565b60006020828403121561147f57600080fd5b600061148d848285016113a6565b91505092915050565b600080604083850312156114a957600080fd5b60006114b7858286016113a6565b92505060206114c8858286016113a6565b9150509250929050565b6114db81611b4e565b82525050565b6114ea81611b3c565b82525050565b6114f981611b60565b82525050565b61150881611ba8565b82525050565b600061151b601c83611a16565b915061152682611c73565b602082019050919050565b600061153e601183611a16565b915061154982611c9c565b602082019050919050565b6000611561601f83611a16565b915061156c82611cc5565b602082019050919050565b6000611584601783611a16565b915061158f82611cee565b602082019050919050565b60006115a7603383611a16565b91506115b282611d17565b604082019050919050565b60006115ca602683611a16565b91506115d582611d66565b604082019050919050565b60006115ed601283611a16565b91506115f882611db5565b602082019050919050565b6000611610601983611a16565b915061161b82611dde565b602082019050919050565b6000611633602c83611a16565b915061163e82611e07565b604082019050919050565b6000611656602583611a16565b915061166182611e56565b604082019050919050565b6000611679602183611a16565b915061168482611ea5565b604082019050919050565b600061169c602b83611a16565b91506116a782611ef4565b604082019050919050565b60006116bf601f83611a16565b91506116ca82611f43565b602082019050919050565b6116de81611b9e565b82525050565b60006020820190506116f960008301846114d2565b92915050565b600060608201905061171460008301866114e1565b61172160208301856114e1565b61172e60408301846116d5565b949350505050565b6000602082019050818103600083015261174f8161150e565b9050919050565b6000602082019050818103600083015261176f81611531565b9050919050565b6000602082019050818103600083015261178f81611554565b9050919050565b600060208201905081810360008301526117af81611577565b9050919050565b600060208201905081810360008301526117cf8161159a565b9050919050565b600060208201905081810360008301526117ef816115bd565b9050919050565b6000602082019050818103600083015261180f816115e0565b9050919050565b6000602082019050818103600083015261182f81611603565b9050919050565b6000602082019050818103600083015261184f81611626565b9050919050565b6000602082019050818103600083015261186f81611649565b9050919050565b6000602082019050818103600083015261188f8161166c565b9050919050565b600060208201905081810360008301526118af8161168f565b9050919050565b600060208201905081810360008301526118cf816116b2565b9050919050565b60006020820190506118eb60008301846116d5565b92915050565b600060c08201905061190660008301896116d5565b61191360208301886114ff565b61192060408301876116d5565b61192d60608301866116d5565b61193a60808301856114d2565b61194760a08301846114f0565b979650505050505050565b600061012082019050611968600083018c6116d5565b611975602083018b6114ff565b611982604083018a6116d5565b61198f60608301896116d5565b61199c60808301886116d5565b6119a960a08301876114d2565b6119b660c08301866114d2565b6119c360e08301856116d5565b6119d16101008301846114f0565b9a9950505050505050505050565b60006060820190506119f460008301866116d5565b611a0160208301856116d5565b611a0e60408301846116d5565b949350505050565b600082825260208201905092915050565b6000611a3282611b9e565b9150611a3d83611b9e565b9250827fffffffffffffffffffffffffffffffffffffffffffffffffffffffffffffffff03821115611a7257611a71611c15565b5b828201905092915050565b6000611a8882611b9e565b9150611a9383611b9e565b925082611aa357611aa2611c44565b5b828204905092915050565b6000611ab982611b9e565b9150611ac483611b9e565b9250817fffffffffffffffffffffffffffffffffffffffffffffffffffffffffffffffff0483118215151615611afd57611afc611c15565b5b828202905092915050565b6000611b1382611b9e565b9150611b1e83611b9e565b925082821015611b3157611b30611c15565b5b828203905092915050565b6000611b4782611b7e565b9050919050565b6000611b5982611b7e565b9050919050565b60008115159050919050565b6000611b7782611b3c565b9050919050565b600073ffffffffffffffffffffffffffffffffffffffff82169050919050565b6000819050919050565b6000611bb382611bba565b9050919050565b6000611bc582611b7e565b9050919050565b6000611bd782611b9e565b91507fffffffffffffffffffffffffffffffffffffffffffffffffffffffffffffffff821415611c0a57611c09611c15565b5b600182019050919050565b7f4e487b7100000000000000000000000000000000000000000000000000000000600052601160045260246000fd5b7f4e487b7100000000000000000000000000000000000000000000000000000000600052601260045260246000fd5b7f41756374696f6e2073686f756c64206e6f7420626520656e6465642e00000000600082015250565b7f6974656d20616c726561647920736f6c64000000000000000000000000000000600082015250565b7f5072696365206d7573742062652067726561746572207468616e207a65726f00600082015250565b7f4e465420697320616c726561647920636c61696d65642e000000000000000000600082015250565b7f6e6f7420656e6f75676820657468657220746f20636f766572206974656d207060008201527f7269636520616e64206d61726b65742066656500000000000000000000000000602082015250565b7f41756374696f6e2069642073686f756c6420626520626967676572207468616e60008201527f207a65726f2e0000000000000000000000000000000000000000000000000000602082015250565b7f6974656d20646f65736e27742065786973740000000000000000000000000000600082015250565b7f41756374696f6e2073686f756c6420656e642066697273742e00000000000000600082015250565b7f4f6e6c792077696e6e6572206f722073656c6c65722063616e2072756e20746860008201527f69732066756e6374696f6e2e0000000000000000000000000000000000000000602082015250565b7f41756374696f6e2069642073686f756c6420626520626967676572207468616e60008201527f207a65726f000000000000000000000000000000000000000000000000000000602082015250565b7f70726963652073686f756c642062652067726561746572207468616e207a657260008201527f6f00000000000000000000000000000000000000000000000000000000000000602082015250565b7f50726963652073686f756c642062652067726561746572207468616e2063757260008201527f72656e742070726963652e000000000000000000000000000000000000000000602082015250565b7f5265656e7472616e637947756172643a207265656e7472616e742063616c6c00600082015250565b611f7581611b6c565b8114611f8057600080fd5b50565b611f8c81611b9e565b8114611f9757600080fd5b5056fea2646970667358221220760fd3fcacffd51faa88cd1a611527ffb1068398056478b42a28f7723e2cead264736f6c63430008040033",
  "linkReferences": {},
  "deployedLinkReferences": {}
}