{
  "_format": "hh-sol-artifact-1",
  "contractName": "Marketplace",
  "sourceName": "libs/contracts/src/contracts/Marketplace.sol",
  "abi": [
    {
      "inputs": [
        {
          "internalType": "uint256",
          "name": "_feePercent",
          "type": "uint256"
        }
      ],
      "stateMutability": "nonpayable",
      "type": "constructor"
    },
    {
      "anonymous": false,
      "inputs": [
        {
          "indexed": false,
          "internalType": "uint256",
          "name": "auctionId",
          "type": "uint256"
        }
      ],
      "name": "AuctionCanceled",
      "type": "event"
    },
    {
      "anonymous": false,
      "inputs": [
        {
          "indexed": false,
          "internalType": "uint256",
          "name": "auctionId",
          "type": "uint256"
        },
        {
          "indexed": false,
          "internalType": "address",
          "name": "nft",
          "type": "address"
        },
        {
          "indexed": true,
          "internalType": "uint256",
          "name": "tokenId",
          "type": "uint256"
        },
        {
          "indexed": false,
          "internalType": "uint256",
          "name": "price",
          "type": "uint256"
        },
        {
          "indexed": true,
          "internalType": "address",
          "name": "seller",
          "type": "address"
        },
        {
          "indexed": true,
          "internalType": "address",
          "name": "buyer",
          "type": "address"
        }
      ],
      "name": "AuctionEnded",
      "type": "event"
    },
    {
      "anonymous": false,
      "inputs": [
        {
          "indexed": false,
          "internalType": "uint256",
          "name": "auctionId",
          "type": "uint256"
        },
        {
          "indexed": false,
          "internalType": "address",
          "name": "nft",
          "type": "address"
        },
        {
          "indexed": true,
          "internalType": "uint256",
          "name": "tokenId",
          "type": "uint256"
        },
        {
          "indexed": false,
          "internalType": "uint256",
          "name": "price",
          "type": "uint256"
        },
        {
          "indexed": false,
          "internalType": "uint256",
          "name": "timeToEnd",
          "type": "uint256"
        },
        {
          "indexed": true,
          "internalType": "address",
          "name": "seller",
          "type": "address"
        }
      ],
      "name": "AuctionStarted",
      "type": "event"
    },
    {
      "anonymous": false,
      "inputs": [
        {
          "indexed": false,
          "internalType": "uint256",
          "name": "itemId",
          "type": "uint256"
        },
        {
          "indexed": false,
          "internalType": "address",
          "name": "nft",
          "type": "address"
        },
        {
          "indexed": true,
          "internalType": "uint256",
          "name": "tokenId",
          "type": "uint256"
        },
        {
          "indexed": false,
          "internalType": "uint256",
          "name": "price",
          "type": "uint256"
        },
        {
          "indexed": true,
          "internalType": "address",
          "name": "seller",
          "type": "address"
        },
        {
          "indexed": true,
          "internalType": "address",
          "name": "buyer",
          "type": "address"
        }
      ],
      "name": "Bought",
      "type": "event"
    },
    {
      "anonymous": false,
      "inputs": [
        {
          "indexed": false,
          "internalType": "uint256",
          "name": "itemId",
          "type": "uint256"
        }
      ],
      "name": "OfferCanceled",
      "type": "event"
    },
    {
      "anonymous": false,
      "inputs": [
        {
          "indexed": false,
          "internalType": "uint256",
          "name": "itemId",
          "type": "uint256"
        },
        {
          "indexed": false,
          "internalType": "address",
          "name": "nft",
          "type": "address"
        },
        {
          "indexed": true,
          "internalType": "uint256",
          "name": "tokenId",
          "type": "uint256"
        },
        {
          "indexed": false,
          "internalType": "uint256",
          "name": "price",
          "type": "uint256"
        },
        {
          "indexed": true,
          "internalType": "address",
          "name": "seller",
          "type": "address"
        }
      ],
      "name": "Offered",
      "type": "event"
    },
    {
      "stateMutability": "nonpayable",
      "type": "fallback"
    },
    {
      "inputs": [
        {
          "internalType": "contract IERC20Permit",
          "name": "erc20",
          "type": "address"
        },
        {
          "internalType": "contract IERC721",
          "name": "nft",
          "type": "address"
        },
        {
          "internalType": "uint256",
          "name": "_tokenId",
          "type": "uint256"
        },
        {
          "internalType": "uint256",
          "name": "_itemId",
          "type": "uint256"
        },
        {
          "internalType": "bool",
          "name": "isOnSale",
          "type": "bool"
        },
        {
          "internalType": "uint256",
          "name": "deadline",
          "type": "uint256"
        },
        {
          "internalType": "address",
          "name": "offerer",
          "type": "address"
        },
        {
          "internalType": "uint256",
          "name": "amount",
          "type": "uint256"
        },
        {
          "internalType": "uint8",
          "name": "_v",
          "type": "uint8"
        },
        {
          "internalType": "bytes32",
          "name": "_r",
          "type": "bytes32"
        },
        {
          "internalType": "bytes32",
          "name": "_s",
          "type": "bytes32"
        }
      ],
      "name": "acceptERCOffer",
      "outputs": [],
      "stateMutability": "nonpayable",
      "type": "function"
    },
    {
      "inputs": [],
      "name": "auctionItemCount",
      "outputs": [
        {
          "internalType": "uint256",
          "name": "",
          "type": "uint256"
        }
      ],
      "stateMutability": "view",
      "type": "function"
    },
    {
      "inputs": [
        {
          "internalType": "uint256",
          "name": "",
          "type": "uint256"
        }
      ],
      "name": "auctionItems",
      "outputs": [
        {
          "internalType": "uint256",
          "name": "auctionId",
          "type": "uint256"
        },
        {
          "internalType": "contract IERC721",
          "name": "nft",
          "type": "address"
        },
        {
          "internalType": "uint256",
          "name": "tokenId",
          "type": "uint256"
        },
        {
          "internalType": "uint256",
          "name": "price",
          "type": "uint256"
        },
        {
          "internalType": "uint256",
          "name": "timeToEnd",
          "type": "uint256"
        },
        {
          "internalType": "address payable",
          "name": "seller",
          "type": "address"
        },
        {
          "internalType": "bool",
          "name": "claimed",
          "type": "bool"
        },
        {
          "internalType": "bool",
          "name": "canceled",
          "type": "bool"
        }
      ],
      "stateMutability": "view",
      "type": "function"
    },
    {
      "inputs": [
        {
          "internalType": "uint256",
          "name": "_auctionId",
          "type": "uint256"
        }
      ],
      "name": "cancelAuction",
      "outputs": [],
      "stateMutability": "nonpayable",
      "type": "function"
    },
    {
      "inputs": [
        {
          "internalType": "uint256",
          "name": "_itemId",
          "type": "uint256"
        }
      ],
      "name": "cancelOffered",
      "outputs": [],
      "stateMutability": "nonpayable",
      "type": "function"
    },
    {
      "inputs": [
        {
          "internalType": "contract IERC20Permit",
          "name": "erc20",
          "type": "address"
        },
        {
          "internalType": "uint256",
          "name": "_tokenId",
          "type": "uint256"
        },
        {
          "internalType": "uint256",
          "name": "_auctionId",
          "type": "uint256"
        },
        {
          "internalType": "uint256",
          "name": "deadline",
          "type": "uint256"
        },
        {
          "internalType": "address",
          "name": "bidder",
          "type": "address"
        },
        {
          "internalType": "uint256",
          "name": "amount",
          "type": "uint256"
        },
        {
          "internalType": "uint8",
          "name": "_v",
          "type": "uint8"
        },
        {
          "internalType": "bytes32",
          "name": "_r",
          "type": "bytes32"
        },
        {
          "internalType": "bytes32",
          "name": "_s",
          "type": "bytes32"
        }
      ],
      "name": "claimNFT",
      "outputs": [],
      "stateMutability": "nonpayable",
      "type": "function"
    },
    {
      "inputs": [],
      "name": "feeAccount",
      "outputs": [
        {
          "internalType": "address payable",
          "name": "",
          "type": "address"
        }
      ],
      "stateMutability": "view",
      "type": "function"
    },
    {
      "inputs": [],
      "name": "feePercent",
      "outputs": [
        {
          "internalType": "uint256",
          "name": "",
          "type": "uint256"
        }
      ],
      "stateMutability": "view",
      "type": "function"
    },
    {
      "inputs": [
        {
          "internalType": "uint256",
          "name": "_itemId",
          "type": "uint256"
        }
      ],
      "name": "getTotalPrice",
      "outputs": [
        {
          "internalType": "uint256",
          "name": "",
          "type": "uint256"
        }
      ],
      "stateMutability": "view",
      "type": "function"
    },
    {
      "inputs": [],
      "name": "itemCount",
      "outputs": [
        {
          "internalType": "uint256",
          "name": "",
          "type": "uint256"
        }
      ],
      "stateMutability": "view",
      "type": "function"
    },
    {
      "inputs": [
        {
          "internalType": "uint256",
          "name": "",
          "type": "uint256"
        }
      ],
      "name": "items",
      "outputs": [
        {
          "internalType": "uint256",
          "name": "itemId",
          "type": "uint256"
        },
        {
          "internalType": "contract IERC721",
          "name": "nft",
          "type": "address"
        },
        {
          "internalType": "uint256",
          "name": "tokenId",
          "type": "uint256"
        },
        {
          "internalType": "uint256",
          "name": "price",
          "type": "uint256"
        },
        {
          "internalType": "address payable",
          "name": "seller",
          "type": "address"
        },
        {
          "internalType": "bool",
          "name": "sold",
          "type": "bool"
        },
        {
          "internalType": "bool",
          "name": "canceled",
          "type": "bool"
        }
      ],
      "stateMutability": "view",
      "type": "function"
    },
    {
      "inputs": [
        {
          "internalType": "contract IERC721",
          "name": "_nft",
          "type": "address"
        },
        {
          "internalType": "uint256",
          "name": "_tokenId",
          "type": "uint256"
        },
        {
          "internalType": "uint256",
          "name": "_price",
          "type": "uint256"
        }
      ],
      "name": "makeItem",
      "outputs": [],
      "stateMutability": "nonpayable",
      "type": "function"
    },
    {
      "inputs": [
        {
          "internalType": "uint256",
          "name": "_itemId",
          "type": "uint256"
        }
      ],
      "name": "purchaseItem",
      "outputs": [],
      "stateMutability": "payable",
      "type": "function"
    },
    {
      "inputs": [
        {
          "internalType": "uint256[]",
          "name": "_itemIds",
          "type": "uint256[]"
        }
      ],
      "name": "purchaseItem_multiple",
      "outputs": [],
      "stateMutability": "payable",
      "type": "function"
    },
    {
      "inputs": [
        {
          "internalType": "contract IERC721",
          "name": "_nft",
          "type": "address"
        },
        {
          "internalType": "uint256",
          "name": "_tokenId",
          "type": "uint256"
        },
        {
          "internalType": "uint256",
          "name": "_price",
          "type": "uint256"
        },
        {
          "internalType": "uint256",
          "name": "_timeToEnd",
          "type": "uint256"
        }
      ],
      "name": "startAuction",
      "outputs": [],
      "stateMutability": "nonpayable",
      "type": "function"
    }
  ],
  "bytecode": "0x60c06040523480156200001157600080fd5b50604051620036973803806200369783398181016040528101906200003791906200009c565b60016000819055503373ffffffffffffffffffffffffffffffffffffffff1660808173ffffffffffffffffffffffffffffffffffffffff1660601b815250508060a0818152505050620000ec565b6000815190506200009681620000d2565b92915050565b600060208284031215620000af57600080fd5b6000620000bf8482850162000085565b91505092915050565b6000819050919050565b620000dd81620000c8565b8114620000e957600080fd5b50565b60805160601c60a0516135666200013160003960008181610ab0015281816117f5015261205001526000818161039c01528181610da00152611af901526135666000f3fe6080604052600436106100ec5760003560e01c80639c1662731161008a578063d2c069f011610059578063d2c069f0146102e6578063d38ea5bf1461032a578063fa00afc714610346578063fe6d7a6e1461036f576100ed565b80639c16627314610214578063bcd10f9a1461023d578063bfb231d214610266578063ca7dd375146102a9576100ed565b80637ee53f0f116100c65780637ee53f0f1461017b5780637fd6f15c146101a457806392dab811146101cf57806396b5a755146101eb576100ed565b806365e17c9d146100fc57806369244fe0146101275780636bfb0d0114610150576100ed565b5b3480156100f957600080fd5b50005b34801561010857600080fd5b5061011161039a565b60405161011e919061283f565b60405180910390f35b34801561013357600080fd5b5061014e60048036038101906101499190612242565b6103be565b005b34801561015c57600080fd5b5061016561086b565b6040516101729190612bb7565b60405180910390f35b34801561018757600080fd5b506101a2600480360381019061019d91906124aa565b610871565b005b3480156101b057600080fd5b506101b9610aae565b6040516101c69190612bb7565b60405180910390f35b6101e960048036038101906101e491906121d4565b610ad2565b005b3480156101f757600080fd5b50610212600480360381019061020d91906124aa565b610e7d565b005b34801561022057600080fd5b5061023b60048036038101906102369190612447565b611100565b005b34801561024957600080fd5b50610264600480360381019061025f9190612332565b6113b3565b005b34801561027257600080fd5b5061028d600480360381019061028891906124aa565b611753565b6040516102a09796959493929190612c4e565b60405180910390f35b3480156102b557600080fd5b506102d060048036038101906102cb91906124aa565b6117ef565b6040516102dd9190612bb7565b60405180910390f35b3480156102f257600080fd5b5061030d600480360381019061030891906124aa565b611852565b604051610321989796959493929190612cbd565b60405180910390f35b610344600480360381019061033f91906124aa565b6118f4565b005b34801561035257600080fd5b5061036d600480360381019061036891906123f8565b611d4d565b005b34801561037b57600080fd5b50610384611fec565b6040516103919190612bb7565b60405180910390f35b7f000000000000000000000000000000000000000000000000000000000000000081565b6103c6611ff2565b854210610408576040517f08c379a00000000000000000000000000000000000000000000000000000000081526004016103ff90612a97565b60405180910390fd5b8973ffffffffffffffffffffffffffffffffffffffff16636352211e8a6040518263ffffffff1660e01b81526004016104419190612bb7565b60206040518083038186803b15801561045957600080fd5b505afa15801561046d573d6000803e3d6000fd5b505050506040513d601f19601f8201168201806040525081019061049191906121ab565b73ffffffffffffffffffffffffffffffffffffffff163073ffffffffffffffffffffffffffffffffffffffff16146104fe576040517f08c379a00000000000000000000000000000000000000000000000000000000081526004016104f590612a57565b60405180910390fd5b8a73ffffffffffffffffffffffffffffffffffffffff1663d505accf8630878a8888886040518863ffffffff1660e01b815260040161054397969594939291906128c8565b600060405180830381600087803b15801561055d57600080fd5b505af1158015610571573d6000803e3d6000fd5b505050508a73ffffffffffffffffffffffffffffffffffffffff166323b872dd8633876040518463ffffffff1660e01b81526004016105b293929190612891565b602060405180830381600087803b1580156105cc57600080fd5b505af11580156105e0573d6000803e3d6000fd5b505050506040513d601f19601f820116820180604052508101906106049190612219565b508973ffffffffffffffffffffffffffffffffffffffff166323b872dd30878c6040518463ffffffff1660e01b815260040161064293929190612891565b600060405180830381600087803b15801561065c57600080fd5b505af1158015610670573d6000803e3d6000fd5b50505050861561076a576000600360008a8152602001908152602001600020905060018160040160146101000a81548160ff0219169083151502179055508573ffffffffffffffffffffffffffffffffffffffff168160040160009054906101000a900473ffffffffffffffffffffffffffffffffffffffff1673ffffffffffffffffffffffffffffffffffffffff1682600201547f8b4c9c8a607d67b321582dd8461041b1dc2ceeca70c8b7f37f8e02095cf2e76d8c8560010160009054906101000a900473ffffffffffffffffffffffffffffffffffffffff168a60405161075c93929190612bd2565b60405180910390a450610856565b6000600460008a8152602001908152602001600020905060018160050160146101000a81548160ff0219169083151502179055508573ffffffffffffffffffffffffffffffffffffffff168160050160009054906101000a900473ffffffffffffffffffffffffffffffffffffffff1673ffffffffffffffffffffffffffffffffffffffff1682600201547fe9c76f3cd26822fab39fde36b56736739a684a806c8c0cf5eacd75511797ca7b8c8560010160009054906101000a900473ffffffffffffffffffffffffffffffffffffffff168a60405161084c93929190612bd2565b60405180910390a4505b61085e612042565b5050505050505050505050565b60015481565b610879611ff2565b600081116108bc576040517f08c379a00000000000000000000000000000000000000000000000000000000081526004016108b390612a17565b60405180910390fd5b60006003600083815260200190815260200160002090503373ffffffffffffffffffffffffffffffffffffffff168160040160009054906101000a900473ffffffffffffffffffffffffffffffffffffffff1673ffffffffffffffffffffffffffffffffffffffff1614610965576040517f08c379a000000000000000000000000000000000000000000000000000000000815260040161095c90612b17565b60405180910390fd5b8060040160149054906101000a900460ff16156109b7576040517f08c379a00000000000000000000000000000000000000000000000000000000081526004016109ae90612af7565b60405180910390fd5b60018160040160156101000a81548160ff0219169083151502179055508060010160009054906101000a900473ffffffffffffffffffffffffffffffffffffffff1673ffffffffffffffffffffffffffffffffffffffff166342842e0e303384600201546040518463ffffffff1660e01b8152600401610a3993929190612891565b600060405180830381600087803b158015610a5357600080fd5b505af1158015610a67573d6000803e3d6000fd5b505050507f0ff09947dd7d2583091e8cbfb427fecacb697bf895187b243fd0072c0ee9b95182604051610a9a9190612bb7565b60405180910390a150610aab612042565b50565b7f000000000000000000000000000000000000000000000000000000000000000081565b610ada611ff2565b60005b82829050811015610d9b576000838383818110610b23577f4e487b7100000000000000000000000000000000000000000000000000000000600052603260045260246000fd5b905060200201359050600060036000838152602001908152602001600020905060008160040160009054906101000a900473ffffffffffffffffffffffffffffffffffffffff1673ffffffffffffffffffffffffffffffffffffffff168260030154604051610b919061282a565b60006040518083038185875af1925050503d8060008114610bce576040519150601f19603f3d011682016040523d82523d6000602084013e610bd3565b606091505b5050905080610c17576040517f08c379a0000000000000000000000000000000000000000000000000000000008152600401610c0e90612ad7565b60405180910390fd5b60018260040160146101000a81548160ff0219169083151502179055508160010160009054906101000a900473ffffffffffffffffffffffffffffffffffffffff1673ffffffffffffffffffffffffffffffffffffffff166342842e0e303385600201546040518463ffffffff1660e01b8152600401610c9993929190612891565b600060405180830381600087803b158015610cb357600080fd5b505af1158015610cc7573d6000803e3d6000fd5b505050503373ffffffffffffffffffffffffffffffffffffffff168260040160009054906101000a900473ffffffffffffffffffffffffffffffffffffffff1673ffffffffffffffffffffffffffffffffffffffff1683600201547f8b4c9c8a607d67b321582dd8461041b1dc2ceeca70c8b7f37f8e02095cf2e76d868660010160009054906101000a900473ffffffffffffffffffffffffffffffffffffffff168760030154604051610d7d93929190612bd2565b60405180910390a45050508080610d9390612f5b565b915050610add565b5060007f000000000000000000000000000000000000000000000000000000000000000073ffffffffffffffffffffffffffffffffffffffff16610dde3461204c565b604051610dea9061282a565b60006040518083038185875af1925050503d8060008114610e27576040519150601f19603f3d011682016040523d82523d6000602084013e610e2c565b606091505b5050905080610e70576040517f08c379a0000000000000000000000000000000000000000000000000000000008152600401610e6790612b37565b60405180910390fd5b50610e79612042565b5050565b610e85611ff2565b60008111610ec8576040517f08c379a0000000000000000000000000000000000000000000000000000000008152600401610ebf906129d7565b60405180910390fd5b60006004600083815260200190815260200160002090503373ffffffffffffffffffffffffffffffffffffffff168160050160009054906101000a900473ffffffffffffffffffffffffffffffffffffffff1673ffffffffffffffffffffffffffffffffffffffff1614610f71576040517f08c379a0000000000000000000000000000000000000000000000000000000008152600401610f6890612b97565b60405180910390fd5b8060050160149054906101000a900460ff1615610fc3576040517f08c379a0000000000000000000000000000000000000000000000000000000008152600401610fba906129b7565b60405180910390fd5b80600401544210611009576040517f08c379a000000000000000000000000000000000000000000000000000000000815260040161100090612937565b60405180910390fd5b60018160050160156101000a81548160ff0219169083151502179055508060010160009054906101000a900473ffffffffffffffffffffffffffffffffffffffff1673ffffffffffffffffffffffffffffffffffffffff166323b872dd303384600201546040518463ffffffff1660e01b815260040161108b93929190612891565b600060405180830381600087803b1580156110a557600080fd5b505af11580156110b9573d6000803e3d6000fd5b505050507f28601d865dccc9f113e15a7185c1b38c085d598c71250d3337916a428536d771826040516110ec9190612bb7565b60405180910390a1506110fd612042565b50565b611108611ff2565b6000821161114b576040517f08c379a000000000000000000000000000000000000000000000000000000000815260040161114290612ab7565b60405180910390fd5b6002600081548092919061115e90612f5b565b91905055508373ffffffffffffffffffffffffffffffffffffffff166323b872dd3330866040518463ffffffff1660e01b81526004016111a093929190612891565b600060405180830381600087803b1580156111ba57600080fd5b505af11580156111ce573d6000803e3d6000fd5b5050505060405180610100016040528060025481526020018573ffffffffffffffffffffffffffffffffffffffff1681526020018481526020018381526020018281526020013373ffffffffffffffffffffffffffffffffffffffff168152602001600015158152602001600015158152506004600060025481526020019081526020016000206000820151816000015560208201518160010160006101000a81548173ffffffffffffffffffffffffffffffffffffffff021916908373ffffffffffffffffffffffffffffffffffffffff16021790555060408201518160020155606082015181600301556080820151816004015560a08201518160050160006101000a81548173ffffffffffffffffffffffffffffffffffffffff021916908373ffffffffffffffffffffffffffffffffffffffff16021790555060c08201518160050160146101000a81548160ff02191690831515021790555060e08201518160050160156101000a81548160ff0219169083151502179055509050503373ffffffffffffffffffffffffffffffffffffffff16837fd184fdb1358a28e5370b7ea6f753efc3313b7fd11d6750f270cf79f109a63f1760025487868660405161139d9493929190612c09565b60405180910390a36113ad612042565b50505050565b6113bb611ff2565b600087116113fe576040517f08c379a00000000000000000000000000000000000000000000000000000000081526004016113f590612a77565b60405180910390fd5b6000600460008981526020019081526020016000209050806004015442101561145c576040517f08c379a000000000000000000000000000000000000000000000000000000000815260040161145390612a37565b60405180910390fd5b8060050160149054906101000a900460ff16156114ae576040517f08c379a00000000000000000000000000000000000000000000000000000000081526004016114a590612977565b60405180910390fd5b8973ffffffffffffffffffffffffffffffffffffffff1663d505accf8730888b8989896040518863ffffffff1660e01b81526004016114f397969594939291906128c8565b600060405180830381600087803b15801561150d57600080fd5b505af1158015611521573d6000803e3d6000fd5b505050508973ffffffffffffffffffffffffffffffffffffffff166323b872dd878360050160009054906101000a900473ffffffffffffffffffffffffffffffffffffffff16886040518463ffffffff1660e01b81526004016115869392919061285a565b602060405180830381600087803b1580156115a057600080fd5b505af11580156115b4573d6000803e3d6000fd5b505050506040513d601f19601f820116820180604052508101906115d89190612219565b508060010160009054906101000a900473ffffffffffffffffffffffffffffffffffffffff1673ffffffffffffffffffffffffffffffffffffffff166323b872dd30888c6040518463ffffffff1660e01b815260040161163a93929190612891565b600060405180830381600087803b15801561165457600080fd5b505af1158015611668573d6000803e3d6000fd5b5050505060018160050160146101000a81548160ff0219169083151502179055508573ffffffffffffffffffffffffffffffffffffffff168160050160009054906101000a900473ffffffffffffffffffffffffffffffffffffffff1673ffffffffffffffffffffffffffffffffffffffff1682600201547fe9c76f3cd26822fab39fde36b56736739a684a806c8c0cf5eacd75511797ca7b8b8560010160009054906101000a900473ffffffffffffffffffffffffffffffffffffffff168a60405161173793929190612bd2565b60405180910390a450611748612042565b505050505050505050565b60036020528060005260406000206000915090508060000154908060010160009054906101000a900473ffffffffffffffffffffffffffffffffffffffff16908060020154908060030154908060040160009054906101000a900473ffffffffffffffffffffffffffffffffffffffff16908060040160149054906101000a900460ff16908060040160159054906101000a900460ff16905087565b600060647f000000000000000000000000000000000000000000000000000000000000000060646118209190612d57565b60036000858152602001908152602001600020600301546118419190612dde565b61184b9190612dad565b9050919050565b60046020528060005260406000206000915090508060000154908060010160009054906101000a900473ffffffffffffffffffffffffffffffffffffffff16908060020154908060030154908060040154908060050160009054906101000a900473ffffffffffffffffffffffffffffffffffffffff16908060050160149054906101000a900460ff16908060050160159054906101000a900460ff16905088565b6118fc611ff2565b6000611907826117ef565b9050600060036000848152602001908152602001600020905060008311801561193257506001548311155b611971576040517f08c379a0000000000000000000000000000000000000000000000000000000008152600401611968906129f7565b60405180910390fd5b813410156119b4576040517f08c379a00000000000000000000000000000000000000000000000000000000081526004016119ab90612997565b60405180910390fd5b8060040160149054906101000a900460ff161580156119e257508060040160159054906101000a900460ff16155b611a21576040517f08c379a0000000000000000000000000000000000000000000000000000000008152600401611a1890612b77565b60405180910390fd5b60008160040160009054906101000a900473ffffffffffffffffffffffffffffffffffffffff1673ffffffffffffffffffffffffffffffffffffffff168260030154604051611a6f9061282a565b60006040518083038185875af1925050503d8060008114611aac576040519150601f19603f3d011682016040523d82523d6000602084013e611ab1565b606091505b5050905080611af5576040517f08c379a0000000000000000000000000000000000000000000000000000000008152600401611aec90612ad7565b60405180910390fd5b60007f000000000000000000000000000000000000000000000000000000000000000073ffffffffffffffffffffffffffffffffffffffff16836003015485611b3e9190612e38565b604051611b4a9061282a565b60006040518083038185875af1925050503d8060008114611b87576040519150601f19603f3d011682016040523d82523d6000602084013e611b8c565b606091505b5050905080611bd0576040517f08c379a0000000000000000000000000000000000000000000000000000000008152600401611bc790612b37565b60405180910390fd5b60018360040160146101000a81548160ff0219169083151502179055508260010160009054906101000a900473ffffffffffffffffffffffffffffffffffffffff1673ffffffffffffffffffffffffffffffffffffffff166342842e0e303386600201546040518463ffffffff1660e01b8152600401611c5293929190612891565b600060405180830381600087803b158015611c6c57600080fd5b505af1158015611c80573d6000803e3d6000fd5b505050503373ffffffffffffffffffffffffffffffffffffffff168360040160009054906101000a900473ffffffffffffffffffffffffffffffffffffffff1673ffffffffffffffffffffffffffffffffffffffff1684600201547f8b4c9c8a607d67b321582dd8461041b1dc2ceeca70c8b7f37f8e02095cf2e76d888760010160009054906101000a900473ffffffffffffffffffffffffffffffffffffffff168860030154604051611d3693929190612bd2565b60405180910390a450505050611d4a612042565b50565b611d55611ff2565b60008111611d98576040517f08c379a0000000000000000000000000000000000000000000000000000000008152600401611d8f90612957565b60405180910390fd5b60016000815480929190611dab90612f5b565b91905055508273ffffffffffffffffffffffffffffffffffffffff166323b872dd3330856040518463ffffffff1660e01b8152600401611ded93929190612891565b600060405180830381600087803b158015611e0757600080fd5b505af1158015611e1b573d6000803e3d6000fd5b505050506040518060e0016040528060015481526020018473ffffffffffffffffffffffffffffffffffffffff1681526020018381526020018281526020013373ffffffffffffffffffffffffffffffffffffffff168152602001600015158152602001600015158152506003600060015481526020019081526020016000206000820151816000015560208201518160010160006101000a81548173ffffffffffffffffffffffffffffffffffffffff021916908373ffffffffffffffffffffffffffffffffffffffff160217905550604082015181600201556060820151816003015560808201518160040160006101000a81548173ffffffffffffffffffffffffffffffffffffffff021916908373ffffffffffffffffffffffffffffffffffffffff16021790555060a08201518160040160146101000a81548160ff02191690831515021790555060c08201518160040160156101000a81548160ff0219169083151502179055509050503373ffffffffffffffffffffffffffffffffffffffff16827f655a0cf9c8db81512be9a76dc1c5ae5380b8816ce6ad659cd61b715e2999d59a6001548685604051611fd793929190612bd2565b60405180910390a3611fe7612042565b505050565b60025481565b60026000541415612038576040517f08c379a000000000000000000000000000000000000000000000000000000000815260040161202f90612b57565b60405180910390fd5b6002600081905550565b6001600081905550565b60007f0000000000000000000000000000000000000000000000000000000000000000606461207b9190612d57565b6064836120889190612dde565b6120929190612dad565b8261209d9190612e38565b9050919050565b6000813590506120b38161348f565b92915050565b6000815190506120c88161348f565b92915050565b60008083601f8401126120e057600080fd5b8235905067ffffffffffffffff8111156120f957600080fd5b60208301915083602082028301111561211157600080fd5b9250929050565b600081359050612127816134a6565b92915050565b60008151905061213c816134a6565b92915050565b600081359050612151816134bd565b92915050565b600081359050612166816134d4565b92915050565b60008135905061217b816134eb565b92915050565b60008135905061219081613502565b92915050565b6000813590506121a581613519565b92915050565b6000602082840312156121bd57600080fd5b60006121cb848285016120b9565b91505092915050565b600080602083850312156121e757600080fd5b600083013567ffffffffffffffff81111561220157600080fd5b61220d858286016120ce565b92509250509250929050565b60006020828403121561222b57600080fd5b60006122398482850161212d565b91505092915050565b60008060008060008060008060008060006101608c8e03121561226457600080fd5b60006122728e828f01612157565b9b505060206122838e828f0161216c565b9a505060406122948e828f01612181565b99505060606122a58e828f01612181565b98505060806122b68e828f01612118565b97505060a06122c78e828f01612181565b96505060c06122d88e828f016120a4565b95505060e06122e98e828f01612181565b9450506101006122fb8e828f01612196565b93505061012061230d8e828f01612142565b92505061014061231f8e828f01612142565b9150509295989b509295989b9093969950565b60008060008060008060008060006101208a8c03121561235157600080fd5b600061235f8c828d01612157565b99505060206123708c828d01612181565b98505060406123818c828d01612181565b97505060606123928c828d01612181565b96505060806123a38c828d016120a4565b95505060a06123b48c828d01612181565b94505060c06123c58c828d01612196565b93505060e06123d68c828d01612142565b9250506101006123e88c828d01612142565b9150509295985092959850929598565b60008060006060848603121561240d57600080fd5b600061241b8682870161216c565b935050602061242c86828701612181565b925050604061243d86828701612181565b9150509250925092565b6000806000806080858703121561245d57600080fd5b600061246b8782880161216c565b945050602061247c87828801612181565b935050604061248d87828801612181565b925050606061249e87828801612181565b91505092959194509250565b6000602082840312156124bc57600080fd5b60006124ca84828501612181565b91505092915050565b6124dc81612f01565b82525050565b6124eb81612e7e565b82525050565b6124fa81612e6c565b82525050565b61250981612e90565b82525050565b61251881612e9c565b82525050565b61252781612f13565b82525050565b600061253a601c83612d46565b915061254582613002565b602082019050919050565b600061255d601f83612d46565b91506125688261302b565b602082019050919050565b6000612580601783612d46565b915061258b82613054565b602082019050919050565b60006125a3603383612d46565b91506125ae8261307d565b604082019050919050565b60006125c6601b83612d46565b91506125d1826130cc565b602082019050919050565b60006125e9602683612d46565b91506125f4826130f5565b604082019050919050565b600061260c601283612d46565b915061261782613144565b602082019050919050565b600061262f602383612d46565b915061263a8261316d565b604082019050919050565b6000612652601983612d46565b915061265d826131bc565b602082019050919050565b6000612675602683612d46565b9150612680826131e5565b604082019050919050565b6000612698602583612d46565b91506126a382613234565b604082019050919050565b60006126bb601a83612d46565b91506126c682613283565b602082019050919050565b60006126de602183612d46565b91506126e9826132ac565b604082019050919050565b6000612701601e83612d46565b915061270c826132fb565b602082019050919050565b6000612724601583612d46565b915061272f82613324565b602082019050919050565b6000612747600083612d3b565b91506127528261334d565b600082019050919050565b600061276a602183612d46565b915061277582613350565b604082019050919050565b600061278d602283612d46565b91506127988261339f565b604082019050919050565b60006127b0601f83612d46565b91506127bb826133ee565b602082019050919050565b60006127d3601d83612d46565b91506127de82613417565b602082019050919050565b60006127f6602483612d46565b915061280182613440565b604082019050919050565b61281581612eea565b82525050565b61282481612ef4565b82525050565b60006128358261273a565b9150819050919050565b600060208201905061285460008301846124e2565b92915050565b600060608201905061286f60008301866124f1565b61287c60208301856124d3565b612889604083018461280c565b949350505050565b60006060820190506128a660008301866124f1565b6128b360208301856124f1565b6128c0604083018461280c565b949350505050565b600060e0820190506128dd600083018a6124f1565b6128ea60208301896124f1565b6128f7604083018861280c565b612904606083018761280c565b612911608083018661281b565b61291e60a083018561250f565b61292b60c083018461250f565b98975050505050505050565b600060208201905081810360008301526129508161252d565b9050919050565b6000602082019050818103600083015261297081612550565b9050919050565b6000602082019050818103600083015261299081612573565b9050919050565b600060208201905081810360008301526129b081612596565b9050919050565b600060208201905081810360008301526129d0816125b9565b9050919050565b600060208201905081810360008301526129f0816125dc565b9050919050565b60006020820190508181036000830152612a10816125ff565b9050919050565b60006020820190508181036000830152612a3081612622565b9050919050565b60006020820190508181036000830152612a5081612645565b9050919050565b60006020820190508181036000830152612a7081612668565b9050919050565b60006020820190508181036000830152612a908161268b565b9050919050565b60006020820190508181036000830152612ab0816126ae565b9050919050565b60006020820190508181036000830152612ad0816126d1565b9050919050565b60006020820190508181036000830152612af0816126f4565b9050919050565b60006020820190508181036000830152612b1081612717565b9050919050565b60006020820190508181036000830152612b308161275d565b9050919050565b60006020820190508181036000830152612b5081612780565b9050919050565b60006020820190508181036000830152612b70816127a3565b9050919050565b60006020820190508181036000830152612b90816127c6565b9050919050565b60006020820190508181036000830152612bb0816127e9565b9050919050565b6000602082019050612bcc600083018461280c565b92915050565b6000606082019050612be7600083018661280c565b612bf460208301856124f1565b612c01604083018461280c565b949350505050565b6000608082019050612c1e600083018761280c565b612c2b60208301866124f1565b612c38604083018561280c565b612c45606083018461280c565b95945050505050565b600060e082019050612c63600083018a61280c565b612c70602083018961251e565b612c7d604083018861280c565b612c8a606083018761280c565b612c9760808301866124e2565b612ca460a0830185612500565b612cb160c0830184612500565b98975050505050505050565b600061010082019050612cd3600083018b61280c565b612ce0602083018a61251e565b612ced604083018961280c565b612cfa606083018861280c565b612d07608083018761280c565b612d1460a08301866124e2565b612d2160c0830185612500565b612d2e60e0830184612500565b9998505050505050505050565b600081905092915050565b600082825260208201905092915050565b6000612d6282612eea565b9150612d6d83612eea565b9250827fffffffffffffffffffffffffffffffffffffffffffffffffffffffffffffffff03821115612da257612da1612fa4565b5b828201905092915050565b6000612db882612eea565b9150612dc383612eea565b925082612dd357612dd2612fd3565b5b828204905092915050565b6000612de982612eea565b9150612df483612eea565b9250817fffffffffffffffffffffffffffffffffffffffffffffffffffffffffffffffff0483118215151615612e2d57612e2c612fa4565b5b828202905092915050565b6000612e4382612eea565b9150612e4e83612eea565b925082821015612e6157612e60612fa4565b5b828203905092915050565b6000612e7782612eca565b9050919050565b6000612e8982612eca565b9050919050565b60008115159050919050565b6000819050919050565b6000612eb182612e6c565b9050919050565b6000612ec382612e6c565b9050919050565b600073ffffffffffffffffffffffffffffffffffffffff82169050919050565b6000819050919050565b600060ff82169050919050565b6000612f0c82612f37565b9050919050565b6000612f1e82612f25565b9050919050565b6000612f3082612eca565b9050919050565b6000612f4282612f49565b9050919050565b6000612f5482612eca565b9050919050565b6000612f6682612eea565b91507fffffffffffffffffffffffffffffffffffffffffffffffffffffffffffffffff821415612f9957612f98612fa4565b5b600182019050919050565b7f4e487b7100000000000000000000000000000000000000000000000000000000600052601160045260246000fd5b7f4e487b7100000000000000000000000000000000000000000000000000000000600052601260045260246000fd5b7f41756374696f6e2073686f756c64206e6f7420626520656e6465642e00000000600082015250565b7f5072696365206d7573742062652067726561746572207468616e207a65726f00600082015250565b7f4e465420697320616c726561647920636c61696d65642e000000000000000000600082015250565b7f6e6f7420656e6f75676820657468657220746f20636f766572206974656d207060008201527f7269636520616e64206d61726b65742066656500000000000000000000000000602082015250565b7f41756374696f6e20697320616c726561647920636c61696d65642e0000000000600082015250565b7f41756374696f6e2069642073686f756c6420626520626967676572207468616e60008201527f207a65726f2e0000000000000000000000000000000000000000000000000000602082015250565b7f6974656d20646f65736e27742065786973740000000000000000000000000000600082015250565b7f4974656d2069642073686f756c6420626520626967676572207468616e207a6560008201527f726f2e0000000000000000000000000000000000000000000000000000000000602082015250565b7f41756374696f6e2073686f756c6420656e642066697273742e00000000000000600082015250565b7f4f6e6c79206d61726b6574706c616365206974656d732063616e20626520616360008201527f6365707465640000000000000000000000000000000000000000000000000000602082015250565b7f41756374696f6e2069642073686f756c6420626520626967676572207468616e60008201527f207a65726f000000000000000000000000000000000000000000000000000000602082015250565b7f4f6666657220646561646c696e65206973206578636565646564000000000000600082015250565b7f70726963652073686f756c642062652067726561746572207468616e207a657260008201527f6f00000000000000000000000000000000000000000000000000000000000000602082015250565b7f6661696c656420746f2073656e6420457468657220746f2073656c6c65720000600082015250565b7f4974656d20697320616c726561647920736f6c642e0000000000000000000000600082015250565b50565b7f4f6e6c792073656c6c65722063616e2063616e63656c2074686973206974656d60008201527f2e00000000000000000000000000000000000000000000000000000000000000602082015250565b7f6661696c656420746f2073656e6420457468657220746f206665654163636f7560008201527f6e74000000000000000000000000000000000000000000000000000000000000602082015250565b7f5265656e7472616e637947756172643a207265656e7472616e742063616c6c00600082015250565b7f6974656d20616c726561647920736f6c64206f722063616e63656c6564000000600082015250565b7f4f6e6c792073656c6c65722063616e2063616e63656c2074686973206175637460008201527f696f6e2e00000000000000000000000000000000000000000000000000000000602082015250565b61349881612e6c565b81146134a357600080fd5b50565b6134af81612e90565b81146134ba57600080fd5b50565b6134c681612e9c565b81146134d157600080fd5b50565b6134dd81612ea6565b81146134e857600080fd5b50565b6134f481612eb8565b81146134ff57600080fd5b50565b61350b81612eea565b811461351657600080fd5b50565b61352281612ef4565b811461352d57600080fd5b5056fea26469706673582212207fa72aad473e0f49c7385ceda3c06fa0bf0525d8fcb91c8b2e9534a580a85ddd64736f6c63430008040033",
  "linkReferences": {},
  "deployedLinkReferences": {}
}