{
  "_format": "hh-sol-artifact-1",
  "contractName": "wETH",
  "sourceName": "libs/contracts/src/contracts/wETH.sol",
  "abi": [
    {
      "inputs": [],
      "stateMutability": "nonpayable",
      "type": "constructor"
    },
    {
      "anonymous": false,
      "inputs": [
        {
          "indexed": true,
          "internalType": "address",
          "name": "owner",
          "type": "address"
        },
        {
          "indexed": true,
          "internalType": "address",
          "name": "spender",
          "type": "address"
        },
        {
          "indexed": false,
          "internalType": "uint256",
          "name": "value",
          "type": "uint256"
        }
      ],
      "name": "Approval",
      "type": "event"
    },
    {
      "anonymous": false,
      "inputs": [
        {
          "indexed": true,
          "internalType": "address",
          "name": "from",
          "type": "address"
        },
        {
          "indexed": true,
          "internalType": "address",
          "name": "to",
          "type": "address"
        },
        {
          "indexed": false,
          "internalType": "uint256",
          "name": "value",
          "type": "uint256"
        }
      ],
      "name": "Transfer",
      "type": "event"
    },
    {
      "stateMutability": "payable",
      "type": "fallback"
    },
    {
      "inputs": [],
      "name": "DOMAIN_SEPARATOR",
      "outputs": [
        {
          "internalType": "bytes32",
          "name": "",
          "type": "bytes32"
        }
      ],
      "stateMutability": "view",
      "type": "function"
    },
    {
      "inputs": [
        {
          "internalType": "address",
          "name": "owner",
          "type": "address"
        },
        {
          "internalType": "address",
          "name": "spender",
          "type": "address"
        }
      ],
      "name": "allowance",
      "outputs": [
        {
          "internalType": "uint256",
          "name": "",
          "type": "uint256"
        }
      ],
      "stateMutability": "view",
      "type": "function"
    },
    {
      "inputs": [
        {
          "internalType": "address",
          "name": "spender",
          "type": "address"
        },
        {
          "internalType": "uint256",
          "name": "amount",
          "type": "uint256"
        }
      ],
      "name": "approve",
      "outputs": [
        {
          "internalType": "bool",
          "name": "",
          "type": "bool"
        }
      ],
      "stateMutability": "nonpayable",
      "type": "function"
    },
    {
      "inputs": [
        {
          "internalType": "address",
          "name": "account",
          "type": "address"
        }
      ],
      "name": "balanceOf",
      "outputs": [
        {
          "internalType": "uint256",
          "name": "",
          "type": "uint256"
        }
      ],
      "stateMutability": "view",
      "type": "function"
    },
    {
      "inputs": [],
      "name": "decimals",
      "outputs": [
        {
          "internalType": "uint8",
          "name": "",
          "type": "uint8"
        }
      ],
      "stateMutability": "view",
      "type": "function"
    },
    {
      "inputs": [
        {
          "internalType": "address",
          "name": "spender",
          "type": "address"
        },
        {
          "internalType": "uint256",
          "name": "subtractedValue",
          "type": "uint256"
        }
      ],
      "name": "decreaseAllowance",
      "outputs": [
        {
          "internalType": "bool",
          "name": "",
          "type": "bool"
        }
      ],
      "stateMutability": "nonpayable",
      "type": "function"
    },
    {
      "inputs": [
        {
          "internalType": "address",
          "name": "spender",
          "type": "address"
        },
        {
          "internalType": "uint256",
          "name": "addedValue",
          "type": "uint256"
        }
      ],
      "name": "increaseAllowance",
      "outputs": [
        {
          "internalType": "bool",
          "name": "",
          "type": "bool"
        }
      ],
      "stateMutability": "nonpayable",
      "type": "function"
    },
    {
      "inputs": [],
      "name": "name",
      "outputs": [
        {
          "internalType": "string",
          "name": "",
          "type": "string"
        }
      ],
      "stateMutability": "view",
      "type": "function"
    },
    {
      "inputs": [
        {
          "internalType": "address",
          "name": "owner",
          "type": "address"
        }
      ],
      "name": "nonces",
      "outputs": [
        {
          "internalType": "uint256",
          "name": "",
          "type": "uint256"
        }
      ],
      "stateMutability": "view",
      "type": "function"
    },
    {
      "inputs": [
        {
          "internalType": "address",
          "name": "owner",
          "type": "address"
        },
        {
          "internalType": "address",
          "name": "spender",
          "type": "address"
        },
        {
          "internalType": "uint256",
          "name": "value",
          "type": "uint256"
        },
        {
          "internalType": "uint256",
          "name": "deadline",
          "type": "uint256"
        },
        {
          "internalType": "uint8",
          "name": "v",
          "type": "uint8"
        },
        {
          "internalType": "bytes32",
          "name": "r",
          "type": "bytes32"
        },
        {
          "internalType": "bytes32",
          "name": "s",
          "type": "bytes32"
        }
      ],
      "name": "permit",
      "outputs": [],
      "stateMutability": "nonpayable",
      "type": "function"
    },
    {
      "inputs": [],
      "name": "symbol",
      "outputs": [
        {
          "internalType": "string",
          "name": "",
          "type": "string"
        }
      ],
      "stateMutability": "view",
      "type": "function"
    },
    {
      "inputs": [],
      "name": "totalSupply",
      "outputs": [
        {
          "internalType": "uint256",
          "name": "",
          "type": "uint256"
        }
      ],
      "stateMutability": "view",
      "type": "function"
    },
    {
      "inputs": [
        {
          "internalType": "address",
          "name": "to",
          "type": "address"
        },
        {
          "internalType": "uint256",
          "name": "amount",
          "type": "uint256"
        }
      ],
      "name": "transfer",
      "outputs": [
        {
          "internalType": "bool",
          "name": "",
          "type": "bool"
        }
      ],
      "stateMutability": "nonpayable",
      "type": "function"
    },
    {
      "inputs": [
        {
          "internalType": "address",
          "name": "from",
          "type": "address"
        },
        {
          "internalType": "address",
          "name": "to",
          "type": "address"
        },
        {
          "internalType": "uint256",
          "name": "amount",
          "type": "uint256"
        }
      ],
      "name": "transferFrom",
      "outputs": [
        {
          "internalType": "bool",
          "name": "",
          "type": "bool"
        }
      ],
      "stateMutability": "nonpayable",
      "type": "function"
    },
    {
      "inputs": [
        {
          "internalType": "uint256",
          "name": "amount",
          "type": "uint256"
        }
      ],
      "name": "unwrap",
      "outputs": [],
      "stateMutability": "nonpayable",
      "type": "function"
    },
    {
      "inputs": [],
      "name": "wrap",
      "outputs": [],
      "stateMutability": "payable",
      "type": "function"
    }
  ],
  "bytecode": "0x6101406040523480156200001257600080fd5b506040518060400160405280600481526020017f7745544800000000000000000000000000000000000000000000000000000000815250806040518060400160405280600181526020017f31000000000000000000000000000000000000000000000000000000000000008152506040518060400160405280600481526020017f77455448000000000000000000000000000000000000000000000000000000008152506040518060400160405280600481526020017f774554480000000000000000000000000000000000000000000000000000000081525081600390805190602001906200010492919062000218565b5080600490805190602001906200011d92919062000218565b50505060008280519060200120905060008280519060200120905060007f8b73c3c69bb8fe3d512ecc4cf759cc79239f7b179b0ffacaa9a75d522b39400f90508260e081815250508161010081815250504660a0818152505062000189818484620001dc60201b60201c565b608081815250503073ffffffffffffffffffffffffffffffffffffffff1660c08173ffffffffffffffffffffffffffffffffffffffff1660601b8152505080610120818152505050505050505062000405565b60008383834630604051602001620001f9959493929190620002fb565b6040516020818303038152906040528051906020012090509392505050565b8280546200022690620003a0565b90600052602060002090601f0160209004810192826200024a576000855562000296565b82601f106200026557805160ff191683800117855562000296565b8280016001018555821562000296579182015b828111156200029557825182559160200191906001019062000278565b5b509050620002a59190620002a9565b5090565b5b80821115620002c4576000816000905550600101620002aa565b5090565b620002d38162000358565b82525050565b620002e4816200036c565b82525050565b620002f58162000396565b82525050565b600060a082019050620003126000830188620002d9565b620003216020830187620002d9565b620003306040830186620002d9565b6200033f6060830185620002ea565b6200034e6080830184620002c8565b9695505050505050565b6000620003658262000376565b9050919050565b6000819050919050565b600073ffffffffffffffffffffffffffffffffffffffff82169050919050565b6000819050919050565b60006002820490506001821680620003b957607f821691505b60208210811415620003d057620003cf620003d6565b5b50919050565b7f4e487b7100000000000000000000000000000000000000000000000000000000600052602260045260246000fd5b60805160a05160c05160601c60e05161010051610120516126b66200045860003960006110b5015260006110f7015260006110d60152600061100b015260006110610152600061108a01526126b66000f3fe6080604052600436106100f75760003560e01c80637ecebe001161008a578063d46eb11911610059578063d46eb11914610386578063d505accf14610390578063dd62ed3e146103b9578063de0e9a3e146103f6576100f8565b80637ecebe00146102a457806395d89b41146102e1578063a457c2d71461030c578063a9059cbb14610349576100f8565b8063313ce567116100c6578063313ce567146101d45780633644e515146101ff578063395093511461022a57806370a0823114610267576100f8565b806306fdde0314610104578063095ea7b31461012f57806318160ddd1461016c57806323b872dd14610197576100f8565b5b610102333461041f565b005b34801561011057600080fd5b50610119610576565b6040516101269190611e03565b60405180910390f35b34801561013b57600080fd5b506101566004803603810190610151919061194a565b610608565b6040516101639190611cd4565b60405180910390f35b34801561017857600080fd5b5061018161062b565b60405161018e9190612025565b60405180910390f35b3480156101a357600080fd5b506101be60048036038101906101b9919061185d565b610635565b6040516101cb9190611cd4565b60405180910390f35b3480156101e057600080fd5b506101e9610664565b6040516101f69190612040565b60405180910390f35b34801561020b57600080fd5b5061021461066d565b6040516102219190611cef565b60405180910390f35b34801561023657600080fd5b50610251600480360381019061024c919061194a565b61067c565b60405161025e9190611cd4565b60405180910390f35b34801561027357600080fd5b5061028e600480360381019061028991906117f8565b6106b3565b60405161029b9190612025565b60405180910390f35b3480156102b057600080fd5b506102cb60048036038101906102c691906117f8565b6106fb565b6040516102d89190612025565b60405180910390f35b3480156102ed57600080fd5b506102f661074b565b6040516103039190611e03565b60405180910390f35b34801561031857600080fd5b50610333600480360381019061032e919061194a565b6107dd565b6040516103409190611cd4565b60405180910390f35b34801561035557600080fd5b50610370600480360381019061036b919061194a565b610854565b60405161037d9190611cd4565b60405180910390f35b61038e610877565b005b34801561039c57600080fd5b506103b760048036038101906103b291906118ac565b6108c6565b005b3480156103c557600080fd5b506103e060048036038101906103db9190611821565b610a08565b6040516103ed9190612025565b60405180910390f35b34801561040257600080fd5b5061041d60048036038101906104189190611986565b610a8f565b005b600073ffffffffffffffffffffffffffffffffffffffff168273ffffffffffffffffffffffffffffffffffffffff16141561048f576040517f08c379a000000000000000000000000000000000000000000000000000000000815260040161048690612005565b60405180910390fd5b61049b60008383610b26565b80600260008282546104ad9190612082565b92505081905550806000808473ffffffffffffffffffffffffffffffffffffffff1673ffffffffffffffffffffffffffffffffffffffff168152602001908152602001600020600082825401925050819055508173ffffffffffffffffffffffffffffffffffffffff16600073ffffffffffffffffffffffffffffffffffffffff167fddf252ad1be2c89b69c2b068fc378daa952ba7f163c4a11628f55a4df523b3ef8360405161055e9190612025565b60405180910390a361057260008383610b2b565b5050565b6060600380546105859061216a565b80601f01602080910402602001604051908101604052809291908181526020018280546105b19061216a565b80156105fe5780601f106105d3576101008083540402835291602001916105fe565b820191906000526020600020905b8154815290600101906020018083116105e157829003601f168201915b5050505050905090565b600080610613610b30565b9050610620818585610b38565b600191505092915050565b6000600254905090565b600080610640610b30565b905061064d858285610d03565b610658858585610d8f565b60019150509392505050565b60006012905090565b6000610677611007565b905090565b600080610687610b30565b90506106a88185856106998589610a08565b6106a39190612082565b610b38565b600191505092915050565b60008060008373ffffffffffffffffffffffffffffffffffffffff1673ffffffffffffffffffffffffffffffffffffffff168152602001908152602001600020549050919050565b6000610744600560008473ffffffffffffffffffffffffffffffffffffffff1673ffffffffffffffffffffffffffffffffffffffff168152602001908152602001600020611121565b9050919050565b60606004805461075a9061216a565b80601f01602080910402602001604051908101604052809291908181526020018280546107869061216a565b80156107d35780601f106107a8576101008083540402835291602001916107d3565b820191906000526020600020905b8154815290600101906020018083116107b657829003601f168201915b5050505050905090565b6000806107e8610b30565b905060006107f68286610a08565b90508381101561083b576040517f08c379a000000000000000000000000000000000000000000000000000000000815260040161083290611fe5565b60405180910390fd5b6108488286868403610b38565b60019250505092915050565b60008061085f610b30565b905061086c818585610d8f565b600191505092915050565b600034116108ba576040517f08c379a00000000000000000000000000000000000000000000000000000000081526004016108b190611ee5565b60405180910390fd5b6108c4333461041f565b565b83421115610909576040517f08c379a000000000000000000000000000000000000000000000000000000000815260040161090090611f05565b60405180910390fd5b60007f6e71edae12b1b97f4d1f60370fef10105fa2faae0126114a169c64845d6126c98888886109388c61112f565b8960405160200161094e96959493929190611d0a565b60405160208183030381529060405280519060200120905060006109718261118d565b90506000610981828787876111a7565b90508973ffffffffffffffffffffffffffffffffffffffff168173ffffffffffffffffffffffffffffffffffffffff16146109f1576040517f08c379a00000000000000000000000000000000000000000000000000000000081526004016109e890611f65565b60405180910390fd5b6109fc8a8a8a610b38565b50505050505050505050565b6000600160008473ffffffffffffffffffffffffffffffffffffffff1673ffffffffffffffffffffffffffffffffffffffff16815260200190815260200160002060008373ffffffffffffffffffffffffffffffffffffffff1673ffffffffffffffffffffffffffffffffffffffff16815260200190815260200160002054905092915050565b60008111610ad2576040517f08c379a0000000000000000000000000000000000000000000000000000000008152600401610ac990611ee5565b60405180910390fd5b610adc33826111d2565b3373ffffffffffffffffffffffffffffffffffffffff166108fc829081150290604051600060405180830381858888f19350505050158015610b22573d6000803e3d6000fd5b5050565b505050565b505050565b600033905090565b600073ffffffffffffffffffffffffffffffffffffffff168373ffffffffffffffffffffffffffffffffffffffff161415610ba8576040517f08c379a0000000000000000000000000000000000000000000000000000000008152600401610b9f90611fc5565b60405180910390fd5b600073ffffffffffffffffffffffffffffffffffffffff168273ffffffffffffffffffffffffffffffffffffffff161415610c18576040517f08c379a0000000000000000000000000000000000000000000000000000000008152600401610c0f90611ea5565b60405180910390fd5b80600160008573ffffffffffffffffffffffffffffffffffffffff1673ffffffffffffffffffffffffffffffffffffffff16815260200190815260200160002060008473ffffffffffffffffffffffffffffffffffffffff1673ffffffffffffffffffffffffffffffffffffffff168152602001908152602001600020819055508173ffffffffffffffffffffffffffffffffffffffff168373ffffffffffffffffffffffffffffffffffffffff167f8c5be1e5ebec7d5bd14f71427d1e84f3dd0314c0f7b2291e5b200ac8c7c3b92583604051610cf69190612025565b60405180910390a3505050565b6000610d0f8484610a08565b90507fffffffffffffffffffffffffffffffffffffffffffffffffffffffffffffffff8114610d895781811015610d7b576040517f08c379a0000000000000000000000000000000000000000000000000000000008152600401610d7290611ec5565b60405180910390fd5b610d888484848403610b38565b5b50505050565b600073ffffffffffffffffffffffffffffffffffffffff168373ffffffffffffffffffffffffffffffffffffffff161415610dff576040517f08c379a0000000000000000000000000000000000000000000000000000000008152600401610df690611fa5565b60405180910390fd5b600073ffffffffffffffffffffffffffffffffffffffff168273ffffffffffffffffffffffffffffffffffffffff161415610e6f576040517f08c379a0000000000000000000000000000000000000000000000000000000008152600401610e6690611e45565b60405180910390fd5b610e7a838383610b26565b60008060008573ffffffffffffffffffffffffffffffffffffffff1673ffffffffffffffffffffffffffffffffffffffff16815260200190815260200160002054905081811015610f00576040517f08c379a0000000000000000000000000000000000000000000000000000000008152600401610ef790611f25565b60405180910390fd5b8181036000808673ffffffffffffffffffffffffffffffffffffffff1673ffffffffffffffffffffffffffffffffffffffff16815260200190815260200160002081905550816000808573ffffffffffffffffffffffffffffffffffffffff1673ffffffffffffffffffffffffffffffffffffffff168152602001908152602001600020600082825401925050819055508273ffffffffffffffffffffffffffffffffffffffff168473ffffffffffffffffffffffffffffffffffffffff167fddf252ad1be2c89b69c2b068fc378daa952ba7f163c4a11628f55a4df523b3ef84604051610fee9190612025565b60405180910390a3611001848484610b2b565b50505050565b60007f000000000000000000000000000000000000000000000000000000000000000073ffffffffffffffffffffffffffffffffffffffff163073ffffffffffffffffffffffffffffffffffffffff1614801561108357507f000000000000000000000000000000000000000000000000000000000000000046145b156110b0577f0000000000000000000000000000000000000000000000000000000000000000905061111e565b61111b7f00000000000000000000000000000000000000000000000000000000000000007f00000000000000000000000000000000000000000000000000000000000000007f00000000000000000000000000000000000000000000000000000000000000006113a0565b90505b90565b600081600001549050919050565b600080600560008473ffffffffffffffffffffffffffffffffffffffff1673ffffffffffffffffffffffffffffffffffffffff168152602001908152602001600020905061117c81611121565b9150611187816113da565b50919050565b60006111a061119a611007565b836113f0565b9050919050565b60008060006111b887878787611423565b915091506111c581611506565b8192505050949350505050565b600073ffffffffffffffffffffffffffffffffffffffff168273ffffffffffffffffffffffffffffffffffffffff161415611242576040517f08c379a000000000000000000000000000000000000000000000000000000000815260040161123990611f85565b60405180910390fd5b61124e82600083610b26565b60008060008473ffffffffffffffffffffffffffffffffffffffff1673ffffffffffffffffffffffffffffffffffffffff168152602001908152602001600020549050818110156112d4576040517f08c379a00000000000000000000000000000000000000000000000000000000081526004016112cb90611e65565b60405180910390fd5b8181036000808573ffffffffffffffffffffffffffffffffffffffff1673ffffffffffffffffffffffffffffffffffffffff1681526020019081526020016000208190555081600260008282540392505081905550600073ffffffffffffffffffffffffffffffffffffffff168373ffffffffffffffffffffffffffffffffffffffff167fddf252ad1be2c89b69c2b068fc378daa952ba7f163c4a11628f55a4df523b3ef846040516113879190612025565b60405180910390a361139b83600084610b2b565b505050565b600083838346306040516020016113bb959493929190611d6b565b6040516020818303038152906040528051906020012090509392505050565b6001816000016000828254019250508190555050565b60008282604051602001611405929190611c9d565b60405160208183030381529060405280519060200120905092915050565b6000807f7fffffffffffffffffffffffffffffff5d576e7357a4501ddfe92f46681b20a08360001c111561145e5760006003915091506114fd565b6000600187878787604051600081526020016040526040516114839493929190611dbe565b6020604051602081039080840390855afa1580156114a5573d6000803e3d6000fd5b505050602060405103519050600073ffffffffffffffffffffffffffffffffffffffff168173ffffffffffffffffffffffffffffffffffffffff1614156114f4576000600192509250506114fd565b80600092509250505b94509492505050565b60006004811115611540577f4e487b7100000000000000000000000000000000000000000000000000000000600052602160045260246000fd5b816004811115611579577f4e487b7100000000000000000000000000000000000000000000000000000000600052602160045260246000fd5b1415611584576117a1565b600160048111156115be577f4e487b7100000000000000000000000000000000000000000000000000000000600052602160045260246000fd5b8160048111156115f7577f4e487b7100000000000000000000000000000000000000000000000000000000600052602160045260246000fd5b1415611638576040517f08c379a000000000000000000000000000000000000000000000000000000000815260040161162f90611e25565b60405180910390fd5b60026004811115611672577f4e487b7100000000000000000000000000000000000000000000000000000000600052602160045260246000fd5b8160048111156116ab577f4e487b7100000000000000000000000000000000000000000000000000000000600052602160045260246000fd5b14156116ec576040517f08c379a00000000000000000000000000000000000000000000000000000000081526004016116e390611e85565b60405180910390fd5b60036004811115611726577f4e487b7100000000000000000000000000000000000000000000000000000000600052602160045260246000fd5b81600481111561175f577f4e487b7100000000000000000000000000000000000000000000000000000000600052602160045260246000fd5b14156117a0576040517f08c379a000000000000000000000000000000000000000000000000000000000815260040161179790611f45565b60405180910390fd5b5b50565b6000813590506117b381612624565b92915050565b6000813590506117c88161263b565b92915050565b6000813590506117dd81612652565b92915050565b6000813590506117f281612669565b92915050565b60006020828403121561180a57600080fd5b6000611818848285016117a4565b91505092915050565b6000806040838503121561183457600080fd5b6000611842858286016117a4565b9250506020611853858286016117a4565b9150509250929050565b60008060006060848603121561187257600080fd5b6000611880868287016117a4565b9350506020611891868287016117a4565b92505060406118a2868287016117ce565b9150509250925092565b600080600080600080600060e0888a0312156118c757600080fd5b60006118d58a828b016117a4565b97505060206118e68a828b016117a4565b96505060406118f78a828b016117ce565b95505060606119088a828b016117ce565b94505060806119198a828b016117e3565b93505060a061192a8a828b016117b9565b92505060c061193b8a828b016117b9565b91505092959891949750929550565b6000806040838503121561195d57600080fd5b600061196b858286016117a4565b925050602061197c858286016117ce565b9150509250929050565b60006020828403121561199857600080fd5b60006119a6848285016117ce565b91505092915050565b6119b8816120d8565b82525050565b6119c7816120ea565b82525050565b6119d6816120f6565b82525050565b6119ed6119e8826120f6565b61219c565b82525050565b60006119fe8261205b565b611a088185612066565b9350611a18818560208601612137565b611a2181612204565b840191505092915050565b6000611a39601883612066565b9150611a4482612215565b602082019050919050565b6000611a5c602383612066565b9150611a678261223e565b604082019050919050565b6000611a7f602283612066565b9150611a8a8261228d565b604082019050919050565b6000611aa2601f83612066565b9150611aad826122dc565b602082019050919050565b6000611ac5602283612066565b9150611ad082612305565b604082019050919050565b6000611ae8600283612077565b9150611af382612354565b600282019050919050565b6000611b0b601d83612066565b9150611b168261237d565b602082019050919050565b6000611b2e601d83612066565b9150611b39826123a6565b602082019050919050565b6000611b51601d83612066565b9150611b5c826123cf565b602082019050919050565b6000611b74602683612066565b9150611b7f826123f8565b604082019050919050565b6000611b97602283612066565b9150611ba282612447565b604082019050919050565b6000611bba601e83612066565b9150611bc582612496565b602082019050919050565b6000611bdd602183612066565b9150611be8826124bf565b604082019050919050565b6000611c00602583612066565b9150611c0b8261250e565b604082019050919050565b6000611c23602483612066565b9150611c2e8261255d565b604082019050919050565b6000611c46602583612066565b9150611c51826125ac565b604082019050919050565b6000611c69601f83612066565b9150611c74826125fb565b602082019050919050565b611c8881612120565b82525050565b611c978161212a565b82525050565b6000611ca882611adb565b9150611cb482856119dc565b602082019150611cc482846119dc565b6020820191508190509392505050565b6000602082019050611ce960008301846119be565b92915050565b6000602082019050611d0460008301846119cd565b92915050565b600060c082019050611d1f60008301896119cd565b611d2c60208301886119af565b611d3960408301876119af565b611d466060830186611c7f565b611d536080830185611c7f565b611d6060a0830184611c7f565b979650505050505050565b600060a082019050611d8060008301886119cd565b611d8d60208301876119cd565b611d9a60408301866119cd565b611da76060830185611c7f565b611db460808301846119af565b9695505050505050565b6000608082019050611dd360008301876119cd565b611de06020830186611c8e565b611ded60408301856119cd565b611dfa60608301846119cd565b95945050505050565b60006020820190508181036000830152611e1d81846119f3565b905092915050565b60006020820190508181036000830152611e3e81611a2c565b9050919050565b60006020820190508181036000830152611e5e81611a4f565b9050919050565b60006020820190508181036000830152611e7e81611a72565b9050919050565b60006020820190508181036000830152611e9e81611a95565b9050919050565b60006020820190508181036000830152611ebe81611ab8565b9050919050565b60006020820190508181036000830152611ede81611afe565b9050919050565b60006020820190508181036000830152611efe81611b21565b9050919050565b60006020820190508181036000830152611f1e81611b44565b9050919050565b60006020820190508181036000830152611f3e81611b67565b9050919050565b60006020820190508181036000830152611f5e81611b8a565b9050919050565b60006020820190508181036000830152611f7e81611bad565b9050919050565b60006020820190508181036000830152611f9e81611bd0565b9050919050565b60006020820190508181036000830152611fbe81611bf3565b9050919050565b60006020820190508181036000830152611fde81611c16565b9050919050565b60006020820190508181036000830152611ffe81611c39565b9050919050565b6000602082019050818103600083015261201e81611c5c565b9050919050565b600060208201905061203a6000830184611c7f565b92915050565b60006020820190506120556000830184611c8e565b92915050565b600081519050919050565b600082825260208201905092915050565b600081905092915050565b600061208d82612120565b915061209883612120565b9250827fffffffffffffffffffffffffffffffffffffffffffffffffffffffffffffffff038211156120cd576120cc6121a6565b5b828201905092915050565b60006120e382612100565b9050919050565b60008115159050919050565b6000819050919050565b600073ffffffffffffffffffffffffffffffffffffffff82169050919050565b6000819050919050565b600060ff82169050919050565b60005b8381101561215557808201518184015260208101905061213a565b83811115612164576000848401525b50505050565b6000600282049050600182168061218257607f821691505b60208210811415612196576121956121d5565b5b50919050565b6000819050919050565b7f4e487b7100000000000000000000000000000000000000000000000000000000600052601160045260246000fd5b7f4e487b7100000000000000000000000000000000000000000000000000000000600052602260045260246000fd5b6000601f19601f8301169050919050565b7f45434453413a20696e76616c6964207369676e61747572650000000000000000600082015250565b7f45524332303a207472616e7366657220746f20746865207a65726f206164647260008201527f6573730000000000000000000000000000000000000000000000000000000000602082015250565b7f45524332303a206275726e20616d6f756e7420657863656564732062616c616e60008201527f6365000000000000000000000000000000000000000000000000000000000000602082015250565b7f45434453413a20696e76616c6964207369676e6174757265206c656e67746800600082015250565b7f45524332303a20617070726f766520746f20746865207a65726f20616464726560008201527f7373000000000000000000000000000000000000000000000000000000000000602082015250565b7f1901000000000000000000000000000000000000000000000000000000000000600082015250565b7f45524332303a20696e73756666696369656e7420616c6c6f77616e6365000000600082015250565b7f416d6f756e74206d7573742062652067726561746572207468616e2030000000600082015250565b7f45524332305065726d69743a206578706972656420646561646c696e65000000600082015250565b7f45524332303a207472616e7366657220616d6f756e742065786365656473206260008201527f616c616e63650000000000000000000000000000000000000000000000000000602082015250565b7f45434453413a20696e76616c6964207369676e6174757265202773272076616c60008201527f7565000000000000000000000000000000000000000000000000000000000000602082015250565b7f45524332305065726d69743a20696e76616c6964207369676e61747572650000600082015250565b7f45524332303a206275726e2066726f6d20746865207a65726f2061646472657360008201527f7300000000000000000000000000000000000000000000000000000000000000602082015250565b7f45524332303a207472616e736665722066726f6d20746865207a65726f20616460008201527f6472657373000000000000000000000000000000000000000000000000000000602082015250565b7f45524332303a20617070726f76652066726f6d20746865207a65726f2061646460008201527f7265737300000000000000000000000000000000000000000000000000000000602082015250565b7f45524332303a2064656372656173656420616c6c6f77616e63652062656c6f7760008201527f207a65726f000000000000000000000000000000000000000000000000000000602082015250565b7f45524332303a206d696e7420746f20746865207a65726f206164647265737300600082015250565b61262d816120d8565b811461263857600080fd5b50565b612644816120f6565b811461264f57600080fd5b50565b61265b81612120565b811461266657600080fd5b50565b6126728161212a565b811461267d57600080fd5b5056fea2646970667358221220cfadc426cef894701e6a5e91584c53f6cf9ee71f824d01a2a8b843fd0734d39764736f6c63430008040033",
  "linkReferences": {},
  "deployedLinkReferences": {}
}