{
  "_format": "hh-sol-artifact-1",
  "contractName": "Marketplace",
  "sourceName": "libs/contracts/src/contracts/Marketplace.sol",
  "abi": [
    {
      "inputs": [
        {
          "internalType": "uint256",
          "name": "_feePercent",
          "type": "uint256"
        }
      ],
      "stateMutability": "nonpayable",
      "type": "constructor"
    },
    {
      "anonymous": false,
      "inputs": [
        {
          "indexed": false,
          "internalType": "uint256",
          "name": "auctionId",
          "type": "uint256"
        }
      ],
      "name": "AuctionCanceled",
      "type": "event"
    },
    {
      "anonymous": false,
      "inputs": [
        {
          "indexed": false,
          "internalType": "uint256",
          "name": "auctionId",
          "type": "uint256"
        },
        {
          "indexed": false,
          "internalType": "address",
          "name": "nft",
          "type": "address"
        },
        {
          "indexed": true,
          "internalType": "uint256",
          "name": "tokenId",
          "type": "uint256"
        },
        {
          "indexed": false,
          "internalType": "uint256",
          "name": "price",
          "type": "uint256"
        },
        {
          "indexed": true,
          "internalType": "address",
          "name": "seller",
          "type": "address"
        },
        {
          "indexed": true,
          "internalType": "address",
          "name": "buyer",
          "type": "address"
        }
      ],
      "name": "AuctionEnded",
      "type": "event"
    },
    {
      "anonymous": false,
      "inputs": [
        {
          "indexed": false,
          "internalType": "uint256",
          "name": "auctionId",
          "type": "uint256"
        },
        {
          "indexed": false,
          "internalType": "address",
          "name": "nft",
          "type": "address"
        },
        {
          "indexed": true,
          "internalType": "uint256",
          "name": "tokenId",
          "type": "uint256"
        },
        {
          "indexed": false,
          "internalType": "uint256",
          "name": "price",
          "type": "uint256"
        },
        {
          "indexed": false,
          "internalType": "uint256",
          "name": "timeToEnd",
          "type": "uint256"
        },
        {
          "indexed": true,
          "internalType": "address",
          "name": "seller",
          "type": "address"
        }
      ],
      "name": "AuctionStarted",
      "type": "event"
    },
    {
      "anonymous": false,
      "inputs": [
        {
          "indexed": false,
          "internalType": "uint256",
          "name": "itemId",
          "type": "uint256"
        },
        {
          "indexed": false,
          "internalType": "address",
          "name": "nft",
          "type": "address"
        },
        {
          "indexed": true,
          "internalType": "uint256",
          "name": "tokenId",
          "type": "uint256"
        },
        {
          "indexed": false,
          "internalType": "uint256",
          "name": "price",
          "type": "uint256"
        },
        {
          "indexed": true,
          "internalType": "address",
          "name": "seller",
          "type": "address"
        },
        {
          "indexed": true,
          "internalType": "address",
          "name": "buyer",
          "type": "address"
        }
      ],
      "name": "Bought",
      "type": "event"
    },
    {
      "anonymous": false,
      "inputs": [
        {
          "indexed": false,
          "internalType": "uint256",
          "name": "itemId",
          "type": "uint256"
        }
      ],
      "name": "OfferCanceled",
      "type": "event"
    },
    {
      "anonymous": false,
      "inputs": [
        {
          "indexed": false,
          "internalType": "uint256",
          "name": "itemId",
          "type": "uint256"
        },
        {
          "indexed": false,
          "internalType": "address",
          "name": "nft",
          "type": "address"
        },
        {
          "indexed": true,
          "internalType": "uint256",
          "name": "tokenId",
          "type": "uint256"
        },
        {
          "indexed": false,
          "internalType": "uint256",
          "name": "price",
          "type": "uint256"
        },
        {
          "indexed": true,
          "internalType": "address",
          "name": "seller",
          "type": "address"
        }
      ],
      "name": "Offered",
      "type": "event"
    },
    {
      "stateMutability": "nonpayable",
      "type": "fallback"
    },
    {
      "inputs": [],
      "name": "activeAuctionItemCount",
      "outputs": [
        {
          "internalType": "uint256",
          "name": "",
          "type": "uint256"
        }
      ],
      "stateMutability": "view",
      "type": "function"
    },
    {
      "inputs": [
        {
          "internalType": "uint256",
          "name": "",
          "type": "uint256"
        }
      ],
      "name": "activeAuctionItemIds",
      "outputs": [
        {
          "internalType": "uint256",
          "name": "",
          "type": "uint256"
        }
      ],
      "stateMutability": "view",
      "type": "function"
    },
    {
      "inputs": [],
      "name": "activeListedItemCount",
      "outputs": [
        {
          "internalType": "uint256",
          "name": "",
          "type": "uint256"
        }
      ],
      "stateMutability": "view",
      "type": "function"
    },
    {
      "inputs": [
        {
          "internalType": "uint256",
          "name": "",
          "type": "uint256"
        }
      ],
      "name": "activeListedItemIds",
      "outputs": [
        {
          "internalType": "uint256",
          "name": "",
          "type": "uint256"
        }
      ],
      "stateMutability": "view",
      "type": "function"
    },
    {
      "inputs": [],
      "name": "auctionItemCount",
      "outputs": [
        {
          "internalType": "uint256",
          "name": "",
          "type": "uint256"
        }
      ],
      "stateMutability": "view",
      "type": "function"
    },
    {
      "inputs": [
        {
          "internalType": "uint256",
          "name": "",
          "type": "uint256"
        }
      ],
      "name": "auctionItems",
      "outputs": [
        {
          "internalType": "uint256",
          "name": "auctionId",
          "type": "uint256"
        },
        {
          "internalType": "contract IERC721",
          "name": "nft",
          "type": "address"
        },
        {
          "internalType": "uint256",
          "name": "tokenId",
          "type": "uint256"
        },
        {
          "internalType": "uint256",
          "name": "price",
          "type": "uint256"
        },
        {
          "internalType": "uint256",
          "name": "timeToEnd",
          "type": "uint256"
        },
        {
          "internalType": "address payable",
          "name": "winner",
          "type": "address"
        },
        {
          "internalType": "address payable",
          "name": "seller",
          "type": "address"
        },
        {
          "internalType": "uint256",
          "name": "deposited",
          "type": "uint256"
        },
        {
          "internalType": "bool",
          "name": "claimed",
          "type": "bool"
        },
        {
          "internalType": "bool",
          "name": "canceled",
          "type": "bool"
        }
      ],
      "stateMutability": "view",
      "type": "function"
    },
    {
      "inputs": [
        {
          "internalType": "uint256",
          "name": "_auctionId",
          "type": "uint256"
        }
      ],
      "name": "cancelAuction",
      "outputs": [],
      "stateMutability": "payable",
      "type": "function"
    },
    {
      "inputs": [
        {
          "internalType": "uint256",
          "name": "_itemId",
          "type": "uint256"
        }
      ],
      "name": "cancelOffered",
      "outputs": [],
      "stateMutability": "nonpayable",
      "type": "function"
    },
    {
      "inputs": [
        {
          "internalType": "uint256",
          "name": "_auctionId",
          "type": "uint256"
        }
      ],
      "name": "claimNFT",
      "outputs": [],
      "stateMutability": "nonpayable",
      "type": "function"
    },
    {
      "inputs": [],
      "name": "feeAccount",
      "outputs": [
        {
          "internalType": "address payable",
          "name": "",
          "type": "address"
        }
      ],
      "stateMutability": "view",
      "type": "function"
    },
    {
      "inputs": [],
      "name": "feePercent",
      "outputs": [
        {
          "internalType": "uint256",
          "name": "",
          "type": "uint256"
        }
      ],
      "stateMutability": "view",
      "type": "function"
    },
    {
      "inputs": [
        {
          "internalType": "uint256",
          "name": "_startFrom",
          "type": "uint256"
        }
      ],
      "name": "getActiveListedItemIds",
      "outputs": [
        {
          "internalType": "uint256[]",
          "name": "",
          "type": "uint256[]"
        }
      ],
      "stateMutability": "view",
      "type": "function"
    },
    {
      "inputs": [
        {
          "internalType": "uint256",
          "name": "_itemId",
          "type": "uint256"
        }
      ],
      "name": "getTotalPrice",
      "outputs": [
        {
          "internalType": "uint256",
          "name": "",
          "type": "uint256"
        }
      ],
      "stateMutability": "view",
      "type": "function"
    },
    {
      "inputs": [],
      "name": "itemCount",
      "outputs": [
        {
          "internalType": "uint256",
          "name": "",
          "type": "uint256"
        }
      ],
      "stateMutability": "view",
      "type": "function"
    },
    {
      "inputs": [
        {
          "internalType": "uint256",
          "name": "",
          "type": "uint256"
        }
      ],
      "name": "items",
      "outputs": [
        {
          "internalType": "uint256",
          "name": "itemId",
          "type": "uint256"
        },
        {
          "internalType": "contract IERC721",
          "name": "nft",
          "type": "address"
        },
        {
          "internalType": "uint256",
          "name": "tokenId",
          "type": "uint256"
        },
        {
          "internalType": "uint256",
          "name": "price",
          "type": "uint256"
        },
        {
          "internalType": "address payable",
          "name": "seller",
          "type": "address"
        },
        {
          "internalType": "bool",
          "name": "sold",
          "type": "bool"
        },
        {
          "internalType": "bool",
          "name": "canceled",
          "type": "bool"
        }
      ],
      "stateMutability": "view",
      "type": "function"
    },
    {
      "inputs": [
        {
          "internalType": "contract IERC721",
          "name": "_nft",
          "type": "address"
        },
        {
          "internalType": "uint256",
          "name": "_tokenId",
          "type": "uint256"
        },
        {
          "internalType": "uint256",
          "name": "_price",
          "type": "uint256"
        }
      ],
      "name": "makeItem",
      "outputs": [],
      "stateMutability": "nonpayable",
      "type": "function"
    },
    {
      "inputs": [
        {
          "internalType": "uint256",
          "name": "_auctionId",
          "type": "uint256"
        }
      ],
      "name": "makeOffer",
      "outputs": [],
      "stateMutability": "payable",
      "type": "function"
    },
    {
      "inputs": [
        {
          "internalType": "uint256",
          "name": "_itemId",
          "type": "uint256"
        }
      ],
      "name": "purchaseItem",
      "outputs": [],
      "stateMutability": "payable",
      "type": "function"
    },
    {
      "inputs": [
        {
          "internalType": "contract IERC721",
          "name": "_nft",
          "type": "address"
        },
        {
          "internalType": "uint256",
          "name": "_tokenId",
          "type": "uint256"
        },
        {
          "internalType": "uint256",
          "name": "_price",
          "type": "uint256"
        },
        {
          "internalType": "uint256",
          "name": "_timeToEnd",
          "type": "uint256"
        }
      ],
      "name": "startAuction",
      "outputs": [],
      "stateMutability": "nonpayable",
      "type": "function"
    }
  ],
  "bytecode": "0x60c06040523480156200001157600080fd5b50604051620034753803806200347583398181016040528101906200003791906200009c565b60016000819055503373ffffffffffffffffffffffffffffffffffffffff1660808173ffffffffffffffffffffffffffffffffffffffff1660601b815250508060a0818152505050620000ec565b6000815190506200009681620000d2565b92915050565b600060208284031215620000af57600080fd5b6000620000bf8482850162000085565b91505092915050565b6000819050919050565b620000dd81620000c8565b8114620000e957600080fd5b50565b60805160601c60a051613352620001236000396000818161096501526113a201526000818161064a015261168f01526133526000f3fe6080604052600436106101185760003560e01c80639c166273116100a0578063d38ea5bf11610064578063d38ea5bf146103db578063fa00afc7146103f7578063fc610f3114610420578063fe5c873a1461044b578063fe6d7a6e1461047457610119565b80639c166273146102af578063bfb231d2146102d8578063ca7dd3751461031b578063cf44e2aa14610358578063d2c069f01461039557610119565b80637b90da24116100e75780637b90da24146101e65780637ee53f0f146102235780637fd6f15c1461024c57806396b5a755146102775780639a2f64741461029357610119565b806344b38a5e1461012857806348a0624c1461015357806365e17c9d146101905780636bfb0d01146101bb57610119565b5b34801561012557600080fd5b50005b34801561013457600080fd5b5061013d61049f565b60405161014a91906129e7565b60405180910390f35b34801561015f57600080fd5b5061017a6004803603810190610175919061237e565b6104a5565b6040516101879190612785565b60405180910390f35b34801561019c57600080fd5b506101a5610648565b6040516101b291906126fc565b60405180910390f35b3480156101c757600080fd5b506101d061066c565b6040516101dd91906129e7565b60405180910390f35b3480156101f257600080fd5b5061020d6004803603810190610208919061237e565b610672565b60405161021a91906129e7565b60405180910390f35b34801561022f57600080fd5b5061024a6004803603810190610245919061237e565b610696565b005b34801561025857600080fd5b50610261610963565b60405161026e91906129e7565b60405180910390f35b610291600480360381019061028c919061237e565b610987565b005b6102ad60048036038101906102a8919061237e565b610d4d565b005b3480156102bb57600080fd5b506102d660048036038101906102d1919061231b565b610f94565b005b3480156102e457600080fd5b506102ff60048036038101906102fa919061237e565b611300565b6040516103129796959493929190612a7e565b60405180910390f35b34801561032757600080fd5b50610342600480360381019061033d919061237e565b61139c565b60405161034f91906129e7565b60405180910390f35b34801561036457600080fd5b5061037f600480360381019061037a919061237e565b6113ff565b60405161038c91906129e7565b60405180910390f35b3480156103a157600080fd5b506103bc60048036038101906103b7919061237e565b611423565b6040516103d29a99989796959493929190612aed565b60405180910390f35b6103f560048036038101906103f0919061237e565b6114f1565b005b34801561040357600080fd5b5061041e600480360381019061041991906122cc565b6118ea565b005b34801561042c57600080fd5b50610435611bcc565b60405161044291906129e7565b60405180910390f35b34801561045757600080fd5b50610472600480360381019061046d919061237e565b611bd2565b005b34801561048057600080fd5b5061048961217a565b60405161049691906129e7565b60405180910390f35b60035481565b60606000600567ffffffffffffffff8111156104ea577f4e487b7100000000000000000000000000000000000000000000000000000000600052604160045260246000fd5b6040519080825280602002602001820160405280156105185781602001602082028036833780820191505090505b5090506000808490505b6000811061063c57600060058281548110610566577f4e487b7100000000000000000000000000000000000000000000000000000000600052603260045260246000fd5b9060005260206000200154141561057c57610629565b600581815481106105b6577f4e487b7100000000000000000000000000000000000000000000000000000000600052603260045260246000fd5b90600052602060002001548383815181106105fa577f4e487b7100000000000000000000000000000000000000000000000000000000600052603260045260246000fd5b602002602001018181525050818061061190612e0f565b925050600582141561062857829350505050610643565b5b808061063490612de5565b915050610522565b5081925050505b919050565b7f000000000000000000000000000000000000000000000000000000000000000081565b60015481565b6006818154811061068257600080fd5b906000526020600020016000915090505481565b61069e612180565b600081116106e1576040517f08c379a00000000000000000000000000000000000000000000000000000000081526004016106d890612887565b60405180910390fd5b3373ffffffffffffffffffffffffffffffffffffffff166007600083815260200190815260200160002060040160009054906101000a900473ffffffffffffffffffffffffffffffffffffffff1673ffffffffffffffffffffffffffffffffffffffff1614610785576040517f08c379a000000000000000000000000000000000000000000000000000000000815260040161077c90612947565b60405180910390fd5b6007600082815260200190815260200160002060040160149054906101000a900460ff16156107e9576040517f08c379a00000000000000000000000000000000000000000000000000000000081526004016107e090612927565b60405180910390fd5b600060076000838152602001908152602001600020905060018160040160156101000a81548160ff0219169083151502179055508060010160009054906101000a900473ffffffffffffffffffffffffffffffffffffffff1673ffffffffffffffffffffffffffffffffffffffff166323b872dd303384600201546040518463ffffffff1660e01b81526004016108829392919061274e565b600060405180830381600087803b15801561089c57600080fd5b505af11580156108b0573d6000803e3d6000fd5b50505050600360008154809291906108c790612de5565b919050555060056001836108db9190612ceb565b81548110610912577f4e487b7100000000000000000000000000000000000000000000000000000000600052603260045260246000fd5b90600052602060002001600090557f0ff09947dd7d2583091e8cbfb427fecacb697bf895187b243fd0072c0ee9b9518260405161094f91906129e7565b60405180910390a1506109606121d0565b50565b7f000000000000000000000000000000000000000000000000000000000000000081565b61098f612180565b600081116109d2576040517f08c379a00000000000000000000000000000000000000000000000000000000081526004016109c990612847565b60405180910390fd5b3373ffffffffffffffffffffffffffffffffffffffff166008600083815260200190815260200160002060060160009054906101000a900473ffffffffffffffffffffffffffffffffffffffff1673ffffffffffffffffffffffffffffffffffffffff1614610a76576040517f08c379a0000000000000000000000000000000000000000000000000000000008152600401610a6d906129c7565b60405180910390fd5b6008600082815260200190815260200160002060080160009054906101000a900460ff1615610ada576040517f08c379a0000000000000000000000000000000000000000000000000000000008152600401610ad190612827565b60405180910390fd5b60086000828152602001908152602001600020600401544210610b32576040517f08c379a0000000000000000000000000000000000000000000000000000000008152600401610b29906127a7565b60405180910390fd5b60006008600083815260200190815260200160002090508060010160009054906101000a900473ffffffffffffffffffffffffffffffffffffffff1673ffffffffffffffffffffffffffffffffffffffff166323b872dd308360060160009054906101000a900473ffffffffffffffffffffffffffffffffffffffff1684600201546040518463ffffffff1660e01b8152600401610bd293929190612717565b600060405180830381600087803b158015610bec57600080fd5b505af1158015610c00573d6000803e3d6000fd5b50505050600081600701541115610c81578060050160009054906101000a900473ffffffffffffffffffffffffffffffffffffffff1673ffffffffffffffffffffffffffffffffffffffff166108fc82600701549081150290604051600060405180830381858888f19350505050158015610c7f573d6000803e3d6000fd5b505b60018160080160016101000a81548160ff02191690831515021790555060046000815480929190610cb190612de5565b91905055506006600183610cc59190612ceb565b81548110610cfc577f4e487b7100000000000000000000000000000000000000000000000000000000600052603260045260246000fd5b90600052602060002001600090557f28601d865dccc9f113e15a7185c1b38c085d598c71250d3337916a428536d77182604051610d3991906129e7565b60405180910390a150610d4a6121d0565b50565b610d55612180565b60008111610d98576040517f08c379a0000000000000000000000000000000000000000000000000000000008152600401610d8f90612847565b60405180910390fd5b60086000828152602001908152602001600020600301543411610df0576040517f08c379a0000000000000000000000000000000000000000000000000000000008152600401610de790612967565b60405180910390fd5b60086000828152602001908152602001600020600401544210610e48576040517f08c379a0000000000000000000000000000000000000000000000000000000008152600401610e3f906127a7565b60405180910390fd5b610e69813460086000858152602001908152602001600020600301546121da565b600060086000838152602001908152602001600020600701541115610f1c576008600082815260200190815260200160002060050160009054906101000a900473ffffffffffffffffffffffffffffffffffffffff1673ffffffffffffffffffffffffffffffffffffffff166108fc60086000848152602001908152602001600020600701549081150290604051600060405180830381858888f19350505050158015610f1a573d6000803e3d6000fd5b505b6000600860008381526020019081526020016000209050348160030181905550338160050160006101000a81548173ffffffffffffffffffffffffffffffffffffffff021916908373ffffffffffffffffffffffffffffffffffffffff16021790555034816007018190555050610f916121d0565b50565b610f9c612180565b60008211610fdf576040517f08c379a0000000000000000000000000000000000000000000000000000000008152600401610fd690612907565b60405180910390fd5b60026000815480929190610ff290612e0f565b91905055506004600081548092919061100a90612e0f565b9190505550600660025490806001815401808255809150506001900390600052602060002001600090919091909150558373ffffffffffffffffffffffffffffffffffffffff166323b872dd3330866040518463ffffffff1660e01b81526004016110779392919061274e565b600060405180830381600087803b15801561109157600080fd5b505af11580156110a5573d6000803e3d6000fd5b5050505060405180610140016040528060025481526020018573ffffffffffffffffffffffffffffffffffffffff1681526020018481526020018381526020018281526020013373ffffffffffffffffffffffffffffffffffffffff1681526020013373ffffffffffffffffffffffffffffffffffffffff16815260200160008152602001600015158152602001600015158152506008600060025481526020019081526020016000206000820151816000015560208201518160010160006101000a81548173ffffffffffffffffffffffffffffffffffffffff021916908373ffffffffffffffffffffffffffffffffffffffff16021790555060408201518160020155606082015181600301556080820151816004015560a08201518160050160006101000a81548173ffffffffffffffffffffffffffffffffffffffff021916908373ffffffffffffffffffffffffffffffffffffffff16021790555060c08201518160060160006101000a81548173ffffffffffffffffffffffffffffffffffffffff021916908373ffffffffffffffffffffffffffffffffffffffff16021790555060e082015181600701556101008201518160080160006101000a81548160ff0219169083151502179055506101208201518160080160016101000a81548160ff0219169083151502179055509050503373ffffffffffffffffffffffffffffffffffffffff16837fd184fdb1358a28e5370b7ea6f753efc3313b7fd11d6750f270cf79f109a63f176002548786866040516112ea9493929190612a39565b60405180910390a36112fa6121d0565b50505050565b60076020528060005260406000206000915090508060000154908060010160009054906101000a900473ffffffffffffffffffffffffffffffffffffffff16908060020154908060030154908060040160009054906101000a900473ffffffffffffffffffffffffffffffffffffffff16908060040160149054906101000a900460ff16908060040160159054906101000a900460ff16905087565b600060647f000000000000000000000000000000000000000000000000000000000000000060646113cd9190612c0a565b60076000858152602001908152602001600020600301546113ee9190612c91565b6113f89190612c60565b9050919050565b6005818154811061140f57600080fd5b906000526020600020016000915090505481565b60086020528060005260406000206000915090508060000154908060010160009054906101000a900473ffffffffffffffffffffffffffffffffffffffff16908060020154908060030154908060040154908060050160009054906101000a900473ffffffffffffffffffffffffffffffffffffffff16908060060160009054906101000a900473ffffffffffffffffffffffffffffffffffffffff16908060070154908060080160009054906101000a900460ff16908060080160019054906101000a900460ff1690508a565b6114f9612180565b60006115048261139c565b9050600060076000848152602001908152602001600020905060008311801561152f57506001548311155b61156e576040517f08c379a000000000000000000000000000000000000000000000000000000000815260040161156590612867565b60405180910390fd5b813410156115b1576040517f08c379a00000000000000000000000000000000000000000000000000000000081526004016115a890612807565b60405180910390fd5b8060040160149054906101000a900460ff161580156115df57508060040160159054906101000a900460ff16155b61161e576040517f08c379a0000000000000000000000000000000000000000000000000000000008152600401611615906129a7565b60405180910390fd5b8060040160009054906101000a900473ffffffffffffffffffffffffffffffffffffffff1673ffffffffffffffffffffffffffffffffffffffff166108fc82600301549081150290604051600060405180830381858888f1935050505015801561168c573d6000803e3d6000fd5b507f000000000000000000000000000000000000000000000000000000000000000073ffffffffffffffffffffffffffffffffffffffff166108fc8260030154846116d79190612ceb565b9081150290604051600060405180830381858888f19350505050158015611702573d6000803e3d6000fd5b5060018160040160146101000a81548160ff0219169083151502179055508060010160009054906101000a900473ffffffffffffffffffffffffffffffffffffffff1673ffffffffffffffffffffffffffffffffffffffff166323b872dd303384600201546040518463ffffffff1660e01b81526004016117859392919061274e565b600060405180830381600087803b15801561179f57600080fd5b505af11580156117b3573d6000803e3d6000fd5b50505050600360008154809291906117ca90612de5565b919050555060056001846117de9190612ceb565b81548110611815577f4e487b7100000000000000000000000000000000000000000000000000000000600052603260045260246000fd5b90600052602060002001600090553373ffffffffffffffffffffffffffffffffffffffff168160040160009054906101000a900473ffffffffffffffffffffffffffffffffffffffff1673ffffffffffffffffffffffffffffffffffffffff1682600201547f8b4c9c8a607d67b321582dd8461041b1dc2ceeca70c8b7f37f8e02095cf2e76d868560010160009054906101000a900473ffffffffffffffffffffffffffffffffffffffff1686600301546040516118d593929190612a02565b60405180910390a450506118e76121d0565b50565b6118f2612180565b60008111611935576040517f08c379a000000000000000000000000000000000000000000000000000000000815260040161192c906127c7565b60405180910390fd5b6001600081548092919061194890612e0f565b91905055506003600081548092919061196090612e0f565b9190505550600560015490806001815401808255809150506001900390600052602060002001600090919091909150558273ffffffffffffffffffffffffffffffffffffffff166323b872dd3330856040518463ffffffff1660e01b81526004016119cd9392919061274e565b600060405180830381600087803b1580156119e757600080fd5b505af11580156119fb573d6000803e3d6000fd5b505050506040518060e0016040528060015481526020018473ffffffffffffffffffffffffffffffffffffffff1681526020018381526020018281526020013373ffffffffffffffffffffffffffffffffffffffff168152602001600015158152602001600015158152506007600060015481526020019081526020016000206000820151816000015560208201518160010160006101000a81548173ffffffffffffffffffffffffffffffffffffffff021916908373ffffffffffffffffffffffffffffffffffffffff160217905550604082015181600201556060820151816003015560808201518160040160006101000a81548173ffffffffffffffffffffffffffffffffffffffff021916908373ffffffffffffffffffffffffffffffffffffffff16021790555060a08201518160040160146101000a81548160ff02191690831515021790555060c08201518160040160156101000a81548160ff0219169083151502179055509050503373ffffffffffffffffffffffffffffffffffffffff16827f655a0cf9c8db81512be9a76dc1c5ae5380b8816ce6ad659cd61b715e2999d59a6001548685604051611bb793929190612a02565b60405180910390a3611bc76121d0565b505050565b60045481565b611bda612180565b60008111611c1d576040517f08c379a0000000000000000000000000000000000000000000000000000000008152600401611c14906128e7565b60405180910390fd5b6008600082815260200190815260200160002060040154421015611c76576040517f08c379a0000000000000000000000000000000000000000000000000000000008152600401611c6d906128a7565b60405180910390fd5b3373ffffffffffffffffffffffffffffffffffffffff166008600083815260200190815260200160002060050160009054906101000a900473ffffffffffffffffffffffffffffffffffffffff1673ffffffffffffffffffffffffffffffffffffffff161480611d4757503373ffffffffffffffffffffffffffffffffffffffff166008600083815260200190815260200160002060060160009054906101000a900473ffffffffffffffffffffffffffffffffffffffff1673ffffffffffffffffffffffffffffffffffffffff16145b611d86576040517f08c379a0000000000000000000000000000000000000000000000000000000008152600401611d7d906128c7565b60405180910390fd5b6008600082815260200190815260200160002060080160009054906101000a900460ff1615611dea576040517f08c379a0000000000000000000000000000000000000000000000000000000008152600401611de1906127e7565b60405180910390fd5b60006008600083815260200190815260200160002060405180610140016040529081600082015481526020016001820160009054906101000a900473ffffffffffffffffffffffffffffffffffffffff1673ffffffffffffffffffffffffffffffffffffffff1673ffffffffffffffffffffffffffffffffffffffff1681526020016002820154815260200160038201548152602001600482015481526020016005820160009054906101000a900473ffffffffffffffffffffffffffffffffffffffff1673ffffffffffffffffffffffffffffffffffffffff1673ffffffffffffffffffffffffffffffffffffffff1681526020016006820160009054906101000a900473ffffffffffffffffffffffffffffffffffffffff1673ffffffffffffffffffffffffffffffffffffffff1673ffffffffffffffffffffffffffffffffffffffff168152602001600782015481526020016008820160009054906101000a900460ff161515151581526020016008820160019054906101000a900460ff1615151515815250509050806020015173ffffffffffffffffffffffffffffffffffffffff166323b872dd308360a0015184604001516040518463ffffffff1660e01b8152600401611fc093929190612717565b600060405180830381600087803b158015611fda57600080fd5b505af1158015611fee573d6000803e3d6000fd5b5050505060008160e00151111561204f578060c0015173ffffffffffffffffffffffffffffffffffffffff166108fc8260e001519081150290604051600060405180830381858888f1935050505015801561204d573d6000803e3d6000fd5b505b600060086000848152602001908152602001600020905060018160080160006101000a81548160ff0219169083151502179055506004600081548092919061209690612de5565b919050555060066001846120aa9190612ceb565b815481106120e1577f4e487b7100000000000000000000000000000000000000000000000000000000600052603260045260246000fd5b90600052602060002001600090558160a0015173ffffffffffffffffffffffffffffffffffffffff168260c0015173ffffffffffffffffffffffffffffffffffffffff1683604001517fe9c76f3cd26822fab39fde36b56736739a684a806c8c0cf5eacd75511797ca7b868660200151876060015160405161216593929190612a02565b60405180910390a450506121776121d0565b50565b60025481565b600260005414156121c6576040517f08c379a00000000000000000000000000000000000000000000000000000000081526004016121bd90612987565b60405180910390fd5b6002600081905550565b6001600081905550565b6122748383836040516024016121f293929190612b89565b6040516020818303038152906040527fd1ed7a3c000000000000000000000000000000000000000000000000000000007bffffffffffffffffffffffffffffffffffffffffffffffffffffffff19166020820180517bffffffffffffffffffffffffffffffffffffffffffffffffffffffff8381831617835250505050612279565b505050565b60008151905060006a636f6e736f6c652e6c6f679050602083016000808483855afa5050505050565b6000813590506122b1816132ee565b92915050565b6000813590506122c681613305565b92915050565b6000806000606084860312156122e157600080fd5b60006122ef868287016122a2565b9350506020612300868287016122b7565b9250506040612311868287016122b7565b9150509250925092565b6000806000806080858703121561233157600080fd5b600061233f878288016122a2565b9450506020612350878288016122b7565b9350506040612361878288016122b7565b9250506060612372878288016122b7565b91505092959194509250565b60006020828403121561239057600080fd5b600061239e848285016122b7565b91505092915050565b60006123b383836126de565b60208301905092915050565b6123c881612d8b565b82525050565b6123d781612d31565b82525050565b6123e681612d1f565b82525050565b60006123f782612bd0565b6124018185612be8565b935061240c83612bc0565b8060005b8381101561243d57815161242488826123a7565b975061242f83612bdb565b925050600181019050612410565b5085935050505092915050565b61245381612d43565b82525050565b61246281612d9d565b82525050565b6000612475601c83612bf9565b915061248082612eb6565b602082019050919050565b6000612498601f83612bf9565b91506124a382612edf565b602082019050919050565b60006124bb601783612bf9565b91506124c682612f08565b602082019050919050565b60006124de603383612bf9565b91506124e982612f31565b604082019050919050565b6000612501601b83612bf9565b915061250c82612f80565b602082019050919050565b6000612524602683612bf9565b915061252f82612fa9565b604082019050919050565b6000612547601283612bf9565b915061255282612ff8565b602082019050919050565b600061256a602383612bf9565b915061257582613021565b604082019050919050565b600061258d601983612bf9565b915061259882613070565b602082019050919050565b60006125b0602c83612bf9565b91506125bb82613099565b604082019050919050565b60006125d3602583612bf9565b91506125de826130e8565b604082019050919050565b60006125f6602183612bf9565b915061260182613137565b604082019050919050565b6000612619601583612bf9565b915061262482613186565b602082019050919050565b600061263c602183612bf9565b9150612647826131af565b604082019050919050565b600061265f602b83612bf9565b915061266a826131fe565b604082019050919050565b6000612682601f83612bf9565b915061268d8261324d565b602082019050919050565b60006126a5601d83612bf9565b91506126b082613276565b602082019050919050565b60006126c8602483612bf9565b91506126d38261329f565b604082019050919050565b6126e781612d81565b82525050565b6126f681612d81565b82525050565b600060208201905061271160008301846123ce565b92915050565b600060608201905061272c60008301866123dd565b61273960208301856123bf565b61274660408301846126ed565b949350505050565b600060608201905061276360008301866123dd565b61277060208301856123dd565b61277d60408301846126ed565b949350505050565b6000602082019050818103600083015261279f81846123ec565b905092915050565b600060208201905081810360008301526127c081612468565b9050919050565b600060208201905081810360008301526127e08161248b565b9050919050565b60006020820190508181036000830152612800816124ae565b9050919050565b60006020820190508181036000830152612820816124d1565b9050919050565b60006020820190508181036000830152612840816124f4565b9050919050565b6000602082019050818103600083015261286081612517565b9050919050565b600060208201905081810360008301526128808161253a565b9050919050565b600060208201905081810360008301526128a08161255d565b9050919050565b600060208201905081810360008301526128c081612580565b9050919050565b600060208201905081810360008301526128e0816125a3565b9050919050565b60006020820190508181036000830152612900816125c6565b9050919050565b60006020820190508181036000830152612920816125e9565b9050919050565b600060208201905081810360008301526129408161260c565b9050919050565b600060208201905081810360008301526129608161262f565b9050919050565b6000602082019050818103600083015261298081612652565b9050919050565b600060208201905081810360008301526129a081612675565b9050919050565b600060208201905081810360008301526129c081612698565b9050919050565b600060208201905081810360008301526129e0816126bb565b9050919050565b60006020820190506129fc60008301846126ed565b92915050565b6000606082019050612a1760008301866126ed565b612a2460208301856123dd565b612a3160408301846126ed565b949350505050565b6000608082019050612a4e60008301876126ed565b612a5b60208301866123dd565b612a6860408301856126ed565b612a7560608301846126ed565b95945050505050565b600060e082019050612a93600083018a6126ed565b612aa06020830189612459565b612aad60408301886126ed565b612aba60608301876126ed565b612ac760808301866123ce565b612ad460a083018561244a565b612ae160c083018461244a565b98975050505050505050565b600061014082019050612b03600083018d6126ed565b612b10602083018c612459565b612b1d604083018b6126ed565b612b2a606083018a6126ed565b612b3760808301896126ed565b612b4460a08301886123ce565b612b5160c08301876123ce565b612b5e60e08301866126ed565b612b6c61010083018561244a565b612b7a61012083018461244a565b9b9a5050505050505050505050565b6000606082019050612b9e60008301866126ed565b612bab60208301856126ed565b612bb860408301846126ed565b949350505050565b6000819050602082019050919050565b600081519050919050565b6000602082019050919050565b600082825260208201905092915050565b600082825260208201905092915050565b6000612c1582612d81565b9150612c2083612d81565b9250827fffffffffffffffffffffffffffffffffffffffffffffffffffffffffffffffff03821115612c5557612c54612e58565b5b828201905092915050565b6000612c6b82612d81565b9150612c7683612d81565b925082612c8657612c85612e87565b5b828204905092915050565b6000612c9c82612d81565b9150612ca783612d81565b9250817fffffffffffffffffffffffffffffffffffffffffffffffffffffffffffffffff0483118215151615612ce057612cdf612e58565b5b828202905092915050565b6000612cf682612d81565b9150612d0183612d81565b925082821015612d1457612d13612e58565b5b828203905092915050565b6000612d2a82612d61565b9050919050565b6000612d3c82612d61565b9050919050565b60008115159050919050565b6000612d5a82612d1f565b9050919050565b600073ffffffffffffffffffffffffffffffffffffffff82169050919050565b6000819050919050565b6000612d9682612dc1565b9050919050565b6000612da882612daf565b9050919050565b6000612dba82612d61565b9050919050565b6000612dcc82612dd3565b9050919050565b6000612dde82612d61565b9050919050565b6000612df082612d81565b91506000821415612e0457612e03612e58565b5b600182039050919050565b6000612e1a82612d81565b91507fffffffffffffffffffffffffffffffffffffffffffffffffffffffffffffffff821415612e4d57612e4c612e58565b5b600182019050919050565b7f4e487b7100000000000000000000000000000000000000000000000000000000600052601160045260246000fd5b7f4e487b7100000000000000000000000000000000000000000000000000000000600052601260045260246000fd5b7f41756374696f6e2073686f756c64206e6f7420626520656e6465642e00000000600082015250565b7f5072696365206d7573742062652067726561746572207468616e207a65726f00600082015250565b7f4e465420697320616c726561647920636c61696d65642e000000000000000000600082015250565b7f6e6f7420656e6f75676820657468657220746f20636f766572206974656d207060008201527f7269636520616e64206d61726b65742066656500000000000000000000000000602082015250565b7f41756374696f6e20697320616c726561647920636c61696d65642e0000000000600082015250565b7f41756374696f6e2069642073686f756c6420626520626967676572207468616e60008201527f207a65726f2e0000000000000000000000000000000000000000000000000000602082015250565b7f6974656d20646f65736e27742065786973740000000000000000000000000000600082015250565b7f4974656d2069642073686f756c6420626520626967676572207468616e207a6560008201527f726f2e0000000000000000000000000000000000000000000000000000000000602082015250565b7f41756374696f6e2073686f756c6420656e642066697273742e00000000000000600082015250565b7f4f6e6c792077696e6e6572206f722073656c6c65722063616e2072756e20746860008201527f69732066756e6374696f6e2e0000000000000000000000000000000000000000602082015250565b7f41756374696f6e2069642073686f756c6420626520626967676572207468616e60008201527f207a65726f000000000000000000000000000000000000000000000000000000602082015250565b7f70726963652073686f756c642062652067726561746572207468616e207a657260008201527f6f00000000000000000000000000000000000000000000000000000000000000602082015250565b7f4974656d20697320616c726561647920736f6c642e0000000000000000000000600082015250565b7f4f6e6c792073656c6c65722063616e2063616e63656c2074686973206974656d60008201527f2e00000000000000000000000000000000000000000000000000000000000000602082015250565b7f50726963652073686f756c642062652067726561746572207468616e2063757260008201527f72656e742070726963652e000000000000000000000000000000000000000000602082015250565b7f5265656e7472616e637947756172643a207265656e7472616e742063616c6c00600082015250565b7f6974656d20616c726561647920736f6c64206f722063616e63656c6564000000600082015250565b7f4f6e6c792073656c6c65722063616e2063616e63656c2074686973206175637460008201527f696f6e2e00000000000000000000000000000000000000000000000000000000602082015250565b6132f781612d4f565b811461330257600080fd5b50565b61330e81612d81565b811461331957600080fd5b5056fea26469706673582212202ec3cf52c0b18b8d007d2b011f047de68f0cadbcaf25c0e2815f9be32f044a8664736f6c63430008040033",
  "linkReferences": {},
  "deployedLinkReferences": {}
}