{
  "_format": "hh-sol-artifact-1",
  "contractName": "Marketplace",
  "sourceName": "libs/contracts/src/contracts/Marketplace.sol",
  "abi": [
    {
      "inputs": [
        {
          "internalType": "uint256",
          "name": "_feePercent",
          "type": "uint256"
        }
      ],
      "stateMutability": "nonpayable",
      "type": "constructor"
    },
    {
      "anonymous": false,
      "inputs": [
        {
          "indexed": false,
          "internalType": "uint256",
          "name": "auctionId",
          "type": "uint256"
        }
      ],
      "name": "AuctionCanceled",
      "type": "event"
    },
    {
      "anonymous": false,
      "inputs": [
        {
          "indexed": false,
          "internalType": "uint256",
          "name": "auctionId",
          "type": "uint256"
        },
        {
          "indexed": false,
          "internalType": "address",
          "name": "nft",
          "type": "address"
        },
        {
          "indexed": true,
          "internalType": "uint256",
          "name": "tokenId",
          "type": "uint256"
        },
        {
          "indexed": false,
          "internalType": "uint256",
          "name": "price",
          "type": "uint256"
        },
        {
          "indexed": true,
          "internalType": "address",
          "name": "seller",
          "type": "address"
        },
        {
          "indexed": true,
          "internalType": "address",
          "name": "buyer",
          "type": "address"
        }
      ],
      "name": "AuctionEnded",
      "type": "event"
    },
    {
      "anonymous": false,
      "inputs": [
        {
          "indexed": false,
          "internalType": "uint256",
          "name": "auctionId",
          "type": "uint256"
        },
        {
          "indexed": false,
          "internalType": "address",
          "name": "nft",
          "type": "address"
        },
        {
          "indexed": true,
          "internalType": "uint256",
          "name": "tokenId",
          "type": "uint256"
        },
        {
          "indexed": false,
          "internalType": "uint256",
          "name": "price",
          "type": "uint256"
        },
        {
          "indexed": false,
          "internalType": "uint256",
          "name": "timeToEnd",
          "type": "uint256"
        },
        {
          "indexed": true,
          "internalType": "address",
          "name": "seller",
          "type": "address"
        }
      ],
      "name": "AuctionStarted",
      "type": "event"
    },
    {
      "anonymous": false,
      "inputs": [
        {
          "indexed": false,
          "internalType": "uint256",
          "name": "itemId",
          "type": "uint256"
        },
        {
          "indexed": false,
          "internalType": "address",
          "name": "nft",
          "type": "address"
        },
        {
          "indexed": true,
          "internalType": "uint256",
          "name": "tokenId",
          "type": "uint256"
        },
        {
          "indexed": false,
          "internalType": "uint256",
          "name": "price",
          "type": "uint256"
        },
        {
          "indexed": true,
          "internalType": "address",
          "name": "seller",
          "type": "address"
        },
        {
          "indexed": true,
          "internalType": "address",
          "name": "buyer",
          "type": "address"
        }
      ],
      "name": "Bought",
      "type": "event"
    },
    {
      "anonymous": false,
      "inputs": [
        {
          "indexed": false,
          "internalType": "uint256",
          "name": "itemId",
          "type": "uint256"
        }
      ],
      "name": "OfferCanceled",
      "type": "event"
    },
    {
      "anonymous": false,
      "inputs": [
        {
          "indexed": false,
          "internalType": "uint256",
          "name": "itemId",
          "type": "uint256"
        },
        {
          "indexed": false,
          "internalType": "address",
          "name": "nft",
          "type": "address"
        },
        {
          "indexed": true,
          "internalType": "uint256",
          "name": "tokenId",
          "type": "uint256"
        },
        {
          "indexed": false,
          "internalType": "uint256",
          "name": "price",
          "type": "uint256"
        },
        {
          "indexed": true,
          "internalType": "address",
          "name": "seller",
          "type": "address"
        }
      ],
      "name": "Offered",
      "type": "event"
    },
    {
      "anonymous": false,
      "inputs": [
        {
          "indexed": true,
          "internalType": "address",
          "name": "previousOwner",
          "type": "address"
        },
        {
          "indexed": true,
          "internalType": "address",
          "name": "newOwner",
          "type": "address"
        }
      ],
      "name": "OwnershipTransferred",
      "type": "event"
    },
    {
      "stateMutability": "nonpayable",
      "type": "fallback"
    },
    {
      "inputs": [
        {
          "internalType": "contract IERC20Permit",
          "name": "erc20",
          "type": "address"
        },
        {
          "internalType": "contract IERC721",
          "name": "nft",
          "type": "address"
        },
        {
          "internalType": "uint256",
          "name": "_tokenId",
          "type": "uint256"
        },
        {
          "internalType": "uint256",
          "name": "_itemId",
          "type": "uint256"
        },
        {
          "internalType": "bool",
          "name": "isOnSale",
          "type": "bool"
        },
        {
          "internalType": "uint256",
          "name": "deadline",
          "type": "uint256"
        },
        {
          "internalType": "address",
          "name": "offerer",
          "type": "address"
        },
        {
          "internalType": "uint256",
          "name": "amount",
          "type": "uint256"
        },
        {
          "internalType": "uint8",
          "name": "_v",
          "type": "uint8"
        },
        {
          "internalType": "bytes32",
          "name": "_r",
          "type": "bytes32"
        },
        {
          "internalType": "bytes32",
          "name": "_s",
          "type": "bytes32"
        }
      ],
      "name": "acceptERCOffer",
      "outputs": [],
      "stateMutability": "nonpayable",
      "type": "function"
    },
    {
      "inputs": [],
      "name": "auctionItemCount",
      "outputs": [
        {
          "internalType": "uint256",
          "name": "",
          "type": "uint256"
        }
      ],
      "stateMutability": "view",
      "type": "function"
    },
    {
      "inputs": [
        {
          "internalType": "uint256",
          "name": "",
          "type": "uint256"
        }
      ],
      "name": "auctionItems",
      "outputs": [
        {
          "internalType": "uint256",
          "name": "auctionId",
          "type": "uint256"
        },
        {
          "internalType": "contract IERC721",
          "name": "nft",
          "type": "address"
        },
        {
          "internalType": "uint256",
          "name": "tokenId",
          "type": "uint256"
        },
        {
          "internalType": "uint256",
          "name": "price",
          "type": "uint256"
        },
        {
          "internalType": "uint256",
          "name": "timeToEnd",
          "type": "uint256"
        },
        {
          "internalType": "address payable",
          "name": "seller",
          "type": "address"
        },
        {
          "internalType": "bool",
          "name": "claimed",
          "type": "bool"
        },
        {
          "internalType": "bool",
          "name": "canceled",
          "type": "bool"
        }
      ],
      "stateMutability": "view",
      "type": "function"
    },
    {
      "inputs": [
        {
          "internalType": "uint256",
          "name": "_auctionId",
          "type": "uint256"
        }
      ],
      "name": "cancelAuction",
      "outputs": [],
      "stateMutability": "nonpayable",
      "type": "function"
    },
    {
      "inputs": [
        {
          "internalType": "uint256",
          "name": "_itemId",
          "type": "uint256"
        }
      ],
      "name": "cancelOffered",
      "outputs": [],
      "stateMutability": "nonpayable",
      "type": "function"
    },
    {
      "inputs": [
        {
          "internalType": "address payable",
          "name": "_feeAccount",
          "type": "address"
        }
      ],
      "name": "changeFeeAccount",
      "outputs": [],
      "stateMutability": "nonpayable",
      "type": "function"
    },
    {
      "inputs": [
        {
          "internalType": "uint256",
          "name": "_feePercent",
          "type": "uint256"
        }
      ],
      "name": "changeFeePercent",
      "outputs": [],
      "stateMutability": "nonpayable",
      "type": "function"
    },
    {
      "inputs": [
        {
          "internalType": "contract IERC20Permit",
          "name": "erc20",
          "type": "address"
        },
        {
          "internalType": "uint256",
          "name": "_tokenId",
          "type": "uint256"
        },
        {
          "internalType": "uint256",
          "name": "_auctionId",
          "type": "uint256"
        },
        {
          "internalType": "uint256",
          "name": "deadline",
          "type": "uint256"
        },
        {
          "internalType": "address",
          "name": "bidder",
          "type": "address"
        },
        {
          "internalType": "uint256",
          "name": "amount",
          "type": "uint256"
        },
        {
          "internalType": "uint8",
          "name": "_v",
          "type": "uint8"
        },
        {
          "internalType": "bytes32",
          "name": "_r",
          "type": "bytes32"
        },
        {
          "internalType": "bytes32",
          "name": "_s",
          "type": "bytes32"
        }
      ],
      "name": "claimNFT",
      "outputs": [],
      "stateMutability": "nonpayable",
      "type": "function"
    },
    {
      "inputs": [],
      "name": "feeAccount",
      "outputs": [
        {
          "internalType": "address payable",
          "name": "",
          "type": "address"
        }
      ],
      "stateMutability": "view",
      "type": "function"
    },
    {
      "inputs": [],
      "name": "feePercent",
      "outputs": [
        {
          "internalType": "uint256",
          "name": "",
          "type": "uint256"
        }
      ],
      "stateMutability": "view",
      "type": "function"
    },
    {
      "inputs": [
        {
          "internalType": "uint256",
          "name": "_itemId",
          "type": "uint256"
        }
      ],
      "name": "getTotalPrice",
      "outputs": [
        {
          "internalType": "uint256",
          "name": "",
          "type": "uint256"
        }
      ],
      "stateMutability": "view",
      "type": "function"
    },
    {
      "inputs": [],
      "name": "itemCount",
      "outputs": [
        {
          "internalType": "uint256",
          "name": "",
          "type": "uint256"
        }
      ],
      "stateMutability": "view",
      "type": "function"
    },
    {
      "inputs": [
        {
          "internalType": "uint256",
          "name": "",
          "type": "uint256"
        }
      ],
      "name": "items",
      "outputs": [
        {
          "internalType": "uint256",
          "name": "itemId",
          "type": "uint256"
        },
        {
          "internalType": "contract IERC721",
          "name": "nft",
          "type": "address"
        },
        {
          "internalType": "uint256",
          "name": "tokenId",
          "type": "uint256"
        },
        {
          "internalType": "uint256",
          "name": "price",
          "type": "uint256"
        },
        {
          "internalType": "address payable",
          "name": "seller",
          "type": "address"
        },
        {
          "internalType": "bool",
          "name": "sold",
          "type": "bool"
        },
        {
          "internalType": "bool",
          "name": "canceled",
          "type": "bool"
        }
      ],
      "stateMutability": "view",
      "type": "function"
    },
    {
      "inputs": [
        {
          "internalType": "contract IERC721",
          "name": "_nft",
          "type": "address"
        },
        {
          "internalType": "uint256",
          "name": "_tokenId",
          "type": "uint256"
        },
        {
          "internalType": "uint256",
          "name": "_price",
          "type": "uint256"
        }
      ],
      "name": "makeItem",
      "outputs": [],
      "stateMutability": "nonpayable",
      "type": "function"
    },
    {
      "inputs": [],
      "name": "owner",
      "outputs": [
        {
          "internalType": "address",
          "name": "",
          "type": "address"
        }
      ],
      "stateMutability": "view",
      "type": "function"
    },
    {
      "inputs": [
        {
          "internalType": "uint256",
          "name": "_itemId",
          "type": "uint256"
        }
      ],
      "name": "purchaseItem",
      "outputs": [],
      "stateMutability": "payable",
      "type": "function"
    },
    {
      "inputs": [
        {
          "internalType": "uint256[]",
          "name": "_itemIds",
          "type": "uint256[]"
        }
      ],
      "name": "purchaseItem_multiple",
      "outputs": [],
      "stateMutability": "payable",
      "type": "function"
    },
    {
      "inputs": [],
      "name": "renounceOwnership",
      "outputs": [],
      "stateMutability": "nonpayable",
      "type": "function"
    },
    {
      "inputs": [
        {
          "internalType": "uint256",
          "name": "_auctionId",
          "type": "uint256"
        }
      ],
      "name": "sendNftToSeller",
      "outputs": [],
      "stateMutability": "nonpayable",
      "type": "function"
    },
    {
      "inputs": [
        {
          "internalType": "contract IERC721",
          "name": "_nft",
          "type": "address"
        },
        {
          "internalType": "uint256",
          "name": "_tokenId",
          "type": "uint256"
        },
        {
          "internalType": "uint256",
          "name": "_price",
          "type": "uint256"
        },
        {
          "internalType": "uint256",
          "name": "_timeToEnd",
          "type": "uint256"
        }
      ],
      "name": "startAuction",
      "outputs": [],
      "stateMutability": "nonpayable",
      "type": "function"
    },
    {
      "inputs": [
        {
          "internalType": "address",
          "name": "newOwner",
          "type": "address"
        }
      ],
      "name": "transferOwnership",
      "outputs": [],
      "stateMutability": "nonpayable",
      "type": "function"
    }
  ],
  "bytecode": "0x60806040523480156200001157600080fd5b50604051620042ad380380620042ad833981810160405281019062000037919062000211565b60016000819055506200005f620000536200010360201b60201c565b6200010b60201b60201c565b6000811015801562000072575060648111155b620000b4576040517f08c379a0000000000000000000000000000000000000000000000000000000008152600401620000ab90620002ca565b60405180910390fd5b33600260006101000a81548173ffffffffffffffffffffffffffffffffffffffff021916908373ffffffffffffffffffffffffffffffffffffffff1602179055508060038190555050620002ec565b600033905090565b6000600160009054906101000a900473ffffffffffffffffffffffffffffffffffffffff16905081600160006101000a81548173ffffffffffffffffffffffffffffffffffffffff021916908373ffffffffffffffffffffffffffffffffffffffff1602179055508173ffffffffffffffffffffffffffffffffffffffff168173ffffffffffffffffffffffffffffffffffffffff167f8be0079c531659141344cd1fd0a4f28419497f9722a3daafe3b4186f6b6457e060405160405180910390a35050565b600080fd5b6000819050919050565b620001eb81620001d6565b8114620001f757600080fd5b50565b6000815190506200020b81620001e0565b92915050565b6000602082840312156200022a5762000229620001d1565b5b60006200023a84828501620001fa565b91505092915050565b600082825260208201905092915050565b7f66656550657263656e74206d757374206265206265747765656e203020616e6460008201527f2031303000000000000000000000000000000000000000000000000000000000602082015250565b6000620002b260248362000243565b9150620002bf8262000254565b604082019050919050565b60006020820190508181036000830152620002e581620002a3565b9050919050565b613fb180620002fc6000396000f3fe60806040526004361061012e5760003560e01c806396b5a755116100ab578063d2c069f01161006f578063d2c069f0146103bb578063d38ea5bf146103ff578063f2fde38b1461041b578063f8f5f23714610444578063fa00afc71461046d578063fe6d7a6e146104965761012f565b806396b5a755146102c05780639c166273146102e9578063bcd10f9a14610312578063bfb231d21461033b578063ca7dd3751461037e5761012f565b806371ffcb16116100f257806371ffcb16146101fc5780637ee53f0f146102255780637fd6f15c1461024e5780638da5cb5b1461027957806392dab811146102a45761012f565b806334eddf3e1461013d57806365e17c9d1461016657806369244fe0146101915780636bfb0d01146101ba578063715018a6146101e55761012f565b5b34801561013b57600080fd5b005b34801561014957600080fd5b50610164600480360381019061015f9190612803565b6104c1565b005b34801561017257600080fd5b5061017b610524565b6040516101889190612871565b60405180910390f35b34801561019d57600080fd5b506101b860048036038101906101b391906129ed565b61054a565b005b3480156101c657600080fd5b506101cf6109d9565b6040516101dc9190612af0565b60405180910390f35b3480156101f157600080fd5b506101fa6109df565b005b34801561020857600080fd5b50610223600480360381019061021e9190612b37565b6109f3565b005b34801561023157600080fd5b5061024c60048036038101906102479190612803565b610a3f565b005b34801561025a57600080fd5b50610263610c7c565b6040516102709190612af0565b60405180910390f35b34801561028557600080fd5b5061028e610c82565b60405161029b9190612b73565b60405180910390f35b6102be60048036038101906102b99190612bf3565b610cac565b005b3480156102cc57600080fd5b506102e760048036038101906102e29190612803565b61102d565b005b3480156102f557600080fd5b50610310600480360381019061030b9190612c40565b6112b0565b005b34801561031e57600080fd5b5061033960048036038101906103349190612ca7565b61155d565b005b34801561034757600080fd5b50610362600480360381019061035d9190612803565b611a14565b6040516103759796959493929190612ddf565b60405180910390f35b34801561038a57600080fd5b506103a560048036038101906103a09190612803565b611ab0565b6040516103b29190612af0565b60405180910390f35b3480156103c757600080fd5b506103e260048036038101906103dd9190612803565b611af5565b6040516103f6989796959493929190612e4e565b60405180910390f35b61041960048036038101906104149190612803565b611b97565b005b34801561042757600080fd5b50610442600480360381019061043d9190612ecc565b611ff2565b005b34801561045057600080fd5b5061046b60048036038101906104669190612803565b612075565b005b34801561047957600080fd5b50610494600480360381019061048f9190612ef9565b612345565b005b3480156104a257600080fd5b506104ab6125de565b6040516104b89190612af0565b60405180910390f35b6104c96125e4565b600081101580156104db575060648111155b61051a576040517f08c379a000000000000000000000000000000000000000000000000000000000815260040161051190612fcf565b60405180910390fd5b8060038190555050565b600260009054906101000a900473ffffffffffffffffffffffffffffffffffffffff1681565b610552612662565b854210610594576040517f08c379a000000000000000000000000000000000000000000000000000000000815260040161058b9061303b565b60405180910390fd5b8973ffffffffffffffffffffffffffffffffffffffff16636352211e8a6040518263ffffffff1660e01b81526004016105cd9190612af0565b602060405180830381865afa1580156105ea573d6000803e3d6000fd5b505050506040513d601f19601f8201168201806040525081019061060e9190613070565b73ffffffffffffffffffffffffffffffffffffffff163073ffffffffffffffffffffffffffffffffffffffff161461067b576040517f08c379a00000000000000000000000000000000000000000000000000000000081526004016106729061310f565b60405180910390fd5b8a73ffffffffffffffffffffffffffffffffffffffff1663d505accf8630878a8888886040518863ffffffff1660e01b81526004016106c0979695949392919061314d565b600060405180830381600087803b1580156106da57600080fd5b505af11580156106ee573d6000803e3d6000fd5b505050508a73ffffffffffffffffffffffffffffffffffffffff166323b872dd8633876040518463ffffffff1660e01b815260040161072f939291906131bc565b6020604051808303816000875af115801561074e573d6000803e3d6000fd5b505050506040513d601f19601f820116820180604052508101906107729190613208565b508973ffffffffffffffffffffffffffffffffffffffff166323b872dd30878c6040518463ffffffff1660e01b81526004016107b0939291906131bc565b600060405180830381600087803b1580156107ca57600080fd5b505af11580156107de573d6000803e3d6000fd5b5050505086156108d8576000600660008a8152602001908152602001600020905060018160040160146101000a81548160ff0219169083151502179055508573ffffffffffffffffffffffffffffffffffffffff168160040160009054906101000a900473ffffffffffffffffffffffffffffffffffffffff1673ffffffffffffffffffffffffffffffffffffffff1682600201547f8b4c9c8a607d67b321582dd8461041b1dc2ceeca70c8b7f37f8e02095cf2e76d8c8560010160009054906101000a900473ffffffffffffffffffffffffffffffffffffffff168a6040516108ca93929190613235565b60405180910390a4506109c4565b6000600760008a8152602001908152602001600020905060018160050160146101000a81548160ff0219169083151502179055508573ffffffffffffffffffffffffffffffffffffffff168160050160009054906101000a900473ffffffffffffffffffffffffffffffffffffffff1673ffffffffffffffffffffffffffffffffffffffff1682600201547fe9c76f3cd26822fab39fde36b56736739a684a806c8c0cf5eacd75511797ca7b8c8560010160009054906101000a900473ffffffffffffffffffffffffffffffffffffffff168a6040516109ba93929190613235565b60405180910390a4505b6109cc6126b1565b5050505050505050505050565b60045481565b6109e76125e4565b6109f160006126bb565b565b6109fb6125e4565b80600260006101000a81548173ffffffffffffffffffffffffffffffffffffffff021916908373ffffffffffffffffffffffffffffffffffffffff16021790555050565b610a47612662565b60008111610a8a576040517f08c379a0000000000000000000000000000000000000000000000000000000008152600401610a81906132de565b60405180910390fd5b60006006600083815260200190815260200160002090503373ffffffffffffffffffffffffffffffffffffffff168160040160009054906101000a900473ffffffffffffffffffffffffffffffffffffffff1673ffffffffffffffffffffffffffffffffffffffff1614610b33576040517f08c379a0000000000000000000000000000000000000000000000000000000008152600401610b2a90613370565b60405180910390fd5b8060040160149054906101000a900460ff1615610b85576040517f08c379a0000000000000000000000000000000000000000000000000000000008152600401610b7c906133dc565b60405180910390fd5b60018160040160156101000a81548160ff0219169083151502179055508060010160009054906101000a900473ffffffffffffffffffffffffffffffffffffffff1673ffffffffffffffffffffffffffffffffffffffff166342842e0e303384600201546040518463ffffffff1660e01b8152600401610c07939291906131bc565b600060405180830381600087803b158015610c2157600080fd5b505af1158015610c35573d6000803e3d6000fd5b505050507f0ff09947dd7d2583091e8cbfb427fecacb697bf895187b243fd0072c0ee9b95182604051610c689190612af0565b60405180910390a150610c796126b1565b50565b60035481565b6000600160009054906101000a900473ffffffffffffffffffffffffffffffffffffffff16905090565b610cb4612662565b60005b82829050811015610f49576000838383818110610cd757610cd66133fc565b5b905060200201359050600060066000838152602001908152602001600020905060008160040160009054906101000a900473ffffffffffffffffffffffffffffffffffffffff1673ffffffffffffffffffffffffffffffffffffffff168260030154604051610d459061345c565b60006040518083038185875af1925050503d8060008114610d82576040519150601f19603f3d011682016040523d82523d6000602084013e610d87565b606091505b5050905080610dcb576040517f08c379a0000000000000000000000000000000000000000000000000000000008152600401610dc2906134bd565b60405180910390fd5b60018260040160146101000a81548160ff0219169083151502179055508160010160009054906101000a900473ffffffffffffffffffffffffffffffffffffffff1673ffffffffffffffffffffffffffffffffffffffff166342842e0e303385600201546040518463ffffffff1660e01b8152600401610e4d939291906131bc565b600060405180830381600087803b158015610e6757600080fd5b505af1158015610e7b573d6000803e3d6000fd5b505050503373ffffffffffffffffffffffffffffffffffffffff168260040160009054906101000a900473ffffffffffffffffffffffffffffffffffffffff1673ffffffffffffffffffffffffffffffffffffffff1683600201547f8b4c9c8a607d67b321582dd8461041b1dc2ceeca70c8b7f37f8e02095cf2e76d868660010160009054906101000a900473ffffffffffffffffffffffffffffffffffffffff168760030154604051610f3193929190613235565b60405180910390a48380600101945050505050610cb7565b506000600260009054906101000a900473ffffffffffffffffffffffffffffffffffffffff1673ffffffffffffffffffffffffffffffffffffffff16610f8e34612781565b604051610f9a9061345c565b60006040518083038185875af1925050503d8060008114610fd7576040519150601f19603f3d011682016040523d82523d6000602084013e610fdc565b606091505b5050905080611020576040517f08c379a00000000000000000000000000000000000000000000000000000000081526004016110179061354f565b60405180910390fd5b506110296126b1565b5050565b611035612662565b60008111611078576040517f08c379a000000000000000000000000000000000000000000000000000000000815260040161106f906135e1565b60405180910390fd5b60006007600083815260200190815260200160002090503373ffffffffffffffffffffffffffffffffffffffff168160050160009054906101000a900473ffffffffffffffffffffffffffffffffffffffff1673ffffffffffffffffffffffffffffffffffffffff1614611121576040517f08c379a000000000000000000000000000000000000000000000000000000000815260040161111890613673565b60405180910390fd5b8060050160149054906101000a900460ff1615611173576040517f08c379a000000000000000000000000000000000000000000000000000000000815260040161116a906136df565b60405180910390fd5b806004015442106111b9576040517f08c379a00000000000000000000000000000000000000000000000000000000081526004016111b09061374b565b60405180910390fd5b60018160050160156101000a81548160ff0219169083151502179055508060010160009054906101000a900473ffffffffffffffffffffffffffffffffffffffff1673ffffffffffffffffffffffffffffffffffffffff166323b872dd303384600201546040518463ffffffff1660e01b815260040161123b939291906131bc565b600060405180830381600087803b15801561125557600080fd5b505af1158015611269573d6000803e3d6000fd5b505050507f28601d865dccc9f113e15a7185c1b38c085d598c71250d3337916a428536d7718260405161129c9190612af0565b60405180910390a1506112ad6126b1565b50565b6112b8612662565b600082116112fb576040517f08c379a00000000000000000000000000000000000000000000000000000000081526004016112f2906137dd565b60405180910390fd5b6005600081548092919060010191905055508373ffffffffffffffffffffffffffffffffffffffff166323b872dd3330866040518463ffffffff1660e01b815260040161134a939291906131bc565b600060405180830381600087803b15801561136457600080fd5b505af1158015611378573d6000803e3d6000fd5b5050505060405180610100016040528060055481526020018573ffffffffffffffffffffffffffffffffffffffff1681526020018481526020018381526020018281526020013373ffffffffffffffffffffffffffffffffffffffff168152602001600015158152602001600015158152506007600060055481526020019081526020016000206000820151816000015560208201518160010160006101000a81548173ffffffffffffffffffffffffffffffffffffffff021916908373ffffffffffffffffffffffffffffffffffffffff16021790555060408201518160020155606082015181600301556080820151816004015560a08201518160050160006101000a81548173ffffffffffffffffffffffffffffffffffffffff021916908373ffffffffffffffffffffffffffffffffffffffff16021790555060c08201518160050160146101000a81548160ff02191690831515021790555060e08201518160050160156101000a81548160ff0219169083151502179055509050503373ffffffffffffffffffffffffffffffffffffffff16837fd184fdb1358a28e5370b7ea6f753efc3313b7fd11d6750f270cf79f109a63f1760055487868660405161154794939291906137fd565b60405180910390a36115576126b1565b50505050565b611565612662565b61156d6125e4565b600087116115b0576040517f08c379a00000000000000000000000000000000000000000000000000000000081526004016115a7906138b4565b60405180910390fd5b6000600760008981526020019081526020016000209050806004015442101561160e576040517f08c379a000000000000000000000000000000000000000000000000000000000815260040161160590613920565b60405180910390fd5b8060050160149054906101000a900460ff1615611660576040517f08c379a00000000000000000000000000000000000000000000000000000000081526004016116579061398c565b60405180910390fd5b8973ffffffffffffffffffffffffffffffffffffffff1663d505accf8730888b8989896040518863ffffffff1660e01b81526004016116a5979695949392919061314d565b600060405180830381600087803b1580156116bf57600080fd5b505af11580156116d3573d6000803e3d6000fd5b5050505060006064600354876116e991906139db565b6116f39190613a4c565b905060008b73ffffffffffffffffffffffffffffffffffffffff166323b872dd89600260009054906101000a900473ffffffffffffffffffffffffffffffffffffffff16856040518463ffffffff1660e01b815260040161175693929190613a9e565b6020604051808303816000875af1158015611775573d6000803e3d6000fd5b505050506040513d601f19601f820116820180604052508101906117999190613208565b905060008c73ffffffffffffffffffffffffffffffffffffffff166323b872dd8a8660050160009054906101000a900473ffffffffffffffffffffffffffffffffffffffff16868c6117eb9190613ad5565b6040518463ffffffff1660e01b815260040161180993929190613a9e565b6020604051808303816000875af1158015611828573d6000803e3d6000fd5b505050506040513d601f19601f8201168201806040525081019061184c9190613208565b90508180156118585750805b611897576040517f08c379a000000000000000000000000000000000000000000000000000000000815260040161188e90613b7b565b60405180910390fd5b8360010160009054906101000a900473ffffffffffffffffffffffffffffffffffffffff1673ffffffffffffffffffffffffffffffffffffffff166342842e0e308b8f6040518463ffffffff1660e01b81526004016118f8939291906131bc565b600060405180830381600087803b15801561191257600080fd5b505af1158015611926573d6000803e3d6000fd5b5050505060018460050160146101000a81548160ff0219169083151502179055508873ffffffffffffffffffffffffffffffffffffffff168460050160009054906101000a900473ffffffffffffffffffffffffffffffffffffffff1673ffffffffffffffffffffffffffffffffffffffff1685600201547fe9c76f3cd26822fab39fde36b56736739a684a806c8c0cf5eacd75511797ca7b8e8860010160009054906101000a900473ffffffffffffffffffffffffffffffffffffffff168d6040516119f593929190613235565b60405180910390a450505050611a096126b1565b505050505050505050565b60066020528060005260406000206000915090508060000154908060010160009054906101000a900473ffffffffffffffffffffffffffffffffffffffff16908060020154908060030154908060040160009054906101000a900473ffffffffffffffffffffffffffffffffffffffff16908060040160149054906101000a900460ff16908060040160159054906101000a900460ff16905087565b600060646003546064611ac39190613b9b565b6006600085815260200190815260200160002060030154611ae491906139db565b611aee9190613a4c565b9050919050565b60076020528060005260406000206000915090508060000154908060010160009054906101000a900473ffffffffffffffffffffffffffffffffffffffff16908060020154908060030154908060040154908060050160009054906101000a900473ffffffffffffffffffffffffffffffffffffffff16908060050160149054906101000a900460ff16908060050160159054906101000a900460ff16905088565b611b9f612662565b6000611baa82611ab0565b90506000600660008481526020019081526020016000209050600083118015611bd557506004548311155b611c14576040517f08c379a0000000000000000000000000000000000000000000000000000000008152600401611c0b90613c1b565b60405180910390fd5b81341015611c57576040517f08c379a0000000000000000000000000000000000000000000000000000000008152600401611c4e90613cad565b60405180910390fd5b8060040160149054906101000a900460ff16158015611c8557508060040160159054906101000a900460ff16155b611cc4576040517f08c379a0000000000000000000000000000000000000000000000000000000008152600401611cbb90613d19565b60405180910390fd5b60008160040160009054906101000a900473ffffffffffffffffffffffffffffffffffffffff1673ffffffffffffffffffffffffffffffffffffffff168260030154604051611d129061345c565b60006040518083038185875af1925050503d8060008114611d4f576040519150601f19603f3d011682016040523d82523d6000602084013e611d54565b606091505b5050905080611d98576040517f08c379a0000000000000000000000000000000000000000000000000000000008152600401611d8f906134bd565b60405180910390fd5b6000600260009054906101000a900473ffffffffffffffffffffffffffffffffffffffff1673ffffffffffffffffffffffffffffffffffffffff16836003015485611de39190613ad5565b604051611def9061345c565b60006040518083038185875af1925050503d8060008114611e2c576040519150601f19603f3d011682016040523d82523d6000602084013e611e31565b606091505b5050905080611e75576040517f08c379a0000000000000000000000000000000000000000000000000000000008152600401611e6c9061354f565b60405180910390fd5b60018360040160146101000a81548160ff0219169083151502179055508260010160009054906101000a900473ffffffffffffffffffffffffffffffffffffffff1673ffffffffffffffffffffffffffffffffffffffff166342842e0e303386600201546040518463ffffffff1660e01b8152600401611ef7939291906131bc565b600060405180830381600087803b158015611f1157600080fd5b505af1158015611f25573d6000803e3d6000fd5b505050503373ffffffffffffffffffffffffffffffffffffffff168360040160009054906101000a900473ffffffffffffffffffffffffffffffffffffffff1673ffffffffffffffffffffffffffffffffffffffff1684600201547f8b4c9c8a607d67b321582dd8461041b1dc2ceeca70c8b7f37f8e02095cf2e76d888760010160009054906101000a900473ffffffffffffffffffffffffffffffffffffffff168860030154604051611fdb93929190613235565b60405180910390a450505050611fef6126b1565b50565b611ffa6125e4565b600073ffffffffffffffffffffffffffffffffffffffff168173ffffffffffffffffffffffffffffffffffffffff1603612069576040517f08c379a000000000000000000000000000000000000000000000000000000000815260040161206090613dab565b60405180910390fd5b612072816126bb565b50565b61207d612662565b6120856125e4565b600081116120c8576040517f08c379a00000000000000000000000000000000000000000000000000000000081526004016120bf906138b4565b60405180910390fd5b60006007600083815260200190815260200160002090508060050160149054906101000a900460ff1615612131576040517f08c379a00000000000000000000000000000000000000000000000000000000081526004016121289061398c565b60405180910390fd5b8060050160159054906101000a900460ff1615612183576040517f08c379a000000000000000000000000000000000000000000000000000000000815260040161217a90613e17565b60405180910390fd5b8060010160009054906101000a900473ffffffffffffffffffffffffffffffffffffffff1673ffffffffffffffffffffffffffffffffffffffff166323b872dd308360050160009054906101000a900473ffffffffffffffffffffffffffffffffffffffff1684600201546040518463ffffffff1660e01b815260040161220c93929190613a9e565b600060405180830381600087803b15801561222657600080fd5b505af115801561223a573d6000803e3d6000fd5b5050505060018160050160156101000a81548160ff0219169083151502179055508060050160009054906101000a900473ffffffffffffffffffffffffffffffffffffffff1673ffffffffffffffffffffffffffffffffffffffff168160050160009054906101000a900473ffffffffffffffffffffffffffffffffffffffff1673ffffffffffffffffffffffffffffffffffffffff1682600201547fe9c76f3cd26822fab39fde36b56736739a684a806c8c0cf5eacd75511797ca7b858560010160009054906101000a900473ffffffffffffffffffffffffffffffffffffffff16866003015460405161233193929190613235565b60405180910390a4506123426126b1565b50565b61234d612662565b60008111612390576040517f08c379a000000000000000000000000000000000000000000000000000000000815260040161238790613e83565b60405180910390fd5b6004600081548092919060010191905055508273ffffffffffffffffffffffffffffffffffffffff166323b872dd3330856040518463ffffffff1660e01b81526004016123df939291906131bc565b600060405180830381600087803b1580156123f957600080fd5b505af115801561240d573d6000803e3d6000fd5b505050506040518060e0016040528060045481526020018473ffffffffffffffffffffffffffffffffffffffff1681526020018381526020018281526020013373ffffffffffffffffffffffffffffffffffffffff168152602001600015158152602001600015158152506006600060045481526020019081526020016000206000820151816000015560208201518160010160006101000a81548173ffffffffffffffffffffffffffffffffffffffff021916908373ffffffffffffffffffffffffffffffffffffffff160217905550604082015181600201556060820151816003015560808201518160040160006101000a81548173ffffffffffffffffffffffffffffffffffffffff021916908373ffffffffffffffffffffffffffffffffffffffff16021790555060a08201518160040160146101000a81548160ff02191690831515021790555060c08201518160040160156101000a81548160ff0219169083151502179055509050503373ffffffffffffffffffffffffffffffffffffffff16827f655a0cf9c8db81512be9a76dc1c5ae5380b8816ce6ad659cd61b715e2999d59a60045486856040516125c993929190613235565b60405180910390a36125d96126b1565b505050565b60055481565b6125ec6127bb565b73ffffffffffffffffffffffffffffffffffffffff1661260a610c82565b73ffffffffffffffffffffffffffffffffffffffff1614612660576040517f08c379a000000000000000000000000000000000000000000000000000000000815260040161265790613eef565b60405180910390fd5b565b6002600054036126a7576040517f08c379a000000000000000000000000000000000000000000000000000000000815260040161269e90613f5b565b60405180910390fd5b6002600081905550565b6001600081905550565b6000600160009054906101000a900473ffffffffffffffffffffffffffffffffffffffff16905081600160006101000a81548173ffffffffffffffffffffffffffffffffffffffff021916908373ffffffffffffffffffffffffffffffffffffffff1602179055508173ffffffffffffffffffffffffffffffffffffffff168173ffffffffffffffffffffffffffffffffffffffff167f8be0079c531659141344cd1fd0a4f28419497f9722a3daafe3b4186f6b6457e060405160405180910390a35050565b600060035460646127929190613b9b565b60648361279f91906139db565b6127a99190613a4c565b826127b49190613ad5565b9050919050565b600033905090565b600080fd5b600080fd5b6000819050919050565b6127e0816127cd565b81146127eb57600080fd5b50565b6000813590506127fd816127d7565b92915050565b600060208284031215612819576128186127c3565b5b6000612827848285016127ee565b91505092915050565b600073ffffffffffffffffffffffffffffffffffffffff82169050919050565b600061285b82612830565b9050919050565b61286b81612850565b82525050565b60006020820190506128866000830184612862565b92915050565b600061289782612830565b9050919050565b60006128a98261288c565b9050919050565b6128b98161289e565b81146128c457600080fd5b50565b6000813590506128d6816128b0565b92915050565b60006128e78261288c565b9050919050565b6128f7816128dc565b811461290257600080fd5b50565b600081359050612914816128ee565b92915050565b60008115159050919050565b61292f8161291a565b811461293a57600080fd5b50565b60008135905061294c81612926565b92915050565b61295b8161288c565b811461296657600080fd5b50565b60008135905061297881612952565b92915050565b600060ff82169050919050565b6129948161297e565b811461299f57600080fd5b50565b6000813590506129b18161298b565b92915050565b6000819050919050565b6129ca816129b7565b81146129d557600080fd5b50565b6000813590506129e7816129c1565b92915050565b60008060008060008060008060008060006101608c8e031215612a1357612a126127c3565b5b6000612a218e828f016128c7565b9b50506020612a328e828f01612905565b9a50506040612a438e828f016127ee565b9950506060612a548e828f016127ee565b9850506080612a658e828f0161293d565b97505060a0612a768e828f016127ee565b96505060c0612a878e828f01612969565b95505060e0612a988e828f016127ee565b945050610100612aaa8e828f016129a2565b935050610120612abc8e828f016129d8565b925050610140612ace8e828f016129d8565b9150509295989b509295989b9093969950565b612aea816127cd565b82525050565b6000602082019050612b056000830184612ae1565b92915050565b612b1481612850565b8114612b1f57600080fd5b50565b600081359050612b3181612b0b565b92915050565b600060208284031215612b4d57612b4c6127c3565b5b6000612b5b84828501612b22565b91505092915050565b612b6d8161288c565b82525050565b6000602082019050612b886000830184612b64565b92915050565b600080fd5b600080fd5b600080fd5b60008083601f840112612bb357612bb2612b8e565b5b8235905067ffffffffffffffff811115612bd057612bcf612b93565b5b602083019150836020820283011115612bec57612beb612b98565b5b9250929050565b60008060208385031215612c0a57612c096127c3565b5b600083013567ffffffffffffffff811115612c2857612c276127c8565b5b612c3485828601612b9d565b92509250509250929050565b60008060008060808587031215612c5a57612c596127c3565b5b6000612c6887828801612905565b9450506020612c79878288016127ee565b9350506040612c8a878288016127ee565b9250506060612c9b878288016127ee565b91505092959194509250565b60008060008060008060008060006101208a8c031215612cca57612cc96127c3565b5b6000612cd88c828d016128c7565b9950506020612ce98c828d016127ee565b9850506040612cfa8c828d016127ee565b9750506060612d0b8c828d016127ee565b9650506080612d1c8c828d01612969565b95505060a0612d2d8c828d016127ee565b94505060c0612d3e8c828d016129a2565b93505060e0612d4f8c828d016129d8565b925050610100612d618c828d016129d8565b9150509295985092959850929598565b6000819050919050565b6000612d96612d91612d8c84612830565b612d71565b612830565b9050919050565b6000612da882612d7b565b9050919050565b6000612dba82612d9d565b9050919050565b612dca81612daf565b82525050565b612dd98161291a565b82525050565b600060e082019050612df4600083018a612ae1565b612e016020830189612dc1565b612e0e6040830188612ae1565b612e1b6060830187612ae1565b612e286080830186612862565b612e3560a0830185612dd0565b612e4260c0830184612dd0565b98975050505050505050565b600061010082019050612e64600083018b612ae1565b612e71602083018a612dc1565b612e7e6040830189612ae1565b612e8b6060830188612ae1565b612e986080830187612ae1565b612ea560a0830186612862565b612eb260c0830185612dd0565b612ebf60e0830184612dd0565b9998505050505050505050565b600060208284031215612ee257612ee16127c3565b5b6000612ef084828501612969565b91505092915050565b600080600060608486031215612f1257612f116127c3565b5b6000612f2086828701612905565b9350506020612f31868287016127ee565b9250506040612f42868287016127ee565b9150509250925092565b600082825260208201905092915050565b7f66656550657263656e74206d757374206265206265747765656e203020616e6460008201527f2031303000000000000000000000000000000000000000000000000000000000602082015250565b6000612fb9602483612f4c565b9150612fc482612f5d565b604082019050919050565b60006020820190508181036000830152612fe881612fac565b9050919050565b7f4f6666657220646561646c696e65206973206578636565646564000000000000600082015250565b6000613025601a83612f4c565b915061303082612fef565b602082019050919050565b6000602082019050818103600083015261305481613018565b9050919050565b60008151905061306a81612952565b92915050565b600060208284031215613086576130856127c3565b5b60006130948482850161305b565b91505092915050565b7f4f6e6c79206d61726b6574706c616365206974656d732063616e20626520616360008201527f6365707465640000000000000000000000000000000000000000000000000000602082015250565b60006130f9602683612f4c565b91506131048261309d565b604082019050919050565b60006020820190508181036000830152613128816130ec565b9050919050565b6131388161297e565b82525050565b613147816129b7565b82525050565b600060e082019050613162600083018a612b64565b61316f6020830189612b64565b61317c6040830188612ae1565b6131896060830187612ae1565b613196608083018661312f565b6131a360a083018561313e565b6131b060c083018461313e565b98975050505050505050565b60006060820190506131d16000830186612b64565b6131de6020830185612b64565b6131eb6040830184612ae1565b949350505050565b60008151905061320281612926565b92915050565b60006020828403121561321e5761321d6127c3565b5b600061322c848285016131f3565b91505092915050565b600060608201905061324a6000830186612ae1565b6132576020830185612b64565b6132646040830184612ae1565b949350505050565b7f4974656d2069642073686f756c6420626520626967676572207468616e207a6560008201527f726f2e0000000000000000000000000000000000000000000000000000000000602082015250565b60006132c8602383612f4c565b91506132d38261326c565b604082019050919050565b600060208201905081810360008301526132f7816132bb565b9050919050565b7f4f6e6c792073656c6c65722063616e2063616e63656c2074686973206974656d60008201527f2e00000000000000000000000000000000000000000000000000000000000000602082015250565b600061335a602183612f4c565b9150613365826132fe565b604082019050919050565b600060208201905081810360008301526133898161334d565b9050919050565b7f4974656d20697320616c726561647920736f6c642e0000000000000000000000600082015250565b60006133c6601583612f4c565b91506133d182613390565b602082019050919050565b600060208201905081810360008301526133f5816133b9565b9050919050565b7f4e487b7100000000000000000000000000000000000000000000000000000000600052603260045260246000fd5b600081905092915050565b50565b600061344660008361342b565b915061345182613436565b600082019050919050565b600061346782613439565b9150819050919050565b7f6661696c656420746f2073656e6420457468657220746f2073656c6c65720000600082015250565b60006134a7601e83612f4c565b91506134b282613471565b602082019050919050565b600060208201905081810360008301526134d68161349a565b9050919050565b7f6661696c656420746f2073656e6420457468657220746f206665654163636f7560008201527f6e74000000000000000000000000000000000000000000000000000000000000602082015250565b6000613539602283612f4c565b9150613544826134dd565b604082019050919050565b600060208201905081810360008301526135688161352c565b9050919050565b7f41756374696f6e2069642073686f756c6420626520626967676572207468616e60008201527f207a65726f2e0000000000000000000000000000000000000000000000000000602082015250565b60006135cb602683612f4c565b91506135d68261356f565b604082019050919050565b600060208201905081810360008301526135fa816135be565b9050919050565b7f4f6e6c792073656c6c65722063616e2063616e63656c2074686973206175637460008201527f696f6e2e00000000000000000000000000000000000000000000000000000000602082015250565b600061365d602483612f4c565b915061366882613601565b604082019050919050565b6000602082019050818103600083015261368c81613650565b9050919050565b7f41756374696f6e20697320616c726561647920636c61696d65642e0000000000600082015250565b60006136c9601b83612f4c565b91506136d482613693565b602082019050919050565b600060208201905081810360008301526136f8816136bc565b9050919050565b7f41756374696f6e2073686f756c64206e6f7420626520656e6465642e00000000600082015250565b6000613735601c83612f4c565b9150613740826136ff565b602082019050919050565b6000602082019050818103600083015261376481613728565b9050919050565b7f70726963652073686f756c642062652067726561746572207468616e207a657260008201527f6f00000000000000000000000000000000000000000000000000000000000000602082015250565b60006137c7602183612f4c565b91506137d28261376b565b604082019050919050565b600060208201905081810360008301526137f6816137ba565b9050919050565b60006080820190506138126000830187612ae1565b61381f6020830186612b64565b61382c6040830185612ae1565b6138396060830184612ae1565b95945050505050565b7f41756374696f6e2069642073686f756c6420626520626967676572207468616e60008201527f207a65726f000000000000000000000000000000000000000000000000000000602082015250565b600061389e602583612f4c565b91506138a982613842565b604082019050919050565b600060208201905081810360008301526138cd81613891565b9050919050565b7f41756374696f6e2073686f756c6420656e642066697273742e00000000000000600082015250565b600061390a601983612f4c565b9150613915826138d4565b602082019050919050565b60006020820190508181036000830152613939816138fd565b9050919050565b7f4e465420697320616c726561647920636c61696d65642e000000000000000000600082015250565b6000613976601783612f4c565b915061398182613940565b602082019050919050565b600060208201905081810360008301526139a581613969565b9050919050565b7f4e487b7100000000000000000000000000000000000000000000000000000000600052601160045260246000fd5b60006139e6826127cd565b91506139f1836127cd565b92508282026139ff816127cd565b91508282048414831517613a1657613a156139ac565b5b5092915050565b7f4e487b7100000000000000000000000000000000000000000000000000000000600052601260045260246000fd5b6000613a57826127cd565b9150613a62836127cd565b925082613a7257613a71613a1d565b5b828204905092915050565b6000613a8882612d9d565b9050919050565b613a9881613a7d565b82525050565b6000606082019050613ab36000830186612b64565b613ac06020830185613a8f565b613acd6040830184612ae1565b949350505050565b6000613ae0826127cd565b9150613aeb836127cd565b9250828203905081811115613b0357613b026139ac565b5b92915050565b7f4661696c656420746f207472616e7366657220666565206f722073656c6c657260008201527f20616d6f756e742e000000000000000000000000000000000000000000000000602082015250565b6000613b65602883612f4c565b9150613b7082613b09565b604082019050919050565b60006020820190508181036000830152613b9481613b58565b9050919050565b6000613ba6826127cd565b9150613bb1836127cd565b9250828201905080821115613bc957613bc86139ac565b5b92915050565b7f6974656d20646f65736e27742065786973740000000000000000000000000000600082015250565b6000613c05601283612f4c565b9150613c1082613bcf565b602082019050919050565b60006020820190508181036000830152613c3481613bf8565b9050919050565b7f6e6f7420656e6f75676820657468657220746f20636f766572206974656d207060008201527f7269636520616e64206d61726b65742066656500000000000000000000000000602082015250565b6000613c97603383612f4c565b9150613ca282613c3b565b604082019050919050565b60006020820190508181036000830152613cc681613c8a565b9050919050565b7f6974656d20616c726561647920736f6c64206f722063616e63656c6564000000600082015250565b6000613d03601d83612f4c565b9150613d0e82613ccd565b602082019050919050565b60006020820190508181036000830152613d3281613cf6565b9050919050565b7f4f776e61626c653a206e6577206f776e657220697320746865207a65726f206160008201527f6464726573730000000000000000000000000000000000000000000000000000602082015250565b6000613d95602683612f4c565b9150613da082613d39565b604082019050919050565b60006020820190508181036000830152613dc481613d88565b9050919050565b7f41756374696f6e20697320616c72656164792063616e63656c65642e00000000600082015250565b6000613e01601c83612f4c565b9150613e0c82613dcb565b602082019050919050565b60006020820190508181036000830152613e3081613df4565b9050919050565b7f5072696365206d7573742062652067726561746572207468616e207a65726f00600082015250565b6000613e6d601f83612f4c565b9150613e7882613e37565b602082019050919050565b60006020820190508181036000830152613e9c81613e60565b9050919050565b7f4f776e61626c653a2063616c6c6572206973206e6f7420746865206f776e6572600082015250565b6000613ed9602083612f4c565b9150613ee482613ea3565b602082019050919050565b60006020820190508181036000830152613f0881613ecc565b9050919050565b7f5265656e7472616e637947756172643a207265656e7472616e742063616c6c00600082015250565b6000613f45601f83612f4c565b9150613f5082613f0f565b602082019050919050565b60006020820190508181036000830152613f7481613f38565b905091905056fea264697066735822122045beae8c732ba56d1bb80c3990f86c9bd2f25e0be18bca6eadd0706950e6f44964736f6c63430008120033",
  "linkReferences": {},
  "deployedLinkReferences": {}
}