{
  "_format": "hh-sol-artifact-1",
  "contractName": "Marketplace",
  "sourceName": "libs/contracts/src/contracts/Marketplace.sol",
  "abi": [
    {
      "inputs": [
        {
          "internalType": "uint256",
          "name": "_feePercent",
          "type": "uint256"
        }
      ],
      "stateMutability": "nonpayable",
      "type": "constructor"
    },
    {
      "anonymous": false,
      "inputs": [
        {
          "indexed": false,
          "internalType": "uint256",
          "name": "auctionId",
          "type": "uint256"
        }
      ],
      "name": "AuctionCanceled",
      "type": "event"
    },
    {
      "anonymous": false,
      "inputs": [
        {
          "indexed": false,
          "internalType": "uint256",
          "name": "auctionId",
          "type": "uint256"
        },
        {
          "indexed": false,
          "internalType": "address",
          "name": "nft",
          "type": "address"
        },
        {
          "indexed": true,
          "internalType": "uint256",
          "name": "tokenId",
          "type": "uint256"
        },
        {
          "indexed": false,
          "internalType": "uint256",
          "name": "price",
          "type": "uint256"
        },
        {
          "indexed": true,
          "internalType": "address",
          "name": "seller",
          "type": "address"
        },
        {
          "indexed": true,
          "internalType": "address",
          "name": "buyer",
          "type": "address"
        }
      ],
      "name": "AuctionEnded",
      "type": "event"
    },
    {
      "anonymous": false,
      "inputs": [
        {
          "indexed": false,
          "internalType": "uint256",
          "name": "auctionId",
          "type": "uint256"
        },
        {
          "indexed": false,
          "internalType": "address",
          "name": "nft",
          "type": "address"
        },
        {
          "indexed": true,
          "internalType": "uint256",
          "name": "tokenId",
          "type": "uint256"
        },
        {
          "indexed": false,
          "internalType": "uint256",
          "name": "price",
          "type": "uint256"
        },
        {
          "indexed": false,
          "internalType": "uint256",
          "name": "timeToEnd",
          "type": "uint256"
        },
        {
          "indexed": true,
          "internalType": "address",
          "name": "seller",
          "type": "address"
        }
      ],
      "name": "AuctionStarted",
      "type": "event"
    },
    {
      "anonymous": false,
      "inputs": [
        {
          "indexed": false,
          "internalType": "uint256",
          "name": "itemId",
          "type": "uint256"
        },
        {
          "indexed": false,
          "internalType": "address",
          "name": "nft",
          "type": "address"
        },
        {
          "indexed": true,
          "internalType": "uint256",
          "name": "tokenId",
          "type": "uint256"
        },
        {
          "indexed": false,
          "internalType": "uint256",
          "name": "price",
          "type": "uint256"
        },
        {
          "indexed": true,
          "internalType": "address",
          "name": "seller",
          "type": "address"
        },
        {
          "indexed": true,
          "internalType": "address",
          "name": "buyer",
          "type": "address"
        }
      ],
      "name": "Bought",
      "type": "event"
    },
    {
      "anonymous": false,
      "inputs": [
        {
          "indexed": false,
          "internalType": "uint256",
          "name": "itemId",
          "type": "uint256"
        }
      ],
      "name": "OfferCanceled",
      "type": "event"
    },
    {
      "anonymous": false,
      "inputs": [
        {
          "indexed": false,
          "internalType": "uint256",
          "name": "itemId",
          "type": "uint256"
        },
        {
          "indexed": false,
          "internalType": "address",
          "name": "nft",
          "type": "address"
        },
        {
          "indexed": true,
          "internalType": "uint256",
          "name": "tokenId",
          "type": "uint256"
        },
        {
          "indexed": false,
          "internalType": "uint256",
          "name": "price",
          "type": "uint256"
        },
        {
          "indexed": true,
          "internalType": "address",
          "name": "seller",
          "type": "address"
        }
      ],
      "name": "Offered",
      "type": "event"
    },
    {
      "stateMutability": "nonpayable",
      "type": "fallback"
    },
    {
      "inputs": [
        {
          "internalType": "contract IERC20Permit",
          "name": "erc20",
          "type": "address"
        },
        {
          "internalType": "contract IERC721",
          "name": "nft",
          "type": "address"
        },
        {
          "internalType": "uint256",
          "name": "_tokenId",
          "type": "uint256"
        },
        {
          "internalType": "uint256",
          "name": "_itemId",
          "type": "uint256"
        },
        {
          "internalType": "uint256",
          "name": "_offerIndex",
          "type": "uint256"
        },
        {
          "internalType": "bool",
          "name": "isOnSale",
          "type": "bool"
        }
      ],
      "name": "acceptERCOffer",
      "outputs": [],
      "stateMutability": "nonpayable",
      "type": "function"
    },
    {
      "inputs": [],
      "name": "activeAuctionItemCount",
      "outputs": [
        {
          "internalType": "uint256",
          "name": "",
          "type": "uint256"
        }
      ],
      "stateMutability": "view",
      "type": "function"
    },
    {
      "inputs": [
        {
          "internalType": "uint256",
          "name": "",
          "type": "uint256"
        }
      ],
      "name": "activeAuctionItemIds",
      "outputs": [
        {
          "internalType": "uint256",
          "name": "",
          "type": "uint256"
        }
      ],
      "stateMutability": "view",
      "type": "function"
    },
    {
      "inputs": [],
      "name": "activeListedItemCount",
      "outputs": [
        {
          "internalType": "uint256",
          "name": "",
          "type": "uint256"
        }
      ],
      "stateMutability": "view",
      "type": "function"
    },
    {
      "inputs": [
        {
          "internalType": "uint256",
          "name": "",
          "type": "uint256"
        }
      ],
      "name": "activeListedItemIds",
      "outputs": [
        {
          "internalType": "uint256",
          "name": "",
          "type": "uint256"
        }
      ],
      "stateMutability": "view",
      "type": "function"
    },
    {
      "inputs": [],
      "name": "auctionItemCount",
      "outputs": [
        {
          "internalType": "uint256",
          "name": "",
          "type": "uint256"
        }
      ],
      "stateMutability": "view",
      "type": "function"
    },
    {
      "inputs": [
        {
          "internalType": "uint256",
          "name": "",
          "type": "uint256"
        }
      ],
      "name": "auctionItems",
      "outputs": [
        {
          "internalType": "uint256",
          "name": "auctionId",
          "type": "uint256"
        },
        {
          "internalType": "contract IERC721",
          "name": "nft",
          "type": "address"
        },
        {
          "internalType": "uint256",
          "name": "tokenId",
          "type": "uint256"
        },
        {
          "internalType": "uint256",
          "name": "price",
          "type": "uint256"
        },
        {
          "internalType": "uint256",
          "name": "timeToEnd",
          "type": "uint256"
        },
        {
          "internalType": "address payable",
          "name": "winner",
          "type": "address"
        },
        {
          "internalType": "address payable",
          "name": "seller",
          "type": "address"
        },
        {
          "internalType": "uint256",
          "name": "deposited",
          "type": "uint256"
        },
        {
          "internalType": "bool",
          "name": "claimed",
          "type": "bool"
        },
        {
          "internalType": "bool",
          "name": "canceled",
          "type": "bool"
        }
      ],
      "stateMutability": "view",
      "type": "function"
    },
    {
      "inputs": [
        {
          "internalType": "uint256",
          "name": "_auctionId",
          "type": "uint256"
        }
      ],
      "name": "cancelAuction",
      "outputs": [],
      "stateMutability": "payable",
      "type": "function"
    },
    {
      "inputs": [
        {
          "internalType": "contract IERC20Permit",
          "name": "erc20",
          "type": "address"
        },
        {
          "internalType": "uint256",
          "name": "_tokenId",
          "type": "uint256"
        },
        {
          "internalType": "uint256",
          "name": "_offerIndex",
          "type": "uint256"
        }
      ],
      "name": "cancelERCOffer",
      "outputs": [],
      "stateMutability": "nonpayable",
      "type": "function"
    },
    {
      "inputs": [
        {
          "internalType": "uint256",
          "name": "_itemId",
          "type": "uint256"
        }
      ],
      "name": "cancelOffered",
      "outputs": [],
      "stateMutability": "nonpayable",
      "type": "function"
    },
    {
      "inputs": [
        {
          "internalType": "uint256",
          "name": "_auctionId",
          "type": "uint256"
        }
      ],
      "name": "claimNFT",
      "outputs": [],
      "stateMutability": "nonpayable",
      "type": "function"
    },
    {
      "inputs": [],
      "name": "feeAccount",
      "outputs": [
        {
          "internalType": "address payable",
          "name": "",
          "type": "address"
        }
      ],
      "stateMutability": "view",
      "type": "function"
    },
    {
      "inputs": [],
      "name": "feePercent",
      "outputs": [
        {
          "internalType": "uint256",
          "name": "",
          "type": "uint256"
        }
      ],
      "stateMutability": "view",
      "type": "function"
    },
    {
      "inputs": [
        {
          "internalType": "uint256",
          "name": "_startFrom",
          "type": "uint256"
        }
      ],
      "name": "getActiveListedItemIds",
      "outputs": [
        {
          "internalType": "uint256[]",
          "name": "",
          "type": "uint256[]"
        }
      ],
      "stateMutability": "view",
      "type": "function"
    },
    {
      "inputs": [
        {
          "internalType": "uint256",
          "name": "_tokenId",
          "type": "uint256"
        }
      ],
      "name": "getERCOffers",
      "outputs": [
        {
          "components": [
            {
              "internalType": "uint256",
              "name": "offerIndex",
              "type": "uint256"
            },
            {
              "internalType": "address",
              "name": "offerer",
              "type": "address"
            },
            {
              "internalType": "uint256",
              "name": "amount",
              "type": "uint256"
            },
            {
              "internalType": "uint256",
              "name": "tokenId",
              "type": "uint256"
            },
            {
              "internalType": "uint256",
              "name": "deadline",
              "type": "uint256"
            }
          ],
          "internalType": "struct Marketplace.ERCOffer[]",
          "name": "",
          "type": "tuple[]"
        }
      ],
      "stateMutability": "view",
      "type": "function"
    },
    {
      "inputs": [
        {
          "internalType": "uint256",
          "name": "_itemId",
          "type": "uint256"
        }
      ],
      "name": "getTotalPrice",
      "outputs": [
        {
          "internalType": "uint256",
          "name": "",
          "type": "uint256"
        }
      ],
      "stateMutability": "view",
      "type": "function"
    },
    {
      "inputs": [],
      "name": "itemCount",
      "outputs": [
        {
          "internalType": "uint256",
          "name": "",
          "type": "uint256"
        }
      ],
      "stateMutability": "view",
      "type": "function"
    },
    {
      "inputs": [
        {
          "internalType": "uint256",
          "name": "",
          "type": "uint256"
        }
      ],
      "name": "items",
      "outputs": [
        {
          "internalType": "uint256",
          "name": "itemId",
          "type": "uint256"
        },
        {
          "internalType": "contract IERC721",
          "name": "nft",
          "type": "address"
        },
        {
          "internalType": "uint256",
          "name": "tokenId",
          "type": "uint256"
        },
        {
          "internalType": "uint256",
          "name": "price",
          "type": "uint256"
        },
        {
          "internalType": "address payable",
          "name": "seller",
          "type": "address"
        },
        {
          "internalType": "bool",
          "name": "sold",
          "type": "bool"
        },
        {
          "internalType": "bool",
          "name": "canceled",
          "type": "bool"
        }
      ],
      "stateMutability": "view",
      "type": "function"
    },
    {
      "inputs": [
        {
          "internalType": "contract IERC20Permit",
          "name": "erc20",
          "type": "address"
        },
        {
          "internalType": "contract IERC721",
          "name": "nft",
          "type": "address"
        },
        {
          "internalType": "uint256",
          "name": "_tokenId",
          "type": "uint256"
        },
        {
          "internalType": "uint256",
          "name": "_amount",
          "type": "uint256"
        },
        {
          "internalType": "uint256",
          "name": "_deadline",
          "type": "uint256"
        },
        {
          "internalType": "uint8",
          "name": "_v",
          "type": "uint8"
        },
        {
          "internalType": "bytes32",
          "name": "_r",
          "type": "bytes32"
        },
        {
          "internalType": "bytes32",
          "name": "_s",
          "type": "bytes32"
        }
      ],
      "name": "makeERCOffer",
      "outputs": [],
      "stateMutability": "payable",
      "type": "function"
    },
    {
      "inputs": [
        {
          "internalType": "contract IERC721",
          "name": "_nft",
          "type": "address"
        },
        {
          "internalType": "uint256",
          "name": "_tokenId",
          "type": "uint256"
        },
        {
          "internalType": "uint256",
          "name": "_price",
          "type": "uint256"
        }
      ],
      "name": "makeItem",
      "outputs": [],
      "stateMutability": "nonpayable",
      "type": "function"
    },
    {
      "inputs": [
        {
          "internalType": "uint256",
          "name": "_auctionId",
          "type": "uint256"
        }
      ],
      "name": "makeOffer",
      "outputs": [],
      "stateMutability": "payable",
      "type": "function"
    },
    {
      "inputs": [
        {
          "internalType": "uint256",
          "name": "_itemId",
          "type": "uint256"
        }
      ],
      "name": "purchaseItem",
      "outputs": [],
      "stateMutability": "payable",
      "type": "function"
    },
    {
      "inputs": [
        {
          "internalType": "contract IERC721",
          "name": "_nft",
          "type": "address"
        },
        {
          "internalType": "uint256",
          "name": "_tokenId",
          "type": "uint256"
        },
        {
          "internalType": "uint256",
          "name": "_price",
          "type": "uint256"
        },
        {
          "internalType": "uint256",
          "name": "_timeToEnd",
          "type": "uint256"
        }
      ],
      "name": "startAuction",
      "outputs": [],
      "stateMutability": "nonpayable",
      "type": "function"
    }
  ],
  "bytecode": "0x60c06040523480156200001157600080fd5b506040516200491c3803806200491c83398181016040528101906200003791906200009c565b60016000819055503373ffffffffffffffffffffffffffffffffffffffff1660808173ffffffffffffffffffffffffffffffffffffffff1660601b815250508060a0818152505050620000ec565b6000815190506200009681620000d2565b92915050565b600060208284031215620000af57600080fd5b6000620000bf8482850162000085565b91505092915050565b6000819050919050565b620000dd81620000c8565b8114620000e957600080fd5b50565b60805160601c60a0516147f96200012360003960008181610ccf01526121130152600081816109b4015261240001526147f96000f3fe6080604052600436106101445760003560e01c80639c166273116100b6578063d2c069f01161006f578063d2c069f01461046c578063d38ea5bf146104b2578063fa00afc7146104ce578063fc610f31146104f7578063fe5c873a14610522578063fe6d7a6e1461054b57610145565b80639c1662731461032d578063b4e9115614610356578063b613119714610372578063bfb231d2146103af578063ca7dd375146103f2578063cf44e2aa1461042f57610145565b80637b90da24116101085780637b90da241461023b5780637ee53f0f146102785780637fd6f15c146102a157806380a74550146102cc57806396b5a755146102f55780639a2f64741461031157610145565b8063302c31fe1461015457806344b38a5e1461017d57806348a0624c146101a857806365e17c9d146101e55780636bfb0d011461021057610145565b5b34801561015157600080fd5b50005b34801561016057600080fd5b5061017b60048036038101906101769190613248565b610576565b005b34801561018957600080fd5b50610192610809565b60405161019f9190613cc6565b60405180910390f35b3480156101b457600080fd5b506101cf60048036038101906101ca9190613349565b61080f565b6040516101dc91906139c4565b60405180910390f35b3480156101f157600080fd5b506101fa6109b2565b6040516102079190613881565b60405180910390f35b34801561021c57600080fd5b506102256109d6565b6040516102329190613cc6565b60405180910390f35b34801561024757600080fd5b50610262600480360381019061025d9190613349565b6109dc565b60405161026f9190613cc6565b60405180910390f35b34801561028457600080fd5b5061029f600480360381019061029a9190613349565b610a00565b005b3480156102ad57600080fd5b506102b6610ccd565b6040516102c39190613cc6565b60405180910390f35b3480156102d857600080fd5b506102f360048036038101906102ee919061310d565b610cf1565b005b61030f600480360381019061030a9190613349565b6112bc565b005b61032b60048036038101906103269190613349565b611682565b005b34801561033957600080fd5b50610354600480360381019061034f91906132e6565b6118c9565b005b610370600480360381019061036b9190613196565b611c35565b005b34801561037e57600080fd5b5061039960048036038101906103949190613349565b611f81565b6040516103a691906139a2565b60405180910390f35b3480156103bb57600080fd5b506103d660048036038101906103d19190613349565b612071565b6040516103e99796959493929190613d5d565b60405180910390f35b3480156103fe57600080fd5b5061041960048036038101906104149190613349565b61210d565b6040516104269190613cc6565b60405180910390f35b34801561043b57600080fd5b5061045660048036038101906104519190613349565b612170565b6040516104639190613cc6565b60405180910390f35b34801561047857600080fd5b50610493600480360381019061048e9190613349565b612194565b6040516104a99a99989796959493929190613dcc565b60405180910390f35b6104cc60048036038101906104c79190613349565b612262565b005b3480156104da57600080fd5b506104f560048036038101906104f09190613297565b61265b565b005b34801561050357600080fd5b5061050c61293d565b6040516105199190613cc6565b60405180910390f35b34801561052e57600080fd5b5061054960048036038101906105449190613349565b612943565b005b34801561055757600080fd5b50610560612eeb565b60405161056d9190613cc6565b60405180910390f35b60006009600084815260200190815260200160002082815481106105c3577f4e487b7100000000000000000000000000000000000000000000000000000000600052603260045260246000fd5b90600052602060002090600502016040518060a0016040529081600082015481526020016001820160009054906101000a900473ffffffffffffffffffffffffffffffffffffffff1673ffffffffffffffffffffffffffffffffffffffff1673ffffffffffffffffffffffffffffffffffffffff16815260200160028201548152602001600382015481526020016004820154815250509050806020015173ffffffffffffffffffffffffffffffffffffffff163373ffffffffffffffffffffffffffffffffffffffff16146106ce576040517f08c379a00000000000000000000000000000000000000000000000000000000081526004016106c590613aa6565b60405180910390fd5b8373ffffffffffffffffffffffffffffffffffffffff1663a9059cbb3383604001516040518363ffffffff1660e01b815260040161070d929190613979565b602060405180830381600087803b15801561072757600080fd5b505af115801561073b573d6000803e3d6000fd5b505050506040513d601f19601f8201168201806040525081019061075f91906130e4565b506009600084815260200190815260200160002082815481106107ab577f4e487b7100000000000000000000000000000000000000000000000000000000600052603260045260246000fd5b90600052602060002090600502016000808201600090556001820160006101000a81549073ffffffffffffffffffffffffffffffffffffffff0219169055600282016000905560038201600090556004820160009055505050505050565b60035481565b60606000600567ffffffffffffffff811115610854577f4e487b7100000000000000000000000000000000000000000000000000000000600052604160045260246000fd5b6040519080825280602002602001820160405280156108825781602001602082028036833780820191505090505b5090506000808490505b600081106109a6576000600582815481106108d0577f4e487b7100000000000000000000000000000000000000000000000000000000600052603260045260246000fd5b906000526020600020015414156108e657610993565b60058181548110610920577f4e487b7100000000000000000000000000000000000000000000000000000000600052603260045260246000fd5b9060005260206000200154838381518110610964577f4e487b7100000000000000000000000000000000000000000000000000000000600052603260045260246000fd5b602002602001018181525050818061097b90614150565b9250506005821415610992578293505050506109ad565b5b808061099e90614126565b91505061088c565b5081925050505b919050565b7f000000000000000000000000000000000000000000000000000000000000000081565b60015481565b600681815481106109ec57600080fd5b906000526020600020016000915090505481565b610a08612ef1565b60008111610a4b576040517f08c379a0000000000000000000000000000000000000000000000000000000008152600401610a4290613b26565b60405180910390fd5b3373ffffffffffffffffffffffffffffffffffffffff166007600083815260200190815260200160002060040160009054906101000a900473ffffffffffffffffffffffffffffffffffffffff1673ffffffffffffffffffffffffffffffffffffffff1614610aef576040517f08c379a0000000000000000000000000000000000000000000000000000000008152600401610ae690613c26565b60405180910390fd5b6007600082815260200190815260200160002060040160149054906101000a900460ff1615610b53576040517f08c379a0000000000000000000000000000000000000000000000000000000008152600401610b4a90613c06565b60405180910390fd5b600060076000838152602001908152602001600020905060018160040160156101000a81548160ff0219169083151502179055508060010160009054906101000a900473ffffffffffffffffffffffffffffffffffffffff1673ffffffffffffffffffffffffffffffffffffffff166323b872dd303384600201546040518463ffffffff1660e01b8152600401610bec939291906138d3565b600060405180830381600087803b158015610c0657600080fd5b505af1158015610c1a573d6000803e3d6000fd5b5050505060036000815480929190610c3190614126565b91905055506005600183610c459190614003565b81548110610c7c577f4e487b7100000000000000000000000000000000000000000000000000000000600052603260045260246000fd5b90600052602060002001600090557f0ff09947dd7d2583091e8cbfb427fecacb697bf895187b243fd0072c0ee9b95182604051610cb99190613cc6565b60405180910390a150610cca612f41565b50565b7f000000000000000000000000000000000000000000000000000000000000000081565b6000600960008681526020019081526020016000208381548110610d3e577f4e487b7100000000000000000000000000000000000000000000000000000000600052603260045260246000fd5b90600052602060002090600502016040518060a0016040529081600082015481526020016001820160009054906101000a900473ffffffffffffffffffffffffffffffffffffffff1673ffffffffffffffffffffffffffffffffffffffff1673ffffffffffffffffffffffffffffffffffffffff1681526020016002820154815260200160038201548152602001600482015481525050905060008673ffffffffffffffffffffffffffffffffffffffff16636352211e876040518263ffffffff1660e01b8152600401610e129190613cc6565b60206040518083038186803b158015610e2a57600080fd5b505afa158015610e3e573d6000803e3d6000fd5b505050506040513d601f19601f82011682018060405250810190610e6291906130bb565b905081608001514210610eaa576040517f08c379a0000000000000000000000000000000000000000000000000000000008152600401610ea190613bc6565b60405180910390fd5b8073ffffffffffffffffffffffffffffffffffffffff163073ffffffffffffffffffffffffffffffffffffffff1614610f18576040517f08c379a0000000000000000000000000000000000000000000000000000000008152600401610f0f90613b66565b60405180910390fd5b8673ffffffffffffffffffffffffffffffffffffffff166323b872dd308460200151896040518463ffffffff1660e01b8152600401610f59939291906138d3565b600060405180830381600087803b158015610f7357600080fd5b505af1158015610f87573d6000803e3d6000fd5b505050508773ffffffffffffffffffffffffffffffffffffffff1663a9059cbb3384604001516040518363ffffffff1660e01b8152600401610fca929190613979565b602060405180830381600087803b158015610fe457600080fd5b505af1158015610ff8573d6000803e3d6000fd5b505050506040513d601f19601f8201168201806040525081019061101c91906130e4565b50821561111b57600060076000878152602001908152602001600020905060018160040160146101000a81548160ff021916908315150217905550826020015173ffffffffffffffffffffffffffffffffffffffff168160040160009054906101000a900473ffffffffffffffffffffffffffffffffffffffff1673ffffffffffffffffffffffffffffffffffffffff1682600201547f8b4c9c8a607d67b321582dd8461041b1dc2ceeca70c8b7f37f8e02095cf2e76d898560010160009054906101000a900473ffffffffffffffffffffffffffffffffffffffff16886040015160405161110d93929190613ce1565b60405180910390a45061120f565b600060086000878152602001908152602001600020905060018160080160006101000a81548160ff021916908315150217905550826020015173ffffffffffffffffffffffffffffffffffffffff168160060160009054906101000a900473ffffffffffffffffffffffffffffffffffffffff1673ffffffffffffffffffffffffffffffffffffffff1682600201547fe9c76f3cd26822fab39fde36b56736739a684a806c8c0cf5eacd75511797ca7b898560010160009054906101000a900473ffffffffffffffffffffffffffffffffffffffff16886040015160405161120593929190613ce1565b60405180910390a4505b60096000878152602001908152602001600020848154811061125a577f4e487b7100000000000000000000000000000000000000000000000000000000600052603260045260246000fd5b90600052602060002090600502016000808201600090556001820160006101000a81549073ffffffffffffffffffffffffffffffffffffffff021916905560028201600090556003820160009055600482016000905550505050505050505050565b6112c4612ef1565b60008111611307576040517f08c379a00000000000000000000000000000000000000000000000000000000081526004016112fe90613ae6565b60405180910390fd5b3373ffffffffffffffffffffffffffffffffffffffff166008600083815260200190815260200160002060060160009054906101000a900473ffffffffffffffffffffffffffffffffffffffff1673ffffffffffffffffffffffffffffffffffffffff16146113ab576040517f08c379a00000000000000000000000000000000000000000000000000000000081526004016113a290613ca6565b60405180910390fd5b6008600082815260200190815260200160002060080160009054906101000a900460ff161561140f576040517f08c379a000000000000000000000000000000000000000000000000000000000815260040161140690613a86565b60405180910390fd5b60086000828152602001908152602001600020600401544210611467576040517f08c379a000000000000000000000000000000000000000000000000000000000815260040161145e906139e6565b60405180910390fd5b60006008600083815260200190815260200160002090508060010160009054906101000a900473ffffffffffffffffffffffffffffffffffffffff1673ffffffffffffffffffffffffffffffffffffffff166323b872dd308360060160009054906101000a900473ffffffffffffffffffffffffffffffffffffffff1684600201546040518463ffffffff1660e01b81526004016115079392919061389c565b600060405180830381600087803b15801561152157600080fd5b505af1158015611535573d6000803e3d6000fd5b505050506000816007015411156115b6578060050160009054906101000a900473ffffffffffffffffffffffffffffffffffffffff1673ffffffffffffffffffffffffffffffffffffffff166108fc82600701549081150290604051600060405180830381858888f193505050501580156115b4573d6000803e3d6000fd5b505b60018160080160016101000a81548160ff021916908315150217905550600460008154809291906115e690614126565b919050555060066001836115fa9190614003565b81548110611631577f4e487b7100000000000000000000000000000000000000000000000000000000600052603260045260246000fd5b90600052602060002001600090557f28601d865dccc9f113e15a7185c1b38c085d598c71250d3337916a428536d7718260405161166e9190613cc6565b60405180910390a15061167f612f41565b50565b61168a612ef1565b600081116116cd576040517f08c379a00000000000000000000000000000000000000000000000000000000081526004016116c490613ae6565b60405180910390fd5b60086000828152602001908152602001600020600301543411611725576040517f08c379a000000000000000000000000000000000000000000000000000000000815260040161171c90613c46565b60405180910390fd5b6008600082815260200190815260200160002060040154421061177d576040517f08c379a0000000000000000000000000000000000000000000000000000000008152600401611774906139e6565b60405180910390fd5b61179e81346008600085815260200190815260200160002060030154612f4b565b600060086000838152602001908152602001600020600701541115611851576008600082815260200190815260200160002060050160009054906101000a900473ffffffffffffffffffffffffffffffffffffffff1673ffffffffffffffffffffffffffffffffffffffff166108fc60086000848152602001908152602001600020600701549081150290604051600060405180830381858888f1935050505015801561184f573d6000803e3d6000fd5b505b6000600860008381526020019081526020016000209050348160030181905550338160050160006101000a81548173ffffffffffffffffffffffffffffffffffffffff021916908373ffffffffffffffffffffffffffffffffffffffff160217905550348160070181905550506118c6612f41565b50565b6118d1612ef1565b60008211611914576040517f08c379a000000000000000000000000000000000000000000000000000000000815260040161190b90613be6565b60405180910390fd5b6002600081548092919061192790614150565b91905055506004600081548092919061193f90614150565b9190505550600660025490806001815401808255809150506001900390600052602060002001600090919091909150558373ffffffffffffffffffffffffffffffffffffffff166323b872dd3330866040518463ffffffff1660e01b81526004016119ac939291906138d3565b600060405180830381600087803b1580156119c657600080fd5b505af11580156119da573d6000803e3d6000fd5b5050505060405180610140016040528060025481526020018573ffffffffffffffffffffffffffffffffffffffff1681526020018481526020018381526020018281526020013373ffffffffffffffffffffffffffffffffffffffff1681526020013373ffffffffffffffffffffffffffffffffffffffff16815260200160008152602001600015158152602001600015158152506008600060025481526020019081526020016000206000820151816000015560208201518160010160006101000a81548173ffffffffffffffffffffffffffffffffffffffff021916908373ffffffffffffffffffffffffffffffffffffffff16021790555060408201518160020155606082015181600301556080820151816004015560a08201518160050160006101000a81548173ffffffffffffffffffffffffffffffffffffffff021916908373ffffffffffffffffffffffffffffffffffffffff16021790555060c08201518160060160006101000a81548173ffffffffffffffffffffffffffffffffffffffff021916908373ffffffffffffffffffffffffffffffffffffffff16021790555060e082015181600701556101008201518160080160006101000a81548160ff0219169083151502179055506101208201518160080160016101000a81548160ff0219169083151502179055509050503373ffffffffffffffffffffffffffffffffffffffff16837fd184fdb1358a28e5370b7ea6f753efc3313b7fd11d6750f270cf79f109a63f17600254878686604051611c1f9493929190613d18565b60405180910390a3611c2f612f41565b50505050565b60008511611c78576040517f08c379a0000000000000000000000000000000000000000000000000000000008152600401611c6f90613a66565b60405180910390fd5b600073ffffffffffffffffffffffffffffffffffffffff168773ffffffffffffffffffffffffffffffffffffffff16636352211e886040518263ffffffff1660e01b8152600401611cc99190613cc6565b60206040518083038186803b158015611ce157600080fd5b505afa158015611cf5573d6000803e3d6000fd5b505050506040513d601f19601f82011682018060405250810190611d1991906130bb565b73ffffffffffffffffffffffffffffffffffffffff161415611d70576040517f08c379a0000000000000000000000000000000000000000000000000000000008152600401611d6790613ac6565b60405180910390fd5b8773ffffffffffffffffffffffffffffffffffffffff1663d505accf333088888888886040518863ffffffff1660e01b8152600401611db5979695949392919061390a565b600060405180830381600087803b158015611dcf57600080fd5b505af1158015611de3573d6000803e3d6000fd5b505050508773ffffffffffffffffffffffffffffffffffffffff166323b872dd3330886040518463ffffffff1660e01b8152600401611e24939291906138d3565b602060405180830381600087803b158015611e3e57600080fd5b505af1158015611e52573d6000803e3d6000fd5b505050506040513d601f19601f82011682018060405250810190611e7691906130e4565b50600960008781526020019081526020016000206040518060a00160405280600960008a81526020019081526020016000208054905081526020013373ffffffffffffffffffffffffffffffffffffffff1681526020018781526020018881526020018681525090806001815401808255809150506001900390600052602060002090600502016000909190919091506000820151816000015560208201518160010160006101000a81548173ffffffffffffffffffffffffffffffffffffffff021916908373ffffffffffffffffffffffffffffffffffffffff16021790555060408201518160020155606082015181600301556080820151816004015550505050505050505050565b606060096000838152602001908152602001600020805480602002602001604051908101604052809291908181526020016000905b8282101561206657838290600052602060002090600502016040518060a0016040529081600082015481526020016001820160009054906101000a900473ffffffffffffffffffffffffffffffffffffffff1673ffffffffffffffffffffffffffffffffffffffff1673ffffffffffffffffffffffffffffffffffffffff168152602001600282015481526020016003820154815260200160048201548152505081526020019060010190611fb6565b505050509050919050565b60076020528060005260406000206000915090508060000154908060010160009054906101000a900473ffffffffffffffffffffffffffffffffffffffff16908060020154908060030154908060040160009054906101000a900473ffffffffffffffffffffffffffffffffffffffff16908060040160149054906101000a900460ff16908060040160159054906101000a900460ff16905087565b600060647f0000000000000000000000000000000000000000000000000000000000000000606461213e9190613f22565b600760008581526020019081526020016000206003015461215f9190613fa9565b6121699190613f78565b9050919050565b6005818154811061218057600080fd5b906000526020600020016000915090505481565b60086020528060005260406000206000915090508060000154908060010160009054906101000a900473ffffffffffffffffffffffffffffffffffffffff16908060020154908060030154908060040154908060050160009054906101000a900473ffffffffffffffffffffffffffffffffffffffff16908060060160009054906101000a900473ffffffffffffffffffffffffffffffffffffffff16908060070154908060080160009054906101000a900460ff16908060080160019054906101000a900460ff1690508a565b61226a612ef1565b60006122758261210d565b905060006007600084815260200190815260200160002090506000831180156122a057506001548311155b6122df576040517f08c379a00000000000000000000000000000000000000000000000000000000081526004016122d690613b06565b60405180910390fd5b81341015612322576040517f08c379a000000000000000000000000000000000000000000000000000000000815260040161231990613a46565b60405180910390fd5b8060040160149054906101000a900460ff1615801561235057508060040160159054906101000a900460ff16155b61238f576040517f08c379a000000000000000000000000000000000000000000000000000000000815260040161238690613c86565b60405180910390fd5b8060040160009054906101000a900473ffffffffffffffffffffffffffffffffffffffff1673ffffffffffffffffffffffffffffffffffffffff166108fc82600301549081150290604051600060405180830381858888f193505050501580156123fd573d6000803e3d6000fd5b507f000000000000000000000000000000000000000000000000000000000000000073ffffffffffffffffffffffffffffffffffffffff166108fc8260030154846124489190614003565b9081150290604051600060405180830381858888f19350505050158015612473573d6000803e3d6000fd5b5060018160040160146101000a81548160ff0219169083151502179055508060010160009054906101000a900473ffffffffffffffffffffffffffffffffffffffff1673ffffffffffffffffffffffffffffffffffffffff166323b872dd303384600201546040518463ffffffff1660e01b81526004016124f6939291906138d3565b600060405180830381600087803b15801561251057600080fd5b505af1158015612524573d6000803e3d6000fd5b505050506003600081548092919061253b90614126565b9190505550600560018461254f9190614003565b81548110612586577f4e487b7100000000000000000000000000000000000000000000000000000000600052603260045260246000fd5b90600052602060002001600090553373ffffffffffffffffffffffffffffffffffffffff168160040160009054906101000a900473ffffffffffffffffffffffffffffffffffffffff1673ffffffffffffffffffffffffffffffffffffffff1682600201547f8b4c9c8a607d67b321582dd8461041b1dc2ceeca70c8b7f37f8e02095cf2e76d868560010160009054906101000a900473ffffffffffffffffffffffffffffffffffffffff16866003015460405161264693929190613ce1565b60405180910390a45050612658612f41565b50565b612663612ef1565b600081116126a6576040517f08c379a000000000000000000000000000000000000000000000000000000000815260040161269d90613a06565b60405180910390fd5b600160008154809291906126b990614150565b9190505550600360008154809291906126d190614150565b9190505550600560015490806001815401808255809150506001900390600052602060002001600090919091909150558273ffffffffffffffffffffffffffffffffffffffff166323b872dd3330856040518463ffffffff1660e01b815260040161273e939291906138d3565b600060405180830381600087803b15801561275857600080fd5b505af115801561276c573d6000803e3d6000fd5b505050506040518060e0016040528060015481526020018473ffffffffffffffffffffffffffffffffffffffff1681526020018381526020018281526020013373ffffffffffffffffffffffffffffffffffffffff168152602001600015158152602001600015158152506007600060015481526020019081526020016000206000820151816000015560208201518160010160006101000a81548173ffffffffffffffffffffffffffffffffffffffff021916908373ffffffffffffffffffffffffffffffffffffffff160217905550604082015181600201556060820151816003015560808201518160040160006101000a81548173ffffffffffffffffffffffffffffffffffffffff021916908373ffffffffffffffffffffffffffffffffffffffff16021790555060a08201518160040160146101000a81548160ff02191690831515021790555060c08201518160040160156101000a81548160ff0219169083151502179055509050503373ffffffffffffffffffffffffffffffffffffffff16827f655a0cf9c8db81512be9a76dc1c5ae5380b8816ce6ad659cd61b715e2999d59a600154868560405161292893929190613ce1565b60405180910390a3612938612f41565b505050565b60045481565b61294b612ef1565b6000811161298e576040517f08c379a000000000000000000000000000000000000000000000000000000000815260040161298590613ba6565b60405180910390fd5b60086000828152602001908152602001600020600401544210156129e7576040517f08c379a00000000000000000000000000000000000000000000000000000000081526004016129de90613b46565b60405180910390fd5b3373ffffffffffffffffffffffffffffffffffffffff166008600083815260200190815260200160002060050160009054906101000a900473ffffffffffffffffffffffffffffffffffffffff1673ffffffffffffffffffffffffffffffffffffffff161480612ab857503373ffffffffffffffffffffffffffffffffffffffff166008600083815260200190815260200160002060060160009054906101000a900473ffffffffffffffffffffffffffffffffffffffff1673ffffffffffffffffffffffffffffffffffffffff16145b612af7576040517f08c379a0000000000000000000000000000000000000000000000000000000008152600401612aee90613b86565b60405180910390fd5b6008600082815260200190815260200160002060080160009054906101000a900460ff1615612b5b576040517f08c379a0000000000000000000000000000000000000000000000000000000008152600401612b5290613a26565b60405180910390fd5b60006008600083815260200190815260200160002060405180610140016040529081600082015481526020016001820160009054906101000a900473ffffffffffffffffffffffffffffffffffffffff1673ffffffffffffffffffffffffffffffffffffffff1673ffffffffffffffffffffffffffffffffffffffff1681526020016002820154815260200160038201548152602001600482015481526020016005820160009054906101000a900473ffffffffffffffffffffffffffffffffffffffff1673ffffffffffffffffffffffffffffffffffffffff1673ffffffffffffffffffffffffffffffffffffffff1681526020016006820160009054906101000a900473ffffffffffffffffffffffffffffffffffffffff1673ffffffffffffffffffffffffffffffffffffffff1673ffffffffffffffffffffffffffffffffffffffff168152602001600782015481526020016008820160009054906101000a900460ff161515151581526020016008820160019054906101000a900460ff1615151515815250509050806020015173ffffffffffffffffffffffffffffffffffffffff166323b872dd308360a0015184604001516040518463ffffffff1660e01b8152600401612d319392919061389c565b600060405180830381600087803b158015612d4b57600080fd5b505af1158015612d5f573d6000803e3d6000fd5b5050505060008160e001511115612dc0578060c0015173ffffffffffffffffffffffffffffffffffffffff166108fc8260e001519081150290604051600060405180830381858888f19350505050158015612dbe573d6000803e3d6000fd5b505b600060086000848152602001908152602001600020905060018160080160006101000a81548160ff02191690831515021790555060046000815480929190612e0790614126565b91905055506006600184612e1b9190614003565b81548110612e52577f4e487b7100000000000000000000000000000000000000000000000000000000600052603260045260246000fd5b90600052602060002001600090558160a0015173ffffffffffffffffffffffffffffffffffffffff168260c0015173ffffffffffffffffffffffffffffffffffffffff1683604001517fe9c76f3cd26822fab39fde36b56736739a684a806c8c0cf5eacd75511797ca7b8686602001518760600151604051612ed693929190613ce1565b60405180910390a45050612ee8612f41565b50565b60025481565b60026000541415612f37576040517f08c379a0000000000000000000000000000000000000000000000000000000008152600401612f2e90613c66565b60405180910390fd5b6002600081905550565b6001600081905550565b612fe5838383604051602401612f6393929190613e68565b6040516020818303038152906040527fd1ed7a3c000000000000000000000000000000000000000000000000000000007bffffffffffffffffffffffffffffffffffffffffffffffffffffffff19166020820180517bffffffffffffffffffffffffffffffffffffffffffffffffffffffff8381831617835250505050612fea565b505050565b60008151905060006a636f6e736f6c652e6c6f679050602083016000808483855afa5050505050565b60008151905061302281614722565b92915050565b60008135905061303781614739565b92915050565b60008151905061304c81614739565b92915050565b60008135905061306181614750565b92915050565b60008135905061307681614767565b92915050565b60008135905061308b8161477e565b92915050565b6000813590506130a081614795565b92915050565b6000813590506130b5816147ac565b92915050565b6000602082840312156130cd57600080fd5b60006130db84828501613013565b91505092915050565b6000602082840312156130f657600080fd5b60006131048482850161303d565b91505092915050565b60008060008060008060c0878903121561312657600080fd5b600061313489828a01613067565b965050602061314589828a0161307c565b955050604061315689828a01613091565b945050606061316789828a01613091565b935050608061317889828a01613091565b92505060a061318989828a01613028565b9150509295509295509295565b600080600080600080600080610100898b0312156131b357600080fd5b60006131c18b828c01613067565b98505060206131d28b828c0161307c565b97505060406131e38b828c01613091565b96505060606131f48b828c01613091565b95505060806132058b828c01613091565b94505060a06132168b828c016130a6565b93505060c06132278b828c01613052565b92505060e06132388b828c01613052565b9150509295985092959890939650565b60008060006060848603121561325d57600080fd5b600061326b86828701613067565b935050602061327c86828701613091565b925050604061328d86828701613091565b9150509250925092565b6000806000606084860312156132ac57600080fd5b60006132ba8682870161307c565b93505060206132cb86828701613091565b92505060406132dc86828701613091565b9150509250925092565b600080600080608085870312156132fc57600080fd5b600061330a8782880161307c565b945050602061331b87828801613091565b935050604061332c87828801613091565b925050606061333d87828801613091565b91505092959194509250565b60006020828403121561335b57600080fd5b600061336984828501613091565b91505092915050565b600061337e83836137ec565b60a08301905092915050565b60006133968383613854565b60208301905092915050565b6133ab816140cc565b82525050565b6133ba81614049565b82525050565b6133c981614037565b82525050565b6133d881614037565b82525050565b60006133e982613ebf565b6133f38185613eef565b93506133fe83613e9f565b8060005b8381101561342f5781516134168882613372565b975061342183613ed5565b925050600181019050613402565b5085935050505092915050565b600061344782613eca565b6134518185613f00565b935061345c83613eaf565b8060005b8381101561348d578151613474888261338a565b975061347f83613ee2565b925050600181019050613460565b5085935050505092915050565b6134a38161405b565b82525050565b6134b281614067565b82525050565b6134c1816140de565b82525050565b60006134d4601c83613f11565b91506134df826141f7565b602082019050919050565b60006134f7601f83613f11565b915061350282614220565b602082019050919050565b600061351a601783613f11565b915061352582614249565b602082019050919050565b600061353d603383613f11565b915061354882614272565b604082019050919050565b6000613560602083613f11565b915061356b826142c1565b602082019050919050565b6000613583601b83613f11565b915061358e826142ea565b602082019050919050565b60006135a6601d83613f11565b91506135b182614313565b602082019050919050565b60006135c9601483613f11565b91506135d48261433c565b602082019050919050565b60006135ec602683613f11565b91506135f782614365565b604082019050919050565b600061360f601283613f11565b915061361a826143b4565b602082019050919050565b6000613632602383613f11565b915061363d826143dd565b604082019050919050565b6000613655601983613f11565b91506136608261442c565b602082019050919050565b6000613678602683613f11565b915061368382614455565b604082019050919050565b600061369b602c83613f11565b91506136a6826144a4565b604082019050919050565b60006136be602583613f11565b91506136c9826144f3565b604082019050919050565b60006136e1601a83613f11565b91506136ec82614542565b602082019050919050565b6000613704602183613f11565b915061370f8261456b565b604082019050919050565b6000613727601583613f11565b9150613732826145ba565b602082019050919050565b600061374a602183613f11565b9150613755826145e3565b604082019050919050565b600061376d602b83613f11565b915061377882614632565b604082019050919050565b6000613790601f83613f11565b915061379b82614681565b602082019050919050565b60006137b3601d83613f11565b91506137be826146aa565b602082019050919050565b60006137d6602483613f11565b91506137e1826146d3565b604082019050919050565b60a0820160008201516138026000850182613854565b50602082015161381560208501826133c0565b5060408201516138286040850182613854565b50606082015161383b6060850182613854565b50608082015161384e6080850182613854565b50505050565b61385d816140b5565b82525050565b61386c816140b5565b82525050565b61387b816140bf565b82525050565b600060208201905061389660008301846133b1565b92915050565b60006060820190506138b160008301866133cf565b6138be60208301856133a2565b6138cb6040830184613863565b949350505050565b60006060820190506138e860008301866133cf565b6138f560208301856133cf565b6139026040830184613863565b949350505050565b600060e08201905061391f600083018a6133cf565b61392c60208301896133cf565b6139396040830188613863565b6139466060830187613863565b6139536080830186613872565b61396060a08301856134a9565b61396d60c08301846134a9565b98975050505050505050565b600060408201905061398e60008301856133cf565b61399b6020830184613863565b9392505050565b600060208201905081810360008301526139bc81846133de565b905092915050565b600060208201905081810360008301526139de818461343c565b905092915050565b600060208201905081810360008301526139ff816134c7565b9050919050565b60006020820190508181036000830152613a1f816134ea565b9050919050565b60006020820190508181036000830152613a3f8161350d565b9050919050565b60006020820190508181036000830152613a5f81613530565b9050919050565b60006020820190508181036000830152613a7f81613553565b9050919050565b60006020820190508181036000830152613a9f81613576565b9050919050565b60006020820190508181036000830152613abf81613599565b9050919050565b60006020820190508181036000830152613adf816135bc565b9050919050565b60006020820190508181036000830152613aff816135df565b9050919050565b60006020820190508181036000830152613b1f81613602565b9050919050565b60006020820190508181036000830152613b3f81613625565b9050919050565b60006020820190508181036000830152613b5f81613648565b9050919050565b60006020820190508181036000830152613b7f8161366b565b9050919050565b60006020820190508181036000830152613b9f8161368e565b9050919050565b60006020820190508181036000830152613bbf816136b1565b9050919050565b60006020820190508181036000830152613bdf816136d4565b9050919050565b60006020820190508181036000830152613bff816136f7565b9050919050565b60006020820190508181036000830152613c1f8161371a565b9050919050565b60006020820190508181036000830152613c3f8161373d565b9050919050565b60006020820190508181036000830152613c5f81613760565b9050919050565b60006020820190508181036000830152613c7f81613783565b9050919050565b60006020820190508181036000830152613c9f816137a6565b9050919050565b60006020820190508181036000830152613cbf816137c9565b9050919050565b6000602082019050613cdb6000830184613863565b92915050565b6000606082019050613cf66000830186613863565b613d0360208301856133cf565b613d106040830184613863565b949350505050565b6000608082019050613d2d6000830187613863565b613d3a60208301866133cf565b613d476040830185613863565b613d546060830184613863565b95945050505050565b600060e082019050613d72600083018a613863565b613d7f60208301896134b8565b613d8c6040830188613863565b613d996060830187613863565b613da660808301866133b1565b613db360a083018561349a565b613dc060c083018461349a565b98975050505050505050565b600061014082019050613de2600083018d613863565b613def602083018c6134b8565b613dfc604083018b613863565b613e09606083018a613863565b613e166080830189613863565b613e2360a08301886133b1565b613e3060c08301876133b1565b613e3d60e0830186613863565b613e4b61010083018561349a565b613e5961012083018461349a565b9b9a5050505050505050505050565b6000606082019050613e7d6000830186613863565b613e8a6020830185613863565b613e976040830184613863565b949350505050565b6000819050602082019050919050565b6000819050602082019050919050565b600081519050919050565b600081519050919050565b6000602082019050919050565b6000602082019050919050565b600082825260208201905092915050565b600082825260208201905092915050565b600082825260208201905092915050565b6000613f2d826140b5565b9150613f38836140b5565b9250827fffffffffffffffffffffffffffffffffffffffffffffffffffffffffffffffff03821115613f6d57613f6c614199565b5b828201905092915050565b6000613f83826140b5565b9150613f8e836140b5565b925082613f9e57613f9d6141c8565b5b828204905092915050565b6000613fb4826140b5565b9150613fbf836140b5565b9250817fffffffffffffffffffffffffffffffffffffffffffffffffffffffffffffffff0483118215151615613ff857613ff7614199565b5b828202905092915050565b600061400e826140b5565b9150614019836140b5565b92508282101561402c5761402b614199565b5b828203905092915050565b600061404282614095565b9050919050565b600061405482614095565b9050919050565b60008115159050919050565b6000819050919050565b600061407c82614037565b9050919050565b600061408e82614037565b9050919050565b600073ffffffffffffffffffffffffffffffffffffffff82169050919050565b6000819050919050565b600060ff82169050919050565b60006140d782614102565b9050919050565b60006140e9826140f0565b9050919050565b60006140fb82614095565b9050919050565b600061410d82614114565b9050919050565b600061411f82614095565b9050919050565b6000614131826140b5565b9150600082141561414557614144614199565b5b600182039050919050565b600061415b826140b5565b91507fffffffffffffffffffffffffffffffffffffffffffffffffffffffffffffffff82141561418e5761418d614199565b5b600182019050919050565b7f4e487b7100000000000000000000000000000000000000000000000000000000600052601160045260246000fd5b7f4e487b7100000000000000000000000000000000000000000000000000000000600052601260045260246000fd5b7f41756374696f6e2073686f756c64206e6f7420626520656e6465642e00000000600082015250565b7f5072696365206d7573742062652067726561746572207468616e207a65726f00600082015250565b7f4e465420697320616c726561647920636c61696d65642e000000000000000000600082015250565b7f6e6f7420656e6f75676820657468657220746f20636f766572206974656d207060008201527f7269636520616e64206d61726b65742066656500000000000000000000000000602082015250565b7f416d6f756e74206d7573742062652067726561746572207468616e207a65726f600082015250565b7f41756374696f6e20697320616c726561647920636c61696d65642e0000000000600082015250565b7f4f6e6c79206f6666657265722063616e2063616e63656c206f66666572000000600082015250565b7f546f6b656e20646f6573206e6f74206578697374000000000000000000000000600082015250565b7f41756374696f6e2069642073686f756c6420626520626967676572207468616e60008201527f207a65726f2e0000000000000000000000000000000000000000000000000000602082015250565b7f6974656d20646f65736e27742065786973740000000000000000000000000000600082015250565b7f4974656d2069642073686f756c6420626520626967676572207468616e207a6560008201527f726f2e0000000000000000000000000000000000000000000000000000000000602082015250565b7f41756374696f6e2073686f756c6420656e642066697273742e00000000000000600082015250565b7f4f6e6c79206d61726b6574706c616365206974656d732063616e20626520616360008201527f6365707465640000000000000000000000000000000000000000000000000000602082015250565b7f4f6e6c792077696e6e6572206f722073656c6c65722063616e2072756e20746860008201527f69732066756e6374696f6e2e0000000000000000000000000000000000000000602082015250565b7f41756374696f6e2069642073686f756c6420626520626967676572207468616e60008201527f207a65726f000000000000000000000000000000000000000000000000000000602082015250565b7f4f6666657220646561646c696e65206973206578636565646564000000000000600082015250565b7f70726963652073686f756c642062652067726561746572207468616e207a657260008201527f6f00000000000000000000000000000000000000000000000000000000000000602082015250565b7f4974656d20697320616c726561647920736f6c642e0000000000000000000000600082015250565b7f4f6e6c792073656c6c65722063616e2063616e63656c2074686973206974656d60008201527f2e00000000000000000000000000000000000000000000000000000000000000602082015250565b7f50726963652073686f756c642062652067726561746572207468616e2063757260008201527f72656e742070726963652e000000000000000000000000000000000000000000602082015250565b7f5265656e7472616e637947756172643a207265656e7472616e742063616c6c00600082015250565b7f6974656d20616c726561647920736f6c64206f722063616e63656c6564000000600082015250565b7f4f6e6c792073656c6c65722063616e2063616e63656c2074686973206175637460008201527f696f6e2e00000000000000000000000000000000000000000000000000000000602082015250565b61472b81614037565b811461473657600080fd5b50565b6147428161405b565b811461474d57600080fd5b50565b61475981614067565b811461476457600080fd5b50565b61477081614071565b811461477b57600080fd5b50565b61478781614083565b811461479257600080fd5b50565b61479e816140b5565b81146147a957600080fd5b50565b6147b5816140bf565b81146147c057600080fd5b5056fea264697066735822122019bac1fb4f342fc7c5a5e3a6ed8ae9c28adc79aab901ce44ecb50f19359e690164736f6c63430008040033",
  "linkReferences": {},
  "deployedLinkReferences": {}
}