{
  "_format": "hh-sol-artifact-1",
  "contractName": "Marketplace",
  "sourceName": "libs/contracts/src/contracts/Marketplace.sol",
  "abi": [
    {
      "inputs": [
        {
          "internalType": "uint256",
          "name": "_feePercent",
          "type": "uint256"
        }
      ],
      "stateMutability": "nonpayable",
      "type": "constructor"
    },
    {
      "anonymous": false,
      "inputs": [
        {
          "indexed": false,
          "internalType": "uint256",
          "name": "auctionId",
          "type": "uint256"
        }
      ],
      "name": "AuctionCanceled",
      "type": "event"
    },
    {
      "anonymous": false,
      "inputs": [
        {
          "indexed": false,
          "internalType": "uint256",
          "name": "auctionId",
          "type": "uint256"
        },
        {
          "indexed": false,
          "internalType": "address",
          "name": "nft",
          "type": "address"
        },
        {
          "indexed": true,
          "internalType": "uint256",
          "name": "tokenId",
          "type": "uint256"
        },
        {
          "indexed": false,
          "internalType": "uint256",
          "name": "price",
          "type": "uint256"
        },
        {
          "indexed": true,
          "internalType": "address",
          "name": "seller",
          "type": "address"
        },
        {
          "indexed": true,
          "internalType": "address",
          "name": "buyer",
          "type": "address"
        }
      ],
      "name": "AuctionEnded",
      "type": "event"
    },
    {
      "anonymous": false,
      "inputs": [
        {
          "indexed": false,
          "internalType": "uint256",
          "name": "auctionId",
          "type": "uint256"
        },
        {
          "indexed": false,
          "internalType": "address",
          "name": "nft",
          "type": "address"
        },
        {
          "indexed": true,
          "internalType": "uint256",
          "name": "tokenId",
          "type": "uint256"
        },
        {
          "indexed": false,
          "internalType": "uint256",
          "name": "price",
          "type": "uint256"
        },
        {
          "indexed": false,
          "internalType": "uint256",
          "name": "timeToEnd",
          "type": "uint256"
        },
        {
          "indexed": true,
          "internalType": "address",
          "name": "seller",
          "type": "address"
        }
      ],
      "name": "AuctionStarted",
      "type": "event"
    },
    {
      "anonymous": false,
      "inputs": [
        {
          "indexed": false,
          "internalType": "uint256",
          "name": "auctionId",
          "type": "uint256"
        },
        {
          "indexed": false,
          "internalType": "address",
          "name": "bidder",
          "type": "address"
        },
        {
          "indexed": false,
          "internalType": "uint256",
          "name": "amount",
          "type": "uint256"
        }
      ],
      "name": "BidPlaced",
      "type": "event"
    },
    {
      "anonymous": false,
      "inputs": [
        {
          "indexed": false,
          "internalType": "uint256",
          "name": "itemId",
          "type": "uint256"
        },
        {
          "indexed": false,
          "internalType": "address",
          "name": "nft",
          "type": "address"
        },
        {
          "indexed": true,
          "internalType": "uint256",
          "name": "tokenId",
          "type": "uint256"
        },
        {
          "indexed": false,
          "internalType": "uint256",
          "name": "price",
          "type": "uint256"
        },
        {
          "indexed": true,
          "internalType": "address",
          "name": "seller",
          "type": "address"
        },
        {
          "indexed": true,
          "internalType": "address",
          "name": "buyer",
          "type": "address"
        }
      ],
      "name": "Bought",
      "type": "event"
    },
    {
      "anonymous": false,
      "inputs": [
        {
          "indexed": false,
          "internalType": "uint256",
          "name": "itemId",
          "type": "uint256"
        }
      ],
      "name": "OfferCanceled",
      "type": "event"
    },
    {
      "anonymous": false,
      "inputs": [
        {
          "indexed": false,
          "internalType": "uint256",
          "name": "itemId",
          "type": "uint256"
        },
        {
          "indexed": false,
          "internalType": "address",
          "name": "nft",
          "type": "address"
        },
        {
          "indexed": true,
          "internalType": "uint256",
          "name": "tokenId",
          "type": "uint256"
        },
        {
          "indexed": false,
          "internalType": "uint256",
          "name": "price",
          "type": "uint256"
        },
        {
          "indexed": true,
          "internalType": "address",
          "name": "seller",
          "type": "address"
        }
      ],
      "name": "Offered",
      "type": "event"
    },
    {
      "stateMutability": "nonpayable",
      "type": "fallback"
    },
    {
      "inputs": [
        {
          "internalType": "contract IERC20Permit",
          "name": "erc20",
          "type": "address"
        },
        {
          "internalType": "contract IERC721",
          "name": "nft",
          "type": "address"
        },
        {
          "internalType": "uint256",
          "name": "_tokenId",
          "type": "uint256"
        },
        {
          "internalType": "uint256",
          "name": "_itemId",
          "type": "uint256"
        },
        {
          "internalType": "bool",
          "name": "isOnSale",
          "type": "bool"
        },
        {
          "internalType": "uint256",
          "name": "deadline",
          "type": "uint256"
        },
        {
          "internalType": "address",
          "name": "offerer",
          "type": "address"
        },
        {
          "internalType": "uint256",
          "name": "amount",
          "type": "uint256"
        },
        {
          "internalType": "uint8",
          "name": "_v",
          "type": "uint8"
        },
        {
          "internalType": "bytes32",
          "name": "_r",
          "type": "bytes32"
        },
        {
          "internalType": "bytes32",
          "name": "_s",
          "type": "bytes32"
        }
      ],
      "name": "acceptERCOffer",
      "outputs": [],
      "stateMutability": "nonpayable",
      "type": "function"
    },
    {
      "inputs": [],
      "name": "auctionItemCount",
      "outputs": [
        {
          "internalType": "uint256",
          "name": "",
          "type": "uint256"
        }
      ],
      "stateMutability": "view",
      "type": "function"
    },
    {
      "inputs": [
        {
          "internalType": "uint256",
          "name": "",
          "type": "uint256"
        }
      ],
      "name": "auctionItems",
      "outputs": [
        {
          "internalType": "uint256",
          "name": "auctionId",
          "type": "uint256"
        },
        {
          "internalType": "contract IERC721",
          "name": "nft",
          "type": "address"
        },
        {
          "internalType": "uint256",
          "name": "tokenId",
          "type": "uint256"
        },
        {
          "internalType": "uint256",
          "name": "price",
          "type": "uint256"
        },
        {
          "internalType": "uint256",
          "name": "timeToEnd",
          "type": "uint256"
        },
        {
          "internalType": "address payable",
          "name": "winner",
          "type": "address"
        },
        {
          "internalType": "address payable",
          "name": "seller",
          "type": "address"
        },
        {
          "internalType": "uint256",
          "name": "deposited",
          "type": "uint256"
        },
        {
          "internalType": "bool",
          "name": "claimed",
          "type": "bool"
        },
        {
          "internalType": "bool",
          "name": "canceled",
          "type": "bool"
        }
      ],
      "stateMutability": "view",
      "type": "function"
    },
    {
      "inputs": [
        {
          "internalType": "uint256",
          "name": "_auctionId",
          "type": "uint256"
        }
      ],
      "name": "cancelAuction",
      "outputs": [],
      "stateMutability": "nonpayable",
      "type": "function"
    },
    {
      "inputs": [
        {
          "internalType": "uint256",
          "name": "_itemId",
          "type": "uint256"
        }
      ],
      "name": "cancelOffered",
      "outputs": [],
      "stateMutability": "nonpayable",
      "type": "function"
    },
    {
      "inputs": [
        {
          "internalType": "uint256",
          "name": "_auctionId",
          "type": "uint256"
        }
      ],
      "name": "claimNFT",
      "outputs": [],
      "stateMutability": "nonpayable",
      "type": "function"
    },
    {
      "inputs": [],
      "name": "feeAccount",
      "outputs": [
        {
          "internalType": "address payable",
          "name": "",
          "type": "address"
        }
      ],
      "stateMutability": "view",
      "type": "function"
    },
    {
      "inputs": [],
      "name": "feePercent",
      "outputs": [
        {
          "internalType": "uint256",
          "name": "",
          "type": "uint256"
        }
      ],
      "stateMutability": "view",
      "type": "function"
    },
    {
      "inputs": [
        {
          "internalType": "uint256",
          "name": "_itemId",
          "type": "uint256"
        }
      ],
      "name": "getTotalPrice",
      "outputs": [
        {
          "internalType": "uint256",
          "name": "",
          "type": "uint256"
        }
      ],
      "stateMutability": "view",
      "type": "function"
    },
    {
      "inputs": [],
      "name": "itemCount",
      "outputs": [
        {
          "internalType": "uint256",
          "name": "",
          "type": "uint256"
        }
      ],
      "stateMutability": "view",
      "type": "function"
    },
    {
      "inputs": [
        {
          "internalType": "uint256",
          "name": "",
          "type": "uint256"
        }
      ],
      "name": "items",
      "outputs": [
        {
          "internalType": "uint256",
          "name": "itemId",
          "type": "uint256"
        },
        {
          "internalType": "contract IERC721",
          "name": "nft",
          "type": "address"
        },
        {
          "internalType": "uint256",
          "name": "tokenId",
          "type": "uint256"
        },
        {
          "internalType": "uint256",
          "name": "price",
          "type": "uint256"
        },
        {
          "internalType": "address payable",
          "name": "seller",
          "type": "address"
        },
        {
          "internalType": "bool",
          "name": "sold",
          "type": "bool"
        },
        {
          "internalType": "bool",
          "name": "canceled",
          "type": "bool"
        }
      ],
      "stateMutability": "view",
      "type": "function"
    },
    {
      "inputs": [
        {
          "internalType": "contract IERC721",
          "name": "_nft",
          "type": "address"
        },
        {
          "internalType": "uint256",
          "name": "_tokenId",
          "type": "uint256"
        },
        {
          "internalType": "uint256",
          "name": "_price",
          "type": "uint256"
        }
      ],
      "name": "makeItem",
      "outputs": [],
      "stateMutability": "nonpayable",
      "type": "function"
    },
    {
      "inputs": [
        {
          "internalType": "uint256",
          "name": "_auctionId",
          "type": "uint256"
        }
      ],
      "name": "makeOffer",
      "outputs": [],
      "stateMutability": "payable",
      "type": "function"
    },
    {
      "inputs": [
        {
          "internalType": "uint256[]",
          "name": "_itemIds",
          "type": "uint256[]"
        }
      ],
      "name": "purchaseItem",
      "outputs": [],
      "stateMutability": "payable",
      "type": "function"
    },
    {
      "inputs": [
        {
          "internalType": "contract IERC721",
          "name": "_nft",
          "type": "address"
        },
        {
          "internalType": "uint256",
          "name": "_tokenId",
          "type": "uint256"
        },
        {
          "internalType": "uint256",
          "name": "_price",
          "type": "uint256"
        },
        {
          "internalType": "uint256",
          "name": "_timeToEnd",
          "type": "uint256"
        }
      ],
      "name": "startAuction",
      "outputs": [],
      "stateMutability": "nonpayable",
      "type": "function"
    }
  ],
  "bytecode": "0x60c06040523480156200001157600080fd5b50604051620038dd380380620038dd83398181016040528101906200003791906200009c565b60016000819055503373ffffffffffffffffffffffffffffffffffffffff1660808173ffffffffffffffffffffffffffffffffffffffff1660601b815250508060a0818152505050620000ec565b6000815190506200009681620000d2565b92915050565b600060208284031215620000af57600080fd5b6000620000bf8482850162000085565b91505092915050565b6000819050919050565b620000dd81620000c8565b8114620000e957600080fd5b50565b60805160601c60a0516137ac6200013160003960008181610ab201528181611560015281816118db0152611a5201526000818161039e01526118a201526137ac6000f3fe6080604052600436106100ec5760003560e01c80639c1662731161008a578063d2c069f011610059578063d2c069f0146102d9578063fa00afc71461031f578063fe5c873a14610348578063fe6d7a6e14610371576100ed565b80639c16627314610214578063a8d1b7ad1461023d578063bfb231d214610259578063ca7dd3751461029c576100ed565b80637ee53f0f116100c65780637ee53f0f1461017b5780637fd6f15c146101a457806396b5a755146101cf5780639a2f6474146101f8576100ed565b806365e17c9d146100fc57806369244fe0146101275780636bfb0d0114610150576100ed565b5b3480156100f957600080fd5b50005b34801561010857600080fd5b5061011161039c565b60405161011e91906129bd565b60405180910390f35b34801561013357600080fd5b5061014e60048036038101906101499190612440565b6103c0565b005b34801561015c57600080fd5b5061016561086d565b6040516101729190612d75565b60405180910390f35b34801561018757600080fd5b506101a2600480360381019061019d91906125e2565b610873565b005b3480156101b057600080fd5b506101b9610ab0565b6040516101c69190612d75565b60405180910390f35b3480156101db57600080fd5b506101f660048036038101906101f191906125e2565b610ad4565b005b610212600480360381019061020d91906125e2565b610dd4565b005b34801561022057600080fd5b5061023b6004803603810190610236919061257f565b610fe3565b005b610257600480360381019061025291906123d2565b61130c565b005b34801561026557600080fd5b50610280600480360381019061027b91906125e2565b6119b0565b6040516102939796959493929190612e0c565b60405180910390f35b3480156102a857600080fd5b506102c360048036038101906102be91906125e2565b611a4c565b6040516102d09190612d75565b60405180910390f35b3480156102e557600080fd5b5061030060048036038101906102fb91906125e2565b611aaf565b6040516103169a99989796959493929190612e7b565b60405180910390f35b34801561032b57600080fd5b5061034660048036038101906103419190612530565b611b7d565b005b34801561035457600080fd5b5061036f600480360381019061036a91906125e2565b611e1c565b005b34801561037d57600080fd5b50610386612242565b6040516103939190612d75565b60405180910390f35b7f000000000000000000000000000000000000000000000000000000000000000081565b6103c8612248565b85421061040a576040517f08c379a000000000000000000000000000000000000000000000000000000000815260040161040190612c15565b60405180910390fd5b8973ffffffffffffffffffffffffffffffffffffffff16636352211e8a6040518263ffffffff1660e01b81526004016104439190612d75565b60206040518083038186803b15801561045b57600080fd5b505afa15801561046f573d6000803e3d6000fd5b505050506040513d601f19601f8201168201806040525081019061049391906123a9565b73ffffffffffffffffffffffffffffffffffffffff163073ffffffffffffffffffffffffffffffffffffffff1614610500576040517f08c379a00000000000000000000000000000000000000000000000000000000081526004016104f790612bb5565b60405180910390fd5b8a73ffffffffffffffffffffffffffffffffffffffff1663d505accf8630878a8888886040518863ffffffff1660e01b81526004016105459796959493929190612a46565b600060405180830381600087803b15801561055f57600080fd5b505af1158015610573573d6000803e3d6000fd5b505050508a73ffffffffffffffffffffffffffffffffffffffff166323b872dd8633876040518463ffffffff1660e01b81526004016105b493929190612a0f565b602060405180830381600087803b1580156105ce57600080fd5b505af11580156105e2573d6000803e3d6000fd5b505050506040513d601f19601f820116820180604052508101906106069190612417565b508973ffffffffffffffffffffffffffffffffffffffff166323b872dd30878c6040518463ffffffff1660e01b815260040161064493929190612a0f565b600060405180830381600087803b15801561065e57600080fd5b505af1158015610672573d6000803e3d6000fd5b50505050861561076c576000600360008a8152602001908152602001600020905060018160040160146101000a81548160ff0219169083151502179055508573ffffffffffffffffffffffffffffffffffffffff168160040160009054906101000a900473ffffffffffffffffffffffffffffffffffffffff1673ffffffffffffffffffffffffffffffffffffffff1682600201547f8b4c9c8a607d67b321582dd8461041b1dc2ceeca70c8b7f37f8e02095cf2e76d8c8560010160009054906101000a900473ffffffffffffffffffffffffffffffffffffffff168a60405161075e93929190612d90565b60405180910390a450610858565b6000600460008a8152602001908152602001600020905060018160080160006101000a81548160ff0219169083151502179055508573ffffffffffffffffffffffffffffffffffffffff168160060160009054906101000a900473ffffffffffffffffffffffffffffffffffffffff1673ffffffffffffffffffffffffffffffffffffffff1682600201547fe9c76f3cd26822fab39fde36b56736739a684a806c8c0cf5eacd75511797ca7b8c8560010160009054906101000a900473ffffffffffffffffffffffffffffffffffffffff168a60405161084e93929190612d90565b60405180910390a4505b610860612298565b5050505050505050505050565b60015481565b61087b612248565b600081116108be576040517f08c379a00000000000000000000000000000000000000000000000000000000081526004016108b590612b75565b60405180910390fd5b60006003600083815260200190815260200160002090503373ffffffffffffffffffffffffffffffffffffffff168160040160009054906101000a900473ffffffffffffffffffffffffffffffffffffffff1673ffffffffffffffffffffffffffffffffffffffff1614610967576040517f08c379a000000000000000000000000000000000000000000000000000000000815260040161095e90612cb5565b60405180910390fd5b8060040160149054906101000a900460ff16156109b9576040517f08c379a00000000000000000000000000000000000000000000000000000000081526004016109b090612c95565b60405180910390fd5b60018160040160156101000a81548160ff0219169083151502179055508060010160009054906101000a900473ffffffffffffffffffffffffffffffffffffffff1673ffffffffffffffffffffffffffffffffffffffff166342842e0e303384600201546040518463ffffffff1660e01b8152600401610a3b93929190612a0f565b600060405180830381600087803b158015610a5557600080fd5b505af1158015610a69573d6000803e3d6000fd5b505050507f0ff09947dd7d2583091e8cbfb427fecacb697bf895187b243fd0072c0ee9b95182604051610a9c9190612d75565b60405180910390a150610aad612298565b50565b7f000000000000000000000000000000000000000000000000000000000000000081565b610adc612248565b60008111610b1f576040517f08c379a0000000000000000000000000000000000000000000000000000000008152600401610b1690612b35565b60405180910390fd5b60006004600083815260200190815260200160002090503373ffffffffffffffffffffffffffffffffffffffff168160060160009054906101000a900473ffffffffffffffffffffffffffffffffffffffff1673ffffffffffffffffffffffffffffffffffffffff1614610bc8576040517f08c379a0000000000000000000000000000000000000000000000000000000008152600401610bbf90612d55565b60405180910390fd5b8060080160009054906101000a900460ff1615610c1a576040517f08c379a0000000000000000000000000000000000000000000000000000000008152600401610c1190612b15565b60405180910390fd5b80600401544210610c60576040517f08c379a0000000000000000000000000000000000000000000000000000000008152600401610c5790612ab5565b60405180910390fd5b600081600701541115610cdd578060050160009054906101000a900473ffffffffffffffffffffffffffffffffffffffff1673ffffffffffffffffffffffffffffffffffffffff166108fc82600701549081150290604051600060405180830381858888f19350505050158015610cdb573d6000803e3d6000fd5b505b60018160080160016101000a81548160ff0219169083151502179055508060010160009054906101000a900473ffffffffffffffffffffffffffffffffffffffff1673ffffffffffffffffffffffffffffffffffffffff166323b872dd303384600201546040518463ffffffff1660e01b8152600401610d5f93929190612a0f565b600060405180830381600087803b158015610d7957600080fd5b505af1158015610d8d573d6000803e3d6000fd5b505050507f28601d865dccc9f113e15a7185c1b38c085d598c71250d3337916a428536d77182604051610dc09190612d75565b60405180910390a150610dd1612298565b50565b610ddc612248565b60008111610e1f576040517f08c379a0000000000000000000000000000000000000000000000000000000008152600401610e1690612b35565b60405180910390fd5b600060046000838152602001908152602001600020905080600301543411610e7c576040517f08c379a0000000000000000000000000000000000000000000000000000000008152600401610e7390612cf5565b60405180910390fd5b80600401544210610ec2576040517f08c379a0000000000000000000000000000000000000000000000000000000008152600401610eb990612ab5565b60405180910390fd5b60008160070154905060008260050160009054906101000a900473ffffffffffffffffffffffffffffffffffffffff169050348360030181905550338360050160006101000a81548173ffffffffffffffffffffffffffffffffffffffff021916908373ffffffffffffffffffffffffffffffffffffffff1602179055503483600701819055506000821115610f9a578073ffffffffffffffffffffffffffffffffffffffff166108fc839081150290604051600060405180830381858888f19350505050158015610f98573d6000803e3d6000fd5b505b7f0e54eff26401bf69b81b26f60bd85ef47f5d85275c1d268d84f68d6897431c47843334604051610fcd93929190612d90565b60405180910390a1505050610fe0612298565b50565b610feb612248565b6000821161102e576040517f08c379a000000000000000000000000000000000000000000000000000000000815260040161102590612c35565b60405180910390fd5b6002600081548092919061104190613103565b91905055508373ffffffffffffffffffffffffffffffffffffffff166323b872dd3330866040518463ffffffff1660e01b815260040161108393929190612a0f565b600060405180830381600087803b15801561109d57600080fd5b505af11580156110b1573d6000803e3d6000fd5b5050505060405180610140016040528060025481526020018573ffffffffffffffffffffffffffffffffffffffff1681526020018481526020018381526020018281526020013373ffffffffffffffffffffffffffffffffffffffff1681526020013373ffffffffffffffffffffffffffffffffffffffff16815260200160008152602001600015158152602001600015158152506004600060025481526020019081526020016000206000820151816000015560208201518160010160006101000a81548173ffffffffffffffffffffffffffffffffffffffff021916908373ffffffffffffffffffffffffffffffffffffffff16021790555060408201518160020155606082015181600301556080820151816004015560a08201518160050160006101000a81548173ffffffffffffffffffffffffffffffffffffffff021916908373ffffffffffffffffffffffffffffffffffffffff16021790555060c08201518160060160006101000a81548173ffffffffffffffffffffffffffffffffffffffff021916908373ffffffffffffffffffffffffffffffffffffffff16021790555060e082015181600701556101008201518160080160006101000a81548160ff0219169083151502179055506101208201518160080160016101000a81548160ff0219169083151502179055509050503373ffffffffffffffffffffffffffffffffffffffff16837fd184fdb1358a28e5370b7ea6f753efc3313b7fd11d6750f270cf79f109a63f176002548786866040516112f69493929190612dc7565b60405180910390a3611306612298565b50505050565b611314612248565b60008282905090506000805b82811015611559576000858583818110611363577f4e487b7100000000000000000000000000000000000000000000000000000000600052603260045260246000fd5b9050602002013590506000600360008381526020019081526020016000206040518060e0016040529081600082015481526020016001820160009054906101000a900473ffffffffffffffffffffffffffffffffffffffff1673ffffffffffffffffffffffffffffffffffffffff1673ffffffffffffffffffffffffffffffffffffffff16815260200160028201548152602001600382015481526020016004820160009054906101000a900473ffffffffffffffffffffffffffffffffffffffff1673ffffffffffffffffffffffffffffffffffffffff1673ffffffffffffffffffffffffffffffffffffffff1681526020016004820160149054906101000a900460ff161515151581526020016004820160159054906101000a900460ff161515151581525050905080606001518461149e9190612f33565b93506000821180156114b257506001548211155b6114f1576040517f08c379a00000000000000000000000000000000000000000000000000000000081526004016114e890612b55565b60405180910390fd5b8060a0015115801561150557508060c00151155b611544576040517f08c379a000000000000000000000000000000000000000000000000000000000815260040161153b90612d35565b60405180910390fd5b5050808061155190613103565b915050611320565b50346064807f00000000000000000000000000000000000000000000000000000000000000006115899190612f33565b836115949190612fba565b61159e9190612f89565b11156115df576040517f08c379a00000000000000000000000000000000000000000000000000000000081526004016115d690612c75565b60405180910390fd5b60005b8281101561189d576000858583818110611625577f4e487b7100000000000000000000000000000000000000000000000000000000600052603260045260246000fd5b905060200201359050600060036000838152602001908152602001600020905060008160040160009054906101000a900473ffffffffffffffffffffffffffffffffffffffff1673ffffffffffffffffffffffffffffffffffffffff168260030154604051611693906129a8565b60006040518083038185875af1925050503d80600081146116d0576040519150601f19603f3d011682016040523d82523d6000602084013e6116d5565b606091505b5050905080611719576040517f08c379a000000000000000000000000000000000000000000000000000000000815260040161171090612c55565b60405180910390fd5b60018260040160146101000a81548160ff0219169083151502179055508160010160009054906101000a900473ffffffffffffffffffffffffffffffffffffffff1673ffffffffffffffffffffffffffffffffffffffff166342842e0e303385600201546040518463ffffffff1660e01b815260040161179b93929190612a0f565b600060405180830381600087803b1580156117b557600080fd5b505af11580156117c9573d6000803e3d6000fd5b505050503373ffffffffffffffffffffffffffffffffffffffff168260040160009054906101000a900473ffffffffffffffffffffffffffffffffffffffff1673ffffffffffffffffffffffffffffffffffffffff1683600201547f8b4c9c8a607d67b321582dd8461041b1dc2ceeca70c8b7f37f8e02095cf2e76d868660010160009054906101000a900473ffffffffffffffffffffffffffffffffffffffff16876003015460405161187f93929190612d90565b60405180910390a4505050808061189590613103565b9150506115e2565b5060007f000000000000000000000000000000000000000000000000000000000000000073ffffffffffffffffffffffffffffffffffffffff1660647f0000000000000000000000000000000000000000000000000000000000000000846119059190612fba565b61190f9190612f89565b60405161191b906129a8565b60006040518083038185875af1925050503d8060008114611958576040519150601f19603f3d011682016040523d82523d6000602084013e61195d565b606091505b50509050806119a1576040517f08c379a000000000000000000000000000000000000000000000000000000000815260040161199890612cd5565b60405180910390fd5b5050506119ac612298565b5050565b60036020528060005260406000206000915090508060000154908060010160009054906101000a900473ffffffffffffffffffffffffffffffffffffffff16908060020154908060030154908060040160009054906101000a900473ffffffffffffffffffffffffffffffffffffffff16908060040160149054906101000a900460ff16908060040160159054906101000a900460ff16905087565b600060647f00000000000000000000000000000000000000000000000000000000000000006064611a7d9190612f33565b6003600085815260200190815260200160002060030154611a9e9190612fba565b611aa89190612f89565b9050919050565b60046020528060005260406000206000915090508060000154908060010160009054906101000a900473ffffffffffffffffffffffffffffffffffffffff16908060020154908060030154908060040154908060050160009054906101000a900473ffffffffffffffffffffffffffffffffffffffff16908060060160009054906101000a900473ffffffffffffffffffffffffffffffffffffffff16908060070154908060080160009054906101000a900460ff16908060080160019054906101000a900460ff1690508a565b611b85612248565b60008111611bc8576040517f08c379a0000000000000000000000000000000000000000000000000000000008152600401611bbf90612ad5565b60405180910390fd5b60016000815480929190611bdb90613103565b91905055508273ffffffffffffffffffffffffffffffffffffffff166323b872dd3330856040518463ffffffff1660e01b8152600401611c1d93929190612a0f565b600060405180830381600087803b158015611c3757600080fd5b505af1158015611c4b573d6000803e3d6000fd5b505050506040518060e0016040528060015481526020018473ffffffffffffffffffffffffffffffffffffffff1681526020018381526020018281526020013373ffffffffffffffffffffffffffffffffffffffff168152602001600015158152602001600015158152506003600060015481526020019081526020016000206000820151816000015560208201518160010160006101000a81548173ffffffffffffffffffffffffffffffffffffffff021916908373ffffffffffffffffffffffffffffffffffffffff160217905550604082015181600201556060820151816003015560808201518160040160006101000a81548173ffffffffffffffffffffffffffffffffffffffff021916908373ffffffffffffffffffffffffffffffffffffffff16021790555060a08201518160040160146101000a81548160ff02191690831515021790555060c08201518160040160156101000a81548160ff0219169083151502179055509050503373ffffffffffffffffffffffffffffffffffffffff16827f655a0cf9c8db81512be9a76dc1c5ae5380b8816ce6ad659cd61b715e2999d59a6001548685604051611e0793929190612d90565b60405180910390a3611e17612298565b505050565b611e24612248565b60008111611e67576040517f08c379a0000000000000000000000000000000000000000000000000000000008152600401611e5e90612bf5565b60405180910390fd5b60006004600083815260200190815260200160002090508060040154421015611ec5576040517f08c379a0000000000000000000000000000000000000000000000000000000008152600401611ebc90612b95565b60405180910390fd5b3373ffffffffffffffffffffffffffffffffffffffff168160050160009054906101000a900473ffffffffffffffffffffffffffffffffffffffff1673ffffffffffffffffffffffffffffffffffffffff161480611f7257503373ffffffffffffffffffffffffffffffffffffffff168160060160009054906101000a900473ffffffffffffffffffffffffffffffffffffffff1673ffffffffffffffffffffffffffffffffffffffff16145b611fb1576040517f08c379a0000000000000000000000000000000000000000000000000000000008152600401611fa890612bd5565b60405180910390fd5b8060080160009054906101000a900460ff1615612003576040517f08c379a0000000000000000000000000000000000000000000000000000000008152600401611ffa90612af5565b60405180910390fd5b8060010160009054906101000a900473ffffffffffffffffffffffffffffffffffffffff1673ffffffffffffffffffffffffffffffffffffffff166323b872dd308360050160009054906101000a900473ffffffffffffffffffffffffffffffffffffffff1684600201546040518463ffffffff1660e01b815260040161208c939291906129d8565b600060405180830381600087803b1580156120a657600080fd5b505af11580156120ba573d6000803e3d6000fd5b5050505060008160070154111561213b578060060160009054906101000a900473ffffffffffffffffffffffffffffffffffffffff1673ffffffffffffffffffffffffffffffffffffffff166108fc82600701549081150290604051600060405180830381858888f19350505050158015612139573d6000803e3d6000fd5b505b60018160080160006101000a81548160ff0219169083151502179055508060050160009054906101000a900473ffffffffffffffffffffffffffffffffffffffff1673ffffffffffffffffffffffffffffffffffffffff168160060160009054906101000a900473ffffffffffffffffffffffffffffffffffffffff1673ffffffffffffffffffffffffffffffffffffffff1682600201547fe9c76f3cd26822fab39fde36b56736739a684a806c8c0cf5eacd75511797ca7b858560010160009054906101000a900473ffffffffffffffffffffffffffffffffffffffff16866003015460405161222e93929190612d90565b60405180910390a45061223f612298565b50565b60025481565b6002600054141561228e576040517f08c379a000000000000000000000000000000000000000000000000000000000815260040161228590612d15565b60405180910390fd5b6002600081905550565b6001600081905550565b6000813590506122b1816136d5565b92915050565b6000815190506122c6816136d5565b92915050565b60008083601f8401126122de57600080fd5b8235905067ffffffffffffffff8111156122f757600080fd5b60208301915083602082028301111561230f57600080fd5b9250929050565b600081359050612325816136ec565b92915050565b60008151905061233a816136ec565b92915050565b60008135905061234f81613703565b92915050565b6000813590506123648161371a565b92915050565b60008135905061237981613731565b92915050565b60008135905061238e81613748565b92915050565b6000813590506123a38161375f565b92915050565b6000602082840312156123bb57600080fd5b60006123c9848285016122b7565b91505092915050565b600080602083850312156123e557600080fd5b600083013567ffffffffffffffff8111156123ff57600080fd5b61240b858286016122cc565b92509250509250929050565b60006020828403121561242957600080fd5b60006124378482850161232b565b91505092915050565b60008060008060008060008060008060006101608c8e03121561246257600080fd5b60006124708e828f01612355565b9b505060206124818e828f0161236a565b9a505060406124928e828f0161237f565b99505060606124a38e828f0161237f565b98505060806124b48e828f01612316565b97505060a06124c58e828f0161237f565b96505060c06124d68e828f016122a2565b95505060e06124e78e828f0161237f565b9450506101006124f98e828f01612394565b93505061012061250b8e828f01612340565b92505061014061251d8e828f01612340565b9150509295989b509295989b9093969950565b60008060006060848603121561254557600080fd5b60006125538682870161236a565b93505060206125648682870161237f565b92505060406125758682870161237f565b9150509250925092565b6000806000806080858703121561259557600080fd5b60006125a38782880161236a565b94505060206125b48782880161237f565b93505060406125c58782880161237f565b92505060606125d68782880161237f565b91505092959194509250565b6000602082840312156125f457600080fd5b60006126028482850161237f565b91505092915050565b612614816130a9565b82525050565b61262381613026565b82525050565b61263281613014565b82525050565b61264181613038565b82525050565b61265081613044565b82525050565b61265f816130bb565b82525050565b6000612672601c83612f22565b915061267d826131aa565b602082019050919050565b6000612695601f83612f22565b91506126a0826131d3565b602082019050919050565b60006126b8601783612f22565b91506126c3826131fc565b602082019050919050565b60006126db601b83612f22565b91506126e682613225565b602082019050919050565b60006126fe602683612f22565b91506127098261324e565b604082019050919050565b6000612721601283612f22565b915061272c8261329d565b602082019050919050565b6000612744602383612f22565b915061274f826132c6565b604082019050919050565b6000612767601983612f22565b915061277282613315565b602082019050919050565b600061278a602683612f22565b91506127958261333e565b604082019050919050565b60006127ad602c83612f22565b91506127b88261338d565b604082019050919050565b60006127d0602583612f22565b91506127db826133dc565b604082019050919050565b60006127f3601a83612f22565b91506127fe8261342b565b602082019050919050565b6000612816602183612f22565b915061282182613454565b604082019050919050565b6000612839601e83612f22565b9150612844826134a3565b602082019050919050565b600061285c603b83612f22565b9150612867826134cc565b604082019050919050565b600061287f601583612f22565b915061288a8261351b565b602082019050919050565b60006128a2600083612f17565b91506128ad82613544565b600082019050919050565b60006128c5602183612f22565b91506128d082613547565b604082019050919050565b60006128e8602283612f22565b91506128f382613596565b604082019050919050565b600061290b602b83612f22565b9150612916826135e5565b604082019050919050565b600061292e601f83612f22565b915061293982613634565b602082019050919050565b6000612951601d83612f22565b915061295c8261365d565b602082019050919050565b6000612974602483612f22565b915061297f82613686565b604082019050919050565b61299381613092565b82525050565b6129a28161309c565b82525050565b60006129b382612895565b9150819050919050565b60006020820190506129d2600083018461261a565b92915050565b60006060820190506129ed6000830186612629565b6129fa602083018561260b565b612a07604083018461298a565b949350505050565b6000606082019050612a246000830186612629565b612a316020830185612629565b612a3e604083018461298a565b949350505050565b600060e082019050612a5b600083018a612629565b612a686020830189612629565b612a75604083018861298a565b612a82606083018761298a565b612a8f6080830186612999565b612a9c60a0830185612647565b612aa960c0830184612647565b98975050505050505050565b60006020820190508181036000830152612ace81612665565b9050919050565b60006020820190508181036000830152612aee81612688565b9050919050565b60006020820190508181036000830152612b0e816126ab565b9050919050565b60006020820190508181036000830152612b2e816126ce565b9050919050565b60006020820190508181036000830152612b4e816126f1565b9050919050565b60006020820190508181036000830152612b6e81612714565b9050919050565b60006020820190508181036000830152612b8e81612737565b9050919050565b60006020820190508181036000830152612bae8161275a565b9050919050565b60006020820190508181036000830152612bce8161277d565b9050919050565b60006020820190508181036000830152612bee816127a0565b9050919050565b60006020820190508181036000830152612c0e816127c3565b9050919050565b60006020820190508181036000830152612c2e816127e6565b9050919050565b60006020820190508181036000830152612c4e81612809565b9050919050565b60006020820190508181036000830152612c6e8161282c565b9050919050565b60006020820190508181036000830152612c8e8161284f565b9050919050565b60006020820190508181036000830152612cae81612872565b9050919050565b60006020820190508181036000830152612cce816128b8565b9050919050565b60006020820190508181036000830152612cee816128db565b9050919050565b60006020820190508181036000830152612d0e816128fe565b9050919050565b60006020820190508181036000830152612d2e81612921565b9050919050565b60006020820190508181036000830152612d4e81612944565b9050919050565b60006020820190508181036000830152612d6e81612967565b9050919050565b6000602082019050612d8a600083018461298a565b92915050565b6000606082019050612da5600083018661298a565b612db26020830185612629565b612dbf604083018461298a565b949350505050565b6000608082019050612ddc600083018761298a565b612de96020830186612629565b612df6604083018561298a565b612e03606083018461298a565b95945050505050565b600060e082019050612e21600083018a61298a565b612e2e6020830189612656565b612e3b604083018861298a565b612e48606083018761298a565b612e55608083018661261a565b612e6260a0830185612638565b612e6f60c0830184612638565b98975050505050505050565b600061014082019050612e91600083018d61298a565b612e9e602083018c612656565b612eab604083018b61298a565b612eb8606083018a61298a565b612ec5608083018961298a565b612ed260a083018861261a565b612edf60c083018761261a565b612eec60e083018661298a565b612efa610100830185612638565b612f08610120830184612638565b9b9a5050505050505050505050565b600081905092915050565b600082825260208201905092915050565b6000612f3e82613092565b9150612f4983613092565b9250827fffffffffffffffffffffffffffffffffffffffffffffffffffffffffffffffff03821115612f7e57612f7d61314c565b5b828201905092915050565b6000612f9482613092565b9150612f9f83613092565b925082612faf57612fae61317b565b5b828204905092915050565b6000612fc582613092565b9150612fd083613092565b9250817fffffffffffffffffffffffffffffffffffffffffffffffffffffffffffffffff04831182151516156130095761300861314c565b5b828202905092915050565b600061301f82613072565b9050919050565b600061303182613072565b9050919050565b60008115159050919050565b6000819050919050565b600061305982613014565b9050919050565b600061306b82613014565b9050919050565b600073ffffffffffffffffffffffffffffffffffffffff82169050919050565b6000819050919050565b600060ff82169050919050565b60006130b4826130df565b9050919050565b60006130c6826130cd565b9050919050565b60006130d882613072565b9050919050565b60006130ea826130f1565b9050919050565b60006130fc82613072565b9050919050565b600061310e82613092565b91507fffffffffffffffffffffffffffffffffffffffffffffffffffffffffffffffff8214156131415761314061314c565b5b600182019050919050565b7f4e487b7100000000000000000000000000000000000000000000000000000000600052601160045260246000fd5b7f4e487b7100000000000000000000000000000000000000000000000000000000600052601260045260246000fd5b7f41756374696f6e2073686f756c64206e6f7420626520656e6465642e00000000600082015250565b7f5072696365206d7573742062652067726561746572207468616e207a65726f00600082015250565b7f4e465420697320616c726561647920636c61696d65642e000000000000000000600082015250565b7f41756374696f6e20697320616c726561647920636c61696d65642e0000000000600082015250565b7f41756374696f6e2069642073686f756c6420626520626967676572207468616e60008201527f207a65726f2e0000000000000000000000000000000000000000000000000000602082015250565b7f6974656d20646f65736e27742065786973740000000000000000000000000000600082015250565b7f4974656d2069642073686f756c6420626520626967676572207468616e207a6560008201527f726f2e0000000000000000000000000000000000000000000000000000000000602082015250565b7f41756374696f6e2073686f756c6420656e642066697273742e00000000000000600082015250565b7f4f6e6c79206d61726b6574706c616365206974656d732063616e20626520616360008201527f6365707465640000000000000000000000000000000000000000000000000000602082015250565b7f4f6e6c792077696e6e6572206f722073656c6c65722063616e2072756e20746860008201527f69732066756e6374696f6e2e0000000000000000000000000000000000000000602082015250565b7f41756374696f6e2069642073686f756c6420626520626967676572207468616e60008201527f207a65726f000000000000000000000000000000000000000000000000000000602082015250565b7f4f6666657220646561646c696e65206973206578636565646564000000000000600082015250565b7f70726963652073686f756c642062652067726561746572207468616e207a657260008201527f6f00000000000000000000000000000000000000000000000000000000000000602082015250565b7f6661696c656420746f2073656e6420457468657220746f2073656c6c65720000600082015250565b7f6e6f7420656e6f75676820657468657220746f20636f76657220746f74616c2060008201527f6974656d2070726963657320616e64206d61726b657420666565730000000000602082015250565b7f4974656d20697320616c726561647920736f6c642e0000000000000000000000600082015250565b50565b7f4f6e6c792073656c6c65722063616e2063616e63656c2074686973206974656d60008201527f2e00000000000000000000000000000000000000000000000000000000000000602082015250565b7f6661696c656420746f2073656e6420457468657220746f206665654163636f7560008201527f6e74000000000000000000000000000000000000000000000000000000000000602082015250565b7f50726963652073686f756c642062652067726561746572207468616e2063757260008201527f72656e742070726963652e000000000000000000000000000000000000000000602082015250565b7f5265656e7472616e637947756172643a207265656e7472616e742063616c6c00600082015250565b7f6974656d20616c726561647920736f6c64206f722063616e63656c6564000000600082015250565b7f4f6e6c792073656c6c65722063616e2063616e63656c2074686973206175637460008201527f696f6e2e00000000000000000000000000000000000000000000000000000000602082015250565b6136de81613014565b81146136e957600080fd5b50565b6136f581613038565b811461370057600080fd5b50565b61370c81613044565b811461371757600080fd5b50565b6137238161304e565b811461372e57600080fd5b50565b61373a81613060565b811461374557600080fd5b50565b61375181613092565b811461375c57600080fd5b50565b6137688161309c565b811461377357600080fd5b5056fea26469706673582212208462bfb8579877c82566dcce346f047fa9dab6cdb32755a3f5d7505a93c63bd764736f6c63430008040033",
  "linkReferences": {},
  "deployedLinkReferences": {}
}