{
  "_format": "hh-sol-artifact-1",
  "contractName": "Marketplace",
  "sourceName": "libs/contracts/src/contracts/Marketplace.sol",
  "abi": [
    {
      "inputs": [
        {
          "internalType": "uint256",
          "name": "_feePercent",
          "type": "uint256"
        }
      ],
      "stateMutability": "nonpayable",
      "type": "constructor"
    },
    {
      "anonymous": false,
      "inputs": [
        {
          "indexed": false,
          "internalType": "uint256",
          "name": "auctionId",
          "type": "uint256"
        }
      ],
      "name": "AuctionCanceled",
      "type": "event"
    },
    {
      "anonymous": false,
      "inputs": [
        {
          "indexed": false,
          "internalType": "uint256",
          "name": "auctionId",
          "type": "uint256"
        },
        {
          "indexed": false,
          "internalType": "address",
          "name": "nft",
          "type": "address"
        },
        {
          "indexed": true,
          "internalType": "uint256",
          "name": "tokenId",
          "type": "uint256"
        },
        {
          "indexed": false,
          "internalType": "uint256",
          "name": "price",
          "type": "uint256"
        },
        {
          "indexed": true,
          "internalType": "address",
          "name": "seller",
          "type": "address"
        },
        {
          "indexed": true,
          "internalType": "address",
          "name": "buyer",
          "type": "address"
        }
      ],
      "name": "AuctionEnded",
      "type": "event"
    },
    {
      "anonymous": false,
      "inputs": [
        {
          "indexed": false,
          "internalType": "uint256",
          "name": "auctionId",
          "type": "uint256"
        },
        {
          "indexed": false,
          "internalType": "address",
          "name": "nft",
          "type": "address"
        },
        {
          "indexed": true,
          "internalType": "uint256",
          "name": "tokenId",
          "type": "uint256"
        },
        {
          "indexed": false,
          "internalType": "uint256",
          "name": "price",
          "type": "uint256"
        },
        {
          "indexed": false,
          "internalType": "uint256",
          "name": "timeToEnd",
          "type": "uint256"
        },
        {
          "indexed": true,
          "internalType": "address",
          "name": "seller",
          "type": "address"
        }
      ],
      "name": "AuctionStarted",
      "type": "event"
    },
    {
      "anonymous": false,
      "inputs": [
        {
          "indexed": false,
          "internalType": "uint256",
          "name": "auctionId",
          "type": "uint256"
        },
        {
          "indexed": false,
          "internalType": "address",
          "name": "bidder",
          "type": "address"
        },
        {
          "indexed": false,
          "internalType": "uint256",
          "name": "amount",
          "type": "uint256"
        }
      ],
      "name": "BidPlaced",
      "type": "event"
    },
    {
      "anonymous": false,
      "inputs": [
        {
          "indexed": false,
          "internalType": "uint256",
          "name": "itemId",
          "type": "uint256"
        },
        {
          "indexed": false,
          "internalType": "address",
          "name": "nft",
          "type": "address"
        },
        {
          "indexed": true,
          "internalType": "uint256",
          "name": "tokenId",
          "type": "uint256"
        },
        {
          "indexed": false,
          "internalType": "uint256",
          "name": "price",
          "type": "uint256"
        },
        {
          "indexed": true,
          "internalType": "address",
          "name": "seller",
          "type": "address"
        },
        {
          "indexed": true,
          "internalType": "address",
          "name": "buyer",
          "type": "address"
        }
      ],
      "name": "Bought",
      "type": "event"
    },
    {
      "anonymous": false,
      "inputs": [
        {
          "indexed": false,
          "internalType": "uint256",
          "name": "itemId",
          "type": "uint256"
        }
      ],
      "name": "OfferCanceled",
      "type": "event"
    },
    {
      "anonymous": false,
      "inputs": [
        {
          "indexed": false,
          "internalType": "uint256",
          "name": "itemId",
          "type": "uint256"
        },
        {
          "indexed": false,
          "internalType": "address",
          "name": "nft",
          "type": "address"
        },
        {
          "indexed": true,
          "internalType": "uint256",
          "name": "tokenId",
          "type": "uint256"
        },
        {
          "indexed": false,
          "internalType": "uint256",
          "name": "price",
          "type": "uint256"
        },
        {
          "indexed": true,
          "internalType": "address",
          "name": "seller",
          "type": "address"
        }
      ],
      "name": "Offered",
      "type": "event"
    },
    {
      "stateMutability": "nonpayable",
      "type": "fallback"
    },
    {
      "inputs": [
        {
          "internalType": "contract IERC20Permit",
          "name": "erc20",
          "type": "address"
        },
        {
          "internalType": "contract IERC721",
          "name": "nft",
          "type": "address"
        },
        {
          "internalType": "uint256",
          "name": "_tokenId",
          "type": "uint256"
        },
        {
          "internalType": "uint256",
          "name": "_itemId",
          "type": "uint256"
        },
        {
          "internalType": "bool",
          "name": "isOnSale",
          "type": "bool"
        },
        {
          "internalType": "uint256",
          "name": "deadline",
          "type": "uint256"
        },
        {
          "internalType": "address",
          "name": "offerer",
          "type": "address"
        },
        {
          "internalType": "uint256",
          "name": "amount",
          "type": "uint256"
        },
        {
          "internalType": "uint8",
          "name": "_v",
          "type": "uint8"
        },
        {
          "internalType": "bytes32",
          "name": "_r",
          "type": "bytes32"
        },
        {
          "internalType": "bytes32",
          "name": "_s",
          "type": "bytes32"
        }
      ],
      "name": "acceptERCOffer",
      "outputs": [],
      "stateMutability": "nonpayable",
      "type": "function"
    },
    {
      "inputs": [],
      "name": "auctionItemCount",
      "outputs": [
        {
          "internalType": "uint256",
          "name": "",
          "type": "uint256"
        }
      ],
      "stateMutability": "view",
      "type": "function"
    },
    {
      "inputs": [
        {
          "internalType": "uint256",
          "name": "",
          "type": "uint256"
        }
      ],
      "name": "auctionItems",
      "outputs": [
        {
          "internalType": "uint256",
          "name": "auctionId",
          "type": "uint256"
        },
        {
          "internalType": "contract IERC721",
          "name": "nft",
          "type": "address"
        },
        {
          "internalType": "uint256",
          "name": "tokenId",
          "type": "uint256"
        },
        {
          "internalType": "uint256",
          "name": "price",
          "type": "uint256"
        },
        {
          "internalType": "uint256",
          "name": "timeToEnd",
          "type": "uint256"
        },
        {
          "internalType": "address payable",
          "name": "winner",
          "type": "address"
        },
        {
          "internalType": "address payable",
          "name": "seller",
          "type": "address"
        },
        {
          "internalType": "uint256",
          "name": "deposited",
          "type": "uint256"
        },
        {
          "internalType": "bool",
          "name": "claimed",
          "type": "bool"
        },
        {
          "internalType": "bool",
          "name": "canceled",
          "type": "bool"
        }
      ],
      "stateMutability": "view",
      "type": "function"
    },
    {
      "inputs": [
        {
          "internalType": "uint256",
          "name": "_auctionId",
          "type": "uint256"
        }
      ],
      "name": "cancelAuction",
      "outputs": [],
      "stateMutability": "nonpayable",
      "type": "function"
    },
    {
      "inputs": [
        {
          "internalType": "uint256",
          "name": "_itemId",
          "type": "uint256"
        }
      ],
      "name": "cancelOffered",
      "outputs": [],
      "stateMutability": "nonpayable",
      "type": "function"
    },
    {
      "inputs": [
        {
          "internalType": "uint256",
          "name": "_auctionId",
          "type": "uint256"
        }
      ],
      "name": "claimNFT",
      "outputs": [],
      "stateMutability": "nonpayable",
      "type": "function"
    },
    {
      "inputs": [],
      "name": "feeAccount",
      "outputs": [
        {
          "internalType": "address payable",
          "name": "",
          "type": "address"
        }
      ],
      "stateMutability": "view",
      "type": "function"
    },
    {
      "inputs": [],
      "name": "feePercent",
      "outputs": [
        {
          "internalType": "uint256",
          "name": "",
          "type": "uint256"
        }
      ],
      "stateMutability": "view",
      "type": "function"
    },
    {
      "inputs": [
        {
          "internalType": "uint256",
          "name": "_itemId",
          "type": "uint256"
        }
      ],
      "name": "getTotalPrice",
      "outputs": [
        {
          "internalType": "uint256",
          "name": "",
          "type": "uint256"
        }
      ],
      "stateMutability": "view",
      "type": "function"
    },
    {
      "inputs": [],
      "name": "itemCount",
      "outputs": [
        {
          "internalType": "uint256",
          "name": "",
          "type": "uint256"
        }
      ],
      "stateMutability": "view",
      "type": "function"
    },
    {
      "inputs": [
        {
          "internalType": "uint256",
          "name": "",
          "type": "uint256"
        }
      ],
      "name": "items",
      "outputs": [
        {
          "internalType": "uint256",
          "name": "itemId",
          "type": "uint256"
        },
        {
          "internalType": "contract IERC721",
          "name": "nft",
          "type": "address"
        },
        {
          "internalType": "uint256",
          "name": "tokenId",
          "type": "uint256"
        },
        {
          "internalType": "uint256",
          "name": "price",
          "type": "uint256"
        },
        {
          "internalType": "address payable",
          "name": "seller",
          "type": "address"
        },
        {
          "internalType": "bool",
          "name": "sold",
          "type": "bool"
        },
        {
          "internalType": "bool",
          "name": "canceled",
          "type": "bool"
        }
      ],
      "stateMutability": "view",
      "type": "function"
    },
    {
      "inputs": [
        {
          "internalType": "contract IERC721",
          "name": "_nft",
          "type": "address"
        },
        {
          "internalType": "uint256",
          "name": "_tokenId",
          "type": "uint256"
        },
        {
          "internalType": "uint256",
          "name": "_price",
          "type": "uint256"
        }
      ],
      "name": "makeItem",
      "outputs": [],
      "stateMutability": "nonpayable",
      "type": "function"
    },
    {
      "inputs": [
        {
          "internalType": "uint256",
          "name": "_auctionId",
          "type": "uint256"
        }
      ],
      "name": "makeOffer",
      "outputs": [],
      "stateMutability": "payable",
      "type": "function"
    },
    {
      "inputs": [
        {
          "internalType": "uint256",
          "name": "_itemId",
          "type": "uint256"
        }
      ],
      "name": "purchaseItem",
      "outputs": [],
      "stateMutability": "payable",
      "type": "function"
    },
    {
      "inputs": [
        {
          "internalType": "contract IERC721",
          "name": "_nft",
          "type": "address"
        },
        {
          "internalType": "uint256",
          "name": "_tokenId",
          "type": "uint256"
        },
        {
          "internalType": "uint256",
          "name": "_price",
          "type": "uint256"
        },
        {
          "internalType": "uint256",
          "name": "_timeToEnd",
          "type": "uint256"
        }
      ],
      "name": "startAuction",
      "outputs": [],
      "stateMutability": "nonpayable",
      "type": "function"
    }
  ],
  "bytecode": "0x60c06040523480156200001157600080fd5b50604051620036293803806200362983398181016040528101906200003791906200009c565b60016000819055503373ffffffffffffffffffffffffffffffffffffffff1660808173ffffffffffffffffffffffffffffffffffffffff1660601b815250508060a0818152505050620000ec565b6000815190506200009681620000d2565b92915050565b600060208284031215620000af57600080fd5b6000620000bf8482850162000085565b91505092915050565b6000819050919050565b620000dd81620000c8565b8114620000e957600080fd5b50565b60805160601c60a0516135066200012360003960008181610ab201526113ae01526000818161039e01526116de01526135066000f3fe6080604052600436106100ec5760003560e01c80639c1662731161008a578063d38ea5bf11610059578063d38ea5bf14610303578063fa00afc71461031f578063fe5c873a14610348578063fe6d7a6e14610371576100ed565b80639c16627314610214578063bfb231d21461023d578063ca7dd37514610280578063d2c069f0146102bd576100ed565b80637ee53f0f116100c65780637ee53f0f1461017b5780637fd6f15c146101a457806396b5a755146101cf5780639a2f6474146101f8576100ed565b806365e17c9d146100fc57806369244fe0146101275780636bfb0d0114610150576100ed565b5b3480156100f957600080fd5b50005b34801561010857600080fd5b5061011161039c565b60405161011e91906126e3565b60405180910390f35b34801561013357600080fd5b5061014e60048036038101906101499190612166565b6103c0565b005b34801561015c57600080fd5b5061016561086d565b6040516101729190612a9b565b60405180910390f35b34801561018757600080fd5b506101a2600480360381019061019d9190612308565b610873565b005b3480156101b057600080fd5b506101b9610ab0565b6040516101c69190612a9b565b60405180910390f35b3480156101db57600080fd5b506101f660048036038101906101f19190612308565b610ad4565b005b610212600480360381019061020d9190612308565b610dd4565b005b34801561022057600080fd5b5061023b600480360381019061023691906122a5565b610fe3565b005b34801561024957600080fd5b50610264600480360381019061025f9190612308565b61130c565b6040516102779796959493929190612b32565b60405180910390f35b34801561028c57600080fd5b506102a760048036038101906102a29190612308565b6113a8565b6040516102b49190612a9b565b60405180910390f35b3480156102c957600080fd5b506102e460048036038101906102df9190612308565b61140b565b6040516102fa9a99989796959493929190612ba1565b60405180910390f35b61031d60048036038101906103189190612308565b6114d9565b005b34801561032b57600080fd5b5061034660048036038101906103419190612256565b611932565b005b34801561035457600080fd5b5061036f600480360381019061036a9190612308565b611bd1565b005b34801561037d57600080fd5b50610386611ff7565b6040516103939190612a9b565b60405180910390f35b7f000000000000000000000000000000000000000000000000000000000000000081565b6103c8611ffd565b85421061040a576040517f08c379a00000000000000000000000000000000000000000000000000000000081526004016104019061295b565b60405180910390fd5b8973ffffffffffffffffffffffffffffffffffffffff16636352211e8a6040518263ffffffff1660e01b81526004016104439190612a9b565b60206040518083038186803b15801561045b57600080fd5b505afa15801561046f573d6000803e3d6000fd5b505050506040513d601f19601f820116820180604052508101906104939190612114565b73ffffffffffffffffffffffffffffffffffffffff163073ffffffffffffffffffffffffffffffffffffffff1614610500576040517f08c379a00000000000000000000000000000000000000000000000000000000081526004016104f7906128fb565b60405180910390fd5b8a73ffffffffffffffffffffffffffffffffffffffff1663d505accf8630878a8888886040518863ffffffff1660e01b8152600401610545979695949392919061276c565b600060405180830381600087803b15801561055f57600080fd5b505af1158015610573573d6000803e3d6000fd5b505050508a73ffffffffffffffffffffffffffffffffffffffff166323b872dd8633876040518463ffffffff1660e01b81526004016105b493929190612735565b602060405180830381600087803b1580156105ce57600080fd5b505af11580156105e2573d6000803e3d6000fd5b505050506040513d601f19601f82011682018060405250810190610606919061213d565b508973ffffffffffffffffffffffffffffffffffffffff166323b872dd30878c6040518463ffffffff1660e01b815260040161064493929190612735565b600060405180830381600087803b15801561065e57600080fd5b505af1158015610672573d6000803e3d6000fd5b50505050861561076c576000600360008a8152602001908152602001600020905060018160040160146101000a81548160ff0219169083151502179055508573ffffffffffffffffffffffffffffffffffffffff168160040160009054906101000a900473ffffffffffffffffffffffffffffffffffffffff1673ffffffffffffffffffffffffffffffffffffffff1682600201547f8b4c9c8a607d67b321582dd8461041b1dc2ceeca70c8b7f37f8e02095cf2e76d8c8560010160009054906101000a900473ffffffffffffffffffffffffffffffffffffffff168a60405161075e93929190612ab6565b60405180910390a450610858565b6000600460008a8152602001908152602001600020905060018160080160006101000a81548160ff0219169083151502179055508573ffffffffffffffffffffffffffffffffffffffff168160060160009054906101000a900473ffffffffffffffffffffffffffffffffffffffff1673ffffffffffffffffffffffffffffffffffffffff1682600201547fe9c76f3cd26822fab39fde36b56736739a684a806c8c0cf5eacd75511797ca7b8c8560010160009054906101000a900473ffffffffffffffffffffffffffffffffffffffff168a60405161084e93929190612ab6565b60405180910390a4505b61086061204d565b5050505050505050505050565b60015481565b61087b611ffd565b600081116108be576040517f08c379a00000000000000000000000000000000000000000000000000000000081526004016108b5906128bb565b60405180910390fd5b60006003600083815260200190815260200160002090503373ffffffffffffffffffffffffffffffffffffffff168160040160009054906101000a900473ffffffffffffffffffffffffffffffffffffffff1673ffffffffffffffffffffffffffffffffffffffff1614610967576040517f08c379a000000000000000000000000000000000000000000000000000000000815260040161095e906129db565b60405180910390fd5b8060040160149054906101000a900460ff16156109b9576040517f08c379a00000000000000000000000000000000000000000000000000000000081526004016109b0906129bb565b60405180910390fd5b60018160040160156101000a81548160ff0219169083151502179055508060010160009054906101000a900473ffffffffffffffffffffffffffffffffffffffff1673ffffffffffffffffffffffffffffffffffffffff166342842e0e303384600201546040518463ffffffff1660e01b8152600401610a3b93929190612735565b600060405180830381600087803b158015610a5557600080fd5b505af1158015610a69573d6000803e3d6000fd5b505050507f0ff09947dd7d2583091e8cbfb427fecacb697bf895187b243fd0072c0ee9b95182604051610a9c9190612a9b565b60405180910390a150610aad61204d565b50565b7f000000000000000000000000000000000000000000000000000000000000000081565b610adc611ffd565b60008111610b1f576040517f08c379a0000000000000000000000000000000000000000000000000000000008152600401610b169061287b565b60405180910390fd5b60006004600083815260200190815260200160002090503373ffffffffffffffffffffffffffffffffffffffff168160060160009054906101000a900473ffffffffffffffffffffffffffffffffffffffff1673ffffffffffffffffffffffffffffffffffffffff1614610bc8576040517f08c379a0000000000000000000000000000000000000000000000000000000008152600401610bbf90612a7b565b60405180910390fd5b8060080160009054906101000a900460ff1615610c1a576040517f08c379a0000000000000000000000000000000000000000000000000000000008152600401610c119061285b565b60405180910390fd5b80600401544210610c60576040517f08c379a0000000000000000000000000000000000000000000000000000000008152600401610c57906127db565b60405180910390fd5b600081600701541115610cdd578060050160009054906101000a900473ffffffffffffffffffffffffffffffffffffffff1673ffffffffffffffffffffffffffffffffffffffff166108fc82600701549081150290604051600060405180830381858888f19350505050158015610cdb573d6000803e3d6000fd5b505b60018160080160016101000a81548160ff0219169083151502179055508060010160009054906101000a900473ffffffffffffffffffffffffffffffffffffffff1673ffffffffffffffffffffffffffffffffffffffff166323b872dd303384600201546040518463ffffffff1660e01b8152600401610d5f93929190612735565b600060405180830381600087803b158015610d7957600080fd5b505af1158015610d8d573d6000803e3d6000fd5b505050507f28601d865dccc9f113e15a7185c1b38c085d598c71250d3337916a428536d77182604051610dc09190612a9b565b60405180910390a150610dd161204d565b50565b610ddc611ffd565b60008111610e1f576040517f08c379a0000000000000000000000000000000000000000000000000000000008152600401610e169061287b565b60405180910390fd5b600060046000838152602001908152602001600020905080600301543411610e7c576040517f08c379a0000000000000000000000000000000000000000000000000000000008152600401610e7390612a1b565b60405180910390fd5b80600401544210610ec2576040517f08c379a0000000000000000000000000000000000000000000000000000000008152600401610eb9906127db565b60405180910390fd5b60008160070154905060008260050160009054906101000a900473ffffffffffffffffffffffffffffffffffffffff169050348360030181905550338360050160006101000a81548173ffffffffffffffffffffffffffffffffffffffff021916908373ffffffffffffffffffffffffffffffffffffffff1602179055503483600701819055506000821115610f9a578073ffffffffffffffffffffffffffffffffffffffff166108fc839081150290604051600060405180830381858888f19350505050158015610f98573d6000803e3d6000fd5b505b7f0e54eff26401bf69b81b26f60bd85ef47f5d85275c1d268d84f68d6897431c47843334604051610fcd93929190612ab6565b60405180910390a1505050610fe061204d565b50565b610feb611ffd565b6000821161102e576040517f08c379a00000000000000000000000000000000000000000000000000000000081526004016110259061297b565b60405180910390fd5b6002600081548092919061104190612e5d565b91905055508373ffffffffffffffffffffffffffffffffffffffff166323b872dd3330866040518463ffffffff1660e01b815260040161108393929190612735565b600060405180830381600087803b15801561109d57600080fd5b505af11580156110b1573d6000803e3d6000fd5b5050505060405180610140016040528060025481526020018573ffffffffffffffffffffffffffffffffffffffff1681526020018481526020018381526020018281526020013373ffffffffffffffffffffffffffffffffffffffff1681526020013373ffffffffffffffffffffffffffffffffffffffff16815260200160008152602001600015158152602001600015158152506004600060025481526020019081526020016000206000820151816000015560208201518160010160006101000a81548173ffffffffffffffffffffffffffffffffffffffff021916908373ffffffffffffffffffffffffffffffffffffffff16021790555060408201518160020155606082015181600301556080820151816004015560a08201518160050160006101000a81548173ffffffffffffffffffffffffffffffffffffffff021916908373ffffffffffffffffffffffffffffffffffffffff16021790555060c08201518160060160006101000a81548173ffffffffffffffffffffffffffffffffffffffff021916908373ffffffffffffffffffffffffffffffffffffffff16021790555060e082015181600701556101008201518160080160006101000a81548160ff0219169083151502179055506101208201518160080160016101000a81548160ff0219169083151502179055509050503373ffffffffffffffffffffffffffffffffffffffff16837fd184fdb1358a28e5370b7ea6f753efc3313b7fd11d6750f270cf79f109a63f176002548786866040516112f69493929190612aed565b60405180910390a361130661204d565b50505050565b60036020528060005260406000206000915090508060000154908060010160009054906101000a900473ffffffffffffffffffffffffffffffffffffffff16908060020154908060030154908060040160009054906101000a900473ffffffffffffffffffffffffffffffffffffffff16908060040160149054906101000a900460ff16908060040160159054906101000a900460ff16905087565b600060647f000000000000000000000000000000000000000000000000000000000000000060646113d99190612c59565b60036000858152602001908152602001600020600301546113fa9190612ce0565b6114049190612caf565b9050919050565b60046020528060005260406000206000915090508060000154908060010160009054906101000a900473ffffffffffffffffffffffffffffffffffffffff16908060020154908060030154908060040154908060050160009054906101000a900473ffffffffffffffffffffffffffffffffffffffff16908060060160009054906101000a900473ffffffffffffffffffffffffffffffffffffffff16908060070154908060080160009054906101000a900460ff16908060080160019054906101000a900460ff1690508a565b6114e1611ffd565b60006114ec826113a8565b9050600060036000848152602001908152602001600020905060008311801561151757506001548311155b611556576040517f08c379a000000000000000000000000000000000000000000000000000000000815260040161154d9061289b565b60405180910390fd5b81341015611599576040517f08c379a00000000000000000000000000000000000000000000000000000000081526004016115909061283b565b60405180910390fd5b8060040160149054906101000a900460ff161580156115c757508060040160159054906101000a900460ff16155b611606576040517f08c379a00000000000000000000000000000000000000000000000000000000081526004016115fd90612a5b565b60405180910390fd5b60008160040160009054906101000a900473ffffffffffffffffffffffffffffffffffffffff1673ffffffffffffffffffffffffffffffffffffffff168260030154604051611654906126ce565b60006040518083038185875af1925050503d8060008114611691576040519150601f19603f3d011682016040523d82523d6000602084013e611696565b606091505b50509050806116da576040517f08c379a00000000000000000000000000000000000000000000000000000000081526004016116d19061299b565b60405180910390fd5b60007f000000000000000000000000000000000000000000000000000000000000000073ffffffffffffffffffffffffffffffffffffffff168360030154856117239190612d3a565b60405161172f906126ce565b60006040518083038185875af1925050503d806000811461176c576040519150601f19603f3d011682016040523d82523d6000602084013e611771565b606091505b50509050806117b5576040517f08c379a00000000000000000000000000000000000000000000000000000000081526004016117ac906129fb565b60405180910390fd5b60018360040160146101000a81548160ff0219169083151502179055508260010160009054906101000a900473ffffffffffffffffffffffffffffffffffffffff1673ffffffffffffffffffffffffffffffffffffffff166342842e0e303386600201546040518463ffffffff1660e01b815260040161183793929190612735565b600060405180830381600087803b15801561185157600080fd5b505af1158015611865573d6000803e3d6000fd5b505050503373ffffffffffffffffffffffffffffffffffffffff168360040160009054906101000a900473ffffffffffffffffffffffffffffffffffffffff1673ffffffffffffffffffffffffffffffffffffffff1684600201547f8b4c9c8a607d67b321582dd8461041b1dc2ceeca70c8b7f37f8e02095cf2e76d888760010160009054906101000a900473ffffffffffffffffffffffffffffffffffffffff16886003015460405161191b93929190612ab6565b60405180910390a45050505061192f61204d565b50565b61193a611ffd565b6000811161197d576040517f08c379a0000000000000000000000000000000000000000000000000000000008152600401611974906127fb565b60405180910390fd5b6001600081548092919061199090612e5d565b91905055508273ffffffffffffffffffffffffffffffffffffffff166323b872dd3330856040518463ffffffff1660e01b81526004016119d293929190612735565b600060405180830381600087803b1580156119ec57600080fd5b505af1158015611a00573d6000803e3d6000fd5b505050506040518060e0016040528060015481526020018473ffffffffffffffffffffffffffffffffffffffff1681526020018381526020018281526020013373ffffffffffffffffffffffffffffffffffffffff168152602001600015158152602001600015158152506003600060015481526020019081526020016000206000820151816000015560208201518160010160006101000a81548173ffffffffffffffffffffffffffffffffffffffff021916908373ffffffffffffffffffffffffffffffffffffffff160217905550604082015181600201556060820151816003015560808201518160040160006101000a81548173ffffffffffffffffffffffffffffffffffffffff021916908373ffffffffffffffffffffffffffffffffffffffff16021790555060a08201518160040160146101000a81548160ff02191690831515021790555060c08201518160040160156101000a81548160ff0219169083151502179055509050503373ffffffffffffffffffffffffffffffffffffffff16827f655a0cf9c8db81512be9a76dc1c5ae5380b8816ce6ad659cd61b715e2999d59a6001548685604051611bbc93929190612ab6565b60405180910390a3611bcc61204d565b505050565b611bd9611ffd565b60008111611c1c576040517f08c379a0000000000000000000000000000000000000000000000000000000008152600401611c139061293b565b60405180910390fd5b60006004600083815260200190815260200160002090508060040154421015611c7a576040517f08c379a0000000000000000000000000000000000000000000000000000000008152600401611c71906128db565b60405180910390fd5b3373ffffffffffffffffffffffffffffffffffffffff168160050160009054906101000a900473ffffffffffffffffffffffffffffffffffffffff1673ffffffffffffffffffffffffffffffffffffffff161480611d2757503373ffffffffffffffffffffffffffffffffffffffff168160060160009054906101000a900473ffffffffffffffffffffffffffffffffffffffff1673ffffffffffffffffffffffffffffffffffffffff16145b611d66576040517f08c379a0000000000000000000000000000000000000000000000000000000008152600401611d5d9061291b565b60405180910390fd5b8060080160009054906101000a900460ff1615611db8576040517f08c379a0000000000000000000000000000000000000000000000000000000008152600401611daf9061281b565b60405180910390fd5b8060010160009054906101000a900473ffffffffffffffffffffffffffffffffffffffff1673ffffffffffffffffffffffffffffffffffffffff166323b872dd308360050160009054906101000a900473ffffffffffffffffffffffffffffffffffffffff1684600201546040518463ffffffff1660e01b8152600401611e41939291906126fe565b600060405180830381600087803b158015611e5b57600080fd5b505af1158015611e6f573d6000803e3d6000fd5b50505050600081600701541115611ef0578060060160009054906101000a900473ffffffffffffffffffffffffffffffffffffffff1673ffffffffffffffffffffffffffffffffffffffff166108fc82600701549081150290604051600060405180830381858888f19350505050158015611eee573d6000803e3d6000fd5b505b60018160080160006101000a81548160ff0219169083151502179055508060050160009054906101000a900473ffffffffffffffffffffffffffffffffffffffff1673ffffffffffffffffffffffffffffffffffffffff168160060160009054906101000a900473ffffffffffffffffffffffffffffffffffffffff1673ffffffffffffffffffffffffffffffffffffffff1682600201547fe9c76f3cd26822fab39fde36b56736739a684a806c8c0cf5eacd75511797ca7b858560010160009054906101000a900473ffffffffffffffffffffffffffffffffffffffff168660030154604051611fe393929190612ab6565b60405180910390a450611ff461204d565b50565b60025481565b60026000541415612043576040517f08c379a000000000000000000000000000000000000000000000000000000000815260040161203a90612a3b565b60405180910390fd5b6002600081905550565b6001600081905550565b6000813590506120668161342f565b92915050565b60008151905061207b8161342f565b92915050565b60008135905061209081613446565b92915050565b6000815190506120a581613446565b92915050565b6000813590506120ba8161345d565b92915050565b6000813590506120cf81613474565b92915050565b6000813590506120e48161348b565b92915050565b6000813590506120f9816134a2565b92915050565b60008135905061210e816134b9565b92915050565b60006020828403121561212657600080fd5b60006121348482850161206c565b91505092915050565b60006020828403121561214f57600080fd5b600061215d84828501612096565b91505092915050565b60008060008060008060008060008060006101608c8e03121561218857600080fd5b60006121968e828f016120c0565b9b505060206121a78e828f016120d5565b9a505060406121b88e828f016120ea565b99505060606121c98e828f016120ea565b98505060806121da8e828f01612081565b97505060a06121eb8e828f016120ea565b96505060c06121fc8e828f01612057565b95505060e061220d8e828f016120ea565b94505061010061221f8e828f016120ff565b9350506101206122318e828f016120ab565b9250506101406122438e828f016120ab565b9150509295989b509295989b9093969950565b60008060006060848603121561226b57600080fd5b6000612279868287016120d5565b935050602061228a868287016120ea565b925050604061229b868287016120ea565b9150509250925092565b600080600080608085870312156122bb57600080fd5b60006122c9878288016120d5565b94505060206122da878288016120ea565b93505060406122eb878288016120ea565b92505060606122fc878288016120ea565b91505092959194509250565b60006020828403121561231a57600080fd5b6000612328848285016120ea565b91505092915050565b61233a81612e03565b82525050565b61234981612d80565b82525050565b61235881612d6e565b82525050565b61236781612d92565b82525050565b61237681612d9e565b82525050565b61238581612e15565b82525050565b6000612398601c83612c48565b91506123a382612f04565b602082019050919050565b60006123bb601f83612c48565b91506123c682612f2d565b602082019050919050565b60006123de601783612c48565b91506123e982612f56565b602082019050919050565b6000612401603383612c48565b915061240c82612f7f565b604082019050919050565b6000612424601b83612c48565b915061242f82612fce565b602082019050919050565b6000612447602683612c48565b915061245282612ff7565b604082019050919050565b600061246a601283612c48565b915061247582613046565b602082019050919050565b600061248d602383612c48565b91506124988261306f565b604082019050919050565b60006124b0601983612c48565b91506124bb826130be565b602082019050919050565b60006124d3602683612c48565b91506124de826130e7565b604082019050919050565b60006124f6602c83612c48565b915061250182613136565b604082019050919050565b6000612519602583612c48565b915061252482613185565b604082019050919050565b600061253c601a83612c48565b9150612547826131d4565b602082019050919050565b600061255f602183612c48565b915061256a826131fd565b604082019050919050565b6000612582601e83612c48565b915061258d8261324c565b602082019050919050565b60006125a5601583612c48565b91506125b082613275565b602082019050919050565b60006125c8600083612c3d565b91506125d38261329e565b600082019050919050565b60006125eb602183612c48565b91506125f6826132a1565b604082019050919050565b600061260e602283612c48565b9150612619826132f0565b604082019050919050565b6000612631602b83612c48565b915061263c8261333f565b604082019050919050565b6000612654601f83612c48565b915061265f8261338e565b602082019050919050565b6000612677601d83612c48565b9150612682826133b7565b602082019050919050565b600061269a602483612c48565b91506126a5826133e0565b604082019050919050565b6126b981612dec565b82525050565b6126c881612df6565b82525050565b60006126d9826125bb565b9150819050919050565b60006020820190506126f86000830184612340565b92915050565b6000606082019050612713600083018661234f565b6127206020830185612331565b61272d60408301846126b0565b949350505050565b600060608201905061274a600083018661234f565b612757602083018561234f565b61276460408301846126b0565b949350505050565b600060e082019050612781600083018a61234f565b61278e602083018961234f565b61279b60408301886126b0565b6127a860608301876126b0565b6127b560808301866126bf565b6127c260a083018561236d565b6127cf60c083018461236d565b98975050505050505050565b600060208201905081810360008301526127f48161238b565b9050919050565b60006020820190508181036000830152612814816123ae565b9050919050565b60006020820190508181036000830152612834816123d1565b9050919050565b60006020820190508181036000830152612854816123f4565b9050919050565b6000602082019050818103600083015261287481612417565b9050919050565b600060208201905081810360008301526128948161243a565b9050919050565b600060208201905081810360008301526128b48161245d565b9050919050565b600060208201905081810360008301526128d481612480565b9050919050565b600060208201905081810360008301526128f4816124a3565b9050919050565b60006020820190508181036000830152612914816124c6565b9050919050565b60006020820190508181036000830152612934816124e9565b9050919050565b600060208201905081810360008301526129548161250c565b9050919050565b600060208201905081810360008301526129748161252f565b9050919050565b6000602082019050818103600083015261299481612552565b9050919050565b600060208201905081810360008301526129b481612575565b9050919050565b600060208201905081810360008301526129d481612598565b9050919050565b600060208201905081810360008301526129f4816125de565b9050919050565b60006020820190508181036000830152612a1481612601565b9050919050565b60006020820190508181036000830152612a3481612624565b9050919050565b60006020820190508181036000830152612a5481612647565b9050919050565b60006020820190508181036000830152612a748161266a565b9050919050565b60006020820190508181036000830152612a948161268d565b9050919050565b6000602082019050612ab060008301846126b0565b92915050565b6000606082019050612acb60008301866126b0565b612ad8602083018561234f565b612ae560408301846126b0565b949350505050565b6000608082019050612b0260008301876126b0565b612b0f602083018661234f565b612b1c60408301856126b0565b612b2960608301846126b0565b95945050505050565b600060e082019050612b47600083018a6126b0565b612b54602083018961237c565b612b6160408301886126b0565b612b6e60608301876126b0565b612b7b6080830186612340565b612b8860a083018561235e565b612b9560c083018461235e565b98975050505050505050565b600061014082019050612bb7600083018d6126b0565b612bc4602083018c61237c565b612bd1604083018b6126b0565b612bde606083018a6126b0565b612beb60808301896126b0565b612bf860a0830188612340565b612c0560c0830187612340565b612c1260e08301866126b0565b612c2061010083018561235e565b612c2e61012083018461235e565b9b9a5050505050505050505050565b600081905092915050565b600082825260208201905092915050565b6000612c6482612dec565b9150612c6f83612dec565b9250827fffffffffffffffffffffffffffffffffffffffffffffffffffffffffffffffff03821115612ca457612ca3612ea6565b5b828201905092915050565b6000612cba82612dec565b9150612cc583612dec565b925082612cd557612cd4612ed5565b5b828204905092915050565b6000612ceb82612dec565b9150612cf683612dec565b9250817fffffffffffffffffffffffffffffffffffffffffffffffffffffffffffffffff0483118215151615612d2f57612d2e612ea6565b5b828202905092915050565b6000612d4582612dec565b9150612d5083612dec565b925082821015612d6357612d62612ea6565b5b828203905092915050565b6000612d7982612dcc565b9050919050565b6000612d8b82612dcc565b9050919050565b60008115159050919050565b6000819050919050565b6000612db382612d6e565b9050919050565b6000612dc582612d6e565b9050919050565b600073ffffffffffffffffffffffffffffffffffffffff82169050919050565b6000819050919050565b600060ff82169050919050565b6000612e0e82612e39565b9050919050565b6000612e2082612e27565b9050919050565b6000612e3282612dcc565b9050919050565b6000612e4482612e4b565b9050919050565b6000612e5682612dcc565b9050919050565b6000612e6882612dec565b91507fffffffffffffffffffffffffffffffffffffffffffffffffffffffffffffffff821415612e9b57612e9a612ea6565b5b600182019050919050565b7f4e487b7100000000000000000000000000000000000000000000000000000000600052601160045260246000fd5b7f4e487b7100000000000000000000000000000000000000000000000000000000600052601260045260246000fd5b7f41756374696f6e2073686f756c64206e6f7420626520656e6465642e00000000600082015250565b7f5072696365206d7573742062652067726561746572207468616e207a65726f00600082015250565b7f4e465420697320616c726561647920636c61696d65642e000000000000000000600082015250565b7f6e6f7420656e6f75676820657468657220746f20636f766572206974656d207060008201527f7269636520616e64206d61726b65742066656500000000000000000000000000602082015250565b7f41756374696f6e20697320616c726561647920636c61696d65642e0000000000600082015250565b7f41756374696f6e2069642073686f756c6420626520626967676572207468616e60008201527f207a65726f2e0000000000000000000000000000000000000000000000000000602082015250565b7f6974656d20646f65736e27742065786973740000000000000000000000000000600082015250565b7f4974656d2069642073686f756c6420626520626967676572207468616e207a6560008201527f726f2e0000000000000000000000000000000000000000000000000000000000602082015250565b7f41756374696f6e2073686f756c6420656e642066697273742e00000000000000600082015250565b7f4f6e6c79206d61726b6574706c616365206974656d732063616e20626520616360008201527f6365707465640000000000000000000000000000000000000000000000000000602082015250565b7f4f6e6c792077696e6e6572206f722073656c6c65722063616e2072756e20746860008201527f69732066756e6374696f6e2e0000000000000000000000000000000000000000602082015250565b7f41756374696f6e2069642073686f756c6420626520626967676572207468616e60008201527f207a65726f000000000000000000000000000000000000000000000000000000602082015250565b7f4f6666657220646561646c696e65206973206578636565646564000000000000600082015250565b7f70726963652073686f756c642062652067726561746572207468616e207a657260008201527f6f00000000000000000000000000000000000000000000000000000000000000602082015250565b7f6661696c656420746f2073656e6420457468657220746f2073656c6c65720000600082015250565b7f4974656d20697320616c726561647920736f6c642e0000000000000000000000600082015250565b50565b7f4f6e6c792073656c6c65722063616e2063616e63656c2074686973206974656d60008201527f2e00000000000000000000000000000000000000000000000000000000000000602082015250565b7f6661696c656420746f2073656e6420457468657220746f206665654163636f7560008201527f6e74000000000000000000000000000000000000000000000000000000000000602082015250565b7f50726963652073686f756c642062652067726561746572207468616e2063757260008201527f72656e742070726963652e000000000000000000000000000000000000000000602082015250565b7f5265656e7472616e637947756172643a207265656e7472616e742063616c6c00600082015250565b7f6974656d20616c726561647920736f6c64206f722063616e63656c6564000000600082015250565b7f4f6e6c792073656c6c65722063616e2063616e63656c2074686973206175637460008201527f696f6e2e00000000000000000000000000000000000000000000000000000000602082015250565b61343881612d6e565b811461344357600080fd5b50565b61344f81612d92565b811461345a57600080fd5b50565b61346681612d9e565b811461347157600080fd5b50565b61347d81612da8565b811461348857600080fd5b50565b61349481612dba565b811461349f57600080fd5b50565b6134ab81612dec565b81146134b657600080fd5b50565b6134c281612df6565b81146134cd57600080fd5b5056fea2646970667358221220a9299f6736412c2ab81dc8b6fabd4749d01eea51504451ad4576e0aa33c319ef64736f6c63430008040033",
  "linkReferences": {},
  "deployedLinkReferences": {}
}