{
  "_format": "hh-sol-artifact-1",
  "contractName": "Marketplace",
  "sourceName": "libs/contracts/src/contracts/Marketplace.sol",
  "abi": [
    {
      "inputs": [
        {
          "internalType": "uint256",
          "name": "_feePercent",
          "type": "uint256"
        }
      ],
      "stateMutability": "nonpayable",
      "type": "constructor"
    },
    {
      "anonymous": false,
      "inputs": [
        {
          "indexed": false,
          "internalType": "uint256",
          "name": "auctionId",
          "type": "uint256"
        }
      ],
      "name": "AuctionCanceled",
      "type": "event"
    },
    {
      "anonymous": false,
      "inputs": [
        {
          "indexed": false,
          "internalType": "uint256",
          "name": "auctionId",
          "type": "uint256"
        },
        {
          "indexed": false,
          "internalType": "address",
          "name": "nft",
          "type": "address"
        },
        {
          "indexed": true,
          "internalType": "uint256",
          "name": "tokenId",
          "type": "uint256"
        },
        {
          "indexed": false,
          "internalType": "uint256",
          "name": "price",
          "type": "uint256"
        },
        {
          "indexed": true,
          "internalType": "address",
          "name": "seller",
          "type": "address"
        },
        {
          "indexed": true,
          "internalType": "address",
          "name": "buyer",
          "type": "address"
        }
      ],
      "name": "AuctionEnded",
      "type": "event"
    },
    {
      "anonymous": false,
      "inputs": [
        {
          "indexed": false,
          "internalType": "uint256",
          "name": "auctionId",
          "type": "uint256"
        },
        {
          "indexed": false,
          "internalType": "address",
          "name": "nft",
          "type": "address"
        },
        {
          "indexed": true,
          "internalType": "uint256",
          "name": "tokenId",
          "type": "uint256"
        },
        {
          "indexed": false,
          "internalType": "uint256",
          "name": "price",
          "type": "uint256"
        },
        {
          "indexed": false,
          "internalType": "uint256",
          "name": "timeToEnd",
          "type": "uint256"
        },
        {
          "indexed": true,
          "internalType": "address",
          "name": "seller",
          "type": "address"
        }
      ],
      "name": "AuctionStarted",
      "type": "event"
    },
    {
      "anonymous": false,
      "inputs": [
        {
          "indexed": false,
          "internalType": "uint256",
          "name": "itemId",
          "type": "uint256"
        },
        {
          "indexed": false,
          "internalType": "address",
          "name": "nft",
          "type": "address"
        },
        {
          "indexed": true,
          "internalType": "uint256",
          "name": "tokenId",
          "type": "uint256"
        },
        {
          "indexed": false,
          "internalType": "uint256",
          "name": "price",
          "type": "uint256"
        },
        {
          "indexed": true,
          "internalType": "address",
          "name": "seller",
          "type": "address"
        },
        {
          "indexed": true,
          "internalType": "address",
          "name": "buyer",
          "type": "address"
        }
      ],
      "name": "Bought",
      "type": "event"
    },
    {
      "anonymous": false,
      "inputs": [
        {
          "indexed": false,
          "internalType": "uint256",
          "name": "itemId",
          "type": "uint256"
        }
      ],
      "name": "OfferCanceled",
      "type": "event"
    },
    {
      "anonymous": false,
      "inputs": [
        {
          "indexed": false,
          "internalType": "uint256",
          "name": "itemId",
          "type": "uint256"
        },
        {
          "indexed": false,
          "internalType": "address",
          "name": "nft",
          "type": "address"
        },
        {
          "indexed": true,
          "internalType": "uint256",
          "name": "tokenId",
          "type": "uint256"
        },
        {
          "indexed": false,
          "internalType": "uint256",
          "name": "price",
          "type": "uint256"
        },
        {
          "indexed": true,
          "internalType": "address",
          "name": "seller",
          "type": "address"
        }
      ],
      "name": "Offered",
      "type": "event"
    },
    {
      "anonymous": false,
      "inputs": [
        {
          "indexed": true,
          "internalType": "address",
          "name": "previousOwner",
          "type": "address"
        },
        {
          "indexed": true,
          "internalType": "address",
          "name": "newOwner",
          "type": "address"
        }
      ],
      "name": "OwnershipTransferred",
      "type": "event"
    },
    {
      "stateMutability": "nonpayable",
      "type": "fallback"
    },
    {
      "inputs": [
        {
          "internalType": "contract IERC20Permit",
          "name": "erc20",
          "type": "address"
        },
        {
          "internalType": "contract IERC721",
          "name": "nft",
          "type": "address"
        },
        {
          "internalType": "uint256",
          "name": "_tokenId",
          "type": "uint256"
        },
        {
          "internalType": "uint256",
          "name": "_itemId",
          "type": "uint256"
        },
        {
          "internalType": "bool",
          "name": "isOnSale",
          "type": "bool"
        },
        {
          "internalType": "uint256",
          "name": "deadline",
          "type": "uint256"
        },
        {
          "internalType": "address",
          "name": "offerer",
          "type": "address"
        },
        {
          "internalType": "uint256",
          "name": "amount",
          "type": "uint256"
        },
        {
          "internalType": "uint8",
          "name": "_v",
          "type": "uint8"
        },
        {
          "internalType": "bytes32",
          "name": "_r",
          "type": "bytes32"
        },
        {
          "internalType": "bytes32",
          "name": "_s",
          "type": "bytes32"
        }
      ],
      "name": "acceptERCOffer",
      "outputs": [],
      "stateMutability": "nonpayable",
      "type": "function"
    },
    {
      "inputs": [],
      "name": "auctionItemCount",
      "outputs": [
        {
          "internalType": "uint256",
          "name": "",
          "type": "uint256"
        }
      ],
      "stateMutability": "view",
      "type": "function"
    },
    {
      "inputs": [
        {
          "internalType": "uint256",
          "name": "",
          "type": "uint256"
        }
      ],
      "name": "auctionItems",
      "outputs": [
        {
          "internalType": "uint256",
          "name": "auctionId",
          "type": "uint256"
        },
        {
          "internalType": "contract IERC721",
          "name": "nft",
          "type": "address"
        },
        {
          "internalType": "uint256",
          "name": "tokenId",
          "type": "uint256"
        },
        {
          "internalType": "uint256",
          "name": "price",
          "type": "uint256"
        },
        {
          "internalType": "uint256",
          "name": "timeToEnd",
          "type": "uint256"
        },
        {
          "internalType": "address payable",
          "name": "seller",
          "type": "address"
        },
        {
          "internalType": "bool",
          "name": "claimed",
          "type": "bool"
        },
        {
          "internalType": "bool",
          "name": "canceled",
          "type": "bool"
        }
      ],
      "stateMutability": "view",
      "type": "function"
    },
    {
      "inputs": [
        {
          "internalType": "uint256",
          "name": "_auctionId",
          "type": "uint256"
        }
      ],
      "name": "cancelAuction",
      "outputs": [],
      "stateMutability": "nonpayable",
      "type": "function"
    },
    {
      "inputs": [
        {
          "internalType": "uint256",
          "name": "_itemId",
          "type": "uint256"
        }
      ],
      "name": "cancelOffered",
      "outputs": [],
      "stateMutability": "nonpayable",
      "type": "function"
    },
    {
      "inputs": [
        {
          "internalType": "address payable",
          "name": "_feeAccount",
          "type": "address"
        }
      ],
      "name": "changeFeeAccount",
      "outputs": [],
      "stateMutability": "nonpayable",
      "type": "function"
    },
    {
      "inputs": [
        {
          "internalType": "uint256",
          "name": "_feePercent",
          "type": "uint256"
        }
      ],
      "name": "changeFeePercent",
      "outputs": [],
      "stateMutability": "nonpayable",
      "type": "function"
    },
    {
      "inputs": [
        {
          "internalType": "contract IERC20Permit",
          "name": "erc20",
          "type": "address"
        },
        {
          "internalType": "uint256",
          "name": "_tokenId",
          "type": "uint256"
        },
        {
          "internalType": "uint256",
          "name": "_auctionId",
          "type": "uint256"
        },
        {
          "internalType": "uint256",
          "name": "deadline",
          "type": "uint256"
        },
        {
          "internalType": "address",
          "name": "bidder",
          "type": "address"
        },
        {
          "internalType": "uint256",
          "name": "amount",
          "type": "uint256"
        },
        {
          "internalType": "uint8",
          "name": "_v",
          "type": "uint8"
        },
        {
          "internalType": "bytes32",
          "name": "_r",
          "type": "bytes32"
        },
        {
          "internalType": "bytes32",
          "name": "_s",
          "type": "bytes32"
        }
      ],
      "name": "claimNFT",
      "outputs": [],
      "stateMutability": "nonpayable",
      "type": "function"
    },
    {
      "inputs": [],
      "name": "feeAccount",
      "outputs": [
        {
          "internalType": "address payable",
          "name": "",
          "type": "address"
        }
      ],
      "stateMutability": "view",
      "type": "function"
    },
    {
      "inputs": [],
      "name": "feePercent",
      "outputs": [
        {
          "internalType": "uint256",
          "name": "",
          "type": "uint256"
        }
      ],
      "stateMutability": "view",
      "type": "function"
    },
    {
      "inputs": [
        {
          "internalType": "uint256",
          "name": "_itemId",
          "type": "uint256"
        }
      ],
      "name": "getTotalPrice",
      "outputs": [
        {
          "internalType": "uint256",
          "name": "",
          "type": "uint256"
        }
      ],
      "stateMutability": "view",
      "type": "function"
    },
    {
      "inputs": [],
      "name": "itemCount",
      "outputs": [
        {
          "internalType": "uint256",
          "name": "",
          "type": "uint256"
        }
      ],
      "stateMutability": "view",
      "type": "function"
    },
    {
      "inputs": [
        {
          "internalType": "uint256",
          "name": "",
          "type": "uint256"
        }
      ],
      "name": "items",
      "outputs": [
        {
          "internalType": "uint256",
          "name": "itemId",
          "type": "uint256"
        },
        {
          "internalType": "contract IERC721",
          "name": "nft",
          "type": "address"
        },
        {
          "internalType": "uint256",
          "name": "tokenId",
          "type": "uint256"
        },
        {
          "internalType": "uint256",
          "name": "price",
          "type": "uint256"
        },
        {
          "internalType": "address payable",
          "name": "seller",
          "type": "address"
        },
        {
          "internalType": "bool",
          "name": "sold",
          "type": "bool"
        },
        {
          "internalType": "bool",
          "name": "canceled",
          "type": "bool"
        }
      ],
      "stateMutability": "view",
      "type": "function"
    },
    {
      "inputs": [
        {
          "internalType": "contract IERC721",
          "name": "_nft",
          "type": "address"
        },
        {
          "internalType": "uint256",
          "name": "_tokenId",
          "type": "uint256"
        },
        {
          "internalType": "uint256",
          "name": "_price",
          "type": "uint256"
        }
      ],
      "name": "makeItem",
      "outputs": [],
      "stateMutability": "nonpayable",
      "type": "function"
    },
    {
      "inputs": [],
      "name": "owner",
      "outputs": [
        {
          "internalType": "address",
          "name": "",
          "type": "address"
        }
      ],
      "stateMutability": "view",
      "type": "function"
    },
    {
      "inputs": [
        {
          "internalType": "uint256",
          "name": "_itemId",
          "type": "uint256"
        }
      ],
      "name": "purchaseItem",
      "outputs": [],
      "stateMutability": "payable",
      "type": "function"
    },
    {
      "inputs": [
        {
          "internalType": "uint256[]",
          "name": "_itemIds",
          "type": "uint256[]"
        }
      ],
      "name": "purchaseItem_multiple",
      "outputs": [],
      "stateMutability": "payable",
      "type": "function"
    },
    {
      "inputs": [],
      "name": "renounceOwnership",
      "outputs": [],
      "stateMutability": "nonpayable",
      "type": "function"
    },
    {
      "inputs": [
        {
          "internalType": "contract IERC721",
          "name": "_nft",
          "type": "address"
        },
        {
          "internalType": "uint256",
          "name": "_tokenId",
          "type": "uint256"
        },
        {
          "internalType": "uint256",
          "name": "_price",
          "type": "uint256"
        },
        {
          "internalType": "uint256",
          "name": "_timeToEnd",
          "type": "uint256"
        }
      ],
      "name": "startAuction",
      "outputs": [],
      "stateMutability": "nonpayable",
      "type": "function"
    },
    {
      "inputs": [
        {
          "internalType": "address",
          "name": "newOwner",
          "type": "address"
        }
      ],
      "name": "transferOwnership",
      "outputs": [],
      "stateMutability": "nonpayable",
      "type": "function"
    }
  ],
  "bytecode": "0x60806040523480156200001157600080fd5b5060405162003d8538038062003d85833981810160405281019062000037919062000211565b60016000819055506200005f620000536200010360201b60201c565b6200010b60201b60201c565b6000811015801562000072575060648111155b620000b4576040517f08c379a0000000000000000000000000000000000000000000000000000000008152600401620000ab90620002ca565b60405180910390fd5b33600260006101000a81548173ffffffffffffffffffffffffffffffffffffffff021916908373ffffffffffffffffffffffffffffffffffffffff1602179055508060038190555050620002ec565b600033905090565b6000600160009054906101000a900473ffffffffffffffffffffffffffffffffffffffff16905081600160006101000a81548173ffffffffffffffffffffffffffffffffffffffff021916908373ffffffffffffffffffffffffffffffffffffffff1602179055508173ffffffffffffffffffffffffffffffffffffffff168173ffffffffffffffffffffffffffffffffffffffff167f8be0079c531659141344cd1fd0a4f28419497f9722a3daafe3b4186f6b6457e060405160405180910390a35050565b600080fd5b6000819050919050565b620001eb81620001d6565b8114620001f757600080fd5b50565b6000815190506200020b81620001e0565b92915050565b6000602082840312156200022a5762000229620001d1565b5b60006200023a84828501620001fa565b91505092915050565b600082825260208201905092915050565b7f66656550657263656e74206d757374206265206265747765656e203020616e6460008201527f2031303000000000000000000000000000000000000000000000000000000000602082015250565b6000620002b260248362000243565b9150620002bf8262000254565b604082019050919050565b60006020820190508181036000830152620002e581620002a3565b9050919050565b613a8980620002fc6000396000f3fe6080604052600436106101235760003560e01c806396b5a755116100a0578063d2c069f011610064578063d2c069f0146103b0578063d38ea5bf146103f4578063f2fde38b14610410578063fa00afc714610439578063fe6d7a6e1461046257610124565b806396b5a755146102b55780639c166273146102de578063bcd10f9a14610307578063bfb231d214610330578063ca7dd3751461037357610124565b806371ffcb16116100e757806371ffcb16146101f15780637ee53f0f1461021a5780637fd6f15c146102435780638da5cb5b1461026e57806392dab8111461029957610124565b806334eddf3e1461013257806365e17c9d1461015b57806369244fe0146101865780636bfb0d01146101af578063715018a6146101da57610124565b5b34801561013057600080fd5b005b34801561013e57600080fd5b50610159600480360381019061015491906123d9565b61048d565b005b34801561016757600080fd5b506101706104f0565b60405161017d9190612447565b60405180910390f35b34801561019257600080fd5b506101ad60048036038101906101a891906125c3565b610516565b005b3480156101bb57600080fd5b506101c46109a5565b6040516101d191906126c6565b60405180910390f35b3480156101e657600080fd5b506101ef6109ab565b005b3480156101fd57600080fd5b506102186004803603810190610213919061270d565b6109bf565b005b34801561022657600080fd5b50610241600480360381019061023c91906123d9565b610a0b565b005b34801561024f57600080fd5b50610258610c48565b60405161026591906126c6565b60405180910390f35b34801561027a57600080fd5b50610283610c4e565b6040516102909190612749565b60405180910390f35b6102b360048036038101906102ae91906127c9565b610c78565b005b3480156102c157600080fd5b506102dc60048036038101906102d791906123d9565b610ff9565b005b3480156102ea57600080fd5b5061030560048036038101906103009190612816565b61127c565b005b34801561031357600080fd5b5061032e6004803603810190610329919061287d565b611529565b005b34801561033c57600080fd5b50610357600480360381019061035291906123d9565b6118ba565b60405161036a97969594939291906129b5565b60405180910390f35b34801561037f57600080fd5b5061039a600480360381019061039591906123d9565b611956565b6040516103a791906126c6565b60405180910390f35b3480156103bc57600080fd5b506103d760048036038101906103d291906123d9565b61199b565b6040516103eb989796959493929190612a24565b60405180910390f35b61040e600480360381019061040991906123d9565b611a3d565b005b34801561041c57600080fd5b5061043760048036038101906104329190612aa2565b611e98565b005b34801561044557600080fd5b50610460600480360381019061045b9190612acf565b611f1b565b005b34801561046e57600080fd5b506104776121b4565b60405161048491906126c6565b60405180910390f35b6104956121ba565b600081101580156104a7575060648111155b6104e6576040517f08c379a00000000000000000000000000000000000000000000000000000000081526004016104dd90612ba5565b60405180910390fd5b8060038190555050565b600260009054906101000a900473ffffffffffffffffffffffffffffffffffffffff1681565b61051e612238565b854210610560576040517f08c379a000000000000000000000000000000000000000000000000000000000815260040161055790612c11565b60405180910390fd5b8973ffffffffffffffffffffffffffffffffffffffff16636352211e8a6040518263ffffffff1660e01b815260040161059991906126c6565b602060405180830381865afa1580156105b6573d6000803e3d6000fd5b505050506040513d601f19601f820116820180604052508101906105da9190612c46565b73ffffffffffffffffffffffffffffffffffffffff163073ffffffffffffffffffffffffffffffffffffffff1614610647576040517f08c379a000000000000000000000000000000000000000000000000000000000815260040161063e90612ce5565b60405180910390fd5b8a73ffffffffffffffffffffffffffffffffffffffff1663d505accf8630878a8888886040518863ffffffff1660e01b815260040161068c9796959493929190612d23565b600060405180830381600087803b1580156106a657600080fd5b505af11580156106ba573d6000803e3d6000fd5b505050508a73ffffffffffffffffffffffffffffffffffffffff166323b872dd8633876040518463ffffffff1660e01b81526004016106fb93929190612d92565b6020604051808303816000875af115801561071a573d6000803e3d6000fd5b505050506040513d601f19601f8201168201806040525081019061073e9190612dde565b508973ffffffffffffffffffffffffffffffffffffffff166323b872dd30878c6040518463ffffffff1660e01b815260040161077c93929190612d92565b600060405180830381600087803b15801561079657600080fd5b505af11580156107aa573d6000803e3d6000fd5b5050505086156108a4576000600660008a8152602001908152602001600020905060018160040160146101000a81548160ff0219169083151502179055508573ffffffffffffffffffffffffffffffffffffffff168160040160009054906101000a900473ffffffffffffffffffffffffffffffffffffffff1673ffffffffffffffffffffffffffffffffffffffff1682600201547f8b4c9c8a607d67b321582dd8461041b1dc2ceeca70c8b7f37f8e02095cf2e76d8c8560010160009054906101000a900473ffffffffffffffffffffffffffffffffffffffff168a60405161089693929190612e0b565b60405180910390a450610990565b6000600760008a8152602001908152602001600020905060018160050160146101000a81548160ff0219169083151502179055508573ffffffffffffffffffffffffffffffffffffffff168160050160009054906101000a900473ffffffffffffffffffffffffffffffffffffffff1673ffffffffffffffffffffffffffffffffffffffff1682600201547fe9c76f3cd26822fab39fde36b56736739a684a806c8c0cf5eacd75511797ca7b8c8560010160009054906101000a900473ffffffffffffffffffffffffffffffffffffffff168a60405161098693929190612e0b565b60405180910390a4505b610998612287565b5050505050505050505050565b60045481565b6109b36121ba565b6109bd6000612291565b565b6109c76121ba565b80600260006101000a81548173ffffffffffffffffffffffffffffffffffffffff021916908373ffffffffffffffffffffffffffffffffffffffff16021790555050565b610a13612238565b60008111610a56576040517f08c379a0000000000000000000000000000000000000000000000000000000008152600401610a4d90612eb4565b60405180910390fd5b60006006600083815260200190815260200160002090503373ffffffffffffffffffffffffffffffffffffffff168160040160009054906101000a900473ffffffffffffffffffffffffffffffffffffffff1673ffffffffffffffffffffffffffffffffffffffff1614610aff576040517f08c379a0000000000000000000000000000000000000000000000000000000008152600401610af690612f46565b60405180910390fd5b8060040160149054906101000a900460ff1615610b51576040517f08c379a0000000000000000000000000000000000000000000000000000000008152600401610b4890612fb2565b60405180910390fd5b60018160040160156101000a81548160ff0219169083151502179055508060010160009054906101000a900473ffffffffffffffffffffffffffffffffffffffff1673ffffffffffffffffffffffffffffffffffffffff166342842e0e303384600201546040518463ffffffff1660e01b8152600401610bd393929190612d92565b600060405180830381600087803b158015610bed57600080fd5b505af1158015610c01573d6000803e3d6000fd5b505050507f0ff09947dd7d2583091e8cbfb427fecacb697bf895187b243fd0072c0ee9b95182604051610c3491906126c6565b60405180910390a150610c45612287565b50565b60035481565b6000600160009054906101000a900473ffffffffffffffffffffffffffffffffffffffff16905090565b610c80612238565b60005b82829050811015610f15576000838383818110610ca357610ca2612fd2565b5b905060200201359050600060066000838152602001908152602001600020905060008160040160009054906101000a900473ffffffffffffffffffffffffffffffffffffffff1673ffffffffffffffffffffffffffffffffffffffff168260030154604051610d1190613032565b60006040518083038185875af1925050503d8060008114610d4e576040519150601f19603f3d011682016040523d82523d6000602084013e610d53565b606091505b5050905080610d97576040517f08c379a0000000000000000000000000000000000000000000000000000000008152600401610d8e90613093565b60405180910390fd5b60018260040160146101000a81548160ff0219169083151502179055508160010160009054906101000a900473ffffffffffffffffffffffffffffffffffffffff1673ffffffffffffffffffffffffffffffffffffffff166342842e0e303385600201546040518463ffffffff1660e01b8152600401610e1993929190612d92565b600060405180830381600087803b158015610e3357600080fd5b505af1158015610e47573d6000803e3d6000fd5b505050503373ffffffffffffffffffffffffffffffffffffffff168260040160009054906101000a900473ffffffffffffffffffffffffffffffffffffffff1673ffffffffffffffffffffffffffffffffffffffff1683600201547f8b4c9c8a607d67b321582dd8461041b1dc2ceeca70c8b7f37f8e02095cf2e76d868660010160009054906101000a900473ffffffffffffffffffffffffffffffffffffffff168760030154604051610efd93929190612e0b565b60405180910390a48380600101945050505050610c83565b506000600260009054906101000a900473ffffffffffffffffffffffffffffffffffffffff1673ffffffffffffffffffffffffffffffffffffffff16610f5a34612357565b604051610f6690613032565b60006040518083038185875af1925050503d8060008114610fa3576040519150601f19603f3d011682016040523d82523d6000602084013e610fa8565b606091505b5050905080610fec576040517f08c379a0000000000000000000000000000000000000000000000000000000008152600401610fe390613125565b60405180910390fd5b50610ff5612287565b5050565b611001612238565b60008111611044576040517f08c379a000000000000000000000000000000000000000000000000000000000815260040161103b906131b7565b60405180910390fd5b60006007600083815260200190815260200160002090503373ffffffffffffffffffffffffffffffffffffffff168160050160009054906101000a900473ffffffffffffffffffffffffffffffffffffffff1673ffffffffffffffffffffffffffffffffffffffff16146110ed576040517f08c379a00000000000000000000000000000000000000000000000000000000081526004016110e490613249565b60405180910390fd5b8060050160149054906101000a900460ff161561113f576040517f08c379a0000000000000000000000000000000000000000000000000000000008152600401611136906132b5565b60405180910390fd5b80600401544210611185576040517f08c379a000000000000000000000000000000000000000000000000000000000815260040161117c90613321565b60405180910390fd5b60018160050160156101000a81548160ff0219169083151502179055508060010160009054906101000a900473ffffffffffffffffffffffffffffffffffffffff1673ffffffffffffffffffffffffffffffffffffffff166323b872dd303384600201546040518463ffffffff1660e01b815260040161120793929190612d92565b600060405180830381600087803b15801561122157600080fd5b505af1158015611235573d6000803e3d6000fd5b505050507f28601d865dccc9f113e15a7185c1b38c085d598c71250d3337916a428536d7718260405161126891906126c6565b60405180910390a150611279612287565b50565b611284612238565b600082116112c7576040517f08c379a00000000000000000000000000000000000000000000000000000000081526004016112be906133b3565b60405180910390fd5b6005600081548092919060010191905055508373ffffffffffffffffffffffffffffffffffffffff166323b872dd3330866040518463ffffffff1660e01b815260040161131693929190612d92565b600060405180830381600087803b15801561133057600080fd5b505af1158015611344573d6000803e3d6000fd5b5050505060405180610100016040528060055481526020018573ffffffffffffffffffffffffffffffffffffffff1681526020018481526020018381526020018281526020013373ffffffffffffffffffffffffffffffffffffffff168152602001600015158152602001600015158152506007600060055481526020019081526020016000206000820151816000015560208201518160010160006101000a81548173ffffffffffffffffffffffffffffffffffffffff021916908373ffffffffffffffffffffffffffffffffffffffff16021790555060408201518160020155606082015181600301556080820151816004015560a08201518160050160006101000a81548173ffffffffffffffffffffffffffffffffffffffff021916908373ffffffffffffffffffffffffffffffffffffffff16021790555060c08201518160050160146101000a81548160ff02191690831515021790555060e08201518160050160156101000a81548160ff0219169083151502179055509050503373ffffffffffffffffffffffffffffffffffffffff16837fd184fdb1358a28e5370b7ea6f753efc3313b7fd11d6750f270cf79f109a63f1760055487868660405161151394939291906133d3565b60405180910390a3611523612287565b50505050565b611531612238565b60008711611574576040517f08c379a000000000000000000000000000000000000000000000000000000000815260040161156b9061348a565b60405180910390fd5b600060076000898152602001908152602001600020905080600401544210156115d2576040517f08c379a00000000000000000000000000000000000000000000000000000000081526004016115c9906134f6565b60405180910390fd5b8060050160149054906101000a900460ff1615611624576040517f08c379a000000000000000000000000000000000000000000000000000000000815260040161161b90613562565b60405180910390fd5b8973ffffffffffffffffffffffffffffffffffffffff1663d505accf8730888b8989896040518863ffffffff1660e01b81526004016116699796959493929190612d23565b600060405180830381600087803b15801561168357600080fd5b505af1158015611697573d6000803e3d6000fd5b505050508973ffffffffffffffffffffffffffffffffffffffff166323b872dd878360050160009054906101000a900473ffffffffffffffffffffffffffffffffffffffff16886040518463ffffffff1660e01b81526004016116fc939291906135a3565b6020604051808303816000875af115801561171b573d6000803e3d6000fd5b505050506040513d601f19601f8201168201806040525081019061173f9190612dde565b508060010160009054906101000a900473ffffffffffffffffffffffffffffffffffffffff1673ffffffffffffffffffffffffffffffffffffffff166323b872dd30888c6040518463ffffffff1660e01b81526004016117a193929190612d92565b600060405180830381600087803b1580156117bb57600080fd5b505af11580156117cf573d6000803e3d6000fd5b5050505060018160050160146101000a81548160ff0219169083151502179055508573ffffffffffffffffffffffffffffffffffffffff168160050160009054906101000a900473ffffffffffffffffffffffffffffffffffffffff1673ffffffffffffffffffffffffffffffffffffffff1682600201547fe9c76f3cd26822fab39fde36b56736739a684a806c8c0cf5eacd75511797ca7b8b8560010160009054906101000a900473ffffffffffffffffffffffffffffffffffffffff168a60405161189e93929190612e0b565b60405180910390a4506118af612287565b505050505050505050565b60066020528060005260406000206000915090508060000154908060010160009054906101000a900473ffffffffffffffffffffffffffffffffffffffff16908060020154908060030154908060040160009054906101000a900473ffffffffffffffffffffffffffffffffffffffff16908060040160149054906101000a900460ff16908060040160159054906101000a900460ff16905087565b6000606460035460646119699190613609565b600660008581526020019081526020016000206003015461198a919061363d565b61199491906136ae565b9050919050565b60076020528060005260406000206000915090508060000154908060010160009054906101000a900473ffffffffffffffffffffffffffffffffffffffff16908060020154908060030154908060040154908060050160009054906101000a900473ffffffffffffffffffffffffffffffffffffffff16908060050160149054906101000a900460ff16908060050160159054906101000a900460ff16905088565b611a45612238565b6000611a5082611956565b90506000600660008481526020019081526020016000209050600083118015611a7b57506004548311155b611aba576040517f08c379a0000000000000000000000000000000000000000000000000000000008152600401611ab19061372b565b60405180910390fd5b81341015611afd576040517f08c379a0000000000000000000000000000000000000000000000000000000008152600401611af4906137bd565b60405180910390fd5b8060040160149054906101000a900460ff16158015611b2b57508060040160159054906101000a900460ff16155b611b6a576040517f08c379a0000000000000000000000000000000000000000000000000000000008152600401611b6190613829565b60405180910390fd5b60008160040160009054906101000a900473ffffffffffffffffffffffffffffffffffffffff1673ffffffffffffffffffffffffffffffffffffffff168260030154604051611bb890613032565b60006040518083038185875af1925050503d8060008114611bf5576040519150601f19603f3d011682016040523d82523d6000602084013e611bfa565b606091505b5050905080611c3e576040517f08c379a0000000000000000000000000000000000000000000000000000000008152600401611c3590613093565b60405180910390fd5b6000600260009054906101000a900473ffffffffffffffffffffffffffffffffffffffff1673ffffffffffffffffffffffffffffffffffffffff16836003015485611c899190613849565b604051611c9590613032565b60006040518083038185875af1925050503d8060008114611cd2576040519150601f19603f3d011682016040523d82523d6000602084013e611cd7565b606091505b5050905080611d1b576040517f08c379a0000000000000000000000000000000000000000000000000000000008152600401611d1290613125565b60405180910390fd5b60018360040160146101000a81548160ff0219169083151502179055508260010160009054906101000a900473ffffffffffffffffffffffffffffffffffffffff1673ffffffffffffffffffffffffffffffffffffffff166342842e0e303386600201546040518463ffffffff1660e01b8152600401611d9d93929190612d92565b600060405180830381600087803b158015611db757600080fd5b505af1158015611dcb573d6000803e3d6000fd5b505050503373ffffffffffffffffffffffffffffffffffffffff168360040160009054906101000a900473ffffffffffffffffffffffffffffffffffffffff1673ffffffffffffffffffffffffffffffffffffffff1684600201547f8b4c9c8a607d67b321582dd8461041b1dc2ceeca70c8b7f37f8e02095cf2e76d888760010160009054906101000a900473ffffffffffffffffffffffffffffffffffffffff168860030154604051611e8193929190612e0b565b60405180910390a450505050611e95612287565b50565b611ea06121ba565b600073ffffffffffffffffffffffffffffffffffffffff168173ffffffffffffffffffffffffffffffffffffffff1603611f0f576040517f08c379a0000000000000000000000000000000000000000000000000000000008152600401611f06906138ef565b60405180910390fd5b611f1881612291565b50565b611f23612238565b60008111611f66576040517f08c379a0000000000000000000000000000000000000000000000000000000008152600401611f5d9061395b565b60405180910390fd5b6004600081548092919060010191905055508273ffffffffffffffffffffffffffffffffffffffff166323b872dd3330856040518463ffffffff1660e01b8152600401611fb593929190612d92565b600060405180830381600087803b158015611fcf57600080fd5b505af1158015611fe3573d6000803e3d6000fd5b505050506040518060e0016040528060045481526020018473ffffffffffffffffffffffffffffffffffffffff1681526020018381526020018281526020013373ffffffffffffffffffffffffffffffffffffffff168152602001600015158152602001600015158152506006600060045481526020019081526020016000206000820151816000015560208201518160010160006101000a81548173ffffffffffffffffffffffffffffffffffffffff021916908373ffffffffffffffffffffffffffffffffffffffff160217905550604082015181600201556060820151816003015560808201518160040160006101000a81548173ffffffffffffffffffffffffffffffffffffffff021916908373ffffffffffffffffffffffffffffffffffffffff16021790555060a08201518160040160146101000a81548160ff02191690831515021790555060c08201518160040160156101000a81548160ff0219169083151502179055509050503373ffffffffffffffffffffffffffffffffffffffff16827f655a0cf9c8db81512be9a76dc1c5ae5380b8816ce6ad659cd61b715e2999d59a600454868560405161219f93929190612e0b565b60405180910390a36121af612287565b505050565b60055481565b6121c2612391565b73ffffffffffffffffffffffffffffffffffffffff166121e0610c4e565b73ffffffffffffffffffffffffffffffffffffffff1614612236576040517f08c379a000000000000000000000000000000000000000000000000000000000815260040161222d906139c7565b60405180910390fd5b565b60026000540361227d576040517f08c379a000000000000000000000000000000000000000000000000000000000815260040161227490613a33565b60405180910390fd5b6002600081905550565b6001600081905550565b6000600160009054906101000a900473ffffffffffffffffffffffffffffffffffffffff16905081600160006101000a81548173ffffffffffffffffffffffffffffffffffffffff021916908373ffffffffffffffffffffffffffffffffffffffff1602179055508173ffffffffffffffffffffffffffffffffffffffff168173ffffffffffffffffffffffffffffffffffffffff167f8be0079c531659141344cd1fd0a4f28419497f9722a3daafe3b4186f6b6457e060405160405180910390a35050565b600060035460646123689190613609565b606483612375919061363d565b61237f91906136ae565b8261238a9190613849565b9050919050565b600033905090565b600080fd5b600080fd5b6000819050919050565b6123b6816123a3565b81146123c157600080fd5b50565b6000813590506123d3816123ad565b92915050565b6000602082840312156123ef576123ee612399565b5b60006123fd848285016123c4565b91505092915050565b600073ffffffffffffffffffffffffffffffffffffffff82169050919050565b600061243182612406565b9050919050565b61244181612426565b82525050565b600060208201905061245c6000830184612438565b92915050565b600061246d82612406565b9050919050565b600061247f82612462565b9050919050565b61248f81612474565b811461249a57600080fd5b50565b6000813590506124ac81612486565b92915050565b60006124bd82612462565b9050919050565b6124cd816124b2565b81146124d857600080fd5b50565b6000813590506124ea816124c4565b92915050565b60008115159050919050565b612505816124f0565b811461251057600080fd5b50565b600081359050612522816124fc565b92915050565b61253181612462565b811461253c57600080fd5b50565b60008135905061254e81612528565b92915050565b600060ff82169050919050565b61256a81612554565b811461257557600080fd5b50565b60008135905061258781612561565b92915050565b6000819050919050565b6125a08161258d565b81146125ab57600080fd5b50565b6000813590506125bd81612597565b92915050565b60008060008060008060008060008060006101608c8e0312156125e9576125e8612399565b5b60006125f78e828f0161249d565b9b505060206126088e828f016124db565b9a505060406126198e828f016123c4565b995050606061262a8e828f016123c4565b985050608061263b8e828f01612513565b97505060a061264c8e828f016123c4565b96505060c061265d8e828f0161253f565b95505060e061266e8e828f016123c4565b9450506101006126808e828f01612578565b9350506101206126928e828f016125ae565b9250506101406126a48e828f016125ae565b9150509295989b509295989b9093969950565b6126c0816123a3565b82525050565b60006020820190506126db60008301846126b7565b92915050565b6126ea81612426565b81146126f557600080fd5b50565b600081359050612707816126e1565b92915050565b60006020828403121561272357612722612399565b5b6000612731848285016126f8565b91505092915050565b61274381612462565b82525050565b600060208201905061275e600083018461273a565b92915050565b600080fd5b600080fd5b600080fd5b60008083601f84011261278957612788612764565b5b8235905067ffffffffffffffff8111156127a6576127a5612769565b5b6020830191508360208202830111156127c2576127c161276e565b5b9250929050565b600080602083850312156127e0576127df612399565b5b600083013567ffffffffffffffff8111156127fe576127fd61239e565b5b61280a85828601612773565b92509250509250929050565b600080600080608085870312156128305761282f612399565b5b600061283e878288016124db565b945050602061284f878288016123c4565b9350506040612860878288016123c4565b9250506060612871878288016123c4565b91505092959194509250565b60008060008060008060008060006101208a8c0312156128a05761289f612399565b5b60006128ae8c828d0161249d565b99505060206128bf8c828d016123c4565b98505060406128d08c828d016123c4565b97505060606128e18c828d016123c4565b96505060806128f28c828d0161253f565b95505060a06129038c828d016123c4565b94505060c06129148c828d01612578565b93505060e06129258c828d016125ae565b9250506101006129378c828d016125ae565b9150509295985092959850929598565b6000819050919050565b600061296c61296761296284612406565b612947565b612406565b9050919050565b600061297e82612951565b9050919050565b600061299082612973565b9050919050565b6129a081612985565b82525050565b6129af816124f0565b82525050565b600060e0820190506129ca600083018a6126b7565b6129d76020830189612997565b6129e460408301886126b7565b6129f160608301876126b7565b6129fe6080830186612438565b612a0b60a08301856129a6565b612a1860c08301846129a6565b98975050505050505050565b600061010082019050612a3a600083018b6126b7565b612a47602083018a612997565b612a5460408301896126b7565b612a6160608301886126b7565b612a6e60808301876126b7565b612a7b60a0830186612438565b612a8860c08301856129a6565b612a9560e08301846129a6565b9998505050505050505050565b600060208284031215612ab857612ab7612399565b5b6000612ac68482850161253f565b91505092915050565b600080600060608486031215612ae857612ae7612399565b5b6000612af6868287016124db565b9350506020612b07868287016123c4565b9250506040612b18868287016123c4565b9150509250925092565b600082825260208201905092915050565b7f66656550657263656e74206d757374206265206265747765656e203020616e6460008201527f2031303000000000000000000000000000000000000000000000000000000000602082015250565b6000612b8f602483612b22565b9150612b9a82612b33565b604082019050919050565b60006020820190508181036000830152612bbe81612b82565b9050919050565b7f4f6666657220646561646c696e65206973206578636565646564000000000000600082015250565b6000612bfb601a83612b22565b9150612c0682612bc5565b602082019050919050565b60006020820190508181036000830152612c2a81612bee565b9050919050565b600081519050612c4081612528565b92915050565b600060208284031215612c5c57612c5b612399565b5b6000612c6a84828501612c31565b91505092915050565b7f4f6e6c79206d61726b6574706c616365206974656d732063616e20626520616360008201527f6365707465640000000000000000000000000000000000000000000000000000602082015250565b6000612ccf602683612b22565b9150612cda82612c73565b604082019050919050565b60006020820190508181036000830152612cfe81612cc2565b9050919050565b612d0e81612554565b82525050565b612d1d8161258d565b82525050565b600060e082019050612d38600083018a61273a565b612d45602083018961273a565b612d5260408301886126b7565b612d5f60608301876126b7565b612d6c6080830186612d05565b612d7960a0830185612d14565b612d8660c0830184612d14565b98975050505050505050565b6000606082019050612da7600083018661273a565b612db4602083018561273a565b612dc160408301846126b7565b949350505050565b600081519050612dd8816124fc565b92915050565b600060208284031215612df457612df3612399565b5b6000612e0284828501612dc9565b91505092915050565b6000606082019050612e2060008301866126b7565b612e2d602083018561273a565b612e3a60408301846126b7565b949350505050565b7f4974656d2069642073686f756c6420626520626967676572207468616e207a6560008201527f726f2e0000000000000000000000000000000000000000000000000000000000602082015250565b6000612e9e602383612b22565b9150612ea982612e42565b604082019050919050565b60006020820190508181036000830152612ecd81612e91565b9050919050565b7f4f6e6c792073656c6c65722063616e2063616e63656c2074686973206974656d60008201527f2e00000000000000000000000000000000000000000000000000000000000000602082015250565b6000612f30602183612b22565b9150612f3b82612ed4565b604082019050919050565b60006020820190508181036000830152612f5f81612f23565b9050919050565b7f4974656d20697320616c726561647920736f6c642e0000000000000000000000600082015250565b6000612f9c601583612b22565b9150612fa782612f66565b602082019050919050565b60006020820190508181036000830152612fcb81612f8f565b9050919050565b7f4e487b7100000000000000000000000000000000000000000000000000000000600052603260045260246000fd5b600081905092915050565b50565b600061301c600083613001565b91506130278261300c565b600082019050919050565b600061303d8261300f565b9150819050919050565b7f6661696c656420746f2073656e6420457468657220746f2073656c6c65720000600082015250565b600061307d601e83612b22565b915061308882613047565b602082019050919050565b600060208201905081810360008301526130ac81613070565b9050919050565b7f6661696c656420746f2073656e6420457468657220746f206665654163636f7560008201527f6e74000000000000000000000000000000000000000000000000000000000000602082015250565b600061310f602283612b22565b915061311a826130b3565b604082019050919050565b6000602082019050818103600083015261313e81613102565b9050919050565b7f41756374696f6e2069642073686f756c6420626520626967676572207468616e60008201527f207a65726f2e0000000000000000000000000000000000000000000000000000602082015250565b60006131a1602683612b22565b91506131ac82613145565b604082019050919050565b600060208201905081810360008301526131d081613194565b9050919050565b7f4f6e6c792073656c6c65722063616e2063616e63656c2074686973206175637460008201527f696f6e2e00000000000000000000000000000000000000000000000000000000602082015250565b6000613233602483612b22565b915061323e826131d7565b604082019050919050565b6000602082019050818103600083015261326281613226565b9050919050565b7f41756374696f6e20697320616c726561647920636c61696d65642e0000000000600082015250565b600061329f601b83612b22565b91506132aa82613269565b602082019050919050565b600060208201905081810360008301526132ce81613292565b9050919050565b7f41756374696f6e2073686f756c64206e6f7420626520656e6465642e00000000600082015250565b600061330b601c83612b22565b9150613316826132d5565b602082019050919050565b6000602082019050818103600083015261333a816132fe565b9050919050565b7f70726963652073686f756c642062652067726561746572207468616e207a657260008201527f6f00000000000000000000000000000000000000000000000000000000000000602082015250565b600061339d602183612b22565b91506133a882613341565b604082019050919050565b600060208201905081810360008301526133cc81613390565b9050919050565b60006080820190506133e860008301876126b7565b6133f5602083018661273a565b61340260408301856126b7565b61340f60608301846126b7565b95945050505050565b7f41756374696f6e2069642073686f756c6420626520626967676572207468616e60008201527f207a65726f000000000000000000000000000000000000000000000000000000602082015250565b6000613474602583612b22565b915061347f82613418565b604082019050919050565b600060208201905081810360008301526134a381613467565b9050919050565b7f41756374696f6e2073686f756c6420656e642066697273742e00000000000000600082015250565b60006134e0601983612b22565b91506134eb826134aa565b602082019050919050565b6000602082019050818103600083015261350f816134d3565b9050919050565b7f4e465420697320616c726561647920636c61696d65642e000000000000000000600082015250565b600061354c601783612b22565b915061355782613516565b602082019050919050565b6000602082019050818103600083015261357b8161353f565b9050919050565b600061358d82612973565b9050919050565b61359d81613582565b82525050565b60006060820190506135b8600083018661273a565b6135c56020830185613594565b6135d260408301846126b7565b949350505050565b7f4e487b7100000000000000000000000000000000000000000000000000000000600052601160045260246000fd5b6000613614826123a3565b915061361f836123a3565b9250828201905080821115613637576136366135da565b5b92915050565b6000613648826123a3565b9150613653836123a3565b9250828202613661816123a3565b91508282048414831517613678576136776135da565b5b5092915050565b7f4e487b7100000000000000000000000000000000000000000000000000000000600052601260045260246000fd5b60006136b9826123a3565b91506136c4836123a3565b9250826136d4576136d361367f565b5b828204905092915050565b7f6974656d20646f65736e27742065786973740000000000000000000000000000600082015250565b6000613715601283612b22565b9150613720826136df565b602082019050919050565b6000602082019050818103600083015261374481613708565b9050919050565b7f6e6f7420656e6f75676820657468657220746f20636f766572206974656d207060008201527f7269636520616e64206d61726b65742066656500000000000000000000000000602082015250565b60006137a7603383612b22565b91506137b28261374b565b604082019050919050565b600060208201905081810360008301526137d68161379a565b9050919050565b7f6974656d20616c726561647920736f6c64206f722063616e63656c6564000000600082015250565b6000613813601d83612b22565b915061381e826137dd565b602082019050919050565b6000602082019050818103600083015261384281613806565b9050919050565b6000613854826123a3565b915061385f836123a3565b9250828203905081811115613877576138766135da565b5b92915050565b7f4f776e61626c653a206e6577206f776e657220697320746865207a65726f206160008201527f6464726573730000000000000000000000000000000000000000000000000000602082015250565b60006138d9602683612b22565b91506138e48261387d565b604082019050919050565b60006020820190508181036000830152613908816138cc565b9050919050565b7f5072696365206d7573742062652067726561746572207468616e207a65726f00600082015250565b6000613945601f83612b22565b91506139508261390f565b602082019050919050565b6000602082019050818103600083015261397481613938565b9050919050565b7f4f776e61626c653a2063616c6c6572206973206e6f7420746865206f776e6572600082015250565b60006139b1602083612b22565b91506139bc8261397b565b602082019050919050565b600060208201905081810360008301526139e0816139a4565b9050919050565b7f5265656e7472616e637947756172643a207265656e7472616e742063616c6c00600082015250565b6000613a1d601f83612b22565b9150613a28826139e7565b602082019050919050565b60006020820190508181036000830152613a4c81613a10565b905091905056fea26469706673582212205ee5dd9111b293557212debb5d0155424bb77712e131da2977e1d24735ea56d264736f6c63430008120033",
  "linkReferences": {},
  "deployedLinkReferences": {}
}