{
  "_format": "hh-sol-artifact-1",
  "contractName": "Marketplace",
  "sourceName": "libs/contracts/src/contracts/Marketplace.sol",
  "abi": [
    {
      "inputs": [
        {
          "internalType": "uint256",
          "name": "_feePercent",
          "type": "uint256"
        }
      ],
      "stateMutability": "nonpayable",
      "type": "constructor"
    },
    {
      "anonymous": false,
      "inputs": [
        {
          "indexed": false,
          "internalType": "uint256",
          "name": "auctionId",
          "type": "uint256"
        }
      ],
      "name": "AuctionCanceled",
      "type": "event"
    },
    {
      "anonymous": false,
      "inputs": [
        {
          "indexed": false,
          "internalType": "uint256",
          "name": "auctionId",
          "type": "uint256"
        },
        {
          "indexed": false,
          "internalType": "address",
          "name": "nft",
          "type": "address"
        },
        {
          "indexed": true,
          "internalType": "uint256",
          "name": "tokenId",
          "type": "uint256"
        },
        {
          "indexed": false,
          "internalType": "uint256",
          "name": "price",
          "type": "uint256"
        },
        {
          "indexed": true,
          "internalType": "address",
          "name": "seller",
          "type": "address"
        },
        {
          "indexed": true,
          "internalType": "address",
          "name": "buyer",
          "type": "address"
        }
      ],
      "name": "AuctionEnded",
      "type": "event"
    },
    {
      "anonymous": false,
      "inputs": [
        {
          "indexed": false,
          "internalType": "uint256",
          "name": "auctionId",
          "type": "uint256"
        },
        {
          "indexed": false,
          "internalType": "address",
          "name": "nft",
          "type": "address"
        },
        {
          "indexed": true,
          "internalType": "uint256",
          "name": "tokenId",
          "type": "uint256"
        },
        {
          "indexed": false,
          "internalType": "uint256",
          "name": "price",
          "type": "uint256"
        },
        {
          "indexed": false,
          "internalType": "uint256",
          "name": "timeToEnd",
          "type": "uint256"
        },
        {
          "indexed": true,
          "internalType": "address",
          "name": "seller",
          "type": "address"
        }
      ],
      "name": "AuctionStarted",
      "type": "event"
    },
    {
      "anonymous": false,
      "inputs": [
        {
          "indexed": false,
          "internalType": "uint256",
          "name": "itemId",
          "type": "uint256"
        },
        {
          "indexed": false,
          "internalType": "address",
          "name": "nft",
          "type": "address"
        },
        {
          "indexed": true,
          "internalType": "uint256",
          "name": "tokenId",
          "type": "uint256"
        },
        {
          "indexed": false,
          "internalType": "uint256",
          "name": "price",
          "type": "uint256"
        },
        {
          "indexed": true,
          "internalType": "address",
          "name": "seller",
          "type": "address"
        },
        {
          "indexed": true,
          "internalType": "address",
          "name": "buyer",
          "type": "address"
        }
      ],
      "name": "Bought",
      "type": "event"
    },
    {
      "anonymous": false,
      "inputs": [
        {
          "indexed": false,
          "internalType": "uint256",
          "name": "itemId",
          "type": "uint256"
        }
      ],
      "name": "OfferCanceled",
      "type": "event"
    },
    {
      "anonymous": false,
      "inputs": [
        {
          "indexed": false,
          "internalType": "uint256",
          "name": "itemId",
          "type": "uint256"
        },
        {
          "indexed": false,
          "internalType": "address",
          "name": "nft",
          "type": "address"
        },
        {
          "indexed": true,
          "internalType": "uint256",
          "name": "tokenId",
          "type": "uint256"
        },
        {
          "indexed": false,
          "internalType": "uint256",
          "name": "price",
          "type": "uint256"
        },
        {
          "indexed": true,
          "internalType": "address",
          "name": "seller",
          "type": "address"
        }
      ],
      "name": "Offered",
      "type": "event"
    },
    {
      "anonymous": false,
      "inputs": [
        {
          "indexed": true,
          "internalType": "address",
          "name": "previousOwner",
          "type": "address"
        },
        {
          "indexed": true,
          "internalType": "address",
          "name": "newOwner",
          "type": "address"
        }
      ],
      "name": "OwnershipTransferred",
      "type": "event"
    },
    {
      "stateMutability": "nonpayable",
      "type": "fallback"
    },
    {
      "inputs": [
        {
          "internalType": "contract IERC20Permit",
          "name": "erc20",
          "type": "address"
        },
        {
          "internalType": "contract IERC721",
          "name": "nft",
          "type": "address"
        },
        {
          "internalType": "uint256",
          "name": "_tokenId",
          "type": "uint256"
        },
        {
          "internalType": "uint256",
          "name": "_itemId",
          "type": "uint256"
        },
        {
          "internalType": "bool",
          "name": "isOnSale",
          "type": "bool"
        },
        {
          "internalType": "uint256",
          "name": "deadline",
          "type": "uint256"
        },
        {
          "internalType": "address",
          "name": "offerer",
          "type": "address"
        },
        {
          "internalType": "uint256",
          "name": "amount",
          "type": "uint256"
        },
        {
          "internalType": "uint8",
          "name": "_v",
          "type": "uint8"
        },
        {
          "internalType": "bytes32",
          "name": "_r",
          "type": "bytes32"
        },
        {
          "internalType": "bytes32",
          "name": "_s",
          "type": "bytes32"
        }
      ],
      "name": "acceptERCOffer",
      "outputs": [],
      "stateMutability": "nonpayable",
      "type": "function"
    },
    {
      "inputs": [],
      "name": "auctionItemCount",
      "outputs": [
        {
          "internalType": "uint256",
          "name": "",
          "type": "uint256"
        }
      ],
      "stateMutability": "view",
      "type": "function"
    },
    {
      "inputs": [
        {
          "internalType": "uint256",
          "name": "",
          "type": "uint256"
        }
      ],
      "name": "auctionItems",
      "outputs": [
        {
          "internalType": "uint256",
          "name": "auctionId",
          "type": "uint256"
        },
        {
          "internalType": "contract IERC721",
          "name": "nft",
          "type": "address"
        },
        {
          "internalType": "uint256",
          "name": "tokenId",
          "type": "uint256"
        },
        {
          "internalType": "uint256",
          "name": "price",
          "type": "uint256"
        },
        {
          "internalType": "uint256",
          "name": "timeToEnd",
          "type": "uint256"
        },
        {
          "internalType": "address payable",
          "name": "seller",
          "type": "address"
        },
        {
          "internalType": "bool",
          "name": "claimed",
          "type": "bool"
        },
        {
          "internalType": "bool",
          "name": "canceled",
          "type": "bool"
        }
      ],
      "stateMutability": "view",
      "type": "function"
    },
    {
      "inputs": [
        {
          "internalType": "uint256",
          "name": "_auctionId",
          "type": "uint256"
        }
      ],
      "name": "cancelAuction",
      "outputs": [],
      "stateMutability": "nonpayable",
      "type": "function"
    },
    {
      "inputs": [
        {
          "internalType": "uint256",
          "name": "_itemId",
          "type": "uint256"
        }
      ],
      "name": "cancelOffered",
      "outputs": [],
      "stateMutability": "nonpayable",
      "type": "function"
    },
    {
      "inputs": [
        {
          "internalType": "address payable",
          "name": "_feeAccount",
          "type": "address"
        }
      ],
      "name": "changeFeeAccount",
      "outputs": [],
      "stateMutability": "nonpayable",
      "type": "function"
    },
    {
      "inputs": [
        {
          "internalType": "uint256",
          "name": "_feePercent",
          "type": "uint256"
        }
      ],
      "name": "changeFeePercent",
      "outputs": [],
      "stateMutability": "nonpayable",
      "type": "function"
    },
    {
      "inputs": [
        {
          "internalType": "contract IERC20Permit",
          "name": "erc20",
          "type": "address"
        },
        {
          "internalType": "uint256",
          "name": "_tokenId",
          "type": "uint256"
        },
        {
          "internalType": "uint256",
          "name": "_auctionId",
          "type": "uint256"
        },
        {
          "internalType": "uint256",
          "name": "deadline",
          "type": "uint256"
        },
        {
          "internalType": "address",
          "name": "bidder",
          "type": "address"
        },
        {
          "internalType": "uint256",
          "name": "amount",
          "type": "uint256"
        },
        {
          "internalType": "uint8",
          "name": "_v",
          "type": "uint8"
        },
        {
          "internalType": "bytes32",
          "name": "_r",
          "type": "bytes32"
        },
        {
          "internalType": "bytes32",
          "name": "_s",
          "type": "bytes32"
        }
      ],
      "name": "claimNFT",
      "outputs": [],
      "stateMutability": "nonpayable",
      "type": "function"
    },
    {
      "inputs": [],
      "name": "feeAccount",
      "outputs": [
        {
          "internalType": "address payable",
          "name": "",
          "type": "address"
        }
      ],
      "stateMutability": "view",
      "type": "function"
    },
    {
      "inputs": [],
      "name": "feePercent",
      "outputs": [
        {
          "internalType": "uint256",
          "name": "",
          "type": "uint256"
        }
      ],
      "stateMutability": "view",
      "type": "function"
    },
    {
      "inputs": [
        {
          "internalType": "uint256",
          "name": "_itemId",
          "type": "uint256"
        }
      ],
      "name": "getTotalPrice",
      "outputs": [
        {
          "internalType": "uint256",
          "name": "",
          "type": "uint256"
        }
      ],
      "stateMutability": "view",
      "type": "function"
    },
    {
      "inputs": [],
      "name": "itemCount",
      "outputs": [
        {
          "internalType": "uint256",
          "name": "",
          "type": "uint256"
        }
      ],
      "stateMutability": "view",
      "type": "function"
    },
    {
      "inputs": [
        {
          "internalType": "uint256",
          "name": "",
          "type": "uint256"
        }
      ],
      "name": "items",
      "outputs": [
        {
          "internalType": "uint256",
          "name": "itemId",
          "type": "uint256"
        },
        {
          "internalType": "contract IERC721",
          "name": "nft",
          "type": "address"
        },
        {
          "internalType": "uint256",
          "name": "tokenId",
          "type": "uint256"
        },
        {
          "internalType": "uint256",
          "name": "price",
          "type": "uint256"
        },
        {
          "internalType": "address payable",
          "name": "seller",
          "type": "address"
        },
        {
          "internalType": "bool",
          "name": "sold",
          "type": "bool"
        },
        {
          "internalType": "bool",
          "name": "canceled",
          "type": "bool"
        }
      ],
      "stateMutability": "view",
      "type": "function"
    },
    {
      "inputs": [
        {
          "internalType": "contract IERC721",
          "name": "_nft",
          "type": "address"
        },
        {
          "internalType": "uint256",
          "name": "_tokenId",
          "type": "uint256"
        },
        {
          "internalType": "uint256",
          "name": "_price",
          "type": "uint256"
        }
      ],
      "name": "makeItem",
      "outputs": [],
      "stateMutability": "nonpayable",
      "type": "function"
    },
    {
      "inputs": [],
      "name": "owner",
      "outputs": [
        {
          "internalType": "address",
          "name": "",
          "type": "address"
        }
      ],
      "stateMutability": "view",
      "type": "function"
    },
    {
      "inputs": [
        {
          "internalType": "uint256",
          "name": "_itemId",
          "type": "uint256"
        }
      ],
      "name": "purchaseItem",
      "outputs": [],
      "stateMutability": "payable",
      "type": "function"
    },
    {
      "inputs": [
        {
          "internalType": "uint256[]",
          "name": "_itemIds",
          "type": "uint256[]"
        }
      ],
      "name": "purchaseItem_multiple",
      "outputs": [],
      "stateMutability": "payable",
      "type": "function"
    },
    {
      "inputs": [],
      "name": "renounceOwnership",
      "outputs": [],
      "stateMutability": "nonpayable",
      "type": "function"
    },
    {
      "inputs": [
        {
          "internalType": "uint256",
          "name": "_auctionId",
          "type": "uint256"
        }
      ],
      "name": "returnNftToSeller",
      "outputs": [],
      "stateMutability": "nonpayable",
      "type": "function"
    },
    {
      "inputs": [
        {
          "internalType": "contract IERC721",
          "name": "_nft",
          "type": "address"
        },
        {
          "internalType": "uint256",
          "name": "_tokenId",
          "type": "uint256"
        },
        {
          "internalType": "uint256",
          "name": "_price",
          "type": "uint256"
        },
        {
          "internalType": "uint256",
          "name": "_timeToEnd",
          "type": "uint256"
        }
      ],
      "name": "startAuction",
      "outputs": [],
      "stateMutability": "nonpayable",
      "type": "function"
    },
    {
      "inputs": [
        {
          "internalType": "address",
          "name": "newOwner",
          "type": "address"
        }
      ],
      "name": "transferOwnership",
      "outputs": [],
      "stateMutability": "nonpayable",
      "type": "function"
    }
  ],
  "bytecode": "0x60806040523480156200001157600080fd5b50604051620042ad380380620042ad833981810160405281019062000037919062000211565b60016000819055506200005f620000536200010360201b60201c565b6200010b60201b60201c565b6000811015801562000072575060648111155b620000b4576040517f08c379a0000000000000000000000000000000000000000000000000000000008152600401620000ab90620002ca565b60405180910390fd5b33600260006101000a81548173ffffffffffffffffffffffffffffffffffffffff021916908373ffffffffffffffffffffffffffffffffffffffff1602179055508060038190555050620002ec565b600033905090565b6000600160009054906101000a900473ffffffffffffffffffffffffffffffffffffffff16905081600160006101000a81548173ffffffffffffffffffffffffffffffffffffffff021916908373ffffffffffffffffffffffffffffffffffffffff1602179055508173ffffffffffffffffffffffffffffffffffffffff168173ffffffffffffffffffffffffffffffffffffffff167f8be0079c531659141344cd1fd0a4f28419497f9722a3daafe3b4186f6b6457e060405160405180910390a35050565b600080fd5b6000819050919050565b620001eb81620001d6565b8114620001f757600080fd5b50565b6000815190506200020b81620001e0565b92915050565b6000602082840312156200022a5762000229620001d1565b5b60006200023a84828501620001fa565b91505092915050565b600082825260208201905092915050565b7f66656550657263656e74206d757374206265206265747765656e203020616e6460008201527f2031303000000000000000000000000000000000000000000000000000000000602082015250565b6000620002b260248362000243565b9150620002bf8262000254565b604082019050919050565b60006020820190508181036000830152620002e581620002a3565b9050919050565b613fb180620002fc6000396000f3fe60806040526004361061012e5760003560e01c806392dab811116100ab578063ca7dd3751161006f578063ca7dd375146103a7578063d2c069f0146103e4578063d38ea5bf14610428578063f2fde38b14610444578063fa00afc71461046d578063fe6d7a6e146104965761012f565b806392dab811146102cd57806396b5a755146102e95780639c16627314610312578063bcd10f9a1461033b578063bfb231d2146103645761012f565b8063715018a6116100f2578063715018a61461020e57806371ffcb16146102255780637ee53f0f1461024e5780637fd6f15c146102775780638da5cb5b146102a25761012f565b80630e37e1831461013d57806334eddf3e1461016657806365e17c9d1461018f57806369244fe0146101ba5780636bfb0d01146101e35761012f565b5b34801561013b57600080fd5b005b34801561014957600080fd5b50610164600480360381019061015f9190612803565b6104c1565b005b34801561017257600080fd5b5061018d60048036038101906101889190612803565b610791565b005b34801561019b57600080fd5b506101a46107f4565b6040516101b19190612871565b60405180910390f35b3480156101c657600080fd5b506101e160048036038101906101dc91906129ed565b61081a565b005b3480156101ef57600080fd5b506101f8610ca9565b6040516102059190612af0565b60405180910390f35b34801561021a57600080fd5b50610223610caf565b005b34801561023157600080fd5b5061024c60048036038101906102479190612b37565b610cc3565b005b34801561025a57600080fd5b5061027560048036038101906102709190612803565b610d0f565b005b34801561028357600080fd5b5061028c610f4c565b6040516102999190612af0565b60405180910390f35b3480156102ae57600080fd5b506102b7610f52565b6040516102c49190612b73565b60405180910390f35b6102e760048036038101906102e29190612bf3565b610f7c565b005b3480156102f557600080fd5b50610310600480360381019061030b9190612803565b6112fd565b005b34801561031e57600080fd5b5061033960048036038101906103349190612c40565b611580565b005b34801561034757600080fd5b50610362600480360381019061035d9190612ca7565b61182d565b005b34801561037057600080fd5b5061038b60048036038101906103869190612803565b611ce4565b60405161039e9796959493929190612ddf565b60405180910390f35b3480156103b357600080fd5b506103ce60048036038101906103c99190612803565b611d80565b6040516103db9190612af0565b60405180910390f35b3480156103f057600080fd5b5061040b60048036038101906104069190612803565b611dc5565b60405161041f989796959493929190612e4e565b60405180910390f35b610442600480360381019061043d9190612803565b611e67565b005b34801561045057600080fd5b5061046b60048036038101906104669190612ecc565b6122c2565b005b34801561047957600080fd5b50610494600480360381019061048f9190612ef9565b612345565b005b3480156104a257600080fd5b506104ab6125de565b6040516104b89190612af0565b60405180910390f35b6104c96125e4565b6104d1612633565b60008111610514576040517f08c379a000000000000000000000000000000000000000000000000000000000815260040161050b90612fcf565b60405180910390fd5b60006007600083815260200190815260200160002090508060050160149054906101000a900460ff161561057d576040517f08c379a00000000000000000000000000000000000000000000000000000000081526004016105749061303b565b60405180910390fd5b8060050160159054906101000a900460ff16156105cf576040517f08c379a00000000000000000000000000000000000000000000000000000000081526004016105c6906130a7565b60405180910390fd5b8060010160009054906101000a900473ffffffffffffffffffffffffffffffffffffffff1673ffffffffffffffffffffffffffffffffffffffff166323b872dd308360050160009054906101000a900473ffffffffffffffffffffffffffffffffffffffff1684600201546040518463ffffffff1660e01b8152600401610658939291906130e8565b600060405180830381600087803b15801561067257600080fd5b505af1158015610686573d6000803e3d6000fd5b5050505060018160050160156101000a81548160ff0219169083151502179055508060050160009054906101000a900473ffffffffffffffffffffffffffffffffffffffff1673ffffffffffffffffffffffffffffffffffffffff168160050160009054906101000a900473ffffffffffffffffffffffffffffffffffffffff1673ffffffffffffffffffffffffffffffffffffffff1682600201547fe9c76f3cd26822fab39fde36b56736739a684a806c8c0cf5eacd75511797ca7b858560010160009054906101000a900473ffffffffffffffffffffffffffffffffffffffff16866003015460405161077d9392919061311f565b60405180910390a45061078e6126b1565b50565b610799612633565b600081101580156107ab575060648111155b6107ea576040517f08c379a00000000000000000000000000000000000000000000000000000000081526004016107e1906131c8565b60405180910390fd5b8060038190555050565b600260009054906101000a900473ffffffffffffffffffffffffffffffffffffffff1681565b6108226125e4565b854210610864576040517f08c379a000000000000000000000000000000000000000000000000000000000815260040161085b90613234565b60405180910390fd5b8973ffffffffffffffffffffffffffffffffffffffff16636352211e8a6040518263ffffffff1660e01b815260040161089d9190612af0565b602060405180830381865afa1580156108ba573d6000803e3d6000fd5b505050506040513d601f19601f820116820180604052508101906108de9190613269565b73ffffffffffffffffffffffffffffffffffffffff163073ffffffffffffffffffffffffffffffffffffffff161461094b576040517f08c379a000000000000000000000000000000000000000000000000000000000815260040161094290613308565b60405180910390fd5b8a73ffffffffffffffffffffffffffffffffffffffff1663d505accf8630878a8888886040518863ffffffff1660e01b81526004016109909796959493929190613346565b600060405180830381600087803b1580156109aa57600080fd5b505af11580156109be573d6000803e3d6000fd5b505050508a73ffffffffffffffffffffffffffffffffffffffff166323b872dd8633876040518463ffffffff1660e01b81526004016109ff939291906133b5565b6020604051808303816000875af1158015610a1e573d6000803e3d6000fd5b505050506040513d601f19601f82011682018060405250810190610a429190613401565b508973ffffffffffffffffffffffffffffffffffffffff166323b872dd30878c6040518463ffffffff1660e01b8152600401610a80939291906133b5565b600060405180830381600087803b158015610a9a57600080fd5b505af1158015610aae573d6000803e3d6000fd5b505050508615610ba8576000600660008a8152602001908152602001600020905060018160040160146101000a81548160ff0219169083151502179055508573ffffffffffffffffffffffffffffffffffffffff168160040160009054906101000a900473ffffffffffffffffffffffffffffffffffffffff1673ffffffffffffffffffffffffffffffffffffffff1682600201547f8b4c9c8a607d67b321582dd8461041b1dc2ceeca70c8b7f37f8e02095cf2e76d8c8560010160009054906101000a900473ffffffffffffffffffffffffffffffffffffffff168a604051610b9a9392919061311f565b60405180910390a450610c94565b6000600760008a8152602001908152602001600020905060018160050160146101000a81548160ff0219169083151502179055508573ffffffffffffffffffffffffffffffffffffffff168160050160009054906101000a900473ffffffffffffffffffffffffffffffffffffffff1673ffffffffffffffffffffffffffffffffffffffff1682600201547fe9c76f3cd26822fab39fde36b56736739a684a806c8c0cf5eacd75511797ca7b8c8560010160009054906101000a900473ffffffffffffffffffffffffffffffffffffffff168a604051610c8a9392919061311f565b60405180910390a4505b610c9c6126b1565b5050505050505050505050565b60045481565b610cb7612633565b610cc160006126bb565b565b610ccb612633565b80600260006101000a81548173ffffffffffffffffffffffffffffffffffffffff021916908373ffffffffffffffffffffffffffffffffffffffff16021790555050565b610d176125e4565b60008111610d5a576040517f08c379a0000000000000000000000000000000000000000000000000000000008152600401610d51906134a0565b60405180910390fd5b60006006600083815260200190815260200160002090503373ffffffffffffffffffffffffffffffffffffffff168160040160009054906101000a900473ffffffffffffffffffffffffffffffffffffffff1673ffffffffffffffffffffffffffffffffffffffff1614610e03576040517f08c379a0000000000000000000000000000000000000000000000000000000008152600401610dfa90613532565b60405180910390fd5b8060040160149054906101000a900460ff1615610e55576040517f08c379a0000000000000000000000000000000000000000000000000000000008152600401610e4c9061359e565b60405180910390fd5b60018160040160156101000a81548160ff0219169083151502179055508060010160009054906101000a900473ffffffffffffffffffffffffffffffffffffffff1673ffffffffffffffffffffffffffffffffffffffff166342842e0e303384600201546040518463ffffffff1660e01b8152600401610ed7939291906133b5565b600060405180830381600087803b158015610ef157600080fd5b505af1158015610f05573d6000803e3d6000fd5b505050507f0ff09947dd7d2583091e8cbfb427fecacb697bf895187b243fd0072c0ee9b95182604051610f389190612af0565b60405180910390a150610f496126b1565b50565b60035481565b6000600160009054906101000a900473ffffffffffffffffffffffffffffffffffffffff16905090565b610f846125e4565b60005b82829050811015611219576000838383818110610fa757610fa66135be565b5b905060200201359050600060066000838152602001908152602001600020905060008160040160009054906101000a900473ffffffffffffffffffffffffffffffffffffffff1673ffffffffffffffffffffffffffffffffffffffff1682600301546040516110159061361e565b60006040518083038185875af1925050503d8060008114611052576040519150601f19603f3d011682016040523d82523d6000602084013e611057565b606091505b505090508061109b576040517f08c379a00000000000000000000000000000000000000000000000000000000081526004016110929061367f565b60405180910390fd5b60018260040160146101000a81548160ff0219169083151502179055508160010160009054906101000a900473ffffffffffffffffffffffffffffffffffffffff1673ffffffffffffffffffffffffffffffffffffffff166342842e0e303385600201546040518463ffffffff1660e01b815260040161111d939291906133b5565b600060405180830381600087803b15801561113757600080fd5b505af115801561114b573d6000803e3d6000fd5b505050503373ffffffffffffffffffffffffffffffffffffffff168260040160009054906101000a900473ffffffffffffffffffffffffffffffffffffffff1673ffffffffffffffffffffffffffffffffffffffff1683600201547f8b4c9c8a607d67b321582dd8461041b1dc2ceeca70c8b7f37f8e02095cf2e76d868660010160009054906101000a900473ffffffffffffffffffffffffffffffffffffffff1687600301546040516112019392919061311f565b60405180910390a48380600101945050505050610f87565b506000600260009054906101000a900473ffffffffffffffffffffffffffffffffffffffff1673ffffffffffffffffffffffffffffffffffffffff1661125e34612781565b60405161126a9061361e565b60006040518083038185875af1925050503d80600081146112a7576040519150601f19603f3d011682016040523d82523d6000602084013e6112ac565b606091505b50509050806112f0576040517f08c379a00000000000000000000000000000000000000000000000000000000081526004016112e790613711565b60405180910390fd5b506112f96126b1565b5050565b6113056125e4565b60008111611348576040517f08c379a000000000000000000000000000000000000000000000000000000000815260040161133f906137a3565b60405180910390fd5b60006007600083815260200190815260200160002090503373ffffffffffffffffffffffffffffffffffffffff168160050160009054906101000a900473ffffffffffffffffffffffffffffffffffffffff1673ffffffffffffffffffffffffffffffffffffffff16146113f1576040517f08c379a00000000000000000000000000000000000000000000000000000000081526004016113e890613835565b60405180910390fd5b8060050160149054906101000a900460ff1615611443576040517f08c379a000000000000000000000000000000000000000000000000000000000815260040161143a906138a1565b60405180910390fd5b80600401544210611489576040517f08c379a00000000000000000000000000000000000000000000000000000000081526004016114809061390d565b60405180910390fd5b60018160050160156101000a81548160ff0219169083151502179055508060010160009054906101000a900473ffffffffffffffffffffffffffffffffffffffff1673ffffffffffffffffffffffffffffffffffffffff166323b872dd303384600201546040518463ffffffff1660e01b815260040161150b939291906133b5565b600060405180830381600087803b15801561152557600080fd5b505af1158015611539573d6000803e3d6000fd5b505050507f28601d865dccc9f113e15a7185c1b38c085d598c71250d3337916a428536d7718260405161156c9190612af0565b60405180910390a15061157d6126b1565b50565b6115886125e4565b600082116115cb576040517f08c379a00000000000000000000000000000000000000000000000000000000081526004016115c29061399f565b60405180910390fd5b6005600081548092919060010191905055508373ffffffffffffffffffffffffffffffffffffffff166323b872dd3330866040518463ffffffff1660e01b815260040161161a939291906133b5565b600060405180830381600087803b15801561163457600080fd5b505af1158015611648573d6000803e3d6000fd5b5050505060405180610100016040528060055481526020018573ffffffffffffffffffffffffffffffffffffffff1681526020018481526020018381526020018281526020013373ffffffffffffffffffffffffffffffffffffffff168152602001600015158152602001600015158152506007600060055481526020019081526020016000206000820151816000015560208201518160010160006101000a81548173ffffffffffffffffffffffffffffffffffffffff021916908373ffffffffffffffffffffffffffffffffffffffff16021790555060408201518160020155606082015181600301556080820151816004015560a08201518160050160006101000a81548173ffffffffffffffffffffffffffffffffffffffff021916908373ffffffffffffffffffffffffffffffffffffffff16021790555060c08201518160050160146101000a81548160ff02191690831515021790555060e08201518160050160156101000a81548160ff0219169083151502179055509050503373ffffffffffffffffffffffffffffffffffffffff16837fd184fdb1358a28e5370b7ea6f753efc3313b7fd11d6750f270cf79f109a63f1760055487868660405161181794939291906139bf565b60405180910390a36118276126b1565b50505050565b6118356125e4565b61183d612633565b60008711611880576040517f08c379a000000000000000000000000000000000000000000000000000000000815260040161187790612fcf565b60405180910390fd5b600060076000898152602001908152602001600020905080600401544210156118de576040517f08c379a00000000000000000000000000000000000000000000000000000000081526004016118d590613a50565b60405180910390fd5b8060050160149054906101000a900460ff1615611930576040517f08c379a00000000000000000000000000000000000000000000000000000000081526004016119279061303b565b60405180910390fd5b8973ffffffffffffffffffffffffffffffffffffffff1663d505accf8730888b8989896040518863ffffffff1660e01b81526004016119759796959493929190613346565b600060405180830381600087803b15801561198f57600080fd5b505af11580156119a3573d6000803e3d6000fd5b5050505060006064600354876119b99190613a9f565b6119c39190613b10565b905060008b73ffffffffffffffffffffffffffffffffffffffff166323b872dd89600260009054906101000a900473ffffffffffffffffffffffffffffffffffffffff16856040518463ffffffff1660e01b8152600401611a26939291906130e8565b6020604051808303816000875af1158015611a45573d6000803e3d6000fd5b505050506040513d601f19601f82011682018060405250810190611a699190613401565b905060008c73ffffffffffffffffffffffffffffffffffffffff166323b872dd8a8660050160009054906101000a900473ffffffffffffffffffffffffffffffffffffffff16868c611abb9190613b41565b6040518463ffffffff1660e01b8152600401611ad9939291906130e8565b6020604051808303816000875af1158015611af8573d6000803e3d6000fd5b505050506040513d601f19601f82011682018060405250810190611b1c9190613401565b9050818015611b285750805b611b67576040517f08c379a0000000000000000000000000000000000000000000000000000000008152600401611b5e90613be7565b60405180910390fd5b8360010160009054906101000a900473ffffffffffffffffffffffffffffffffffffffff1673ffffffffffffffffffffffffffffffffffffffff166342842e0e308b8f6040518463ffffffff1660e01b8152600401611bc8939291906133b5565b600060405180830381600087803b158015611be257600080fd5b505af1158015611bf6573d6000803e3d6000fd5b5050505060018460050160146101000a81548160ff0219169083151502179055508873ffffffffffffffffffffffffffffffffffffffff168460050160009054906101000a900473ffffffffffffffffffffffffffffffffffffffff1673ffffffffffffffffffffffffffffffffffffffff1685600201547fe9c76f3cd26822fab39fde36b56736739a684a806c8c0cf5eacd75511797ca7b8e8860010160009054906101000a900473ffffffffffffffffffffffffffffffffffffffff168d604051611cc59392919061311f565b60405180910390a450505050611cd96126b1565b505050505050505050565b60066020528060005260406000206000915090508060000154908060010160009054906101000a900473ffffffffffffffffffffffffffffffffffffffff16908060020154908060030154908060040160009054906101000a900473ffffffffffffffffffffffffffffffffffffffff16908060040160149054906101000a900460ff16908060040160159054906101000a900460ff16905087565b600060646003546064611d939190613c07565b6006600085815260200190815260200160002060030154611db49190613a9f565b611dbe9190613b10565b9050919050565b60076020528060005260406000206000915090508060000154908060010160009054906101000a900473ffffffffffffffffffffffffffffffffffffffff16908060020154908060030154908060040154908060050160009054906101000a900473ffffffffffffffffffffffffffffffffffffffff16908060050160149054906101000a900460ff16908060050160159054906101000a900460ff16905088565b611e6f6125e4565b6000611e7a82611d80565b90506000600660008481526020019081526020016000209050600083118015611ea557506004548311155b611ee4576040517f08c379a0000000000000000000000000000000000000000000000000000000008152600401611edb90613c87565b60405180910390fd5b81341015611f27576040517f08c379a0000000000000000000000000000000000000000000000000000000008152600401611f1e90613d19565b60405180910390fd5b8060040160149054906101000a900460ff16158015611f5557508060040160159054906101000a900460ff16155b611f94576040517f08c379a0000000000000000000000000000000000000000000000000000000008152600401611f8b90613d85565b60405180910390fd5b60008160040160009054906101000a900473ffffffffffffffffffffffffffffffffffffffff1673ffffffffffffffffffffffffffffffffffffffff168260030154604051611fe29061361e565b60006040518083038185875af1925050503d806000811461201f576040519150601f19603f3d011682016040523d82523d6000602084013e612024565b606091505b5050905080612068576040517f08c379a000000000000000000000000000000000000000000000000000000000815260040161205f9061367f565b60405180910390fd5b6000600260009054906101000a900473ffffffffffffffffffffffffffffffffffffffff1673ffffffffffffffffffffffffffffffffffffffff168360030154856120b39190613b41565b6040516120bf9061361e565b60006040518083038185875af1925050503d80600081146120fc576040519150601f19603f3d011682016040523d82523d6000602084013e612101565b606091505b5050905080612145576040517f08c379a000000000000000000000000000000000000000000000000000000000815260040161213c90613711565b60405180910390fd5b60018360040160146101000a81548160ff0219169083151502179055508260010160009054906101000a900473ffffffffffffffffffffffffffffffffffffffff1673ffffffffffffffffffffffffffffffffffffffff166342842e0e303386600201546040518463ffffffff1660e01b81526004016121c7939291906133b5565b600060405180830381600087803b1580156121e157600080fd5b505af11580156121f5573d6000803e3d6000fd5b505050503373ffffffffffffffffffffffffffffffffffffffff168360040160009054906101000a900473ffffffffffffffffffffffffffffffffffffffff1673ffffffffffffffffffffffffffffffffffffffff1684600201547f8b4c9c8a607d67b321582dd8461041b1dc2ceeca70c8b7f37f8e02095cf2e76d888760010160009054906101000a900473ffffffffffffffffffffffffffffffffffffffff1688600301546040516122ab9392919061311f565b60405180910390a4505050506122bf6126b1565b50565b6122ca612633565b600073ffffffffffffffffffffffffffffffffffffffff168173ffffffffffffffffffffffffffffffffffffffff1603612339576040517f08c379a000000000000000000000000000000000000000000000000000000000815260040161233090613e17565b60405180910390fd5b612342816126bb565b50565b61234d6125e4565b60008111612390576040517f08c379a000000000000000000000000000000000000000000000000000000000815260040161238790613e83565b60405180910390fd5b6004600081548092919060010191905055508273ffffffffffffffffffffffffffffffffffffffff166323b872dd3330856040518463ffffffff1660e01b81526004016123df939291906133b5565b600060405180830381600087803b1580156123f957600080fd5b505af115801561240d573d6000803e3d6000fd5b505050506040518060e0016040528060045481526020018473ffffffffffffffffffffffffffffffffffffffff1681526020018381526020018281526020013373ffffffffffffffffffffffffffffffffffffffff168152602001600015158152602001600015158152506006600060045481526020019081526020016000206000820151816000015560208201518160010160006101000a81548173ffffffffffffffffffffffffffffffffffffffff021916908373ffffffffffffffffffffffffffffffffffffffff160217905550604082015181600201556060820151816003015560808201518160040160006101000a81548173ffffffffffffffffffffffffffffffffffffffff021916908373ffffffffffffffffffffffffffffffffffffffff16021790555060a08201518160040160146101000a81548160ff02191690831515021790555060c08201518160040160156101000a81548160ff0219169083151502179055509050503373ffffffffffffffffffffffffffffffffffffffff16827f655a0cf9c8db81512be9a76dc1c5ae5380b8816ce6ad659cd61b715e2999d59a60045486856040516125c99392919061311f565b60405180910390a36125d96126b1565b505050565b60055481565b600260005403612629576040517f08c379a000000000000000000000000000000000000000000000000000000000815260040161262090613eef565b60405180910390fd5b6002600081905550565b61263b6127bb565b73ffffffffffffffffffffffffffffffffffffffff16612659610f52565b73ffffffffffffffffffffffffffffffffffffffff16146126af576040517f08c379a00000000000000000000000000000000000000000000000000000000081526004016126a690613f5b565b60405180910390fd5b565b6001600081905550565b6000600160009054906101000a900473ffffffffffffffffffffffffffffffffffffffff16905081600160006101000a81548173ffffffffffffffffffffffffffffffffffffffff021916908373ffffffffffffffffffffffffffffffffffffffff1602179055508173ffffffffffffffffffffffffffffffffffffffff168173ffffffffffffffffffffffffffffffffffffffff167f8be0079c531659141344cd1fd0a4f28419497f9722a3daafe3b4186f6b6457e060405160405180910390a35050565b600060035460646127929190613c07565b60648361279f9190613a9f565b6127a99190613b10565b826127b49190613b41565b9050919050565b600033905090565b600080fd5b600080fd5b6000819050919050565b6127e0816127cd565b81146127eb57600080fd5b50565b6000813590506127fd816127d7565b92915050565b600060208284031215612819576128186127c3565b5b6000612827848285016127ee565b91505092915050565b600073ffffffffffffffffffffffffffffffffffffffff82169050919050565b600061285b82612830565b9050919050565b61286b81612850565b82525050565b60006020820190506128866000830184612862565b92915050565b600061289782612830565b9050919050565b60006128a98261288c565b9050919050565b6128b98161289e565b81146128c457600080fd5b50565b6000813590506128d6816128b0565b92915050565b60006128e78261288c565b9050919050565b6128f7816128dc565b811461290257600080fd5b50565b600081359050612914816128ee565b92915050565b60008115159050919050565b61292f8161291a565b811461293a57600080fd5b50565b60008135905061294c81612926565b92915050565b61295b8161288c565b811461296657600080fd5b50565b60008135905061297881612952565b92915050565b600060ff82169050919050565b6129948161297e565b811461299f57600080fd5b50565b6000813590506129b18161298b565b92915050565b6000819050919050565b6129ca816129b7565b81146129d557600080fd5b50565b6000813590506129e7816129c1565b92915050565b60008060008060008060008060008060006101608c8e031215612a1357612a126127c3565b5b6000612a218e828f016128c7565b9b50506020612a328e828f01612905565b9a50506040612a438e828f016127ee565b9950506060612a548e828f016127ee565b9850506080612a658e828f0161293d565b97505060a0612a768e828f016127ee565b96505060c0612a878e828f01612969565b95505060e0612a988e828f016127ee565b945050610100612aaa8e828f016129a2565b935050610120612abc8e828f016129d8565b925050610140612ace8e828f016129d8565b9150509295989b509295989b9093969950565b612aea816127cd565b82525050565b6000602082019050612b056000830184612ae1565b92915050565b612b1481612850565b8114612b1f57600080fd5b50565b600081359050612b3181612b0b565b92915050565b600060208284031215612b4d57612b4c6127c3565b5b6000612b5b84828501612b22565b91505092915050565b612b6d8161288c565b82525050565b6000602082019050612b886000830184612b64565b92915050565b600080fd5b600080fd5b600080fd5b60008083601f840112612bb357612bb2612b8e565b5b8235905067ffffffffffffffff811115612bd057612bcf612b93565b5b602083019150836020820283011115612bec57612beb612b98565b5b9250929050565b60008060208385031215612c0a57612c096127c3565b5b600083013567ffffffffffffffff811115612c2857612c276127c8565b5b612c3485828601612b9d565b92509250509250929050565b60008060008060808587031215612c5a57612c596127c3565b5b6000612c6887828801612905565b9450506020612c79878288016127ee565b9350506040612c8a878288016127ee565b9250506060612c9b878288016127ee565b91505092959194509250565b60008060008060008060008060006101208a8c031215612cca57612cc96127c3565b5b6000612cd88c828d016128c7565b9950506020612ce98c828d016127ee565b9850506040612cfa8c828d016127ee565b9750506060612d0b8c828d016127ee565b9650506080612d1c8c828d01612969565b95505060a0612d2d8c828d016127ee565b94505060c0612d3e8c828d016129a2565b93505060e0612d4f8c828d016129d8565b925050610100612d618c828d016129d8565b9150509295985092959850929598565b6000819050919050565b6000612d96612d91612d8c84612830565b612d71565b612830565b9050919050565b6000612da882612d7b565b9050919050565b6000612dba82612d9d565b9050919050565b612dca81612daf565b82525050565b612dd98161291a565b82525050565b600060e082019050612df4600083018a612ae1565b612e016020830189612dc1565b612e0e6040830188612ae1565b612e1b6060830187612ae1565b612e286080830186612862565b612e3560a0830185612dd0565b612e4260c0830184612dd0565b98975050505050505050565b600061010082019050612e64600083018b612ae1565b612e71602083018a612dc1565b612e7e6040830189612ae1565b612e8b6060830188612ae1565b612e986080830187612ae1565b612ea560a0830186612862565b612eb260c0830185612dd0565b612ebf60e0830184612dd0565b9998505050505050505050565b600060208284031215612ee257612ee16127c3565b5b6000612ef084828501612969565b91505092915050565b600080600060608486031215612f1257612f116127c3565b5b6000612f2086828701612905565b9350506020612f31868287016127ee565b9250506040612f42868287016127ee565b9150509250925092565b600082825260208201905092915050565b7f41756374696f6e2069642073686f756c6420626520626967676572207468616e60008201527f207a65726f000000000000000000000000000000000000000000000000000000602082015250565b6000612fb9602583612f4c565b9150612fc482612f5d565b604082019050919050565b60006020820190508181036000830152612fe881612fac565b9050919050565b7f4e465420697320616c726561647920636c61696d65642e000000000000000000600082015250565b6000613025601783612f4c565b915061303082612fef565b602082019050919050565b6000602082019050818103600083015261305481613018565b9050919050565b7f41756374696f6e20697320616c72656164792063616e63656c65642e00000000600082015250565b6000613091601c83612f4c565b915061309c8261305b565b602082019050919050565b600060208201905081810360008301526130c081613084565b9050919050565b60006130d282612d9d565b9050919050565b6130e2816130c7565b82525050565b60006060820190506130fd6000830186612b64565b61310a60208301856130d9565b6131176040830184612ae1565b949350505050565b60006060820190506131346000830186612ae1565b6131416020830185612b64565b61314e6040830184612ae1565b949350505050565b7f66656550657263656e74206d757374206265206265747765656e203020616e6460008201527f2031303000000000000000000000000000000000000000000000000000000000602082015250565b60006131b2602483612f4c565b91506131bd82613156565b604082019050919050565b600060208201905081810360008301526131e1816131a5565b9050919050565b7f4f6666657220646561646c696e65206973206578636565646564000000000000600082015250565b600061321e601a83612f4c565b9150613229826131e8565b602082019050919050565b6000602082019050818103600083015261324d81613211565b9050919050565b60008151905061326381612952565b92915050565b60006020828403121561327f5761327e6127c3565b5b600061328d84828501613254565b91505092915050565b7f4f6e6c79206d61726b6574706c616365206974656d732063616e20626520616360008201527f6365707465640000000000000000000000000000000000000000000000000000602082015250565b60006132f2602683612f4c565b91506132fd82613296565b604082019050919050565b60006020820190508181036000830152613321816132e5565b9050919050565b6133318161297e565b82525050565b613340816129b7565b82525050565b600060e08201905061335b600083018a612b64565b6133686020830189612b64565b6133756040830188612ae1565b6133826060830187612ae1565b61338f6080830186613328565b61339c60a0830185613337565b6133a960c0830184613337565b98975050505050505050565b60006060820190506133ca6000830186612b64565b6133d76020830185612b64565b6133e46040830184612ae1565b949350505050565b6000815190506133fb81612926565b92915050565b600060208284031215613417576134166127c3565b5b6000613425848285016133ec565b91505092915050565b7f4974656d2069642073686f756c6420626520626967676572207468616e207a6560008201527f726f2e0000000000000000000000000000000000000000000000000000000000602082015250565b600061348a602383612f4c565b91506134958261342e565b604082019050919050565b600060208201905081810360008301526134b98161347d565b9050919050565b7f4f6e6c792073656c6c65722063616e2063616e63656c2074686973206974656d60008201527f2e00000000000000000000000000000000000000000000000000000000000000602082015250565b600061351c602183612f4c565b9150613527826134c0565b604082019050919050565b6000602082019050818103600083015261354b8161350f565b9050919050565b7f4974656d20697320616c726561647920736f6c642e0000000000000000000000600082015250565b6000613588601583612f4c565b915061359382613552565b602082019050919050565b600060208201905081810360008301526135b78161357b565b9050919050565b7f4e487b7100000000000000000000000000000000000000000000000000000000600052603260045260246000fd5b600081905092915050565b50565b60006136086000836135ed565b9150613613826135f8565b600082019050919050565b6000613629826135fb565b9150819050919050565b7f6661696c656420746f2073656e6420457468657220746f2073656c6c65720000600082015250565b6000613669601e83612f4c565b915061367482613633565b602082019050919050565b600060208201905081810360008301526136988161365c565b9050919050565b7f6661696c656420746f2073656e6420457468657220746f206665654163636f7560008201527f6e74000000000000000000000000000000000000000000000000000000000000602082015250565b60006136fb602283612f4c565b91506137068261369f565b604082019050919050565b6000602082019050818103600083015261372a816136ee565b9050919050565b7f41756374696f6e2069642073686f756c6420626520626967676572207468616e60008201527f207a65726f2e0000000000000000000000000000000000000000000000000000602082015250565b600061378d602683612f4c565b915061379882613731565b604082019050919050565b600060208201905081810360008301526137bc81613780565b9050919050565b7f4f6e6c792073656c6c65722063616e2063616e63656c2074686973206175637460008201527f696f6e2e00000000000000000000000000000000000000000000000000000000602082015250565b600061381f602483612f4c565b915061382a826137c3565b604082019050919050565b6000602082019050818103600083015261384e81613812565b9050919050565b7f41756374696f6e20697320616c726561647920636c61696d65642e0000000000600082015250565b600061388b601b83612f4c565b915061389682613855565b602082019050919050565b600060208201905081810360008301526138ba8161387e565b9050919050565b7f41756374696f6e2073686f756c64206e6f7420626520656e6465642e00000000600082015250565b60006138f7601c83612f4c565b9150613902826138c1565b602082019050919050565b60006020820190508181036000830152613926816138ea565b9050919050565b7f70726963652073686f756c642062652067726561746572207468616e207a657260008201527f6f00000000000000000000000000000000000000000000000000000000000000602082015250565b6000613989602183612f4c565b91506139948261392d565b604082019050919050565b600060208201905081810360008301526139b88161397c565b9050919050565b60006080820190506139d46000830187612ae1565b6139e16020830186612b64565b6139ee6040830185612ae1565b6139fb6060830184612ae1565b95945050505050565b7f41756374696f6e2073686f756c6420656e642066697273742e00000000000000600082015250565b6000613a3a601983612f4c565b9150613a4582613a04565b602082019050919050565b60006020820190508181036000830152613a6981613a2d565b9050919050565b7f4e487b7100000000000000000000000000000000000000000000000000000000600052601160045260246000fd5b6000613aaa826127cd565b9150613ab5836127cd565b9250828202613ac3816127cd565b91508282048414831517613ada57613ad9613a70565b5b5092915050565b7f4e487b7100000000000000000000000000000000000000000000000000000000600052601260045260246000fd5b6000613b1b826127cd565b9150613b26836127cd565b925082613b3657613b35613ae1565b5b828204905092915050565b6000613b4c826127cd565b9150613b57836127cd565b9250828203905081811115613b6f57613b6e613a70565b5b92915050565b7f4661696c656420746f207472616e7366657220666565206f722073656c6c657260008201527f20616d6f756e742e000000000000000000000000000000000000000000000000602082015250565b6000613bd1602883612f4c565b9150613bdc82613b75565b604082019050919050565b60006020820190508181036000830152613c0081613bc4565b9050919050565b6000613c12826127cd565b9150613c1d836127cd565b9250828201905080821115613c3557613c34613a70565b5b92915050565b7f6974656d20646f65736e27742065786973740000000000000000000000000000600082015250565b6000613c71601283612f4c565b9150613c7c82613c3b565b602082019050919050565b60006020820190508181036000830152613ca081613c64565b9050919050565b7f6e6f7420656e6f75676820657468657220746f20636f766572206974656d207060008201527f7269636520616e64206d61726b65742066656500000000000000000000000000602082015250565b6000613d03603383612f4c565b9150613d0e82613ca7565b604082019050919050565b60006020820190508181036000830152613d3281613cf6565b9050919050565b7f6974656d20616c726561647920736f6c64206f722063616e63656c6564000000600082015250565b6000613d6f601d83612f4c565b9150613d7a82613d39565b602082019050919050565b60006020820190508181036000830152613d9e81613d62565b9050919050565b7f4f776e61626c653a206e6577206f776e657220697320746865207a65726f206160008201527f6464726573730000000000000000000000000000000000000000000000000000602082015250565b6000613e01602683612f4c565b9150613e0c82613da5565b604082019050919050565b60006020820190508181036000830152613e3081613df4565b9050919050565b7f5072696365206d7573742062652067726561746572207468616e207a65726f00600082015250565b6000613e6d601f83612f4c565b9150613e7882613e37565b602082019050919050565b60006020820190508181036000830152613e9c81613e60565b9050919050565b7f5265656e7472616e637947756172643a207265656e7472616e742063616c6c00600082015250565b6000613ed9601f83612f4c565b9150613ee482613ea3565b602082019050919050565b60006020820190508181036000830152613f0881613ecc565b9050919050565b7f4f776e61626c653a2063616c6c6572206973206e6f7420746865206f776e6572600082015250565b6000613f45602083612f4c565b9150613f5082613f0f565b602082019050919050565b60006020820190508181036000830152613f7481613f38565b905091905056fea2646970667358221220cd249bbe0895c0b022b41b1bec48844267c8ab0e7a39fced939c34c03979c78764736f6c63430008120033",
  "linkReferences": {},
  "deployedLinkReferences": {}
}