{
  "_format": "hh-sol-artifact-1",
  "contractName": "Marketplace",
  "sourceName": "libs/contracts/src/contracts/Marketplace.sol",
  "abi": [
    {
      "inputs": [
        {
          "internalType": "uint256",
          "name": "_feePercent",
          "type": "uint256"
        }
      ],
      "stateMutability": "nonpayable",
      "type": "constructor"
    },
    {
      "anonymous": false,
      "inputs": [
        {
          "indexed": false,
          "internalType": "uint256",
          "name": "auctionId",
          "type": "uint256"
        }
      ],
      "name": "AuctionCanceled",
      "type": "event"
    },
    {
      "anonymous": false,
      "inputs": [
        {
          "indexed": false,
          "internalType": "uint256",
          "name": "auctionId",
          "type": "uint256"
        },
        {
          "indexed": false,
          "internalType": "address",
          "name": "nft",
          "type": "address"
        },
        {
          "indexed": true,
          "internalType": "uint256",
          "name": "tokenId",
          "type": "uint256"
        },
        {
          "indexed": false,
          "internalType": "uint256",
          "name": "price",
          "type": "uint256"
        },
        {
          "indexed": true,
          "internalType": "address",
          "name": "seller",
          "type": "address"
        },
        {
          "indexed": true,
          "internalType": "address",
          "name": "buyer",
          "type": "address"
        }
      ],
      "name": "AuctionEnded",
      "type": "event"
    },
    {
      "anonymous": false,
      "inputs": [
        {
          "indexed": false,
          "internalType": "uint256",
          "name": "auctionId",
          "type": "uint256"
        },
        {
          "indexed": false,
          "internalType": "address",
          "name": "nft",
          "type": "address"
        },
        {
          "indexed": true,
          "internalType": "uint256",
          "name": "tokenId",
          "type": "uint256"
        },
        {
          "indexed": false,
          "internalType": "uint256",
          "name": "price",
          "type": "uint256"
        },
        {
          "indexed": false,
          "internalType": "uint256",
          "name": "timeToEnd",
          "type": "uint256"
        },
        {
          "indexed": true,
          "internalType": "address",
          "name": "seller",
          "type": "address"
        }
      ],
      "name": "AuctionStarted",
      "type": "event"
    },
    {
      "anonymous": false,
      "inputs": [
        {
          "indexed": false,
          "internalType": "uint256",
          "name": "auctionId",
          "type": "uint256"
        },
        {
          "indexed": false,
          "internalType": "address",
          "name": "bidder",
          "type": "address"
        },
        {
          "indexed": false,
          "internalType": "uint256",
          "name": "amount",
          "type": "uint256"
        }
      ],
      "name": "BidPlaced",
      "type": "event"
    },
    {
      "anonymous": false,
      "inputs": [
        {
          "indexed": false,
          "internalType": "uint256",
          "name": "itemId",
          "type": "uint256"
        },
        {
          "indexed": false,
          "internalType": "address",
          "name": "nft",
          "type": "address"
        },
        {
          "indexed": true,
          "internalType": "uint256",
          "name": "tokenId",
          "type": "uint256"
        },
        {
          "indexed": false,
          "internalType": "uint256",
          "name": "price",
          "type": "uint256"
        },
        {
          "indexed": true,
          "internalType": "address",
          "name": "seller",
          "type": "address"
        },
        {
          "indexed": true,
          "internalType": "address",
          "name": "buyer",
          "type": "address"
        }
      ],
      "name": "Bought",
      "type": "event"
    },
    {
      "anonymous": false,
      "inputs": [
        {
          "indexed": false,
          "internalType": "uint256",
          "name": "itemId",
          "type": "uint256"
        }
      ],
      "name": "OfferCanceled",
      "type": "event"
    },
    {
      "anonymous": false,
      "inputs": [
        {
          "indexed": false,
          "internalType": "uint256",
          "name": "itemId",
          "type": "uint256"
        },
        {
          "indexed": false,
          "internalType": "address",
          "name": "nft",
          "type": "address"
        },
        {
          "indexed": true,
          "internalType": "uint256",
          "name": "tokenId",
          "type": "uint256"
        },
        {
          "indexed": false,
          "internalType": "uint256",
          "name": "price",
          "type": "uint256"
        },
        {
          "indexed": true,
          "internalType": "address",
          "name": "seller",
          "type": "address"
        }
      ],
      "name": "Offered",
      "type": "event"
    },
    {
      "stateMutability": "nonpayable",
      "type": "fallback"
    },
    {
      "inputs": [
        {
          "internalType": "contract IERC20Permit",
          "name": "erc20",
          "type": "address"
        },
        {
          "internalType": "contract IERC721",
          "name": "nft",
          "type": "address"
        },
        {
          "internalType": "uint256",
          "name": "_tokenId",
          "type": "uint256"
        },
        {
          "internalType": "uint256",
          "name": "_itemId",
          "type": "uint256"
        },
        {
          "internalType": "bool",
          "name": "isOnSale",
          "type": "bool"
        },
        {
          "internalType": "uint256",
          "name": "deadline",
          "type": "uint256"
        },
        {
          "internalType": "address",
          "name": "offerer",
          "type": "address"
        },
        {
          "internalType": "uint256",
          "name": "amount",
          "type": "uint256"
        },
        {
          "internalType": "uint8",
          "name": "_v",
          "type": "uint8"
        },
        {
          "internalType": "bytes32",
          "name": "_r",
          "type": "bytes32"
        },
        {
          "internalType": "bytes32",
          "name": "_s",
          "type": "bytes32"
        }
      ],
      "name": "acceptERCOffer",
      "outputs": [],
      "stateMutability": "nonpayable",
      "type": "function"
    },
    {
      "inputs": [],
      "name": "auctionItemCount",
      "outputs": [
        {
          "internalType": "uint256",
          "name": "",
          "type": "uint256"
        }
      ],
      "stateMutability": "view",
      "type": "function"
    },
    {
      "inputs": [
        {
          "internalType": "uint256",
          "name": "",
          "type": "uint256"
        }
      ],
      "name": "auctionItems",
      "outputs": [
        {
          "internalType": "uint256",
          "name": "auctionId",
          "type": "uint256"
        },
        {
          "internalType": "contract IERC721",
          "name": "nft",
          "type": "address"
        },
        {
          "internalType": "uint256",
          "name": "tokenId",
          "type": "uint256"
        },
        {
          "internalType": "uint256",
          "name": "price",
          "type": "uint256"
        },
        {
          "internalType": "uint256",
          "name": "timeToEnd",
          "type": "uint256"
        },
        {
          "internalType": "address payable",
          "name": "winner",
          "type": "address"
        },
        {
          "internalType": "address payable",
          "name": "seller",
          "type": "address"
        },
        {
          "internalType": "uint256",
          "name": "deposited",
          "type": "uint256"
        },
        {
          "internalType": "bool",
          "name": "claimed",
          "type": "bool"
        },
        {
          "internalType": "bool",
          "name": "canceled",
          "type": "bool"
        }
      ],
      "stateMutability": "view",
      "type": "function"
    },
    {
      "inputs": [
        {
          "internalType": "uint256",
          "name": "_auctionId",
          "type": "uint256"
        }
      ],
      "name": "cancelAuction",
      "outputs": [],
      "stateMutability": "nonpayable",
      "type": "function"
    },
    {
      "inputs": [
        {
          "internalType": "uint256",
          "name": "_itemId",
          "type": "uint256"
        }
      ],
      "name": "cancelOffered",
      "outputs": [],
      "stateMutability": "nonpayable",
      "type": "function"
    },
    {
      "inputs": [
        {
          "internalType": "uint256",
          "name": "_auctionId",
          "type": "uint256"
        }
      ],
      "name": "claimNFT",
      "outputs": [],
      "stateMutability": "nonpayable",
      "type": "function"
    },
    {
      "inputs": [],
      "name": "feeAccount",
      "outputs": [
        {
          "internalType": "address payable",
          "name": "",
          "type": "address"
        }
      ],
      "stateMutability": "view",
      "type": "function"
    },
    {
      "inputs": [],
      "name": "feePercent",
      "outputs": [
        {
          "internalType": "uint256",
          "name": "",
          "type": "uint256"
        }
      ],
      "stateMutability": "view",
      "type": "function"
    },
    {
      "inputs": [
        {
          "internalType": "uint256",
          "name": "_itemId",
          "type": "uint256"
        }
      ],
      "name": "getTotalPrice",
      "outputs": [
        {
          "internalType": "uint256",
          "name": "",
          "type": "uint256"
        }
      ],
      "stateMutability": "view",
      "type": "function"
    },
    {
      "inputs": [],
      "name": "itemCount",
      "outputs": [
        {
          "internalType": "uint256",
          "name": "",
          "type": "uint256"
        }
      ],
      "stateMutability": "view",
      "type": "function"
    },
    {
      "inputs": [
        {
          "internalType": "uint256",
          "name": "",
          "type": "uint256"
        }
      ],
      "name": "items",
      "outputs": [
        {
          "internalType": "uint256",
          "name": "itemId",
          "type": "uint256"
        },
        {
          "internalType": "contract IERC721",
          "name": "nft",
          "type": "address"
        },
        {
          "internalType": "uint256",
          "name": "tokenId",
          "type": "uint256"
        },
        {
          "internalType": "uint256",
          "name": "price",
          "type": "uint256"
        },
        {
          "internalType": "address payable",
          "name": "seller",
          "type": "address"
        },
        {
          "internalType": "bool",
          "name": "sold",
          "type": "bool"
        },
        {
          "internalType": "bool",
          "name": "canceled",
          "type": "bool"
        }
      ],
      "stateMutability": "view",
      "type": "function"
    },
    {
      "inputs": [
        {
          "internalType": "contract IERC721",
          "name": "_nft",
          "type": "address"
        },
        {
          "internalType": "uint256",
          "name": "_tokenId",
          "type": "uint256"
        },
        {
          "internalType": "uint256",
          "name": "_price",
          "type": "uint256"
        }
      ],
      "name": "makeItem",
      "outputs": [],
      "stateMutability": "nonpayable",
      "type": "function"
    },
    {
      "inputs": [
        {
          "internalType": "uint256",
          "name": "_auctionId",
          "type": "uint256"
        }
      ],
      "name": "makeOffer",
      "outputs": [],
      "stateMutability": "payable",
      "type": "function"
    },
    {
      "inputs": [
        {
          "internalType": "uint256",
          "name": "_itemId",
          "type": "uint256"
        }
      ],
      "name": "purchaseItem",
      "outputs": [],
      "stateMutability": "payable",
      "type": "function"
    },
    {
      "inputs": [
        {
          "internalType": "uint256[]",
          "name": "_itemIds",
          "type": "uint256[]"
        }
      ],
      "name": "purchaseItem_multiple",
      "outputs": [],
      "stateMutability": "payable",
      "type": "function"
    },
    {
      "inputs": [
        {
          "internalType": "contract IERC721",
          "name": "_nft",
          "type": "address"
        },
        {
          "internalType": "uint256",
          "name": "_tokenId",
          "type": "uint256"
        },
        {
          "internalType": "uint256",
          "name": "_price",
          "type": "uint256"
        },
        {
          "internalType": "uint256",
          "name": "_timeToEnd",
          "type": "uint256"
        }
      ],
      "name": "startAuction",
      "outputs": [],
      "stateMutability": "nonpayable",
      "type": "function"
    }
  ],
  "bytecode": "0x60c06040523480156200001157600080fd5b5060405162003af038038062003af083398181016040528101906200003791906200009c565b60016000819055503373ffffffffffffffffffffffffffffffffffffffff1660808173ffffffffffffffffffffffffffffffffffffffff1660601b815250508060a0818152505050620000ec565b6000815190506200009681620000d2565b92915050565b600060208284031215620000af57600080fd5b6000620000bf8482850162000085565b91505092915050565b6000819050919050565b620000dd81620000c8565b8114620000e957600080fd5b50565b60805160601c60a0516139bf6200013160003960008181610ad901528181611780015261242d0152600081816103c501528181610dc90152611ab001526139bf6000f3fe6080604052600436106100f75760003560e01c80639c1662731161008a578063d38ea5bf11610059578063d38ea5bf1461032a578063fa00afc714610346578063fe5c873a1461036f578063fe6d7a6e14610398576100f8565b80639c1662731461023b578063bfb231d214610264578063ca7dd375146102a7578063d2c069f0146102e4576100f8565b80637fd6f15c116100c65780637fd6f15c146101af57806392dab811146101da57806396b5a755146101f65780639a2f64741461021f576100f8565b806365e17c9d1461010757806369244fe0146101325780636bfb0d011461015b5780637ee53f0f14610186576100f8565b5b34801561010457600080fd5b50005b34801561011357600080fd5b5061011c6103c3565b6040516101299190612b9c565b60405180910390f35b34801561013e57600080fd5b506101596004803603810190610154919061261f565b6103e7565b005b34801561016757600080fd5b50610170610894565b60405161017d9190612f54565b60405180910390f35b34801561019257600080fd5b506101ad60048036038101906101a891906127c1565b61089a565b005b3480156101bb57600080fd5b506101c4610ad7565b6040516101d19190612f54565b60405180910390f35b6101f460048036038101906101ef91906125b1565b610afb565b005b34801561020257600080fd5b5061021d600480360381019061021891906127c1565b610ea6565b005b610239600480360381019061023491906127c1565b6111a6565b005b34801561024757600080fd5b50610262600480360381019061025d919061275e565b6113b5565b005b34801561027057600080fd5b5061028b600480360381019061028691906127c1565b6116de565b60405161029e9796959493929190612feb565b60405180910390f35b3480156102b357600080fd5b506102ce60048036038101906102c991906127c1565b61177a565b6040516102db9190612f54565b60405180910390f35b3480156102f057600080fd5b5061030b600480360381019061030691906127c1565b6117dd565b6040516103219a9998979695949392919061305a565b60405180910390f35b610344600480360381019061033f91906127c1565b6118ab565b005b34801561035257600080fd5b5061036d6004803603810190610368919061270f565b611d04565b005b34801561037b57600080fd5b50610396600480360381019061039191906127c1565b611fa3565b005b3480156103a457600080fd5b506103ad6123c9565b6040516103ba9190612f54565b60405180910390f35b7f000000000000000000000000000000000000000000000000000000000000000081565b6103ef6123cf565b854210610431576040517f08c379a000000000000000000000000000000000000000000000000000000000815260040161042890612e14565b60405180910390fd5b8973ffffffffffffffffffffffffffffffffffffffff16636352211e8a6040518263ffffffff1660e01b815260040161046a9190612f54565b60206040518083038186803b15801561048257600080fd5b505afa158015610496573d6000803e3d6000fd5b505050506040513d601f19601f820116820180604052508101906104ba9190612588565b73ffffffffffffffffffffffffffffffffffffffff163073ffffffffffffffffffffffffffffffffffffffff1614610527576040517f08c379a000000000000000000000000000000000000000000000000000000000815260040161051e90612db4565b60405180910390fd5b8a73ffffffffffffffffffffffffffffffffffffffff1663d505accf8630878a8888886040518863ffffffff1660e01b815260040161056c9796959493929190612c25565b600060405180830381600087803b15801561058657600080fd5b505af115801561059a573d6000803e3d6000fd5b505050508a73ffffffffffffffffffffffffffffffffffffffff166323b872dd8633876040518463ffffffff1660e01b81526004016105db93929190612bee565b602060405180830381600087803b1580156105f557600080fd5b505af1158015610609573d6000803e3d6000fd5b505050506040513d601f19601f8201168201806040525081019061062d91906125f6565b508973ffffffffffffffffffffffffffffffffffffffff166323b872dd30878c6040518463ffffffff1660e01b815260040161066b93929190612bee565b600060405180830381600087803b15801561068557600080fd5b505af1158015610699573d6000803e3d6000fd5b505050508615610793576000600360008a8152602001908152602001600020905060018160040160146101000a81548160ff0219169083151502179055508573ffffffffffffffffffffffffffffffffffffffff168160040160009054906101000a900473ffffffffffffffffffffffffffffffffffffffff1673ffffffffffffffffffffffffffffffffffffffff1682600201547f8b4c9c8a607d67b321582dd8461041b1dc2ceeca70c8b7f37f8e02095cf2e76d8c8560010160009054906101000a900473ffffffffffffffffffffffffffffffffffffffff168a60405161078593929190612f6f565b60405180910390a45061087f565b6000600460008a8152602001908152602001600020905060018160080160006101000a81548160ff0219169083151502179055508573ffffffffffffffffffffffffffffffffffffffff168160060160009054906101000a900473ffffffffffffffffffffffffffffffffffffffff1673ffffffffffffffffffffffffffffffffffffffff1682600201547fe9c76f3cd26822fab39fde36b56736739a684a806c8c0cf5eacd75511797ca7b8c8560010160009054906101000a900473ffffffffffffffffffffffffffffffffffffffff168a60405161087593929190612f6f565b60405180910390a4505b61088761241f565b5050505050505050505050565b60015481565b6108a26123cf565b600081116108e5576040517f08c379a00000000000000000000000000000000000000000000000000000000081526004016108dc90612d74565b60405180910390fd5b60006003600083815260200190815260200160002090503373ffffffffffffffffffffffffffffffffffffffff168160040160009054906101000a900473ffffffffffffffffffffffffffffffffffffffff1673ffffffffffffffffffffffffffffffffffffffff161461098e576040517f08c379a000000000000000000000000000000000000000000000000000000000815260040161098590612e94565b60405180910390fd5b8060040160149054906101000a900460ff16156109e0576040517f08c379a00000000000000000000000000000000000000000000000000000000081526004016109d790612e74565b60405180910390fd5b60018160040160156101000a81548160ff0219169083151502179055508060010160009054906101000a900473ffffffffffffffffffffffffffffffffffffffff1673ffffffffffffffffffffffffffffffffffffffff166342842e0e303384600201546040518463ffffffff1660e01b8152600401610a6293929190612bee565b600060405180830381600087803b158015610a7c57600080fd5b505af1158015610a90573d6000803e3d6000fd5b505050507f0ff09947dd7d2583091e8cbfb427fecacb697bf895187b243fd0072c0ee9b95182604051610ac39190612f54565b60405180910390a150610ad461241f565b50565b7f000000000000000000000000000000000000000000000000000000000000000081565b610b036123cf565b60005b82829050811015610dc4576000838383818110610b4c577f4e487b7100000000000000000000000000000000000000000000000000000000600052603260045260246000fd5b905060200201359050600060036000838152602001908152602001600020905060008160040160009054906101000a900473ffffffffffffffffffffffffffffffffffffffff1673ffffffffffffffffffffffffffffffffffffffff168260030154604051610bba90612b87565b60006040518083038185875af1925050503d8060008114610bf7576040519150601f19603f3d011682016040523d82523d6000602084013e610bfc565b606091505b5050905080610c40576040517f08c379a0000000000000000000000000000000000000000000000000000000008152600401610c3790612e54565b60405180910390fd5b60018260040160146101000a81548160ff0219169083151502179055508160010160009054906101000a900473ffffffffffffffffffffffffffffffffffffffff1673ffffffffffffffffffffffffffffffffffffffff166342842e0e303385600201546040518463ffffffff1660e01b8152600401610cc293929190612bee565b600060405180830381600087803b158015610cdc57600080fd5b505af1158015610cf0573d6000803e3d6000fd5b505050503373ffffffffffffffffffffffffffffffffffffffff168260040160009054906101000a900473ffffffffffffffffffffffffffffffffffffffff1673ffffffffffffffffffffffffffffffffffffffff1683600201547f8b4c9c8a607d67b321582dd8461041b1dc2ceeca70c8b7f37f8e02095cf2e76d868660010160009054906101000a900473ffffffffffffffffffffffffffffffffffffffff168760030154604051610da693929190612f6f565b60405180910390a45050508080610dbc90613316565b915050610b06565b5060007f000000000000000000000000000000000000000000000000000000000000000073ffffffffffffffffffffffffffffffffffffffff16610e0734612429565b604051610e1390612b87565b60006040518083038185875af1925050503d8060008114610e50576040519150601f19603f3d011682016040523d82523d6000602084013e610e55565b606091505b5050905080610e99576040517f08c379a0000000000000000000000000000000000000000000000000000000008152600401610e9090612eb4565b60405180910390fd5b50610ea261241f565b5050565b610eae6123cf565b60008111610ef1576040517f08c379a0000000000000000000000000000000000000000000000000000000008152600401610ee890612d34565b60405180910390fd5b60006004600083815260200190815260200160002090503373ffffffffffffffffffffffffffffffffffffffff168160060160009054906101000a900473ffffffffffffffffffffffffffffffffffffffff1673ffffffffffffffffffffffffffffffffffffffff1614610f9a576040517f08c379a0000000000000000000000000000000000000000000000000000000008152600401610f9190612f34565b60405180910390fd5b8060080160009054906101000a900460ff1615610fec576040517f08c379a0000000000000000000000000000000000000000000000000000000008152600401610fe390612d14565b60405180910390fd5b80600401544210611032576040517f08c379a000000000000000000000000000000000000000000000000000000000815260040161102990612c94565b60405180910390fd5b6000816007015411156110af578060050160009054906101000a900473ffffffffffffffffffffffffffffffffffffffff1673ffffffffffffffffffffffffffffffffffffffff166108fc82600701549081150290604051600060405180830381858888f193505050501580156110ad573d6000803e3d6000fd5b505b60018160080160016101000a81548160ff0219169083151502179055508060010160009054906101000a900473ffffffffffffffffffffffffffffffffffffffff1673ffffffffffffffffffffffffffffffffffffffff166323b872dd303384600201546040518463ffffffff1660e01b815260040161113193929190612bee565b600060405180830381600087803b15801561114b57600080fd5b505af115801561115f573d6000803e3d6000fd5b505050507f28601d865dccc9f113e15a7185c1b38c085d598c71250d3337916a428536d771826040516111929190612f54565b60405180910390a1506111a361241f565b50565b6111ae6123cf565b600081116111f1576040517f08c379a00000000000000000000000000000000000000000000000000000000081526004016111e890612d34565b60405180910390fd5b60006004600083815260200190815260200160002090508060030154341161124e576040517f08c379a000000000000000000000000000000000000000000000000000000000815260040161124590612ed4565b60405180910390fd5b80600401544210611294576040517f08c379a000000000000000000000000000000000000000000000000000000000815260040161128b90612c94565b60405180910390fd5b60008160070154905060008260050160009054906101000a900473ffffffffffffffffffffffffffffffffffffffff169050348360030181905550338360050160006101000a81548173ffffffffffffffffffffffffffffffffffffffff021916908373ffffffffffffffffffffffffffffffffffffffff160217905550348360070181905550600082111561136c578073ffffffffffffffffffffffffffffffffffffffff166108fc839081150290604051600060405180830381858888f1935050505015801561136a573d6000803e3d6000fd5b505b7f0e54eff26401bf69b81b26f60bd85ef47f5d85275c1d268d84f68d6897431c4784333460405161139f93929190612f6f565b60405180910390a15050506113b261241f565b50565b6113bd6123cf565b60008211611400576040517f08c379a00000000000000000000000000000000000000000000000000000000081526004016113f790612e34565b60405180910390fd5b6002600081548092919061141390613316565b91905055508373ffffffffffffffffffffffffffffffffffffffff166323b872dd3330866040518463ffffffff1660e01b815260040161145593929190612bee565b600060405180830381600087803b15801561146f57600080fd5b505af1158015611483573d6000803e3d6000fd5b5050505060405180610140016040528060025481526020018573ffffffffffffffffffffffffffffffffffffffff1681526020018481526020018381526020018281526020013373ffffffffffffffffffffffffffffffffffffffff1681526020013373ffffffffffffffffffffffffffffffffffffffff16815260200160008152602001600015158152602001600015158152506004600060025481526020019081526020016000206000820151816000015560208201518160010160006101000a81548173ffffffffffffffffffffffffffffffffffffffff021916908373ffffffffffffffffffffffffffffffffffffffff16021790555060408201518160020155606082015181600301556080820151816004015560a08201518160050160006101000a81548173ffffffffffffffffffffffffffffffffffffffff021916908373ffffffffffffffffffffffffffffffffffffffff16021790555060c08201518160060160006101000a81548173ffffffffffffffffffffffffffffffffffffffff021916908373ffffffffffffffffffffffffffffffffffffffff16021790555060e082015181600701556101008201518160080160006101000a81548160ff0219169083151502179055506101208201518160080160016101000a81548160ff0219169083151502179055509050503373ffffffffffffffffffffffffffffffffffffffff16837fd184fdb1358a28e5370b7ea6f753efc3313b7fd11d6750f270cf79f109a63f176002548786866040516116c89493929190612fa6565b60405180910390a36116d861241f565b50505050565b60036020528060005260406000206000915090508060000154908060010160009054906101000a900473ffffffffffffffffffffffffffffffffffffffff16908060020154908060030154908060040160009054906101000a900473ffffffffffffffffffffffffffffffffffffffff16908060040160149054906101000a900460ff16908060040160159054906101000a900460ff16905087565b600060647f000000000000000000000000000000000000000000000000000000000000000060646117ab9190613112565b60036000858152602001908152602001600020600301546117cc9190613199565b6117d69190613168565b9050919050565b60046020528060005260406000206000915090508060000154908060010160009054906101000a900473ffffffffffffffffffffffffffffffffffffffff16908060020154908060030154908060040154908060050160009054906101000a900473ffffffffffffffffffffffffffffffffffffffff16908060060160009054906101000a900473ffffffffffffffffffffffffffffffffffffffff16908060070154908060080160009054906101000a900460ff16908060080160019054906101000a900460ff1690508a565b6118b36123cf565b60006118be8261177a565b905060006003600084815260200190815260200160002090506000831180156118e957506001548311155b611928576040517f08c379a000000000000000000000000000000000000000000000000000000000815260040161191f90612d54565b60405180910390fd5b8134101561196b576040517f08c379a000000000000000000000000000000000000000000000000000000000815260040161196290612cf4565b60405180910390fd5b8060040160149054906101000a900460ff1615801561199957508060040160159054906101000a900460ff16155b6119d8576040517f08c379a00000000000000000000000000000000000000000000000000000000081526004016119cf90612f14565b60405180910390fd5b60008160040160009054906101000a900473ffffffffffffffffffffffffffffffffffffffff1673ffffffffffffffffffffffffffffffffffffffff168260030154604051611a2690612b87565b60006040518083038185875af1925050503d8060008114611a63576040519150601f19603f3d011682016040523d82523d6000602084013e611a68565b606091505b5050905080611aac576040517f08c379a0000000000000000000000000000000000000000000000000000000008152600401611aa390612e54565b60405180910390fd5b60007f000000000000000000000000000000000000000000000000000000000000000073ffffffffffffffffffffffffffffffffffffffff16836003015485611af591906131f3565b604051611b0190612b87565b60006040518083038185875af1925050503d8060008114611b3e576040519150601f19603f3d011682016040523d82523d6000602084013e611b43565b606091505b5050905080611b87576040517f08c379a0000000000000000000000000000000000000000000000000000000008152600401611b7e90612eb4565b60405180910390fd5b60018360040160146101000a81548160ff0219169083151502179055508260010160009054906101000a900473ffffffffffffffffffffffffffffffffffffffff1673ffffffffffffffffffffffffffffffffffffffff166342842e0e303386600201546040518463ffffffff1660e01b8152600401611c0993929190612bee565b600060405180830381600087803b158015611c2357600080fd5b505af1158015611c37573d6000803e3d6000fd5b505050503373ffffffffffffffffffffffffffffffffffffffff168360040160009054906101000a900473ffffffffffffffffffffffffffffffffffffffff1673ffffffffffffffffffffffffffffffffffffffff1684600201547f8b4c9c8a607d67b321582dd8461041b1dc2ceeca70c8b7f37f8e02095cf2e76d888760010160009054906101000a900473ffffffffffffffffffffffffffffffffffffffff168860030154604051611ced93929190612f6f565b60405180910390a450505050611d0161241f565b50565b611d0c6123cf565b60008111611d4f576040517f08c379a0000000000000000000000000000000000000000000000000000000008152600401611d4690612cb4565b60405180910390fd5b60016000815480929190611d6290613316565b91905055508273ffffffffffffffffffffffffffffffffffffffff166323b872dd3330856040518463ffffffff1660e01b8152600401611da493929190612bee565b600060405180830381600087803b158015611dbe57600080fd5b505af1158015611dd2573d6000803e3d6000fd5b505050506040518060e0016040528060015481526020018473ffffffffffffffffffffffffffffffffffffffff1681526020018381526020018281526020013373ffffffffffffffffffffffffffffffffffffffff168152602001600015158152602001600015158152506003600060015481526020019081526020016000206000820151816000015560208201518160010160006101000a81548173ffffffffffffffffffffffffffffffffffffffff021916908373ffffffffffffffffffffffffffffffffffffffff160217905550604082015181600201556060820151816003015560808201518160040160006101000a81548173ffffffffffffffffffffffffffffffffffffffff021916908373ffffffffffffffffffffffffffffffffffffffff16021790555060a08201518160040160146101000a81548160ff02191690831515021790555060c08201518160040160156101000a81548160ff0219169083151502179055509050503373ffffffffffffffffffffffffffffffffffffffff16827f655a0cf9c8db81512be9a76dc1c5ae5380b8816ce6ad659cd61b715e2999d59a6001548685604051611f8e93929190612f6f565b60405180910390a3611f9e61241f565b505050565b611fab6123cf565b60008111611fee576040517f08c379a0000000000000000000000000000000000000000000000000000000008152600401611fe590612df4565b60405180910390fd5b6000600460008381526020019081526020016000209050806004015442101561204c576040517f08c379a000000000000000000000000000000000000000000000000000000000815260040161204390612d94565b60405180910390fd5b3373ffffffffffffffffffffffffffffffffffffffff168160050160009054906101000a900473ffffffffffffffffffffffffffffffffffffffff1673ffffffffffffffffffffffffffffffffffffffff1614806120f957503373ffffffffffffffffffffffffffffffffffffffff168160060160009054906101000a900473ffffffffffffffffffffffffffffffffffffffff1673ffffffffffffffffffffffffffffffffffffffff16145b612138576040517f08c379a000000000000000000000000000000000000000000000000000000000815260040161212f90612dd4565b60405180910390fd5b8060080160009054906101000a900460ff161561218a576040517f08c379a000000000000000000000000000000000000000000000000000000000815260040161218190612cd4565b60405180910390fd5b8060010160009054906101000a900473ffffffffffffffffffffffffffffffffffffffff1673ffffffffffffffffffffffffffffffffffffffff166323b872dd308360050160009054906101000a900473ffffffffffffffffffffffffffffffffffffffff1684600201546040518463ffffffff1660e01b815260040161221393929190612bb7565b600060405180830381600087803b15801561222d57600080fd5b505af1158015612241573d6000803e3d6000fd5b505050506000816007015411156122c2578060060160009054906101000a900473ffffffffffffffffffffffffffffffffffffffff1673ffffffffffffffffffffffffffffffffffffffff166108fc82600701549081150290604051600060405180830381858888f193505050501580156122c0573d6000803e3d6000fd5b505b60018160080160006101000a81548160ff0219169083151502179055508060050160009054906101000a900473ffffffffffffffffffffffffffffffffffffffff1673ffffffffffffffffffffffffffffffffffffffff168160060160009054906101000a900473ffffffffffffffffffffffffffffffffffffffff1673ffffffffffffffffffffffffffffffffffffffff1682600201547fe9c76f3cd26822fab39fde36b56736739a684a806c8c0cf5eacd75511797ca7b858560010160009054906101000a900473ffffffffffffffffffffffffffffffffffffffff1686600301546040516123b593929190612f6f565b60405180910390a4506123c661241f565b50565b60025481565b60026000541415612415576040517f08c379a000000000000000000000000000000000000000000000000000000000815260040161240c90612ef4565b60405180910390fd5b6002600081905550565b6001600081905550565b60007f000000000000000000000000000000000000000000000000000000000000000060646124589190613112565b6064836124659190613199565b61246f9190613168565b8261247a91906131f3565b9050919050565b600081359050612490816138e8565b92915050565b6000815190506124a5816138e8565b92915050565b60008083601f8401126124bd57600080fd5b8235905067ffffffffffffffff8111156124d657600080fd5b6020830191508360208202830111156124ee57600080fd5b9250929050565b600081359050612504816138ff565b92915050565b600081519050612519816138ff565b92915050565b60008135905061252e81613916565b92915050565b6000813590506125438161392d565b92915050565b60008135905061255881613944565b92915050565b60008135905061256d8161395b565b92915050565b60008135905061258281613972565b92915050565b60006020828403121561259a57600080fd5b60006125a884828501612496565b91505092915050565b600080602083850312156125c457600080fd5b600083013567ffffffffffffffff8111156125de57600080fd5b6125ea858286016124ab565b92509250509250929050565b60006020828403121561260857600080fd5b60006126168482850161250a565b91505092915050565b60008060008060008060008060008060006101608c8e03121561264157600080fd5b600061264f8e828f01612534565b9b505060206126608e828f01612549565b9a505060406126718e828f0161255e565b99505060606126828e828f0161255e565b98505060806126938e828f016124f5565b97505060a06126a48e828f0161255e565b96505060c06126b58e828f01612481565b95505060e06126c68e828f0161255e565b9450506101006126d88e828f01612573565b9350506101206126ea8e828f0161251f565b9250506101406126fc8e828f0161251f565b9150509295989b509295989b9093969950565b60008060006060848603121561272457600080fd5b600061273286828701612549565b93505060206127438682870161255e565b92505060406127548682870161255e565b9150509250925092565b6000806000806080858703121561277457600080fd5b600061278287828801612549565b94505060206127938782880161255e565b93505060406127a48782880161255e565b92505060606127b58782880161255e565b91505092959194509250565b6000602082840312156127d357600080fd5b60006127e18482850161255e565b91505092915050565b6127f3816132bc565b82525050565b61280281613239565b82525050565b61281181613227565b82525050565b6128208161324b565b82525050565b61282f81613257565b82525050565b61283e816132ce565b82525050565b6000612851601c83613101565b915061285c826133bd565b602082019050919050565b6000612874601f83613101565b915061287f826133e6565b602082019050919050565b6000612897601783613101565b91506128a28261340f565b602082019050919050565b60006128ba603383613101565b91506128c582613438565b604082019050919050565b60006128dd601b83613101565b91506128e882613487565b602082019050919050565b6000612900602683613101565b915061290b826134b0565b604082019050919050565b6000612923601283613101565b915061292e826134ff565b602082019050919050565b6000612946602383613101565b915061295182613528565b604082019050919050565b6000612969601983613101565b915061297482613577565b602082019050919050565b600061298c602683613101565b9150612997826135a0565b604082019050919050565b60006129af602c83613101565b91506129ba826135ef565b604082019050919050565b60006129d2602583613101565b91506129dd8261363e565b604082019050919050565b60006129f5601a83613101565b9150612a008261368d565b602082019050919050565b6000612a18602183613101565b9150612a23826136b6565b604082019050919050565b6000612a3b601e83613101565b9150612a4682613705565b602082019050919050565b6000612a5e601583613101565b9150612a698261372e565b602082019050919050565b6000612a816000836130f6565b9150612a8c82613757565b600082019050919050565b6000612aa4602183613101565b9150612aaf8261375a565b604082019050919050565b6000612ac7602283613101565b9150612ad2826137a9565b604082019050919050565b6000612aea602b83613101565b9150612af5826137f8565b604082019050919050565b6000612b0d601f83613101565b9150612b1882613847565b602082019050919050565b6000612b30601d83613101565b9150612b3b82613870565b602082019050919050565b6000612b53602483613101565b9150612b5e82613899565b604082019050919050565b612b72816132a5565b82525050565b612b81816132af565b82525050565b6000612b9282612a74565b9150819050919050565b6000602082019050612bb160008301846127f9565b92915050565b6000606082019050612bcc6000830186612808565b612bd960208301856127ea565b612be66040830184612b69565b949350505050565b6000606082019050612c036000830186612808565b612c106020830185612808565b612c1d6040830184612b69565b949350505050565b600060e082019050612c3a600083018a612808565b612c476020830189612808565b612c546040830188612b69565b612c616060830187612b69565b612c6e6080830186612b78565b612c7b60a0830185612826565b612c8860c0830184612826565b98975050505050505050565b60006020820190508181036000830152612cad81612844565b9050919050565b60006020820190508181036000830152612ccd81612867565b9050919050565b60006020820190508181036000830152612ced8161288a565b9050919050565b60006020820190508181036000830152612d0d816128ad565b9050919050565b60006020820190508181036000830152612d2d816128d0565b9050919050565b60006020820190508181036000830152612d4d816128f3565b9050919050565b60006020820190508181036000830152612d6d81612916565b9050919050565b60006020820190508181036000830152612d8d81612939565b9050919050565b60006020820190508181036000830152612dad8161295c565b9050919050565b60006020820190508181036000830152612dcd8161297f565b9050919050565b60006020820190508181036000830152612ded816129a2565b9050919050565b60006020820190508181036000830152612e0d816129c5565b9050919050565b60006020820190508181036000830152612e2d816129e8565b9050919050565b60006020820190508181036000830152612e4d81612a0b565b9050919050565b60006020820190508181036000830152612e6d81612a2e565b9050919050565b60006020820190508181036000830152612e8d81612a51565b9050919050565b60006020820190508181036000830152612ead81612a97565b9050919050565b60006020820190508181036000830152612ecd81612aba565b9050919050565b60006020820190508181036000830152612eed81612add565b9050919050565b60006020820190508181036000830152612f0d81612b00565b9050919050565b60006020820190508181036000830152612f2d81612b23565b9050919050565b60006020820190508181036000830152612f4d81612b46565b9050919050565b6000602082019050612f696000830184612b69565b92915050565b6000606082019050612f846000830186612b69565b612f916020830185612808565b612f9e6040830184612b69565b949350505050565b6000608082019050612fbb6000830187612b69565b612fc86020830186612808565b612fd56040830185612b69565b612fe26060830184612b69565b95945050505050565b600060e082019050613000600083018a612b69565b61300d6020830189612835565b61301a6040830188612b69565b6130276060830187612b69565b61303460808301866127f9565b61304160a0830185612817565b61304e60c0830184612817565b98975050505050505050565b600061014082019050613070600083018d612b69565b61307d602083018c612835565b61308a604083018b612b69565b613097606083018a612b69565b6130a46080830189612b69565b6130b160a08301886127f9565b6130be60c08301876127f9565b6130cb60e0830186612b69565b6130d9610100830185612817565b6130e7610120830184612817565b9b9a5050505050505050505050565b600081905092915050565b600082825260208201905092915050565b600061311d826132a5565b9150613128836132a5565b9250827fffffffffffffffffffffffffffffffffffffffffffffffffffffffffffffffff0382111561315d5761315c61335f565b5b828201905092915050565b6000613173826132a5565b915061317e836132a5565b92508261318e5761318d61338e565b5b828204905092915050565b60006131a4826132a5565b91506131af836132a5565b9250817fffffffffffffffffffffffffffffffffffffffffffffffffffffffffffffffff04831182151516156131e8576131e761335f565b5b828202905092915050565b60006131fe826132a5565b9150613209836132a5565b92508282101561321c5761321b61335f565b5b828203905092915050565b600061323282613285565b9050919050565b600061324482613285565b9050919050565b60008115159050919050565b6000819050919050565b600061326c82613227565b9050919050565b600061327e82613227565b9050919050565b600073ffffffffffffffffffffffffffffffffffffffff82169050919050565b6000819050919050565b600060ff82169050919050565b60006132c7826132f2565b9050919050565b60006132d9826132e0565b9050919050565b60006132eb82613285565b9050919050565b60006132fd82613304565b9050919050565b600061330f82613285565b9050919050565b6000613321826132a5565b91507fffffffffffffffffffffffffffffffffffffffffffffffffffffffffffffffff8214156133545761335361335f565b5b600182019050919050565b7f4e487b7100000000000000000000000000000000000000000000000000000000600052601160045260246000fd5b7f4e487b7100000000000000000000000000000000000000000000000000000000600052601260045260246000fd5b7f41756374696f6e2073686f756c64206e6f7420626520656e6465642e00000000600082015250565b7f5072696365206d7573742062652067726561746572207468616e207a65726f00600082015250565b7f4e465420697320616c726561647920636c61696d65642e000000000000000000600082015250565b7f6e6f7420656e6f75676820657468657220746f20636f766572206974656d207060008201527f7269636520616e64206d61726b65742066656500000000000000000000000000602082015250565b7f41756374696f6e20697320616c726561647920636c61696d65642e0000000000600082015250565b7f41756374696f6e2069642073686f756c6420626520626967676572207468616e60008201527f207a65726f2e0000000000000000000000000000000000000000000000000000602082015250565b7f6974656d20646f65736e27742065786973740000000000000000000000000000600082015250565b7f4974656d2069642073686f756c6420626520626967676572207468616e207a6560008201527f726f2e0000000000000000000000000000000000000000000000000000000000602082015250565b7f41756374696f6e2073686f756c6420656e642066697273742e00000000000000600082015250565b7f4f6e6c79206d61726b6574706c616365206974656d732063616e20626520616360008201527f6365707465640000000000000000000000000000000000000000000000000000602082015250565b7f4f6e6c792077696e6e6572206f722073656c6c65722063616e2072756e20746860008201527f69732066756e6374696f6e2e0000000000000000000000000000000000000000602082015250565b7f41756374696f6e2069642073686f756c6420626520626967676572207468616e60008201527f207a65726f000000000000000000000000000000000000000000000000000000602082015250565b7f4f6666657220646561646c696e65206973206578636565646564000000000000600082015250565b7f70726963652073686f756c642062652067726561746572207468616e207a657260008201527f6f00000000000000000000000000000000000000000000000000000000000000602082015250565b7f6661696c656420746f2073656e6420457468657220746f2073656c6c65720000600082015250565b7f4974656d20697320616c726561647920736f6c642e0000000000000000000000600082015250565b50565b7f4f6e6c792073656c6c65722063616e2063616e63656c2074686973206974656d60008201527f2e00000000000000000000000000000000000000000000000000000000000000602082015250565b7f6661696c656420746f2073656e6420457468657220746f206665654163636f7560008201527f6e74000000000000000000000000000000000000000000000000000000000000602082015250565b7f50726963652073686f756c642062652067726561746572207468616e2063757260008201527f72656e742070726963652e000000000000000000000000000000000000000000602082015250565b7f5265656e7472616e637947756172643a207265656e7472616e742063616c6c00600082015250565b7f6974656d20616c726561647920736f6c64206f722063616e63656c6564000000600082015250565b7f4f6e6c792073656c6c65722063616e2063616e63656c2074686973206175637460008201527f696f6e2e00000000000000000000000000000000000000000000000000000000602082015250565b6138f181613227565b81146138fc57600080fd5b50565b6139088161324b565b811461391357600080fd5b50565b61391f81613257565b811461392a57600080fd5b50565b61393681613261565b811461394157600080fd5b50565b61394d81613273565b811461395857600080fd5b50565b613964816132a5565b811461396f57600080fd5b50565b61397b816132af565b811461398657600080fd5b5056fea2646970667358221220407f6fad46f066c23069cfec06d518e1b12f7a4df5aab362d67dfc116e58546a64736f6c63430008040033",
  "linkReferences": {},
  "deployedLinkReferences": {}
}