{
  "_format": "hh-sol-artifact-1",
  "contractName": "Marketplace",
  "sourceName": "libs/contracts/src/contracts/Marketplace.sol",
  "abi": [
    {
      "inputs": [
        {
          "internalType": "uint256",
          "name": "_feePercent",
          "type": "uint256"
        }
      ],
      "stateMutability": "nonpayable",
      "type": "constructor"
    },
    {
      "anonymous": false,
      "inputs": [
        {
          "indexed": false,
          "internalType": "uint256",
          "name": "auctionId",
          "type": "uint256"
        }
      ],
      "name": "AuctionCanceled",
      "type": "event"
    },
    {
      "anonymous": false,
      "inputs": [
        {
          "indexed": false,
          "internalType": "uint256",
          "name": "auctionId",
          "type": "uint256"
        },
        {
          "indexed": false,
          "internalType": "address",
          "name": "nft",
          "type": "address"
        },
        {
          "indexed": true,
          "internalType": "uint256",
          "name": "tokenId",
          "type": "uint256"
        },
        {
          "indexed": false,
          "internalType": "uint256",
          "name": "price",
          "type": "uint256"
        },
        {
          "indexed": true,
          "internalType": "address",
          "name": "seller",
          "type": "address"
        },
        {
          "indexed": true,
          "internalType": "address",
          "name": "buyer",
          "type": "address"
        }
      ],
      "name": "AuctionEnded",
      "type": "event"
    },
    {
      "anonymous": false,
      "inputs": [
        {
          "indexed": false,
          "internalType": "uint256",
          "name": "auctionId",
          "type": "uint256"
        },
        {
          "indexed": false,
          "internalType": "address",
          "name": "nft",
          "type": "address"
        },
        {
          "indexed": true,
          "internalType": "uint256",
          "name": "tokenId",
          "type": "uint256"
        },
        {
          "indexed": false,
          "internalType": "uint256",
          "name": "price",
          "type": "uint256"
        },
        {
          "indexed": false,
          "internalType": "uint256",
          "name": "timeToEnd",
          "type": "uint256"
        },
        {
          "indexed": true,
          "internalType": "address",
          "name": "seller",
          "type": "address"
        }
      ],
      "name": "AuctionStarted",
      "type": "event"
    },
    {
      "anonymous": false,
      "inputs": [
        {
          "indexed": false,
          "internalType": "uint256",
          "name": "itemId",
          "type": "uint256"
        },
        {
          "indexed": false,
          "internalType": "address",
          "name": "nft",
          "type": "address"
        },
        {
          "indexed": true,
          "internalType": "uint256",
          "name": "tokenId",
          "type": "uint256"
        },
        {
          "indexed": false,
          "internalType": "uint256",
          "name": "price",
          "type": "uint256"
        },
        {
          "indexed": true,
          "internalType": "address",
          "name": "seller",
          "type": "address"
        },
        {
          "indexed": true,
          "internalType": "address",
          "name": "buyer",
          "type": "address"
        }
      ],
      "name": "Bought",
      "type": "event"
    },
    {
      "anonymous": false,
      "inputs": [
        {
          "indexed": false,
          "internalType": "uint256",
          "name": "itemId",
          "type": "uint256"
        }
      ],
      "name": "OfferCanceled",
      "type": "event"
    },
    {
      "anonymous": false,
      "inputs": [
        {
          "indexed": false,
          "internalType": "uint256",
          "name": "itemId",
          "type": "uint256"
        },
        {
          "indexed": false,
          "internalType": "address",
          "name": "nft",
          "type": "address"
        },
        {
          "indexed": true,
          "internalType": "uint256",
          "name": "tokenId",
          "type": "uint256"
        },
        {
          "indexed": false,
          "internalType": "uint256",
          "name": "price",
          "type": "uint256"
        },
        {
          "indexed": true,
          "internalType": "address",
          "name": "seller",
          "type": "address"
        }
      ],
      "name": "Offered",
      "type": "event"
    },
    {
      "anonymous": false,
      "inputs": [
        {
          "indexed": true,
          "internalType": "address",
          "name": "previousOwner",
          "type": "address"
        },
        {
          "indexed": true,
          "internalType": "address",
          "name": "newOwner",
          "type": "address"
        }
      ],
      "name": "OwnershipTransferred",
      "type": "event"
    },
    {
      "stateMutability": "nonpayable",
      "type": "fallback"
    },
    {
      "inputs": [
        {
          "internalType": "contract IERC20Permit",
          "name": "erc20",
          "type": "address"
        },
        {
          "internalType": "contract IERC721",
          "name": "nft",
          "type": "address"
        },
        {
          "internalType": "uint256",
          "name": "_tokenId",
          "type": "uint256"
        },
        {
          "internalType": "uint256",
          "name": "_itemId",
          "type": "uint256"
        },
        {
          "internalType": "bool",
          "name": "isOnSale",
          "type": "bool"
        },
        {
          "internalType": "uint256",
          "name": "deadline",
          "type": "uint256"
        },
        {
          "internalType": "address",
          "name": "offerer",
          "type": "address"
        },
        {
          "internalType": "uint256",
          "name": "amount",
          "type": "uint256"
        },
        {
          "internalType": "uint8",
          "name": "_v",
          "type": "uint8"
        },
        {
          "internalType": "bytes32",
          "name": "_r",
          "type": "bytes32"
        },
        {
          "internalType": "bytes32",
          "name": "_s",
          "type": "bytes32"
        }
      ],
      "name": "acceptERCOffer",
      "outputs": [],
      "stateMutability": "nonpayable",
      "type": "function"
    },
    {
      "inputs": [],
      "name": "auctionItemCount",
      "outputs": [
        {
          "internalType": "uint256",
          "name": "",
          "type": "uint256"
        }
      ],
      "stateMutability": "view",
      "type": "function"
    },
    {
      "inputs": [
        {
          "internalType": "uint256",
          "name": "",
          "type": "uint256"
        }
      ],
      "name": "auctionItems",
      "outputs": [
        {
          "internalType": "uint256",
          "name": "auctionId",
          "type": "uint256"
        },
        {
          "internalType": "contract IERC721",
          "name": "nft",
          "type": "address"
        },
        {
          "internalType": "uint256",
          "name": "tokenId",
          "type": "uint256"
        },
        {
          "internalType": "uint256",
          "name": "price",
          "type": "uint256"
        },
        {
          "internalType": "uint256",
          "name": "timeToEnd",
          "type": "uint256"
        },
        {
          "internalType": "address payable",
          "name": "seller",
          "type": "address"
        },
        {
          "internalType": "bool",
          "name": "claimed",
          "type": "bool"
        },
        {
          "internalType": "bool",
          "name": "canceled",
          "type": "bool"
        }
      ],
      "stateMutability": "view",
      "type": "function"
    },
    {
      "inputs": [
        {
          "internalType": "uint256",
          "name": "_auctionId",
          "type": "uint256"
        }
      ],
      "name": "cancelAuction",
      "outputs": [],
      "stateMutability": "nonpayable",
      "type": "function"
    },
    {
      "inputs": [
        {
          "internalType": "uint256",
          "name": "_itemId",
          "type": "uint256"
        }
      ],
      "name": "cancelOffered",
      "outputs": [],
      "stateMutability": "nonpayable",
      "type": "function"
    },
    {
      "inputs": [
        {
          "internalType": "address payable",
          "name": "_feeAccount",
          "type": "address"
        }
      ],
      "name": "changeFeeAccount",
      "outputs": [],
      "stateMutability": "nonpayable",
      "type": "function"
    },
    {
      "inputs": [
        {
          "internalType": "uint256",
          "name": "_feePercent",
          "type": "uint256"
        }
      ],
      "name": "changeFeePercent",
      "outputs": [],
      "stateMutability": "nonpayable",
      "type": "function"
    },
    {
      "inputs": [
        {
          "internalType": "contract IERC20Permit",
          "name": "erc20",
          "type": "address"
        },
        {
          "internalType": "uint256",
          "name": "_tokenId",
          "type": "uint256"
        },
        {
          "internalType": "uint256",
          "name": "_auctionId",
          "type": "uint256"
        },
        {
          "internalType": "uint256",
          "name": "deadline",
          "type": "uint256"
        },
        {
          "internalType": "address",
          "name": "bidder",
          "type": "address"
        },
        {
          "internalType": "uint256",
          "name": "amount",
          "type": "uint256"
        },
        {
          "internalType": "uint8",
          "name": "_v",
          "type": "uint8"
        },
        {
          "internalType": "bytes32",
          "name": "_r",
          "type": "bytes32"
        },
        {
          "internalType": "bytes32",
          "name": "_s",
          "type": "bytes32"
        }
      ],
      "name": "claimNFT",
      "outputs": [],
      "stateMutability": "nonpayable",
      "type": "function"
    },
    {
      "inputs": [],
      "name": "feeAccount",
      "outputs": [
        {
          "internalType": "address payable",
          "name": "",
          "type": "address"
        }
      ],
      "stateMutability": "view",
      "type": "function"
    },
    {
      "inputs": [],
      "name": "feePercent",
      "outputs": [
        {
          "internalType": "uint256",
          "name": "",
          "type": "uint256"
        }
      ],
      "stateMutability": "view",
      "type": "function"
    },
    {
      "inputs": [
        {
          "internalType": "uint256",
          "name": "_itemId",
          "type": "uint256"
        }
      ],
      "name": "getTotalPrice",
      "outputs": [
        {
          "internalType": "uint256",
          "name": "",
          "type": "uint256"
        }
      ],
      "stateMutability": "view",
      "type": "function"
    },
    {
      "inputs": [],
      "name": "itemCount",
      "outputs": [
        {
          "internalType": "uint256",
          "name": "",
          "type": "uint256"
        }
      ],
      "stateMutability": "view",
      "type": "function"
    },
    {
      "inputs": [
        {
          "internalType": "uint256",
          "name": "",
          "type": "uint256"
        }
      ],
      "name": "items",
      "outputs": [
        {
          "internalType": "uint256",
          "name": "itemId",
          "type": "uint256"
        },
        {
          "internalType": "contract IERC721",
          "name": "nft",
          "type": "address"
        },
        {
          "internalType": "uint256",
          "name": "tokenId",
          "type": "uint256"
        },
        {
          "internalType": "uint256",
          "name": "price",
          "type": "uint256"
        },
        {
          "internalType": "address payable",
          "name": "seller",
          "type": "address"
        },
        {
          "internalType": "bool",
          "name": "sold",
          "type": "bool"
        },
        {
          "internalType": "bool",
          "name": "canceled",
          "type": "bool"
        }
      ],
      "stateMutability": "view",
      "type": "function"
    },
    {
      "inputs": [
        {
          "internalType": "contract IERC721",
          "name": "_nft",
          "type": "address"
        },
        {
          "internalType": "uint256",
          "name": "_tokenId",
          "type": "uint256"
        },
        {
          "internalType": "uint256",
          "name": "_price",
          "type": "uint256"
        }
      ],
      "name": "makeItem",
      "outputs": [],
      "stateMutability": "nonpayable",
      "type": "function"
    },
    {
      "inputs": [],
      "name": "owner",
      "outputs": [
        {
          "internalType": "address",
          "name": "",
          "type": "address"
        }
      ],
      "stateMutability": "view",
      "type": "function"
    },
    {
      "inputs": [
        {
          "internalType": "uint256",
          "name": "_itemId",
          "type": "uint256"
        }
      ],
      "name": "purchaseItem",
      "outputs": [],
      "stateMutability": "payable",
      "type": "function"
    },
    {
      "inputs": [
        {
          "internalType": "uint256[]",
          "name": "_itemIds",
          "type": "uint256[]"
        }
      ],
      "name": "purchaseItem_multiple",
      "outputs": [],
      "stateMutability": "payable",
      "type": "function"
    },
    {
      "inputs": [],
      "name": "renounceOwnership",
      "outputs": [],
      "stateMutability": "nonpayable",
      "type": "function"
    },
    {
      "inputs": [
        {
          "internalType": "contract IERC721",
          "name": "_nft",
          "type": "address"
        },
        {
          "internalType": "uint256",
          "name": "_tokenId",
          "type": "uint256"
        },
        {
          "internalType": "uint256",
          "name": "_price",
          "type": "uint256"
        },
        {
          "internalType": "uint256",
          "name": "_timeToEnd",
          "type": "uint256"
        }
      ],
      "name": "startAuction",
      "outputs": [],
      "stateMutability": "nonpayable",
      "type": "function"
    },
    {
      "inputs": [
        {
          "internalType": "address",
          "name": "newOwner",
          "type": "address"
        }
      ],
      "name": "transferOwnership",
      "outputs": [],
      "stateMutability": "nonpayable",
      "type": "function"
    }
  ],
  "bytecode": "0x60806040523480156200001157600080fd5b5060405162003d8238038062003d828339818101604052810190620000379190620001e8565b60016000819055506200005f620000536200010360201b60201c565b6200010b60201b60201c565b6000811015801562000072575060648111155b620000b4576040517f08c379a0000000000000000000000000000000000000000000000000000000008152600401620000ab906200023b565b60405180910390fd5b33600260006101000a81548173ffffffffffffffffffffffffffffffffffffffff021916908373ffffffffffffffffffffffffffffffffffffffff1602179055508060038190555050620002e1565b600033905090565b6000600160009054906101000a900473ffffffffffffffffffffffffffffffffffffffff16905081600160006101000a81548173ffffffffffffffffffffffffffffffffffffffff021916908373ffffffffffffffffffffffffffffffffffffffff1602179055508173ffffffffffffffffffffffffffffffffffffffff168173ffffffffffffffffffffffffffffffffffffffff167f8be0079c531659141344cd1fd0a4f28419497f9722a3daafe3b4186f6b6457e060405160405180910390a35050565b600081519050620001e281620002c7565b92915050565b600060208284031215620001fb57600080fd5b60006200020b84828501620001d1565b91505092915050565b6000620002236024836200025d565b9150620002308262000278565b604082019050919050565b60006020820190508181036000830152620002568162000214565b9050919050565b600082825260208201905092915050565b6000819050919050565b7f66656550657263656e74206d757374206265206265747765656e203020616e6460008201527f2031303000000000000000000000000000000000000000000000000000000000602082015250565b620002d2816200026e565b8114620002de57600080fd5b50565b613a9180620002f16000396000f3fe6080604052600436106101235760003560e01c806396b5a755116100a0578063d2c069f011610064578063d2c069f0146103b1578063d38ea5bf146103f5578063f2fde38b14610411578063fa00afc71461043a578063fe6d7a6e1461046357610124565b806396b5a755146102b65780639c166273146102df578063bcd10f9a14610308578063bfb231d214610331578063ca7dd3751461037457610124565b806371ffcb16116100e757806371ffcb16146101f25780637ee53f0f1461021b5780637fd6f15c146102445780638da5cb5b1461026f57806392dab8111461029a57610124565b806334eddf3e1461013357806365e17c9d1461015c57806369244fe0146101875780636bfb0d01146101b0578063715018a6146101db57610124565b5b34801561013057600080fd5b50005b34801561013f57600080fd5b5061015a6004803603810190610155919061285c565b61048e565b005b34801561016857600080fd5b506101716104f1565b60405161017e9190612c75565b60405180910390f35b34801561019357600080fd5b506101ae60048036038101906101a991906125f4565b610517565b005b3480156101bc57600080fd5b506101c56109c4565b6040516101d2919061304d565b60405180910390f35b3480156101e757600080fd5b506101f06109ca565b005b3480156101fe57600080fd5b506102196004803603810190610214919061255d565b6109de565b005b34801561022757600080fd5b50610242600480360381019061023d919061285c565b610a2a565b005b34801561025057600080fd5b50610259610c67565b604051610266919061304d565b60405180910390f35b34801561027b57600080fd5b50610284610c6d565b6040516102919190612c5a565b60405180910390f35b6102b460048036038101906102af9190612586565b610c97565b005b3480156102c257600080fd5b506102dd60048036038101906102d8919061285c565b61103e565b005b3480156102eb57600080fd5b50610306600480360381019061030191906127f9565b6112c1565b005b34801561031457600080fd5b5061032f600480360381019061032a91906126e4565b61156e565b005b34801561033d57600080fd5b506103586004803603810190610353919061285c565b61190e565b60405161036b97969594939291906130e4565b60405180910390f35b34801561038057600080fd5b5061039b6004803603810190610396919061285c565b6119aa565b6040516103a8919061304d565b60405180910390f35b3480156103bd57600080fd5b506103d860048036038101906103d3919061285c565b6119ef565b6040516103ec989796959493929190613153565b60405180910390f35b61040f600480360381019061040a919061285c565b611a91565b005b34801561041d57600080fd5b506104386004803603810190610433919061250b565b611eec565b005b34801561044657600080fd5b50610461600480360381019061045c91906127aa565b611f70565b005b34801561046f57600080fd5b50610478612209565b604051610485919061304d565b60405180910390f35b61049661220f565b600081101580156104a8575060648111155b6104e7576040517f08c379a00000000000000000000000000000000000000000000000000000000081526004016104de90612e2d565b60405180910390fd5b8060038190555050565b600260009054906101000a900473ffffffffffffffffffffffffffffffffffffffff1681565b61051f61228d565b854210610561576040517f08c379a000000000000000000000000000000000000000000000000000000000815260040161055890612f2d565b60405180910390fd5b8973ffffffffffffffffffffffffffffffffffffffff16636352211e8a6040518263ffffffff1660e01b815260040161059a919061304d565b60206040518083038186803b1580156105b257600080fd5b505afa1580156105c6573d6000803e3d6000fd5b505050506040513d601f19601f820116820180604052508101906105ea9190612534565b73ffffffffffffffffffffffffffffffffffffffff163073ffffffffffffffffffffffffffffffffffffffff1614610657576040517f08c379a000000000000000000000000000000000000000000000000000000000815260040161064e90612ecd565b60405180910390fd5b8a73ffffffffffffffffffffffffffffffffffffffff1663d505accf8630878a8888886040518863ffffffff1660e01b815260040161069c9796959493929190612cfe565b600060405180830381600087803b1580156106b657600080fd5b505af11580156106ca573d6000803e3d6000fd5b505050508a73ffffffffffffffffffffffffffffffffffffffff166323b872dd8633876040518463ffffffff1660e01b815260040161070b93929190612cc7565b602060405180830381600087803b15801561072557600080fd5b505af1158015610739573d6000803e3d6000fd5b505050506040513d601f19601f8201168201806040525081019061075d91906125cb565b508973ffffffffffffffffffffffffffffffffffffffff166323b872dd30878c6040518463ffffffff1660e01b815260040161079b93929190612cc7565b600060405180830381600087803b1580156107b557600080fd5b505af11580156107c9573d6000803e3d6000fd5b5050505086156108c3576000600660008a8152602001908152602001600020905060018160040160146101000a81548160ff0219169083151502179055508573ffffffffffffffffffffffffffffffffffffffff168160040160009054906101000a900473ffffffffffffffffffffffffffffffffffffffff1673ffffffffffffffffffffffffffffffffffffffff1682600201547f8b4c9c8a607d67b321582dd8461041b1dc2ceeca70c8b7f37f8e02095cf2e76d8c8560010160009054906101000a900473ffffffffffffffffffffffffffffffffffffffff168a6040516108b593929190613068565b60405180910390a4506109af565b6000600760008a8152602001908152602001600020905060018160050160146101000a81548160ff0219169083151502179055508573ffffffffffffffffffffffffffffffffffffffff168160050160009054906101000a900473ffffffffffffffffffffffffffffffffffffffff1673ffffffffffffffffffffffffffffffffffffffff1682600201547fe9c76f3cd26822fab39fde36b56736739a684a806c8c0cf5eacd75511797ca7b8c8560010160009054906101000a900473ffffffffffffffffffffffffffffffffffffffff168a6040516109a593929190613068565b60405180910390a4505b6109b76122dd565b5050505050505050505050565b60045481565b6109d261220f565b6109dc60006122e7565b565b6109e661220f565b80600260006101000a81548173ffffffffffffffffffffffffffffffffffffffff021916908373ffffffffffffffffffffffffffffffffffffffff16021790555050565b610a3261228d565b60008111610a75576040517f08c379a0000000000000000000000000000000000000000000000000000000008152600401610a6c90612e8d565b60405180910390fd5b60006006600083815260200190815260200160002090503373ffffffffffffffffffffffffffffffffffffffff168160040160009054906101000a900473ffffffffffffffffffffffffffffffffffffffff1673ffffffffffffffffffffffffffffffffffffffff1614610b1e576040517f08c379a0000000000000000000000000000000000000000000000000000000008152600401610b1590612fad565b60405180910390fd5b8060040160149054906101000a900460ff1615610b70576040517f08c379a0000000000000000000000000000000000000000000000000000000008152600401610b6790612f8d565b60405180910390fd5b60018160040160156101000a81548160ff0219169083151502179055508060010160009054906101000a900473ffffffffffffffffffffffffffffffffffffffff1673ffffffffffffffffffffffffffffffffffffffff166342842e0e303384600201546040518463ffffffff1660e01b8152600401610bf293929190612cc7565b600060405180830381600087803b158015610c0c57600080fd5b505af1158015610c20573d6000803e3d6000fd5b505050507f0ff09947dd7d2583091e8cbfb427fecacb697bf895187b243fd0072c0ee9b95182604051610c53919061304d565b60405180910390a150610c646122dd565b50565b60035481565b6000600160009054906101000a900473ffffffffffffffffffffffffffffffffffffffff16905090565b610c9f61228d565b60005b82829050811015610f5a576000838383818110610ce8577f4e487b7100000000000000000000000000000000000000000000000000000000600052603260045260246000fd5b905060200201359050600060066000838152602001908152602001600020905060008160040160009054906101000a900473ffffffffffffffffffffffffffffffffffffffff1673ffffffffffffffffffffffffffffffffffffffff168260030154604051610d5690612c45565b60006040518083038185875af1925050503d8060008114610d93576040519150601f19603f3d011682016040523d82523d6000602084013e610d98565b606091505b5050905080610ddc576040517f08c379a0000000000000000000000000000000000000000000000000000000008152600401610dd390612f6d565b60405180910390fd5b60018260040160146101000a81548160ff0219169083151502179055508160010160009054906101000a900473ffffffffffffffffffffffffffffffffffffffff1673ffffffffffffffffffffffffffffffffffffffff166342842e0e303385600201546040518463ffffffff1660e01b8152600401610e5e93929190612cc7565b600060405180830381600087803b158015610e7857600080fd5b505af1158015610e8c573d6000803e3d6000fd5b505050503373ffffffffffffffffffffffffffffffffffffffff168260040160009054906101000a900473ffffffffffffffffffffffffffffffffffffffff1673ffffffffffffffffffffffffffffffffffffffff1683600201547f8b4c9c8a607d67b321582dd8461041b1dc2ceeca70c8b7f37f8e02095cf2e76d868660010160009054906101000a900473ffffffffffffffffffffffffffffffffffffffff168760030154604051610f4293929190613068565b60405180910390a48380600101945050505050610ca2565b506000600260009054906101000a900473ffffffffffffffffffffffffffffffffffffffff1673ffffffffffffffffffffffffffffffffffffffff16610f9f346123ad565b604051610fab90612c45565b60006040518083038185875af1925050503d8060008114610fe8576040519150601f19603f3d011682016040523d82523d6000602084013e610fed565b606091505b5050905080611031576040517f08c379a000000000000000000000000000000000000000000000000000000000815260040161102890612fcd565b60405180910390fd5b5061103a6122dd565b5050565b61104661228d565b60008111611089576040517f08c379a000000000000000000000000000000000000000000000000000000000815260040161108090612e4d565b60405180910390fd5b60006007600083815260200190815260200160002090503373ffffffffffffffffffffffffffffffffffffffff168160050160009054906101000a900473ffffffffffffffffffffffffffffffffffffffff1673ffffffffffffffffffffffffffffffffffffffff1614611132576040517f08c379a00000000000000000000000000000000000000000000000000000000081526004016111299061302d565b60405180910390fd5b8060050160149054906101000a900460ff1615611184576040517f08c379a000000000000000000000000000000000000000000000000000000000815260040161117b90612e0d565b60405180910390fd5b806004015442106111ca576040517f08c379a00000000000000000000000000000000000000000000000000000000081526004016111c190612d6d565b60405180910390fd5b60018160050160156101000a81548160ff0219169083151502179055508060010160009054906101000a900473ffffffffffffffffffffffffffffffffffffffff1673ffffffffffffffffffffffffffffffffffffffff166323b872dd303384600201546040518463ffffffff1660e01b815260040161124c93929190612cc7565b600060405180830381600087803b15801561126657600080fd5b505af115801561127a573d6000803e3d6000fd5b505050507f28601d865dccc9f113e15a7185c1b38c085d598c71250d3337916a428536d771826040516112ad919061304d565b60405180910390a1506112be6122dd565b50565b6112c961228d565b6000821161130c576040517f08c379a000000000000000000000000000000000000000000000000000000000815260040161130390612f4d565b60405180910390fd5b6005600081548092919060010191905055508373ffffffffffffffffffffffffffffffffffffffff166323b872dd3330866040518463ffffffff1660e01b815260040161135b93929190612cc7565b600060405180830381600087803b15801561137557600080fd5b505af1158015611389573d6000803e3d6000fd5b5050505060405180610100016040528060055481526020018573ffffffffffffffffffffffffffffffffffffffff1681526020018481526020018381526020018281526020013373ffffffffffffffffffffffffffffffffffffffff168152602001600015158152602001600015158152506007600060055481526020019081526020016000206000820151816000015560208201518160010160006101000a81548173ffffffffffffffffffffffffffffffffffffffff021916908373ffffffffffffffffffffffffffffffffffffffff16021790555060408201518160020155606082015181600301556080820151816004015560a08201518160050160006101000a81548173ffffffffffffffffffffffffffffffffffffffff021916908373ffffffffffffffffffffffffffffffffffffffff16021790555060c08201518160050160146101000a81548160ff02191690831515021790555060e08201518160050160156101000a81548160ff0219169083151502179055509050503373ffffffffffffffffffffffffffffffffffffffff16837fd184fdb1358a28e5370b7ea6f753efc3313b7fd11d6750f270cf79f109a63f17600554878686604051611558949392919061309f565b60405180910390a36115686122dd565b50505050565b61157661228d565b600087116115b9576040517f08c379a00000000000000000000000000000000000000000000000000000000081526004016115b090612eed565b60405180910390fd5b60006007600089815260200190815260200160002090508060040154421015611617576040517f08c379a000000000000000000000000000000000000000000000000000000000815260040161160e90612ead565b60405180910390fd5b8060050160149054906101000a900460ff1615611669576040517f08c379a000000000000000000000000000000000000000000000000000000000815260040161166090612dcd565b60405180910390fd5b8973ffffffffffffffffffffffffffffffffffffffff1663d505accf8730888b8989896040518863ffffffff1660e01b81526004016116ae9796959493929190612cfe565b600060405180830381600087803b1580156116c857600080fd5b505af11580156116dc573d6000803e3d6000fd5b505050508973ffffffffffffffffffffffffffffffffffffffff166323b872dd878360050160009054906101000a900473ffffffffffffffffffffffffffffffffffffffff16886040518463ffffffff1660e01b815260040161174193929190612c90565b602060405180830381600087803b15801561175b57600080fd5b505af115801561176f573d6000803e3d6000fd5b505050506040513d601f19601f8201168201806040525081019061179391906125cb565b508060010160009054906101000a900473ffffffffffffffffffffffffffffffffffffffff1673ffffffffffffffffffffffffffffffffffffffff166323b872dd30888c6040518463ffffffff1660e01b81526004016117f593929190612cc7565b600060405180830381600087803b15801561180f57600080fd5b505af1158015611823573d6000803e3d6000fd5b5050505060018160050160146101000a81548160ff0219169083151502179055508573ffffffffffffffffffffffffffffffffffffffff168160050160009054906101000a900473ffffffffffffffffffffffffffffffffffffffff1673ffffffffffffffffffffffffffffffffffffffff1682600201547fe9c76f3cd26822fab39fde36b56736739a684a806c8c0cf5eacd75511797ca7b8b8560010160009054906101000a900473ffffffffffffffffffffffffffffffffffffffff168a6040516118f293929190613068565b60405180910390a4506119036122dd565b505050505050505050565b60066020528060005260406000206000915090508060000154908060010160009054906101000a900473ffffffffffffffffffffffffffffffffffffffff16908060020154908060030154908060040160009054906101000a900473ffffffffffffffffffffffffffffffffffffffff16908060040160149054906101000a900460ff16908060040160159054906101000a900460ff16905087565b6000606460035460646119bd91906131ed565b60066000858152602001908152602001600020600301546119de9190613274565b6119e89190613243565b9050919050565b60076020528060005260406000206000915090508060000154908060010160009054906101000a900473ffffffffffffffffffffffffffffffffffffffff16908060020154908060030154908060040154908060050160009054906101000a900473ffffffffffffffffffffffffffffffffffffffff16908060050160149054906101000a900460ff16908060050160159054906101000a900460ff16905088565b611a9961228d565b6000611aa4826119aa565b90506000600660008481526020019081526020016000209050600083118015611acf57506004548311155b611b0e576040517f08c379a0000000000000000000000000000000000000000000000000000000008152600401611b0590612e6d565b60405180910390fd5b81341015611b51576040517f08c379a0000000000000000000000000000000000000000000000000000000008152600401611b4890612ded565b60405180910390fd5b8060040160149054906101000a900460ff16158015611b7f57508060040160159054906101000a900460ff16155b611bbe576040517f08c379a0000000000000000000000000000000000000000000000000000000008152600401611bb59061300d565b60405180910390fd5b60008160040160009054906101000a900473ffffffffffffffffffffffffffffffffffffffff1673ffffffffffffffffffffffffffffffffffffffff168260030154604051611c0c90612c45565b60006040518083038185875af1925050503d8060008114611c49576040519150601f19603f3d011682016040523d82523d6000602084013e611c4e565b606091505b5050905080611c92576040517f08c379a0000000000000000000000000000000000000000000000000000000008152600401611c8990612f6d565b60405180910390fd5b6000600260009054906101000a900473ffffffffffffffffffffffffffffffffffffffff1673ffffffffffffffffffffffffffffffffffffffff16836003015485611cdd91906132ce565b604051611ce990612c45565b60006040518083038185875af1925050503d8060008114611d26576040519150601f19603f3d011682016040523d82523d6000602084013e611d2b565b606091505b5050905080611d6f576040517f08c379a0000000000000000000000000000000000000000000000000000000008152600401611d6690612fcd565b60405180910390fd5b60018360040160146101000a81548160ff0219169083151502179055508260010160009054906101000a900473ffffffffffffffffffffffffffffffffffffffff1673ffffffffffffffffffffffffffffffffffffffff166342842e0e303386600201546040518463ffffffff1660e01b8152600401611df193929190612cc7565b600060405180830381600087803b158015611e0b57600080fd5b505af1158015611e1f573d6000803e3d6000fd5b505050503373ffffffffffffffffffffffffffffffffffffffff168360040160009054906101000a900473ffffffffffffffffffffffffffffffffffffffff1673ffffffffffffffffffffffffffffffffffffffff1684600201547f8b4c9c8a607d67b321582dd8461041b1dc2ceeca70c8b7f37f8e02095cf2e76d888760010160009054906101000a900473ffffffffffffffffffffffffffffffffffffffff168860030154604051611ed593929190613068565b60405180910390a450505050611ee96122dd565b50565b611ef461220f565b600073ffffffffffffffffffffffffffffffffffffffff168173ffffffffffffffffffffffffffffffffffffffff161415611f64576040517f08c379a0000000000000000000000000000000000000000000000000000000008152600401611f5b90612dad565b60405180910390fd5b611f6d816122e7565b50565b611f7861228d565b60008111611fbb576040517f08c379a0000000000000000000000000000000000000000000000000000000008152600401611fb290612d8d565b60405180910390fd5b6004600081548092919060010191905055508273ffffffffffffffffffffffffffffffffffffffff166323b872dd3330856040518463ffffffff1660e01b815260040161200a93929190612cc7565b600060405180830381600087803b15801561202457600080fd5b505af1158015612038573d6000803e3d6000fd5b505050506040518060e0016040528060045481526020018473ffffffffffffffffffffffffffffffffffffffff1681526020018381526020018281526020013373ffffffffffffffffffffffffffffffffffffffff168152602001600015158152602001600015158152506006600060045481526020019081526020016000206000820151816000015560208201518160010160006101000a81548173ffffffffffffffffffffffffffffffffffffffff021916908373ffffffffffffffffffffffffffffffffffffffff160217905550604082015181600201556060820151816003015560808201518160040160006101000a81548173ffffffffffffffffffffffffffffffffffffffff021916908373ffffffffffffffffffffffffffffffffffffffff16021790555060a08201518160040160146101000a81548160ff02191690831515021790555060c08201518160040160156101000a81548160ff0219169083151502179055509050503373ffffffffffffffffffffffffffffffffffffffff16827f655a0cf9c8db81512be9a76dc1c5ae5380b8816ce6ad659cd61b715e2999d59a60045486856040516121f493929190613068565b60405180910390a36122046122dd565b505050565b60055481565b6122176123e7565b73ffffffffffffffffffffffffffffffffffffffff16612235610c6d565b73ffffffffffffffffffffffffffffffffffffffff161461228b576040517f08c379a000000000000000000000000000000000000000000000000000000000815260040161228290612f0d565b60405180910390fd5b565b600260005414156122d3576040517f08c379a00000000000000000000000000000000000000000000000000000000081526004016122ca90612fed565b60405180910390fd5b6002600081905550565b6001600081905550565b6000600160009054906101000a900473ffffffffffffffffffffffffffffffffffffffff16905081600160006101000a81548173ffffffffffffffffffffffffffffffffffffffff021916908373ffffffffffffffffffffffffffffffffffffffff1602179055508173ffffffffffffffffffffffffffffffffffffffff168173ffffffffffffffffffffffffffffffffffffffff167f8be0079c531659141344cd1fd0a4f28419497f9722a3daafe3b4186f6b6457e060405160405180910390a35050565b600060035460646123be91906131ed565b6064836123cb9190613274565b6123d59190613243565b826123e091906132ce565b9050919050565b600033905090565b6000813590506123fe816139a3565b92915050565b600081519050612413816139a3565b92915050565b600081359050612428816139ba565b92915050565b60008083601f84011261244057600080fd5b8235905067ffffffffffffffff81111561245957600080fd5b60208301915083602082028301111561247157600080fd5b9250929050565b600081359050612487816139d1565b92915050565b60008151905061249c816139d1565b92915050565b6000813590506124b1816139e8565b92915050565b6000813590506124c6816139ff565b92915050565b6000813590506124db81613a16565b92915050565b6000813590506124f081613a2d565b92915050565b60008135905061250581613a44565b92915050565b60006020828403121561251d57600080fd5b600061252b848285016123ef565b91505092915050565b60006020828403121561254657600080fd5b600061255484828501612404565b91505092915050565b60006020828403121561256f57600080fd5b600061257d84828501612419565b91505092915050565b6000806020838503121561259957600080fd5b600083013567ffffffffffffffff8111156125b357600080fd5b6125bf8582860161242e565b92509250509250929050565b6000602082840312156125dd57600080fd5b60006125eb8482850161248d565b91505092915050565b60008060008060008060008060008060006101608c8e03121561261657600080fd5b60006126248e828f016124b7565b9b505060206126358e828f016124cc565b9a505060406126468e828f016124e1565b99505060606126578e828f016124e1565b98505060806126688e828f01612478565b97505060a06126798e828f016124e1565b96505060c061268a8e828f016123ef565b95505060e061269b8e828f016124e1565b9450506101006126ad8e828f016124f6565b9350506101206126bf8e828f016124a2565b9250506101406126d18e828f016124a2565b9150509295989b509295989b9093969950565b60008060008060008060008060006101208a8c03121561270357600080fd5b60006127118c828d016124b7565b99505060206127228c828d016124e1565b98505060406127338c828d016124e1565b97505060606127448c828d016124e1565b96505060806127558c828d016123ef565b95505060a06127668c828d016124e1565b94505060c06127778c828d016124f6565b93505060e06127888c828d016124a2565b92505061010061279a8c828d016124a2565b9150509295985092959850929598565b6000806000606084860312156127bf57600080fd5b60006127cd868287016124cc565b93505060206127de868287016124e1565b92505060406127ef868287016124e1565b9150509250925092565b6000806000806080858703121561280f57600080fd5b600061281d878288016124cc565b945050602061282e878288016124e1565b935050604061283f878288016124e1565b9250506060612850878288016124e1565b91505092959194509250565b60006020828403121561286e57600080fd5b600061287c848285016124e1565b91505092915050565b61288e81613397565b82525050565b61289d81613314565b82525050565b6128ac81613302565b82525050565b6128bb81613326565b82525050565b6128ca81613332565b82525050565b6128d9816133a9565b82525050565b60006128ec601c836131dc565b91506128f78261344f565b602082019050919050565b600061290f601f836131dc565b915061291a82613478565b602082019050919050565b60006129326026836131dc565b915061293d826134a1565b604082019050919050565b60006129556017836131dc565b9150612960826134f0565b602082019050919050565b60006129786033836131dc565b915061298382613519565b604082019050919050565b600061299b601b836131dc565b91506129a682613568565b602082019050919050565b60006129be6024836131dc565b91506129c982613591565b604082019050919050565b60006129e16026836131dc565b91506129ec826135e0565b604082019050919050565b6000612a046012836131dc565b9150612a0f8261362f565b602082019050919050565b6000612a276023836131dc565b9150612a3282613658565b604082019050919050565b6000612a4a6019836131dc565b9150612a55826136a7565b602082019050919050565b6000612a6d6026836131dc565b9150612a78826136d0565b604082019050919050565b6000612a906025836131dc565b9150612a9b8261371f565b604082019050919050565b6000612ab36020836131dc565b9150612abe8261376e565b602082019050919050565b6000612ad6601a836131dc565b9150612ae182613797565b602082019050919050565b6000612af96021836131dc565b9150612b04826137c0565b604082019050919050565b6000612b1c601e836131dc565b9150612b278261380f565b602082019050919050565b6000612b3f6015836131dc565b9150612b4a82613838565b602082019050919050565b6000612b626000836131d1565b9150612b6d82613861565b600082019050919050565b6000612b856021836131dc565b9150612b9082613864565b604082019050919050565b6000612ba86022836131dc565b9150612bb3826138b3565b604082019050919050565b6000612bcb601f836131dc565b9150612bd682613902565b602082019050919050565b6000612bee601d836131dc565b9150612bf98261392b565b602082019050919050565b6000612c116024836131dc565b9150612c1c82613954565b604082019050919050565b612c3081613380565b82525050565b612c3f8161338a565b82525050565b6000612c5082612b55565b9150819050919050565b6000602082019050612c6f60008301846128a3565b92915050565b6000602082019050612c8a6000830184612894565b92915050565b6000606082019050612ca560008301866128a3565b612cb26020830185612885565b612cbf6040830184612c27565b949350505050565b6000606082019050612cdc60008301866128a3565b612ce960208301856128a3565b612cf66040830184612c27565b949350505050565b600060e082019050612d13600083018a6128a3565b612d2060208301896128a3565b612d2d6040830188612c27565b612d3a6060830187612c27565b612d476080830186612c36565b612d5460a08301856128c1565b612d6160c08301846128c1565b98975050505050505050565b60006020820190508181036000830152612d86816128df565b9050919050565b60006020820190508181036000830152612da681612902565b9050919050565b60006020820190508181036000830152612dc681612925565b9050919050565b60006020820190508181036000830152612de681612948565b9050919050565b60006020820190508181036000830152612e068161296b565b9050919050565b60006020820190508181036000830152612e268161298e565b9050919050565b60006020820190508181036000830152612e46816129b1565b9050919050565b60006020820190508181036000830152612e66816129d4565b9050919050565b60006020820190508181036000830152612e86816129f7565b9050919050565b60006020820190508181036000830152612ea681612a1a565b9050919050565b60006020820190508181036000830152612ec681612a3d565b9050919050565b60006020820190508181036000830152612ee681612a60565b9050919050565b60006020820190508181036000830152612f0681612a83565b9050919050565b60006020820190508181036000830152612f2681612aa6565b9050919050565b60006020820190508181036000830152612f4681612ac9565b9050919050565b60006020820190508181036000830152612f6681612aec565b9050919050565b60006020820190508181036000830152612f8681612b0f565b9050919050565b60006020820190508181036000830152612fa681612b32565b9050919050565b60006020820190508181036000830152612fc681612b78565b9050919050565b60006020820190508181036000830152612fe681612b9b565b9050919050565b6000602082019050818103600083015261300681612bbe565b9050919050565b6000602082019050818103600083015261302681612be1565b9050919050565b6000602082019050818103600083015261304681612c04565b9050919050565b60006020820190506130626000830184612c27565b92915050565b600060608201905061307d6000830186612c27565b61308a60208301856128a3565b6130976040830184612c27565b949350505050565b60006080820190506130b46000830187612c27565b6130c160208301866128a3565b6130ce6040830185612c27565b6130db6060830184612c27565b95945050505050565b600060e0820190506130f9600083018a612c27565b61310660208301896128d0565b6131136040830188612c27565b6131206060830187612c27565b61312d6080830186612894565b61313a60a08301856128b2565b61314760c08301846128b2565b98975050505050505050565b600061010082019050613169600083018b612c27565b613176602083018a6128d0565b6131836040830189612c27565b6131906060830188612c27565b61319d6080830187612c27565b6131aa60a0830186612894565b6131b760c08301856128b2565b6131c460e08301846128b2565b9998505050505050505050565b600081905092915050565b600082825260208201905092915050565b60006131f882613380565b915061320383613380565b9250827fffffffffffffffffffffffffffffffffffffffffffffffffffffffffffffffff03821115613238576132376133f1565b5b828201905092915050565b600061324e82613380565b915061325983613380565b92508261326957613268613420565b5b828204905092915050565b600061327f82613380565b915061328a83613380565b9250817fffffffffffffffffffffffffffffffffffffffffffffffffffffffffffffffff04831182151516156132c3576132c26133f1565b5b828202905092915050565b60006132d982613380565b91506132e483613380565b9250828210156132f7576132f66133f1565b5b828203905092915050565b600061330d82613360565b9050919050565b600061331f82613360565b9050919050565b60008115159050919050565b6000819050919050565b600061334782613302565b9050919050565b600061335982613302565b9050919050565b600073ffffffffffffffffffffffffffffffffffffffff82169050919050565b6000819050919050565b600060ff82169050919050565b60006133a2826133cd565b9050919050565b60006133b4826133bb565b9050919050565b60006133c682613360565b9050919050565b60006133d8826133df565b9050919050565b60006133ea82613360565b9050919050565b7f4e487b7100000000000000000000000000000000000000000000000000000000600052601160045260246000fd5b7f4e487b7100000000000000000000000000000000000000000000000000000000600052601260045260246000fd5b7f41756374696f6e2073686f756c64206e6f7420626520656e6465642e00000000600082015250565b7f5072696365206d7573742062652067726561746572207468616e207a65726f00600082015250565b7f4f776e61626c653a206e6577206f776e657220697320746865207a65726f206160008201527f6464726573730000000000000000000000000000000000000000000000000000602082015250565b7f4e465420697320616c726561647920636c61696d65642e000000000000000000600082015250565b7f6e6f7420656e6f75676820657468657220746f20636f766572206974656d207060008201527f7269636520616e64206d61726b65742066656500000000000000000000000000602082015250565b7f41756374696f6e20697320616c726561647920636c61696d65642e0000000000600082015250565b7f66656550657263656e74206d757374206265206265747765656e203020616e6460008201527f2031303000000000000000000000000000000000000000000000000000000000602082015250565b7f41756374696f6e2069642073686f756c6420626520626967676572207468616e60008201527f207a65726f2e0000000000000000000000000000000000000000000000000000602082015250565b7f6974656d20646f65736e27742065786973740000000000000000000000000000600082015250565b7f4974656d2069642073686f756c6420626520626967676572207468616e207a6560008201527f726f2e0000000000000000000000000000000000000000000000000000000000602082015250565b7f41756374696f6e2073686f756c6420656e642066697273742e00000000000000600082015250565b7f4f6e6c79206d61726b6574706c616365206974656d732063616e20626520616360008201527f6365707465640000000000000000000000000000000000000000000000000000602082015250565b7f41756374696f6e2069642073686f756c6420626520626967676572207468616e60008201527f207a65726f000000000000000000000000000000000000000000000000000000602082015250565b7f4f776e61626c653a2063616c6c6572206973206e6f7420746865206f776e6572600082015250565b7f4f6666657220646561646c696e65206973206578636565646564000000000000600082015250565b7f70726963652073686f756c642062652067726561746572207468616e207a657260008201527f6f00000000000000000000000000000000000000000000000000000000000000602082015250565b7f6661696c656420746f2073656e6420457468657220746f2073656c6c65720000600082015250565b7f4974656d20697320616c726561647920736f6c642e0000000000000000000000600082015250565b50565b7f4f6e6c792073656c6c65722063616e2063616e63656c2074686973206974656d60008201527f2e00000000000000000000000000000000000000000000000000000000000000602082015250565b7f6661696c656420746f2073656e6420457468657220746f206665654163636f7560008201527f6e74000000000000000000000000000000000000000000000000000000000000602082015250565b7f5265656e7472616e637947756172643a207265656e7472616e742063616c6c00600082015250565b7f6974656d20616c726561647920736f6c64206f722063616e63656c6564000000600082015250565b7f4f6e6c792073656c6c65722063616e2063616e63656c2074686973206175637460008201527f696f6e2e00000000000000000000000000000000000000000000000000000000602082015250565b6139ac81613302565b81146139b757600080fd5b50565b6139c381613314565b81146139ce57600080fd5b50565b6139da81613326565b81146139e557600080fd5b50565b6139f181613332565b81146139fc57600080fd5b50565b613a088161333c565b8114613a1357600080fd5b50565b613a1f8161334e565b8114613a2a57600080fd5b50565b613a3681613380565b8114613a4157600080fd5b50565b613a4d8161338a565b8114613a5857600080fd5b5056fea26469706673582212206ffdbb23259a5cc098b09be26d41fea6ff54dbf3063a8cb2a24eaea26e5f64c664736f6c63430008040033",
  "linkReferences": {},
  "deployedLinkReferences": {}
}