{
  "_format": "hh-sol-artifact-1",
  "contractName": "Marketplace",
  "sourceName": "libs/contracts/src/contracts/Marketplace.sol",
  "abi": [
    {
      "inputs": [
        {
          "internalType": "uint256",
          "name": "_feePercent",
          "type": "uint256"
        }
      ],
      "stateMutability": "nonpayable",
      "type": "constructor"
    },
    {
      "anonymous": false,
      "inputs": [
        {
          "indexed": false,
          "internalType": "uint256",
          "name": "auctionId",
          "type": "uint256"
        }
      ],
      "name": "AuctionCanceled",
      "type": "event"
    },
    {
      "anonymous": false,
      "inputs": [
        {
          "indexed": false,
          "internalType": "uint256",
          "name": "auctionId",
          "type": "uint256"
        },
        {
          "indexed": false,
          "internalType": "address",
          "name": "nft",
          "type": "address"
        },
        {
          "indexed": true,
          "internalType": "uint256",
          "name": "tokenId",
          "type": "uint256"
        },
        {
          "indexed": false,
          "internalType": "uint256",
          "name": "price",
          "type": "uint256"
        },
        {
          "indexed": true,
          "internalType": "address",
          "name": "seller",
          "type": "address"
        },
        {
          "indexed": true,
          "internalType": "address",
          "name": "buyer",
          "type": "address"
        }
      ],
      "name": "AuctionEnded",
      "type": "event"
    },
    {
      "anonymous": false,
      "inputs": [
        {
          "indexed": false,
          "internalType": "uint256",
          "name": "auctionId",
          "type": "uint256"
        },
        {
          "indexed": false,
          "internalType": "address",
          "name": "nft",
          "type": "address"
        },
        {
          "indexed": true,
          "internalType": "uint256",
          "name": "tokenId",
          "type": "uint256"
        },
        {
          "indexed": false,
          "internalType": "uint256",
          "name": "price",
          "type": "uint256"
        },
        {
          "indexed": false,
          "internalType": "uint256",
          "name": "timeToEnd",
          "type": "uint256"
        },
        {
          "indexed": true,
          "internalType": "address",
          "name": "seller",
          "type": "address"
        }
      ],
      "name": "AuctionStarted",
      "type": "event"
    },
    {
      "anonymous": false,
      "inputs": [
        {
          "indexed": false,
          "internalType": "uint256",
          "name": "auctionId",
          "type": "uint256"
        },
        {
          "indexed": false,
          "internalType": "address",
          "name": "bidder",
          "type": "address"
        },
        {
          "indexed": false,
          "internalType": "uint256",
          "name": "amount",
          "type": "uint256"
        }
      ],
      "name": "BidPlaced",
      "type": "event"
    },
    {
      "anonymous": false,
      "inputs": [
        {
          "indexed": false,
          "internalType": "uint256",
          "name": "itemId",
          "type": "uint256"
        },
        {
          "indexed": false,
          "internalType": "address",
          "name": "nft",
          "type": "address"
        },
        {
          "indexed": true,
          "internalType": "uint256",
          "name": "tokenId",
          "type": "uint256"
        },
        {
          "indexed": false,
          "internalType": "uint256",
          "name": "price",
          "type": "uint256"
        },
        {
          "indexed": true,
          "internalType": "address",
          "name": "seller",
          "type": "address"
        },
        {
          "indexed": true,
          "internalType": "address",
          "name": "buyer",
          "type": "address"
        }
      ],
      "name": "Bought",
      "type": "event"
    },
    {
      "anonymous": false,
      "inputs": [
        {
          "indexed": false,
          "internalType": "uint256",
          "name": "itemId",
          "type": "uint256"
        }
      ],
      "name": "OfferCanceled",
      "type": "event"
    },
    {
      "anonymous": false,
      "inputs": [
        {
          "indexed": false,
          "internalType": "uint256",
          "name": "itemId",
          "type": "uint256"
        },
        {
          "indexed": false,
          "internalType": "address",
          "name": "nft",
          "type": "address"
        },
        {
          "indexed": true,
          "internalType": "uint256",
          "name": "tokenId",
          "type": "uint256"
        },
        {
          "indexed": false,
          "internalType": "uint256",
          "name": "price",
          "type": "uint256"
        },
        {
          "indexed": true,
          "internalType": "address",
          "name": "seller",
          "type": "address"
        }
      ],
      "name": "Offered",
      "type": "event"
    },
    {
      "stateMutability": "nonpayable",
      "type": "fallback"
    },
    {
      "inputs": [
        {
          "internalType": "contract IERC20Permit",
          "name": "erc20",
          "type": "address"
        },
        {
          "internalType": "contract IERC721",
          "name": "nft",
          "type": "address"
        },
        {
          "internalType": "uint256",
          "name": "_tokenId",
          "type": "uint256"
        },
        {
          "internalType": "uint256",
          "name": "_itemId",
          "type": "uint256"
        },
        {
          "internalType": "bool",
          "name": "isOnSale",
          "type": "bool"
        },
        {
          "internalType": "uint256",
          "name": "deadline",
          "type": "uint256"
        },
        {
          "internalType": "address",
          "name": "offerer",
          "type": "address"
        },
        {
          "internalType": "uint256",
          "name": "amount",
          "type": "uint256"
        },
        {
          "internalType": "uint8",
          "name": "_v",
          "type": "uint8"
        },
        {
          "internalType": "bytes32",
          "name": "_r",
          "type": "bytes32"
        },
        {
          "internalType": "bytes32",
          "name": "_s",
          "type": "bytes32"
        }
      ],
      "name": "acceptERCOffer",
      "outputs": [],
      "stateMutability": "nonpayable",
      "type": "function"
    },
    {
      "inputs": [],
      "name": "activeAuctionItemCount",
      "outputs": [
        {
          "internalType": "uint256",
          "name": "",
          "type": "uint256"
        }
      ],
      "stateMutability": "view",
      "type": "function"
    },
    {
      "inputs": [
        {
          "internalType": "uint256",
          "name": "",
          "type": "uint256"
        }
      ],
      "name": "activeAuctionItemIds",
      "outputs": [
        {
          "internalType": "uint256",
          "name": "",
          "type": "uint256"
        }
      ],
      "stateMutability": "view",
      "type": "function"
    },
    {
      "inputs": [],
      "name": "activeListedItemCount",
      "outputs": [
        {
          "internalType": "uint256",
          "name": "",
          "type": "uint256"
        }
      ],
      "stateMutability": "view",
      "type": "function"
    },
    {
      "inputs": [
        {
          "internalType": "uint256",
          "name": "",
          "type": "uint256"
        }
      ],
      "name": "activeListedItemIds",
      "outputs": [
        {
          "internalType": "uint256",
          "name": "",
          "type": "uint256"
        }
      ],
      "stateMutability": "view",
      "type": "function"
    },
    {
      "inputs": [],
      "name": "auctionItemCount",
      "outputs": [
        {
          "internalType": "uint256",
          "name": "",
          "type": "uint256"
        }
      ],
      "stateMutability": "view",
      "type": "function"
    },
    {
      "inputs": [
        {
          "internalType": "uint256",
          "name": "",
          "type": "uint256"
        }
      ],
      "name": "auctionItems",
      "outputs": [
        {
          "internalType": "uint256",
          "name": "auctionId",
          "type": "uint256"
        },
        {
          "internalType": "contract IERC721",
          "name": "nft",
          "type": "address"
        },
        {
          "internalType": "uint256",
          "name": "tokenId",
          "type": "uint256"
        },
        {
          "internalType": "uint256",
          "name": "price",
          "type": "uint256"
        },
        {
          "internalType": "uint256",
          "name": "timeToEnd",
          "type": "uint256"
        },
        {
          "internalType": "address payable",
          "name": "winner",
          "type": "address"
        },
        {
          "internalType": "address payable",
          "name": "seller",
          "type": "address"
        },
        {
          "internalType": "uint256",
          "name": "deposited",
          "type": "uint256"
        },
        {
          "internalType": "bool",
          "name": "claimed",
          "type": "bool"
        },
        {
          "internalType": "bool",
          "name": "canceled",
          "type": "bool"
        }
      ],
      "stateMutability": "view",
      "type": "function"
    },
    {
      "inputs": [
        {
          "internalType": "uint256",
          "name": "_auctionId",
          "type": "uint256"
        }
      ],
      "name": "cancelAuction",
      "outputs": [],
      "stateMutability": "payable",
      "type": "function"
    },
    {
      "inputs": [
        {
          "internalType": "uint256",
          "name": "_itemId",
          "type": "uint256"
        }
      ],
      "name": "cancelOffered",
      "outputs": [],
      "stateMutability": "nonpayable",
      "type": "function"
    },
    {
      "inputs": [
        {
          "internalType": "uint256",
          "name": "_auctionId",
          "type": "uint256"
        }
      ],
      "name": "claimNFT",
      "outputs": [],
      "stateMutability": "nonpayable",
      "type": "function"
    },
    {
      "inputs": [],
      "name": "feeAccount",
      "outputs": [
        {
          "internalType": "address payable",
          "name": "",
          "type": "address"
        }
      ],
      "stateMutability": "view",
      "type": "function"
    },
    {
      "inputs": [],
      "name": "feePercent",
      "outputs": [
        {
          "internalType": "uint256",
          "name": "",
          "type": "uint256"
        }
      ],
      "stateMutability": "view",
      "type": "function"
    },
    {
      "inputs": [
        {
          "internalType": "uint256",
          "name": "_startFrom",
          "type": "uint256"
        }
      ],
      "name": "getActiveListedItemIds",
      "outputs": [
        {
          "internalType": "uint256[]",
          "name": "",
          "type": "uint256[]"
        }
      ],
      "stateMutability": "view",
      "type": "function"
    },
    {
      "inputs": [
        {
          "internalType": "uint256",
          "name": "_itemId",
          "type": "uint256"
        }
      ],
      "name": "getTotalPrice",
      "outputs": [
        {
          "internalType": "uint256",
          "name": "",
          "type": "uint256"
        }
      ],
      "stateMutability": "view",
      "type": "function"
    },
    {
      "inputs": [],
      "name": "itemCount",
      "outputs": [
        {
          "internalType": "uint256",
          "name": "",
          "type": "uint256"
        }
      ],
      "stateMutability": "view",
      "type": "function"
    },
    {
      "inputs": [
        {
          "internalType": "uint256",
          "name": "",
          "type": "uint256"
        }
      ],
      "name": "items",
      "outputs": [
        {
          "internalType": "uint256",
          "name": "itemId",
          "type": "uint256"
        },
        {
          "internalType": "contract IERC721",
          "name": "nft",
          "type": "address"
        },
        {
          "internalType": "uint256",
          "name": "tokenId",
          "type": "uint256"
        },
        {
          "internalType": "uint256",
          "name": "price",
          "type": "uint256"
        },
        {
          "internalType": "address payable",
          "name": "seller",
          "type": "address"
        },
        {
          "internalType": "bool",
          "name": "sold",
          "type": "bool"
        },
        {
          "internalType": "bool",
          "name": "canceled",
          "type": "bool"
        }
      ],
      "stateMutability": "view",
      "type": "function"
    },
    {
      "inputs": [
        {
          "internalType": "contract IERC721",
          "name": "_nft",
          "type": "address"
        },
        {
          "internalType": "uint256",
          "name": "_tokenId",
          "type": "uint256"
        },
        {
          "internalType": "uint256",
          "name": "_price",
          "type": "uint256"
        }
      ],
      "name": "makeItem",
      "outputs": [],
      "stateMutability": "nonpayable",
      "type": "function"
    },
    {
      "inputs": [
        {
          "internalType": "uint256",
          "name": "_auctionId",
          "type": "uint256"
        }
      ],
      "name": "makeOffer",
      "outputs": [],
      "stateMutability": "payable",
      "type": "function"
    },
    {
      "inputs": [
        {
          "internalType": "uint256",
          "name": "_itemId",
          "type": "uint256"
        }
      ],
      "name": "purchaseItem",
      "outputs": [],
      "stateMutability": "payable",
      "type": "function"
    },
    {
      "inputs": [
        {
          "internalType": "contract IERC721",
          "name": "_nft",
          "type": "address"
        },
        {
          "internalType": "uint256",
          "name": "_tokenId",
          "type": "uint256"
        },
        {
          "internalType": "uint256",
          "name": "_price",
          "type": "uint256"
        },
        {
          "internalType": "uint256",
          "name": "_timeToEnd",
          "type": "uint256"
        }
      ],
      "name": "startAuction",
      "outputs": [],
      "stateMutability": "nonpayable",
      "type": "function"
    }
  ],
  "bytecode": "0x60c06040523480156200001157600080fd5b5060405162003f4838038062003f4883398181016040528101906200003791906200009c565b60016000819055503373ffffffffffffffffffffffffffffffffffffffff1660808173ffffffffffffffffffffffffffffffffffffffff1660601b815250508060a0818152505050620000ec565b6000815190506200009681620000d2565b92915050565b600060208284031215620000af57600080fd5b6000620000bf8482850162000085565b91505092915050565b6000819050919050565b620000dd81620000c8565b8114620000e957600080fd5b50565b60805160601c60a051613e256200012360003960008181610f16015261198e01526000818161067e0152611c7b0152613e256000f3fe6080604052600436106101235760003560e01c80639c166273116100a0578063d38ea5bf11610064578063d38ea5bf1461040f578063fa00afc71461042b578063fc610f3114610454578063fe5c873a1461047f578063fe6d7a6e146104a857610124565b80639c166273146102e3578063bfb231d21461030c578063ca7dd3751461034f578063cf44e2aa1461038c578063d2c069f0146103c957610124565b80637b90da24116100e75780637b90da241461021a5780637ee53f0f146102575780637fd6f15c1461028057806396b5a755146102ab5780639a2f6474146102c757610124565b806344b38a5e1461013357806348a0624c1461015e57806365e17c9d1461019b57806369244fe0146101c65780636bfb0d01146101ef57610124565b5b34801561013057600080fd5b50005b34801561013f57600080fd5b506101486104d3565b6040516101559190613357565b60405180910390f35b34801561016a57600080fd5b5061018560048036038101906101809190612b54565b6104d9565b6040516101929190613095565b60405180910390f35b3480156101a757600080fd5b506101b061067c565b6040516101bd9190612f9d565b60405180910390f35b3480156101d257600080fd5b506101ed60048036038101906101e891906129b2565b6106a0565b005b3480156101fb57600080fd5b50610204610c1d565b6040516102119190613357565b60405180910390f35b34801561022657600080fd5b50610241600480360381019061023c9190612b54565b610c23565b60405161024e9190613357565b60405180910390f35b34801561026357600080fd5b5061027e60048036038101906102799190612b54565b610c47565b005b34801561028c57600080fd5b50610295610f14565b6040516102a29190613357565b60405180910390f35b6102c560048036038101906102c09190612b54565b610f38565b005b6102e160048036038101906102dc9190612b54565b6112fe565b005b3480156102ef57600080fd5b5061030a60048036038101906103059190612af1565b611580565b005b34801561031857600080fd5b50610333600480360381019061032e9190612b54565b6118ec565b60405161034697969594939291906133ee565b60405180910390f35b34801561035b57600080fd5b5061037660048036038101906103719190612b54565b611988565b6040516103839190613357565b60405180910390f35b34801561039857600080fd5b506103b360048036038101906103ae9190612b54565b6119eb565b6040516103c09190613357565b60405180910390f35b3480156103d557600080fd5b506103f060048036038101906103eb9190612b54565b611a0f565b6040516104069a9998979695949392919061345d565b60405180910390f35b61042960048036038101906104249190612b54565b611add565b005b34801561043757600080fd5b50610452600480360381019061044d9190612aa2565b611ed6565b005b34801561046057600080fd5b506104696121b8565b6040516104769190613357565b60405180910390f35b34801561048b57600080fd5b506104a660048036038101906104a19190612b54565b6121be565b005b3480156104b457600080fd5b506104bd612766565b6040516104ca9190613357565b60405180910390f35b60035481565b60606000600567ffffffffffffffff81111561051e577f4e487b7100000000000000000000000000000000000000000000000000000000600052604160045260246000fd5b60405190808252806020026020018201604052801561054c5781602001602082028036833780820191505090505b5090506000808490505b600081106106705760006005828154811061059a577f4e487b7100000000000000000000000000000000000000000000000000000000600052603260045260246000fd5b906000526020600020015414156105b05761065d565b600581815481106105ea577f4e487b7100000000000000000000000000000000000000000000000000000000600052603260045260246000fd5b906000526020600020015483838151811061062e577f4e487b7100000000000000000000000000000000000000000000000000000000600052603260045260246000fd5b6020026020010181815250508180610645906137a8565b925050600582141561065c57829350505050610677565b5b80806106689061377e565b915050610556565b5081925050505b919050565b7f000000000000000000000000000000000000000000000000000000000000000081565b6106a861276c565b60008a73ffffffffffffffffffffffffffffffffffffffff16636352211e8b6040518263ffffffff1660e01b81526004016106e39190613357565b60206040518083038186803b1580156106fb57600080fd5b505afa15801561070f573d6000803e3d6000fd5b505050506040513d601f19601f820116820180604052508101906107339190612960565b9050864210610777576040517f08c379a000000000000000000000000000000000000000000000000000000000815260040161076e90613257565b60405180910390fd5b8073ffffffffffffffffffffffffffffffffffffffff163073ffffffffffffffffffffffffffffffffffffffff16146107e5576040517f08c379a00000000000000000000000000000000000000000000000000000000081526004016107dc906131f7565b60405180910390fd5b848c73ffffffffffffffffffffffffffffffffffffffff166370a08231886040518263ffffffff1660e01b815260040161081f9190612f82565b60206040518083038186803b15801561083757600080fd5b505afa15801561084b573d6000803e3d6000fd5b505050506040513d601f19601f8201168201806040525081019061086f9190612b7d565b116108af576040517f08c379a00000000000000000000000000000000000000000000000000000000081526004016108a690613157565b60405180910390fd5b8b73ffffffffffffffffffffffffffffffffffffffff1663d505accf8730888b8989896040518863ffffffff1660e01b81526004016108f49796959493929190613026565b600060405180830381600087803b15801561090e57600080fd5b505af1158015610922573d6000803e3d6000fd5b505050508b73ffffffffffffffffffffffffffffffffffffffff166323b872dd8733886040518463ffffffff1660e01b815260040161096393929190612fef565b602060405180830381600087803b15801561097d57600080fd5b505af1158015610991573d6000803e3d6000fd5b505050506040513d601f19601f820116820180604052508101906109b59190612989565b508a73ffffffffffffffffffffffffffffffffffffffff166323b872dd30888d6040518463ffffffff1660e01b81526004016109f393929190612fef565b600060405180830381600087803b158015610a0d57600080fd5b505af1158015610a21573d6000803e3d6000fd5b505050508715610b1b576000600760008b8152602001908152602001600020905060018160040160146101000a81548160ff0219169083151502179055508673ffffffffffffffffffffffffffffffffffffffff168160040160009054906101000a900473ffffffffffffffffffffffffffffffffffffffff1673ffffffffffffffffffffffffffffffffffffffff1682600201547f8b4c9c8a607d67b321582dd8461041b1dc2ceeca70c8b7f37f8e02095cf2e76d8d8560010160009054906101000a900473ffffffffffffffffffffffffffffffffffffffff168b604051610b0d93929190613372565b60405180910390a450610c07565b6000600860008b8152602001908152602001600020905060018160080160006101000a81548160ff0219169083151502179055508673ffffffffffffffffffffffffffffffffffffffff168160060160009054906101000a900473ffffffffffffffffffffffffffffffffffffffff1673ffffffffffffffffffffffffffffffffffffffff1682600201547fe9c76f3cd26822fab39fde36b56736739a684a806c8c0cf5eacd75511797ca7b8d8560010160009054906101000a900473ffffffffffffffffffffffffffffffffffffffff168b604051610bfd93929190613372565b60405180910390a4505b50610c106127bc565b5050505050505050505050565b60015481565b60068181548110610c3357600080fd5b906000526020600020016000915090505481565b610c4f61276c565b60008111610c92576040517f08c379a0000000000000000000000000000000000000000000000000000000008152600401610c89906131b7565b60405180910390fd5b3373ffffffffffffffffffffffffffffffffffffffff166007600083815260200190815260200160002060040160009054906101000a900473ffffffffffffffffffffffffffffffffffffffff1673ffffffffffffffffffffffffffffffffffffffff1614610d36576040517f08c379a0000000000000000000000000000000000000000000000000000000008152600401610d2d906132b7565b60405180910390fd5b6007600082815260200190815260200160002060040160149054906101000a900460ff1615610d9a576040517f08c379a0000000000000000000000000000000000000000000000000000000008152600401610d9190613297565b60405180910390fd5b600060076000838152602001908152602001600020905060018160040160156101000a81548160ff0219169083151502179055508060010160009054906101000a900473ffffffffffffffffffffffffffffffffffffffff1673ffffffffffffffffffffffffffffffffffffffff166323b872dd303384600201546040518463ffffffff1660e01b8152600401610e3393929190612fef565b600060405180830381600087803b158015610e4d57600080fd5b505af1158015610e61573d6000803e3d6000fd5b5050505060036000815480929190610e789061377e565b91905055506005600183610e8c919061365b565b81548110610ec3577f4e487b7100000000000000000000000000000000000000000000000000000000600052603260045260246000fd5b90600052602060002001600090557f0ff09947dd7d2583091e8cbfb427fecacb697bf895187b243fd0072c0ee9b95182604051610f009190613357565b60405180910390a150610f116127bc565b50565b7f000000000000000000000000000000000000000000000000000000000000000081565b610f4061276c565b60008111610f83576040517f08c379a0000000000000000000000000000000000000000000000000000000008152600401610f7a90613177565b60405180910390fd5b3373ffffffffffffffffffffffffffffffffffffffff166008600083815260200190815260200160002060060160009054906101000a900473ffffffffffffffffffffffffffffffffffffffff1673ffffffffffffffffffffffffffffffffffffffff1614611027576040517f08c379a000000000000000000000000000000000000000000000000000000000815260040161101e90613337565b60405180910390fd5b6008600082815260200190815260200160002060080160009054906101000a900460ff161561108b576040517f08c379a000000000000000000000000000000000000000000000000000000000815260040161108290613137565b60405180910390fd5b600860008281526020019081526020016000206004015442106110e3576040517f08c379a00000000000000000000000000000000000000000000000000000000081526004016110da906130b7565b60405180910390fd5b60006008600083815260200190815260200160002090508060010160009054906101000a900473ffffffffffffffffffffffffffffffffffffffff1673ffffffffffffffffffffffffffffffffffffffff166323b872dd308360060160009054906101000a900473ffffffffffffffffffffffffffffffffffffffff1684600201546040518463ffffffff1660e01b815260040161118393929190612fb8565b600060405180830381600087803b15801561119d57600080fd5b505af11580156111b1573d6000803e3d6000fd5b50505050600081600701541115611232578060050160009054906101000a900473ffffffffffffffffffffffffffffffffffffffff1673ffffffffffffffffffffffffffffffffffffffff166108fc82600701549081150290604051600060405180830381858888f19350505050158015611230573d6000803e3d6000fd5b505b60018160080160016101000a81548160ff021916908315150217905550600460008154809291906112629061377e565b91905055506006600183611276919061365b565b815481106112ad577f4e487b7100000000000000000000000000000000000000000000000000000000600052603260045260246000fd5b90600052602060002001600090557f28601d865dccc9f113e15a7185c1b38c085d598c71250d3337916a428536d771826040516112ea9190613357565b60405180910390a1506112fb6127bc565b50565b61130661276c565b60008111611349576040517f08c379a000000000000000000000000000000000000000000000000000000000815260040161134090613177565b60405180910390fd5b600860008281526020019081526020016000206003015434116113a1576040517f08c379a0000000000000000000000000000000000000000000000000000000008152600401611398906132d7565b60405180910390fd5b600860008281526020019081526020016000206004015442106113f9576040517f08c379a00000000000000000000000000000000000000000000000000000000081526004016113f0906130b7565b60405180910390fd5b61141a813460086000858152602001908152602001600020600301546127c6565b6000600860008381526020019081526020016000206007015411156114cd576008600082815260200190815260200160002060050160009054906101000a900473ffffffffffffffffffffffffffffffffffffffff1673ffffffffffffffffffffffffffffffffffffffff166108fc60086000848152602001908152602001600020600701549081150290604051600060405180830381858888f193505050501580156114cb573d6000803e3d6000fd5b505b6000600860008381526020019081526020016000209050348160030181905550338160050160006101000a81548173ffffffffffffffffffffffffffffffffffffffff021916908373ffffffffffffffffffffffffffffffffffffffff1602179055503481600701819055507f0e54eff26401bf69b81b26f60bd85ef47f5d85275c1d268d84f68d6897431c4782333460405161156c93929190613372565b60405180910390a15061157d6127bc565b50565b61158861276c565b600082116115cb576040517f08c379a00000000000000000000000000000000000000000000000000000000081526004016115c290613277565b60405180910390fd5b600260008154809291906115de906137a8565b9190505550600460008154809291906115f6906137a8565b9190505550600660025490806001815401808255809150506001900390600052602060002001600090919091909150558373ffffffffffffffffffffffffffffffffffffffff166323b872dd3330866040518463ffffffff1660e01b815260040161166393929190612fef565b600060405180830381600087803b15801561167d57600080fd5b505af1158015611691573d6000803e3d6000fd5b5050505060405180610140016040528060025481526020018573ffffffffffffffffffffffffffffffffffffffff1681526020018481526020018381526020018281526020013373ffffffffffffffffffffffffffffffffffffffff1681526020013373ffffffffffffffffffffffffffffffffffffffff16815260200160008152602001600015158152602001600015158152506008600060025481526020019081526020016000206000820151816000015560208201518160010160006101000a81548173ffffffffffffffffffffffffffffffffffffffff021916908373ffffffffffffffffffffffffffffffffffffffff16021790555060408201518160020155606082015181600301556080820151816004015560a08201518160050160006101000a81548173ffffffffffffffffffffffffffffffffffffffff021916908373ffffffffffffffffffffffffffffffffffffffff16021790555060c08201518160060160006101000a81548173ffffffffffffffffffffffffffffffffffffffff021916908373ffffffffffffffffffffffffffffffffffffffff16021790555060e082015181600701556101008201518160080160006101000a81548160ff0219169083151502179055506101208201518160080160016101000a81548160ff0219169083151502179055509050503373ffffffffffffffffffffffffffffffffffffffff16837fd184fdb1358a28e5370b7ea6f753efc3313b7fd11d6750f270cf79f109a63f176002548786866040516118d694939291906133a9565b60405180910390a36118e66127bc565b50505050565b60076020528060005260406000206000915090508060000154908060010160009054906101000a900473ffffffffffffffffffffffffffffffffffffffff16908060020154908060030154908060040160009054906101000a900473ffffffffffffffffffffffffffffffffffffffff16908060040160149054906101000a900460ff16908060040160159054906101000a900460ff16905087565b600060647f000000000000000000000000000000000000000000000000000000000000000060646119b9919061357a565b60076000858152602001908152602001600020600301546119da9190613601565b6119e491906135d0565b9050919050565b600581815481106119fb57600080fd5b906000526020600020016000915090505481565b60086020528060005260406000206000915090508060000154908060010160009054906101000a900473ffffffffffffffffffffffffffffffffffffffff16908060020154908060030154908060040154908060050160009054906101000a900473ffffffffffffffffffffffffffffffffffffffff16908060060160009054906101000a900473ffffffffffffffffffffffffffffffffffffffff16908060070154908060080160009054906101000a900460ff16908060080160019054906101000a900460ff1690508a565b611ae561276c565b6000611af082611988565b90506000600760008481526020019081526020016000209050600083118015611b1b57506001548311155b611b5a576040517f08c379a0000000000000000000000000000000000000000000000000000000008152600401611b5190613197565b60405180910390fd5b81341015611b9d576040517f08c379a0000000000000000000000000000000000000000000000000000000008152600401611b9490613117565b60405180910390fd5b8060040160149054906101000a900460ff16158015611bcb57508060040160159054906101000a900460ff16155b611c0a576040517f08c379a0000000000000000000000000000000000000000000000000000000008152600401611c0190613317565b60405180910390fd5b8060040160009054906101000a900473ffffffffffffffffffffffffffffffffffffffff1673ffffffffffffffffffffffffffffffffffffffff166108fc82600301549081150290604051600060405180830381858888f19350505050158015611c78573d6000803e3d6000fd5b507f000000000000000000000000000000000000000000000000000000000000000073ffffffffffffffffffffffffffffffffffffffff166108fc826003015484611cc3919061365b565b9081150290604051600060405180830381858888f19350505050158015611cee573d6000803e3d6000fd5b5060018160040160146101000a81548160ff0219169083151502179055508060010160009054906101000a900473ffffffffffffffffffffffffffffffffffffffff1673ffffffffffffffffffffffffffffffffffffffff166323b872dd303384600201546040518463ffffffff1660e01b8152600401611d7193929190612fef565b600060405180830381600087803b158015611d8b57600080fd5b505af1158015611d9f573d6000803e3d6000fd5b5050505060036000815480929190611db69061377e565b91905055506005600184611dca919061365b565b81548110611e01577f4e487b7100000000000000000000000000000000000000000000000000000000600052603260045260246000fd5b90600052602060002001600090553373ffffffffffffffffffffffffffffffffffffffff168160040160009054906101000a900473ffffffffffffffffffffffffffffffffffffffff1673ffffffffffffffffffffffffffffffffffffffff1682600201547f8b4c9c8a607d67b321582dd8461041b1dc2ceeca70c8b7f37f8e02095cf2e76d868560010160009054906101000a900473ffffffffffffffffffffffffffffffffffffffff168660030154604051611ec193929190613372565b60405180910390a45050611ed36127bc565b50565b611ede61276c565b60008111611f21576040517f08c379a0000000000000000000000000000000000000000000000000000000008152600401611f18906130d7565b60405180910390fd5b60016000815480929190611f34906137a8565b919050555060036000815480929190611f4c906137a8565b9190505550600560015490806001815401808255809150506001900390600052602060002001600090919091909150558273ffffffffffffffffffffffffffffffffffffffff166323b872dd3330856040518463ffffffff1660e01b8152600401611fb993929190612fef565b600060405180830381600087803b158015611fd357600080fd5b505af1158015611fe7573d6000803e3d6000fd5b505050506040518060e0016040528060015481526020018473ffffffffffffffffffffffffffffffffffffffff1681526020018381526020018281526020013373ffffffffffffffffffffffffffffffffffffffff168152602001600015158152602001600015158152506007600060015481526020019081526020016000206000820151816000015560208201518160010160006101000a81548173ffffffffffffffffffffffffffffffffffffffff021916908373ffffffffffffffffffffffffffffffffffffffff160217905550604082015181600201556060820151816003015560808201518160040160006101000a81548173ffffffffffffffffffffffffffffffffffffffff021916908373ffffffffffffffffffffffffffffffffffffffff16021790555060a08201518160040160146101000a81548160ff02191690831515021790555060c08201518160040160156101000a81548160ff0219169083151502179055509050503373ffffffffffffffffffffffffffffffffffffffff16827f655a0cf9c8db81512be9a76dc1c5ae5380b8816ce6ad659cd61b715e2999d59a60015486856040516121a393929190613372565b60405180910390a36121b36127bc565b505050565b60045481565b6121c661276c565b60008111612209576040517f08c379a000000000000000000000000000000000000000000000000000000000815260040161220090613237565b60405180910390fd5b6008600082815260200190815260200160002060040154421015612262576040517f08c379a0000000000000000000000000000000000000000000000000000000008152600401612259906131d7565b60405180910390fd5b3373ffffffffffffffffffffffffffffffffffffffff166008600083815260200190815260200160002060050160009054906101000a900473ffffffffffffffffffffffffffffffffffffffff1673ffffffffffffffffffffffffffffffffffffffff16148061233357503373ffffffffffffffffffffffffffffffffffffffff166008600083815260200190815260200160002060060160009054906101000a900473ffffffffffffffffffffffffffffffffffffffff1673ffffffffffffffffffffffffffffffffffffffff16145b612372576040517f08c379a000000000000000000000000000000000000000000000000000000000815260040161236990613217565b60405180910390fd5b6008600082815260200190815260200160002060080160009054906101000a900460ff16156123d6576040517f08c379a00000000000000000000000000000000000000000000000000000000081526004016123cd906130f7565b60405180910390fd5b60006008600083815260200190815260200160002060405180610140016040529081600082015481526020016001820160009054906101000a900473ffffffffffffffffffffffffffffffffffffffff1673ffffffffffffffffffffffffffffffffffffffff1673ffffffffffffffffffffffffffffffffffffffff1681526020016002820154815260200160038201548152602001600482015481526020016005820160009054906101000a900473ffffffffffffffffffffffffffffffffffffffff1673ffffffffffffffffffffffffffffffffffffffff1673ffffffffffffffffffffffffffffffffffffffff1681526020016006820160009054906101000a900473ffffffffffffffffffffffffffffffffffffffff1673ffffffffffffffffffffffffffffffffffffffff1673ffffffffffffffffffffffffffffffffffffffff168152602001600782015481526020016008820160009054906101000a900460ff161515151581526020016008820160019054906101000a900460ff1615151515815250509050806020015173ffffffffffffffffffffffffffffffffffffffff166323b872dd308360a0015184604001516040518463ffffffff1660e01b81526004016125ac93929190612fb8565b600060405180830381600087803b1580156125c657600080fd5b505af11580156125da573d6000803e3d6000fd5b5050505060008160e00151111561263b578060c0015173ffffffffffffffffffffffffffffffffffffffff166108fc8260e001519081150290604051600060405180830381858888f19350505050158015612639573d6000803e3d6000fd5b505b600060086000848152602001908152602001600020905060018160080160006101000a81548160ff021916908315150217905550600460008154809291906126829061377e565b91905055506006600184612696919061365b565b815481106126cd577f4e487b7100000000000000000000000000000000000000000000000000000000600052603260045260246000fd5b90600052602060002001600090558160a0015173ffffffffffffffffffffffffffffffffffffffff168260c0015173ffffffffffffffffffffffffffffffffffffffff1683604001517fe9c76f3cd26822fab39fde36b56736739a684a806c8c0cf5eacd75511797ca7b868660200151876060015160405161275193929190613372565b60405180910390a450506127636127bc565b50565b60025481565b600260005414156127b2576040517f08c379a00000000000000000000000000000000000000000000000000000000081526004016127a9906132f7565b60405180910390fd5b6002600081905550565b6001600081905550565b6128608383836040516024016127de939291906134f9565b6040516020818303038152906040527fd1ed7a3c000000000000000000000000000000000000000000000000000000007bffffffffffffffffffffffffffffffffffffffffffffffffffffffff19166020820180517bffffffffffffffffffffffffffffffffffffffffffffffffffffffff8381831617835250505050612865565b505050565b60008151905060006a636f6e736f6c652e6c6f679050602083016000808483855afa5050505050565b60008135905061289d81613d4e565b92915050565b6000815190506128b281613d4e565b92915050565b6000813590506128c781613d65565b92915050565b6000815190506128dc81613d65565b92915050565b6000813590506128f181613d7c565b92915050565b60008135905061290681613d93565b92915050565b60008135905061291b81613daa565b92915050565b60008135905061293081613dc1565b92915050565b60008151905061294581613dc1565b92915050565b60008135905061295a81613dd8565b92915050565b60006020828403121561297257600080fd5b6000612980848285016128a3565b91505092915050565b60006020828403121561299b57600080fd5b60006129a9848285016128cd565b91505092915050565b60008060008060008060008060008060006101608c8e0312156129d457600080fd5b60006129e28e828f016128f7565b9b505060206129f38e828f0161290c565b9a50506040612a048e828f01612921565b9950506060612a158e828f01612921565b9850506080612a268e828f016128b8565b97505060a0612a378e828f01612921565b96505060c0612a488e828f0161288e565b95505060e0612a598e828f01612921565b945050610100612a6b8e828f0161294b565b935050610120612a7d8e828f016128e2565b925050610140612a8f8e828f016128e2565b9150509295989b509295989b9093969950565b600080600060608486031215612ab757600080fd5b6000612ac58682870161290c565b9350506020612ad686828701612921565b9250506040612ae786828701612921565b9150509250925092565b60008060008060808587031215612b0757600080fd5b6000612b158782880161290c565b9450506020612b2687828801612921565b9350506040612b3787828801612921565b9250506060612b4887828801612921565b91505092959194509250565b600060208284031215612b6657600080fd5b6000612b7484828501612921565b91505092915050565b600060208284031215612b8f57600080fd5b6000612b9d84828501612936565b91505092915050565b6000612bb28383612f55565b60208301905092915050565b612bc781613724565b82525050565b612bd6816136a1565b82525050565b612be58161368f565b82525050565b6000612bf682613540565b612c008185613558565b9350612c0b83613530565b8060005b83811015612c3c578151612c238882612ba6565b9750612c2e8361354b565b925050600181019050612c0f565b5085935050505092915050565b612c52816136b3565b82525050565b612c61816136bf565b82525050565b612c7081613736565b82525050565b6000612c83601c83613569565b9150612c8e8261384f565b602082019050919050565b6000612ca6601f83613569565b9150612cb182613878565b602082019050919050565b6000612cc9601783613569565b9150612cd4826138a1565b602082019050919050565b6000612cec603383613569565b9150612cf7826138ca565b604082019050919050565b6000612d0f601b83613569565b9150612d1a82613919565b602082019050919050565b6000612d32602183613569565b9150612d3d82613942565b604082019050919050565b6000612d55602683613569565b9150612d6082613991565b604082019050919050565b6000612d78601283613569565b9150612d83826139e0565b602082019050919050565b6000612d9b602383613569565b9150612da682613a09565b604082019050919050565b6000612dbe601983613569565b9150612dc982613a58565b602082019050919050565b6000612de1602683613569565b9150612dec82613a81565b604082019050919050565b6000612e04602c83613569565b9150612e0f82613ad0565b604082019050919050565b6000612e27602583613569565b9150612e3282613b1f565b604082019050919050565b6000612e4a601a83613569565b9150612e5582613b6e565b602082019050919050565b6000612e6d602183613569565b9150612e7882613b97565b604082019050919050565b6000612e90601583613569565b9150612e9b82613be6565b602082019050919050565b6000612eb3602183613569565b9150612ebe82613c0f565b604082019050919050565b6000612ed6602b83613569565b9150612ee182613c5e565b604082019050919050565b6000612ef9601f83613569565b9150612f0482613cad565b602082019050919050565b6000612f1c601d83613569565b9150612f2782613cd6565b602082019050919050565b6000612f3f602483613569565b9150612f4a82613cff565b604082019050919050565b612f5e8161370d565b82525050565b612f6d8161370d565b82525050565b612f7c81613717565b82525050565b6000602082019050612f976000830184612bdc565b92915050565b6000602082019050612fb26000830184612bcd565b92915050565b6000606082019050612fcd6000830186612bdc565b612fda6020830185612bbe565b612fe76040830184612f64565b949350505050565b60006060820190506130046000830186612bdc565b6130116020830185612bdc565b61301e6040830184612f64565b949350505050565b600060e08201905061303b600083018a612bdc565b6130486020830189612bdc565b6130556040830188612f64565b6130626060830187612f64565b61306f6080830186612f73565b61307c60a0830185612c58565b61308960c0830184612c58565b98975050505050505050565b600060208201905081810360008301526130af8184612beb565b905092915050565b600060208201905081810360008301526130d081612c76565b9050919050565b600060208201905081810360008301526130f081612c99565b9050919050565b6000602082019050818103600083015261311081612cbc565b9050919050565b6000602082019050818103600083015261313081612cdf565b9050919050565b6000602082019050818103600083015261315081612d02565b9050919050565b6000602082019050818103600083015261317081612d25565b9050919050565b6000602082019050818103600083015261319081612d48565b9050919050565b600060208201905081810360008301526131b081612d6b565b9050919050565b600060208201905081810360008301526131d081612d8e565b9050919050565b600060208201905081810360008301526131f081612db1565b9050919050565b6000602082019050818103600083015261321081612dd4565b9050919050565b6000602082019050818103600083015261323081612df7565b9050919050565b6000602082019050818103600083015261325081612e1a565b9050919050565b6000602082019050818103600083015261327081612e3d565b9050919050565b6000602082019050818103600083015261329081612e60565b9050919050565b600060208201905081810360008301526132b081612e83565b9050919050565b600060208201905081810360008301526132d081612ea6565b9050919050565b600060208201905081810360008301526132f081612ec9565b9050919050565b6000602082019050818103600083015261331081612eec565b9050919050565b6000602082019050818103600083015261333081612f0f565b9050919050565b6000602082019050818103600083015261335081612f32565b9050919050565b600060208201905061336c6000830184612f64565b92915050565b60006060820190506133876000830186612f64565b6133946020830185612bdc565b6133a16040830184612f64565b949350505050565b60006080820190506133be6000830187612f64565b6133cb6020830186612bdc565b6133d86040830185612f64565b6133e56060830184612f64565b95945050505050565b600060e082019050613403600083018a612f64565b6134106020830189612c67565b61341d6040830188612f64565b61342a6060830187612f64565b6134376080830186612bcd565b61344460a0830185612c49565b61345160c0830184612c49565b98975050505050505050565b600061014082019050613473600083018d612f64565b613480602083018c612c67565b61348d604083018b612f64565b61349a606083018a612f64565b6134a76080830189612f64565b6134b460a0830188612bcd565b6134c160c0830187612bcd565b6134ce60e0830186612f64565b6134dc610100830185612c49565b6134ea610120830184612c49565b9b9a5050505050505050505050565b600060608201905061350e6000830186612f64565b61351b6020830185612f64565b6135286040830184612f64565b949350505050565b6000819050602082019050919050565b600081519050919050565b6000602082019050919050565b600082825260208201905092915050565b600082825260208201905092915050565b60006135858261370d565b91506135908361370d565b9250827fffffffffffffffffffffffffffffffffffffffffffffffffffffffffffffffff038211156135c5576135c46137f1565b5b828201905092915050565b60006135db8261370d565b91506135e68361370d565b9250826135f6576135f5613820565b5b828204905092915050565b600061360c8261370d565b91506136178361370d565b9250817fffffffffffffffffffffffffffffffffffffffffffffffffffffffffffffffff04831182151516156136505761364f6137f1565b5b828202905092915050565b60006136668261370d565b91506136718361370d565b925082821015613684576136836137f1565b5b828203905092915050565b600061369a826136ed565b9050919050565b60006136ac826136ed565b9050919050565b60008115159050919050565b6000819050919050565b60006136d48261368f565b9050919050565b60006136e68261368f565b9050919050565b600073ffffffffffffffffffffffffffffffffffffffff82169050919050565b6000819050919050565b600060ff82169050919050565b600061372f8261375a565b9050919050565b600061374182613748565b9050919050565b6000613753826136ed565b9050919050565b60006137658261376c565b9050919050565b6000613777826136ed565b9050919050565b60006137898261370d565b9150600082141561379d5761379c6137f1565b5b600182039050919050565b60006137b38261370d565b91507fffffffffffffffffffffffffffffffffffffffffffffffffffffffffffffffff8214156137e6576137e56137f1565b5b600182019050919050565b7f4e487b7100000000000000000000000000000000000000000000000000000000600052601160045260246000fd5b7f4e487b7100000000000000000000000000000000000000000000000000000000600052601260045260246000fd5b7f41756374696f6e2073686f756c64206e6f7420626520656e6465642e00000000600082015250565b7f5072696365206d7573742062652067726561746572207468616e207a65726f00600082015250565b7f4e465420697320616c726561647920636c61696d65642e000000000000000000600082015250565b7f6e6f7420656e6f75676820657468657220746f20636f766572206974656d207060008201527f7269636520616e64206d61726b65742066656500000000000000000000000000602082015250565b7f41756374696f6e20697320616c726561647920636c61696d65642e0000000000600082015250565b7f4f66666572657220646f6573206e6f74206861766520656e6f7567682077455460008201527f4800000000000000000000000000000000000000000000000000000000000000602082015250565b7f41756374696f6e2069642073686f756c6420626520626967676572207468616e60008201527f207a65726f2e0000000000000000000000000000000000000000000000000000602082015250565b7f6974656d20646f65736e27742065786973740000000000000000000000000000600082015250565b7f4974656d2069642073686f756c6420626520626967676572207468616e207a6560008201527f726f2e0000000000000000000000000000000000000000000000000000000000602082015250565b7f41756374696f6e2073686f756c6420656e642066697273742e00000000000000600082015250565b7f4f6e6c79206d61726b6574706c616365206974656d732063616e20626520616360008201527f6365707465640000000000000000000000000000000000000000000000000000602082015250565b7f4f6e6c792077696e6e6572206f722073656c6c65722063616e2072756e20746860008201527f69732066756e6374696f6e2e0000000000000000000000000000000000000000602082015250565b7f41756374696f6e2069642073686f756c6420626520626967676572207468616e60008201527f207a65726f000000000000000000000000000000000000000000000000000000602082015250565b7f4f6666657220646561646c696e65206973206578636565646564000000000000600082015250565b7f70726963652073686f756c642062652067726561746572207468616e207a657260008201527f6f00000000000000000000000000000000000000000000000000000000000000602082015250565b7f4974656d20697320616c726561647920736f6c642e0000000000000000000000600082015250565b7f4f6e6c792073656c6c65722063616e2063616e63656c2074686973206974656d60008201527f2e00000000000000000000000000000000000000000000000000000000000000602082015250565b7f50726963652073686f756c642062652067726561746572207468616e2063757260008201527f72656e742070726963652e000000000000000000000000000000000000000000602082015250565b7f5265656e7472616e637947756172643a207265656e7472616e742063616c6c00600082015250565b7f6974656d20616c726561647920736f6c64206f722063616e63656c6564000000600082015250565b7f4f6e6c792073656c6c65722063616e2063616e63656c2074686973206175637460008201527f696f6e2e00000000000000000000000000000000000000000000000000000000602082015250565b613d578161368f565b8114613d6257600080fd5b50565b613d6e816136b3565b8114613d7957600080fd5b50565b613d85816136bf565b8114613d9057600080fd5b50565b613d9c816136c9565b8114613da757600080fd5b50565b613db3816136db565b8114613dbe57600080fd5b50565b613dca8161370d565b8114613dd557600080fd5b50565b613de181613717565b8114613dec57600080fd5b5056fea264697066735822122007fb05d4c962f28d641e3843f9208407641b6c3408a6e52ed839ee2ea10a17c664736f6c63430008040033",
  "linkReferences": {},
  "deployedLinkReferences": {}
}