{
  "_format": "hh-sol-artifact-1",
  "contractName": "NFT",
  "sourceName": "libs/contracts/src/contracts/NFT.sol",
  "abi": [
    {
      "inputs": [],
      "stateMutability": "nonpayable",
      "type": "constructor"
    },
    {
      "anonymous": false,
      "inputs": [
        {
          "indexed": true,
          "internalType": "address",
          "name": "owner",
          "type": "address"
        },
        {
          "indexed": true,
          "internalType": "address",
          "name": "approved",
          "type": "address"
        },
        {
          "indexed": true,
          "internalType": "uint256",
          "name": "tokenId",
          "type": "uint256"
        }
      ],
      "name": "Approval",
      "type": "event"
    },
    {
      "anonymous": false,
      "inputs": [
        {
          "indexed": true,
          "internalType": "address",
          "name": "owner",
          "type": "address"
        },
        {
          "indexed": true,
          "internalType": "address",
          "name": "operator",
          "type": "address"
        },
        {
          "indexed": false,
          "internalType": "bool",
          "name": "approved",
          "type": "bool"
        }
      ],
      "name": "ApprovalForAll",
      "type": "event"
    },
    {
      "anonymous": false,
      "inputs": [
        {
          "indexed": true,
          "internalType": "address",
          "name": "from",
          "type": "address"
        },
        {
          "indexed": true,
          "internalType": "address",
          "name": "to",
          "type": "address"
        },
        {
          "indexed": true,
          "internalType": "uint256",
          "name": "tokenId",
          "type": "uint256"
        }
      ],
      "name": "Transfer",
      "type": "event"
    },
    {
      "inputs": [
        {
          "internalType": "address",
          "name": "to",
          "type": "address"
        },
        {
          "internalType": "uint256",
          "name": "tokenId",
          "type": "uint256"
        }
      ],
      "name": "approve",
      "outputs": [],
      "stateMutability": "nonpayable",
      "type": "function"
    },
    {
      "inputs": [
        {
          "internalType": "address",
          "name": "owner",
          "type": "address"
        }
      ],
      "name": "balanceOf",
      "outputs": [
        {
          "internalType": "uint256",
          "name": "",
          "type": "uint256"
        }
      ],
      "stateMutability": "view",
      "type": "function"
    },
    {
      "inputs": [
        {
          "internalType": "uint256",
          "name": "tokenId",
          "type": "uint256"
        }
      ],
      "name": "getApproved",
      "outputs": [
        {
          "internalType": "address",
          "name": "",
          "type": "address"
        }
      ],
      "stateMutability": "view",
      "type": "function"
    },
    {
      "inputs": [
        {
          "internalType": "address",
          "name": "owner",
          "type": "address"
        },
        {
          "internalType": "address",
          "name": "operator",
          "type": "address"
        }
      ],
      "name": "isApprovedForAll",
      "outputs": [
        {
          "internalType": "bool",
          "name": "",
          "type": "bool"
        }
      ],
      "stateMutability": "view",
      "type": "function"
    },
    {
      "inputs": [
        {
          "internalType": "string",
          "name": "_tokenURI",
          "type": "string"
        }
      ],
      "name": "mintNFT",
      "outputs": [
        {
          "internalType": "uint256",
          "name": "",
          "type": "uint256"
        }
      ],
      "stateMutability": "nonpayable",
      "type": "function"
    },
    {
      "inputs": [],
      "name": "name",
      "outputs": [
        {
          "internalType": "string",
          "name": "",
          "type": "string"
        }
      ],
      "stateMutability": "view",
      "type": "function"
    },
    {
      "inputs": [
        {
          "internalType": "uint256",
          "name": "tokenId",
          "type": "uint256"
        }
      ],
      "name": "ownerOf",
      "outputs": [
        {
          "internalType": "address",
          "name": "",
          "type": "address"
        }
      ],
      "stateMutability": "view",
      "type": "function"
    },
    {
      "inputs": [
        {
          "internalType": "address",
          "name": "from",
          "type": "address"
        },
        {
          "internalType": "address",
          "name": "to",
          "type": "address"
        },
        {
          "internalType": "uint256",
          "name": "tokenId",
          "type": "uint256"
        }
      ],
      "name": "safeTransferFrom",
      "outputs": [],
      "stateMutability": "nonpayable",
      "type": "function"
    },
    {
      "inputs": [
        {
          "internalType": "address",
          "name": "from",
          "type": "address"
        },
        {
          "internalType": "address",
          "name": "to",
          "type": "address"
        },
        {
          "internalType": "uint256",
          "name": "tokenId",
          "type": "uint256"
        },
        {
          "internalType": "bytes",
          "name": "data",
          "type": "bytes"
        }
      ],
      "name": "safeTransferFrom",
      "outputs": [],
      "stateMutability": "nonpayable",
      "type": "function"
    },
    {
      "inputs": [
        {
          "internalType": "address",
          "name": "operator",
          "type": "address"
        },
        {
          "internalType": "bool",
          "name": "approved",
          "type": "bool"
        }
      ],
      "name": "setApprovalForAll",
      "outputs": [],
      "stateMutability": "nonpayable",
      "type": "function"
    },
    {
      "inputs": [
        {
          "internalType": "bytes4",
          "name": "interfaceId",
          "type": "bytes4"
        }
      ],
      "name": "supportsInterface",
      "outputs": [
        {
          "internalType": "bool",
          "name": "",
          "type": "bool"
        }
      ],
      "stateMutability": "view",
      "type": "function"
    },
    {
      "inputs": [],
      "name": "symbol",
      "outputs": [
        {
          "internalType": "string",
          "name": "",
          "type": "string"
        }
      ],
      "stateMutability": "view",
      "type": "function"
    },
    {
      "inputs": [
        {
          "internalType": "uint256",
          "name": "index",
          "type": "uint256"
        }
      ],
      "name": "tokenByIndex",
      "outputs": [
        {
          "internalType": "uint256",
          "name": "",
          "type": "uint256"
        }
      ],
      "stateMutability": "view",
      "type": "function"
    },
    {
      "inputs": [],
      "name": "tokenCounter",
      "outputs": [
        {
          "internalType": "uint256",
          "name": "",
          "type": "uint256"
        }
      ],
      "stateMutability": "view",
      "type": "function"
    },
    {
      "inputs": [
        {
          "internalType": "address",
          "name": "owner",
          "type": "address"
        },
        {
          "internalType": "uint256",
          "name": "index",
          "type": "uint256"
        }
      ],
      "name": "tokenOfOwnerByIndex",
      "outputs": [
        {
          "internalType": "uint256",
          "name": "",
          "type": "uint256"
        }
      ],
      "stateMutability": "view",
      "type": "function"
    },
    {
      "inputs": [
        {
          "internalType": "uint256",
          "name": "tokenId",
          "type": "uint256"
        }
      ],
      "name": "tokenURI",
      "outputs": [
        {
          "internalType": "string",
          "name": "",
          "type": "string"
        }
      ],
      "stateMutability": "view",
      "type": "function"
    },
    {
      "inputs": [],
      "name": "totalSupply",
      "outputs": [
        {
          "internalType": "uint256",
          "name": "",
          "type": "uint256"
        }
      ],
      "stateMutability": "view",
      "type": "function"
    },
    {
      "inputs": [
        {
          "internalType": "address",
          "name": "from",
          "type": "address"
        },
        {
          "internalType": "address",
          "name": "to",
          "type": "address"
        },
        {
          "internalType": "uint256",
          "name": "tokenId",
          "type": "uint256"
        }
      ],
      "name": "transferFrom",
      "outputs": [],
      "stateMutability": "nonpayable",
      "type": "function"
    }
  ],
  "bytecode": "0x60806040523480156200001157600080fd5b506040518060400160405280600381526020017f4e465400000000000000000000000000000000000000000000000000000000008152506040518060400160405280600381526020017f4e46540000000000000000000000000000000000000000000000000000000000815250816000908051906020019062000096929190620000b8565b508060019080519060200190620000af929190620000b8565b505050620001cd565b828054620000c69062000168565b90600052602060002090601f016020900481019282620000ea576000855562000136565b82601f106200010557805160ff191683800117855562000136565b8280016001018555821562000136579182015b828111156200013557825182559160200191906001019062000118565b5b50905062000145919062000149565b5090565b5b80821115620001645760008160009055506001016200014a565b5090565b600060028204905060018216806200018157607f821691505b602082108114156200019857620001976200019e565b5b50919050565b7f4e487b7100000000000000000000000000000000000000000000000000000000600052602260045260246000fd5b61338d80620001dd6000396000f3fe608060405234801561001057600080fd5b50600436106101165760003560e01c80636352211e116100a2578063b88d4fde11610071578063b88d4fde14610305578063c87b56dd14610321578063d082e38114610351578063e985e9c51461036f578063fb37e8831461039f57610116565b80636352211e1461026b57806370a082311461029b57806395d89b41146102cb578063a22cb465146102e957610116565b806318160ddd116100e957806318160ddd146101b557806323b872dd146101d35780632f745c59146101ef57806342842e0e1461021f5780634f6ccce71461023b57610116565b806301ffc9a71461011b57806306fdde031461014b578063081812fc14610169578063095ea7b314610199575b600080fd5b610135600480360381019061013091906125c5565b6103cf565b60405161014291906129ed565b60405180910390f35b6101536103e1565b6040516101609190612a08565b60405180910390f35b610183600480360381019061017e919061265c565b610473565b6040516101909190612986565b60405180910390f35b6101b360048036038101906101ae9190612589565b6104b9565b005b6101bd6105d1565b6040516101ca9190612c0a565b60405180910390f35b6101ed60048036038101906101e89190612483565b6105de565b005b61020960048036038101906102049190612589565b61063e565b6040516102169190612c0a565b60405180910390f35b61023960048036038101906102349190612483565b6106e3565b005b6102556004803603810190610250919061265c565b610703565b6040516102629190612c0a565b60405180910390f35b6102856004803603810190610280919061265c565b61079a565b6040516102929190612986565b60405180910390f35b6102b560048036038101906102b0919061241e565b610821565b6040516102c29190612c0a565b60405180910390f35b6102d36108d9565b6040516102e09190612a08565b60405180910390f35b61030360048036038101906102fe919061254d565b61096b565b005b61031f600480360381019061031a91906124d2565b610981565b005b61033b6004803603810190610336919061265c565b6109e3565b6040516103489190612a08565b60405180910390f35b6103596109f5565b6040516103669190612c0a565b60405180910390f35b61038960048036038101906103849190612447565b6109fb565b60405161039691906129ed565b60405180910390f35b6103b960048036038101906103b49190612617565b610a8f565b6040516103c69190612c0a565b60405180910390f35b60006103da82610b10565b9050919050565b6060600080546103f090612da8565b80601f016020809104026020016040519081016040528092919081815260200182805461041c90612da8565b80156104695780601f1061043e57610100808354040283529160200191610469565b820191906000526020600020905b81548152906001019060200180831161044c57829003601f168201915b5050505050905090565b600061047e82610b8a565b6004600083815260200190815260200160002060009054906101000a900473ffffffffffffffffffffffffffffffffffffffff169050919050565b60006104c48261079a565b90508073ffffffffffffffffffffffffffffffffffffffff168373ffffffffffffffffffffffffffffffffffffffff161415610535576040517f08c379a000000000000000000000000000000000000000000000000000000000815260040161052c90612b8a565b60405180910390fd5b8073ffffffffffffffffffffffffffffffffffffffff16610554610bd5565b73ffffffffffffffffffffffffffffffffffffffff16148061058357506105828161057d610bd5565b6109fb565b5b6105c2576040517f08c379a00000000000000000000000000000000000000000000000000000000081526004016105b990612baa565b60405180910390fd5b6105cc8383610bdd565b505050565b6000600980549050905090565b6105ef6105e9610bd5565b82610c96565b61062e576040517f08c379a000000000000000000000000000000000000000000000000000000000815260040161062590612a2a565b60405180910390fd5b610639838383610d2b565b505050565b600061064983610821565b821061068a576040517f08c379a000000000000000000000000000000000000000000000000000000000815260040161068190612a4a565b60405180910390fd5b600760008473ffffffffffffffffffffffffffffffffffffffff1673ffffffffffffffffffffffffffffffffffffffff168152602001908152602001600020600083815260200190815260200160002054905092915050565b6106fe83838360405180602001604052806000815250610981565b505050565b600061070d6105d1565b821061074e576040517f08c379a000000000000000000000000000000000000000000000000000000000815260040161074590612bca565b60405180910390fd5b60098281548110610788577f4e487b7100000000000000000000000000000000000000000000000000000000600052603260045260246000fd5b90600052602060002001549050919050565b6000806107a683611025565b9050600073ffffffffffffffffffffffffffffffffffffffff168173ffffffffffffffffffffffffffffffffffffffff161415610818576040517f08c379a000000000000000000000000000000000000000000000000000000000815260040161080f90612b6a565b60405180910390fd5b80915050919050565b60008073ffffffffffffffffffffffffffffffffffffffff168273ffffffffffffffffffffffffffffffffffffffff161415610892576040517f08c379a000000000000000000000000000000000000000000000000000000000815260040161088990612b0a565b60405180910390fd5b600360008373ffffffffffffffffffffffffffffffffffffffff1673ffffffffffffffffffffffffffffffffffffffff168152602001908152602001600020549050919050565b6060600180546108e890612da8565b80601f016020809104026020016040519081016040528092919081815260200182805461091490612da8565b80156109615780601f1061093657610100808354040283529160200191610961565b820191906000526020600020905b81548152906001019060200180831161094457829003601f168201915b5050505050905090565b61097d610976610bd5565b8383611062565b5050565b61099261098c610bd5565b83610c96565b6109d1576040517f08c379a00000000000000000000000000000000000000000000000000000000081526004016109c890612a2a565b60405180910390fd5b6109dd848484846111cf565b50505050565b60606109ee8261122b565b9050919050565b600b5481565b6000600560008473ffffffffffffffffffffffffffffffffffffffff1673ffffffffffffffffffffffffffffffffffffffff16815260200190815260200160002060008373ffffffffffffffffffffffffffffffffffffffff1673ffffffffffffffffffffffffffffffffffffffff16815260200190815260200160002060009054906101000a900460ff16905092915050565b6000600b6000815480929190610aa490612e0b565b9190505550610ab533600b5461133e565b610b05600b5484848080601f016020809104026020016040519081016040528093929190818152602001838380828437600081840152601f19601f8201169050808301925050505050505061135c565b600b54905092915050565b60007f780e9d63000000000000000000000000000000000000000000000000000000007bffffffffffffffffffffffffffffffffffffffffffffffffffffffff1916827bffffffffffffffffffffffffffffffffffffffffffffffffffffffff19161480610b835750610b82826113d0565b5b9050919050565b610b93816114b2565b610bd2576040517f08c379a0000000000000000000000000000000000000000000000000000000008152600401610bc990612b6a565b60405180910390fd5b50565b600033905090565b816004600083815260200190815260200160002060006101000a81548173ffffffffffffffffffffffffffffffffffffffff021916908373ffffffffffffffffffffffffffffffffffffffff160217905550808273ffffffffffffffffffffffffffffffffffffffff16610c508361079a565b73ffffffffffffffffffffffffffffffffffffffff167f8c5be1e5ebec7d5bd14f71427d1e84f3dd0314c0f7b2291e5b200ac8c7c3b92560405160405180910390a45050565b600080610ca28361079a565b90508073ffffffffffffffffffffffffffffffffffffffff168473ffffffffffffffffffffffffffffffffffffffff161480610ce45750610ce381856109fb565b5b80610d2257508373ffffffffffffffffffffffffffffffffffffffff16610d0a84610473565b73ffffffffffffffffffffffffffffffffffffffff16145b91505092915050565b8273ffffffffffffffffffffffffffffffffffffffff16610d4b8261079a565b73ffffffffffffffffffffffffffffffffffffffff1614610da1576040517f08c379a0000000000000000000000000000000000000000000000000000000008152600401610d9890612a8a565b60405180910390fd5b600073ffffffffffffffffffffffffffffffffffffffff168273ffffffffffffffffffffffffffffffffffffffff161415610e11576040517f08c379a0000000000000000000000000000000000000000000000000000000008152600401610e0890612aca565b60405180910390fd5b610e1e83838360016114f3565b8273ffffffffffffffffffffffffffffffffffffffff16610e3e8261079a565b73ffffffffffffffffffffffffffffffffffffffff1614610e94576040517f08c379a0000000000000000000000000000000000000000000000000000000008152600401610e8b90612a8a565b60405180910390fd5b6004600082815260200190815260200160002060006101000a81549073ffffffffffffffffffffffffffffffffffffffff02191690556001600360008573ffffffffffffffffffffffffffffffffffffffff1673ffffffffffffffffffffffffffffffffffffffff168152602001908152602001600020600082825403925050819055506001600360008473ffffffffffffffffffffffffffffffffffffffff1673ffffffffffffffffffffffffffffffffffffffff16815260200190815260200160002060008282540192505081905550816002600083815260200190815260200160002060006101000a81548173ffffffffffffffffffffffffffffffffffffffff021916908373ffffffffffffffffffffffffffffffffffffffff160217905550808273ffffffffffffffffffffffffffffffffffffffff168473ffffffffffffffffffffffffffffffffffffffff167fddf252ad1be2c89b69c2b068fc378daa952ba7f163c4a11628f55a4df523b3ef60405160405180910390a46110208383836001611505565b505050565b60006002600083815260200190815260200160002060009054906101000a900473ffffffffffffffffffffffffffffffffffffffff169050919050565b8173ffffffffffffffffffffffffffffffffffffffff168373ffffffffffffffffffffffffffffffffffffffff1614156110d1576040517f08c379a00000000000000000000000000000000000000000000000000000000081526004016110c890612aea565b60405180910390fd5b80600560008573ffffffffffffffffffffffffffffffffffffffff1673ffffffffffffffffffffffffffffffffffffffff16815260200190815260200160002060008473ffffffffffffffffffffffffffffffffffffffff1673ffffffffffffffffffffffffffffffffffffffff16815260200190815260200160002060006101000a81548160ff0219169083151502179055508173ffffffffffffffffffffffffffffffffffffffff168373ffffffffffffffffffffffffffffffffffffffff167f17307eab39ab6107e8899845ad3d59bd9653f200f220920489ca2b5937696c31836040516111c291906129ed565b60405180910390a3505050565b6111da848484610d2b565b6111e68484848461150b565b611225576040517f08c379a000000000000000000000000000000000000000000000000000000000815260040161121c90612a6a565b60405180910390fd5b50505050565b606061123682610b8a565b600060066000848152602001908152602001600020805461125690612da8565b80601f016020809104026020016040519081016040528092919081815260200182805461128290612da8565b80156112cf5780601f106112a4576101008083540402835291602001916112cf565b820191906000526020600020905b8154815290600101906020018083116112b257829003601f168201915b5050505050905060006112e06116a2565b90506000815114156112f6578192505050611339565b60008251111561132b578082604051602001611313929190612962565b60405160208183030381529060405292505050611339565b611334846116b9565b925050505b919050565b611358828260405180602001604052806000815250611721565b5050565b611365826114b2565b6113a4576040517f08c379a000000000000000000000000000000000000000000000000000000000815260040161139b90612b2a565b60405180910390fd5b806006600084815260200190815260200160002090805190602001906113cb929190612260565b505050565b60007f80ac58cd000000000000000000000000000000000000000000000000000000007bffffffffffffffffffffffffffffffffffffffffffffffffffffffff1916827bffffffffffffffffffffffffffffffffffffffffffffffffffffffff1916148061149b57507f5b5e139f000000000000000000000000000000000000000000000000000000007bffffffffffffffffffffffffffffffffffffffffffffffffffffffff1916827bffffffffffffffffffffffffffffffffffffffffffffffffffffffff1916145b806114ab57506114aa8261177c565b5b9050919050565b60008073ffffffffffffffffffffffffffffffffffffffff166114d483611025565b73ffffffffffffffffffffffffffffffffffffffff1614159050919050565b6114ff848484846117e6565b50505050565b50505050565b600061152c8473ffffffffffffffffffffffffffffffffffffffff16611946565b15611695578373ffffffffffffffffffffffffffffffffffffffff1663150b7a02611555610bd5565b8786866040518563ffffffff1660e01b815260040161157794939291906129a1565b602060405180830381600087803b15801561159157600080fd5b505af19250505080156115c257506040513d601f19601f820116820180604052508101906115bf91906125ee565b60015b611645573d80600081146115f2576040519150601f19603f3d011682016040523d82523d6000602084013e6115f7565b606091505b5060008151141561163d576040517f08c379a000000000000000000000000000000000000000000000000000000000815260040161163490612a6a565b60405180910390fd5b805181602001fd5b63150b7a0260e01b7bffffffffffffffffffffffffffffffffffffffffffffffffffffffff1916817bffffffffffffffffffffffffffffffffffffffffffffffffffffffff19161491505061169a565b600190505b949350505050565b606060405180602001604052806000815250905090565b60606116c482610b8a565b60006116ce6116a2565b905060008151116116ee5760405180602001604052806000815250611719565b806116f884611969565b604051602001611709929190612962565b6040516020818303038152906040525b915050919050565b61172b8383611a8d565b611738600084848461150b565b611777576040517f08c379a000000000000000000000000000000000000000000000000000000000815260040161176e90612a6a565b60405180910390fd5b505050565b60007f01ffc9a7000000000000000000000000000000000000000000000000000000007bffffffffffffffffffffffffffffffffffffffffffffffffffffffff1916827bffffffffffffffffffffffffffffffffffffffffffffffffffffffff1916149050919050565b6117f284848484611cab565b6001811115611836576040517f08c379a000000000000000000000000000000000000000000000000000000000815260040161182d90612bea565b60405180910390fd5b6000829050600073ffffffffffffffffffffffffffffffffffffffff168573ffffffffffffffffffffffffffffffffffffffff16141561187e5761187981611cb1565b6118bd565b8373ffffffffffffffffffffffffffffffffffffffff168573ffffffffffffffffffffffffffffffffffffffff16146118bc576118bb8582611cfa565b5b5b600073ffffffffffffffffffffffffffffffffffffffff168473ffffffffffffffffffffffffffffffffffffffff161415611900576118fb81611e67565b61193f565b8473ffffffffffffffffffffffffffffffffffffffff168473ffffffffffffffffffffffffffffffffffffffff161461193e5761193d8482611faa565b5b5b5050505050565b6000808273ffffffffffffffffffffffffffffffffffffffff163b119050919050565b60606000600161197884612029565b01905060008167ffffffffffffffff8111156119bd577f4e487b7100000000000000000000000000000000000000000000000000000000600052604160045260246000fd5b6040519080825280601f01601f1916602001820160405280156119ef5781602001600182028036833780820191505090505b509050600082602001820190505b600115611a82578080600190039150507f3031323334353637383961626364656600000000000000000000000000000000600a86061a8153600a8581611a6c577f4e487b7100000000000000000000000000000000000000000000000000000000600052601260045260246000fd5b0494506000851415611a7d57611a82565b6119fd565b819350505050919050565b600073ffffffffffffffffffffffffffffffffffffffff168273ffffffffffffffffffffffffffffffffffffffff161415611afd576040517f08c379a0000000000000000000000000000000000000000000000000000000008152600401611af490612b4a565b60405180910390fd5b611b06816114b2565b15611b46576040517f08c379a0000000000000000000000000000000000000000000000000000000008152600401611b3d90612aaa565b60405180910390fd5b611b546000838360016114f3565b611b5d816114b2565b15611b9d576040517f08c379a0000000000000000000000000000000000000000000000000000000008152600401611b9490612aaa565b60405180910390fd5b6001600360008473ffffffffffffffffffffffffffffffffffffffff1673ffffffffffffffffffffffffffffffffffffffff16815260200190815260200160002060008282540192505081905550816002600083815260200190815260200160002060006101000a81548173ffffffffffffffffffffffffffffffffffffffff021916908373ffffffffffffffffffffffffffffffffffffffff160217905550808273ffffffffffffffffffffffffffffffffffffffff16600073ffffffffffffffffffffffffffffffffffffffff167fddf252ad1be2c89b69c2b068fc378daa952ba7f163c4a11628f55a4df523b3ef60405160405180910390a4611ca7600083836001611505565b5050565b50505050565b600980549050600a600083815260200190815260200160002081905550600981908060018154018082558091505060019003906000526020600020016000909190919091505550565b60006001611d0784610821565b611d119190612cbe565b9050600060086000848152602001908152602001600020549050818114611df6576000600760008673ffffffffffffffffffffffffffffffffffffffff1673ffffffffffffffffffffffffffffffffffffffff168152602001908152602001600020600084815260200190815260200160002054905080600760008773ffffffffffffffffffffffffffffffffffffffff1673ffffffffffffffffffffffffffffffffffffffff168152602001908152602001600020600084815260200190815260200160002081905550816008600083815260200190815260200160002081905550505b6008600084815260200190815260200160002060009055600760008573ffffffffffffffffffffffffffffffffffffffff1673ffffffffffffffffffffffffffffffffffffffff16815260200190815260200160002060008381526020019081526020016000206000905550505050565b60006001600980549050611e7b9190612cbe565b90506000600a6000848152602001908152602001600020549050600060098381548110611ed1577f4e487b7100000000000000000000000000000000000000000000000000000000600052603260045260246000fd5b906000526020600020015490508060098381548110611f19577f4e487b7100000000000000000000000000000000000000000000000000000000600052603260045260246000fd5b906000526020600020018190555081600a600083815260200190815260200160002081905550600a6000858152602001908152602001600020600090556009805480611f8e577f4e487b7100000000000000000000000000000000000000000000000000000000600052603160045260246000fd5b6001900381819060005260206000200160009055905550505050565b6000611fb583610821565b905081600760008573ffffffffffffffffffffffffffffffffffffffff1673ffffffffffffffffffffffffffffffffffffffff168152602001908152602001600020600083815260200190815260200160002081905550806008600084815260200190815260200160002081905550505050565b600080600090507a184f03e93ff9f4daa797ed6e38ed64bf6a1f01000000000000000083106120ad577a184f03e93ff9f4daa797ed6e38ed64bf6a1f01000000000000000083816120a3577f4e487b7100000000000000000000000000000000000000000000000000000000600052601260045260246000fd5b0492506040810190505b6d04ee2d6d415b85acef81000000008310612110576d04ee2d6d415b85acef81000000008381612106577f4e487b7100000000000000000000000000000000000000000000000000000000600052601260045260246000fd5b0492506020810190505b662386f26fc10000831061216557662386f26fc10000838161215b577f4e487b7100000000000000000000000000000000000000000000000000000000600052601260045260246000fd5b0492506010810190505b6305f5e10083106121b4576305f5e10083816121aa577f4e487b7100000000000000000000000000000000000000000000000000000000600052601260045260246000fd5b0492506008810190505b61271083106121ff5761271083816121f5577f4e487b7100000000000000000000000000000000000000000000000000000000600052601260045260246000fd5b0492506004810190505b60648310612248576064838161223e577f4e487b7100000000000000000000000000000000000000000000000000000000600052601260045260246000fd5b0492506002810190505b600a8310612257576001810190505b80915050919050565b82805461226c90612da8565b90600052602060002090601f01602090048101928261228e57600085556122d5565b82601f106122a757805160ff19168380011785556122d5565b828001600101855582156122d5579182015b828111156122d45782518255916020019190600101906122b9565b5b5090506122e291906122e6565b5090565b5b808211156122ff5760008160009055506001016122e7565b5090565b600061231661231184612c4a565b612c25565b90508281526020810184848401111561232e57600080fd5b612339848285612d66565b509392505050565b600081359050612350816132fb565b92915050565b60008135905061236581613312565b92915050565b60008135905061237a81613329565b92915050565b60008151905061238f81613329565b92915050565b600082601f8301126123a657600080fd5b81356123b6848260208601612303565b91505092915050565b60008083601f8401126123d157600080fd5b8235905067ffffffffffffffff8111156123ea57600080fd5b60208301915083600182028301111561240257600080fd5b9250929050565b60008135905061241881613340565b92915050565b60006020828403121561243057600080fd5b600061243e84828501612341565b91505092915050565b6000806040838503121561245a57600080fd5b600061246885828601612341565b925050602061247985828601612341565b9150509250929050565b60008060006060848603121561249857600080fd5b60006124a686828701612341565b93505060206124b786828701612341565b92505060406124c886828701612409565b9150509250925092565b600080600080608085870312156124e857600080fd5b60006124f687828801612341565b945050602061250787828801612341565b935050604061251887828801612409565b925050606085013567ffffffffffffffff81111561253557600080fd5b61254187828801612395565b91505092959194509250565b6000806040838503121561256057600080fd5b600061256e85828601612341565b925050602061257f85828601612356565b9150509250929050565b6000806040838503121561259c57600080fd5b60006125aa85828601612341565b92505060206125bb85828601612409565b9150509250929050565b6000602082840312156125d757600080fd5b60006125e58482850161236b565b91505092915050565b60006020828403121561260057600080fd5b600061260e84828501612380565b91505092915050565b6000806020838503121561262a57600080fd5b600083013567ffffffffffffffff81111561264457600080fd5b612650858286016123bf565b92509250509250929050565b60006020828403121561266e57600080fd5b600061267c84828501612409565b91505092915050565b61268e81612cf2565b82525050565b61269d81612d04565b82525050565b60006126ae82612c7b565b6126b88185612c91565b93506126c8818560208601612d75565b6126d181612ee1565b840191505092915050565b60006126e782612c86565b6126f18185612ca2565b9350612701818560208601612d75565b61270a81612ee1565b840191505092915050565b600061272082612c86565b61272a8185612cb3565b935061273a818560208601612d75565b80840191505092915050565b6000612753602d83612ca2565b915061275e82612ef2565b604082019050919050565b6000612776602b83612ca2565b915061278182612f41565b604082019050919050565b6000612799603283612ca2565b91506127a482612f90565b604082019050919050565b60006127bc602583612ca2565b91506127c782612fdf565b604082019050919050565b60006127df601c83612ca2565b91506127ea8261302e565b602082019050919050565b6000612802602483612ca2565b915061280d82613057565b604082019050919050565b6000612825601983612ca2565b9150612830826130a6565b602082019050919050565b6000612848602983612ca2565b9150612853826130cf565b604082019050919050565b600061286b602e83612ca2565b91506128768261311e565b604082019050919050565b600061288e602083612ca2565b91506128998261316d565b602082019050919050565b60006128b1601883612ca2565b91506128bc82613196565b602082019050919050565b60006128d4602183612ca2565b91506128df826131bf565b604082019050919050565b60006128f7603d83612ca2565b91506129028261320e565b604082019050919050565b600061291a602c83612ca2565b91506129258261325d565b604082019050919050565b600061293d603583612ca2565b9150612948826132ac565b604082019050919050565b61295c81612d5c565b82525050565b600061296e8285612715565b915061297a8284612715565b91508190509392505050565b600060208201905061299b6000830184612685565b92915050565b60006080820190506129b66000830187612685565b6129c36020830186612685565b6129d06040830185612953565b81810360608301526129e281846126a3565b905095945050505050565b6000602082019050612a026000830184612694565b92915050565b60006020820190508181036000830152612a2281846126dc565b905092915050565b60006020820190508181036000830152612a4381612746565b9050919050565b60006020820190508181036000830152612a6381612769565b9050919050565b60006020820190508181036000830152612a838161278c565b9050919050565b60006020820190508181036000830152612aa3816127af565b9050919050565b60006020820190508181036000830152612ac3816127d2565b9050919050565b60006020820190508181036000830152612ae3816127f5565b9050919050565b60006020820190508181036000830152612b0381612818565b9050919050565b60006020820190508181036000830152612b238161283b565b9050919050565b60006020820190508181036000830152612b438161285e565b9050919050565b60006020820190508181036000830152612b6381612881565b9050919050565b60006020820190508181036000830152612b83816128a4565b9050919050565b60006020820190508181036000830152612ba3816128c7565b9050919050565b60006020820190508181036000830152612bc3816128ea565b9050919050565b60006020820190508181036000830152612be38161290d565b9050919050565b60006020820190508181036000830152612c0381612930565b9050919050565b6000602082019050612c1f6000830184612953565b92915050565b6000612c2f612c40565b9050612c3b8282612dda565b919050565b6000604051905090565b600067ffffffffffffffff821115612c6557612c64612eb2565b5b612c6e82612ee1565b9050602081019050919050565b600081519050919050565b600081519050919050565b600082825260208201905092915050565b600082825260208201905092915050565b600081905092915050565b6000612cc982612d5c565b9150612cd483612d5c565b925082821015612ce757612ce6612e54565b5b828203905092915050565b6000612cfd82612d3c565b9050919050565b60008115159050919050565b60007fffffffff0000000000000000000000000000000000000000000000000000000082169050919050565b600073ffffffffffffffffffffffffffffffffffffffff82169050919050565b6000819050919050565b82818337600083830152505050565b60005b83811015612d93578082015181840152602081019050612d78565b83811115612da2576000848401525b50505050565b60006002820490506001821680612dc057607f821691505b60208210811415612dd457612dd3612e83565b5b50919050565b612de382612ee1565b810181811067ffffffffffffffff82111715612e0257612e01612eb2565b5b80604052505050565b6000612e1682612d5c565b91507fffffffffffffffffffffffffffffffffffffffffffffffffffffffffffffffff821415612e4957612e48612e54565b5b600182019050919050565b7f4e487b7100000000000000000000000000000000000000000000000000000000600052601160045260246000fd5b7f4e487b7100000000000000000000000000000000000000000000000000000000600052602260045260246000fd5b7f4e487b7100000000000000000000000000000000000000000000000000000000600052604160045260246000fd5b6000601f19601f8301169050919050565b7f4552433732313a2063616c6c6572206973206e6f7420746f6b656e206f776e6560008201527f72206f7220617070726f76656400000000000000000000000000000000000000602082015250565b7f455243373231456e756d657261626c653a206f776e657220696e646578206f7560008201527f74206f6620626f756e6473000000000000000000000000000000000000000000602082015250565b7f4552433732313a207472616e7366657220746f206e6f6e20455243373231526560008201527f63656976657220696d706c656d656e7465720000000000000000000000000000602082015250565b7f4552433732313a207472616e736665722066726f6d20696e636f72726563742060008201527f6f776e6572000000000000000000000000000000000000000000000000000000602082015250565b7f4552433732313a20746f6b656e20616c7265616479206d696e74656400000000600082015250565b7f4552433732313a207472616e7366657220746f20746865207a65726f2061646460008201527f7265737300000000000000000000000000000000000000000000000000000000602082015250565b7f4552433732313a20617070726f766520746f2063616c6c657200000000000000600082015250565b7f4552433732313a2061646472657373207a65726f206973206e6f74206120766160008201527f6c6964206f776e65720000000000000000000000000000000000000000000000602082015250565b7f45524337323155524953746f726167653a2055524920736574206f66206e6f6e60008201527f6578697374656e7420746f6b656e000000000000000000000000000000000000602082015250565b7f4552433732313a206d696e7420746f20746865207a65726f2061646472657373600082015250565b7f4552433732313a20696e76616c696420746f6b656e2049440000000000000000600082015250565b7f4552433732313a20617070726f76616c20746f2063757272656e74206f776e6560008201527f7200000000000000000000000000000000000000000000000000000000000000602082015250565b7f4552433732313a20617070726f76652063616c6c6572206973206e6f7420746f60008201527f6b656e206f776e6572206f7220617070726f76656420666f7220616c6c000000602082015250565b7f455243373231456e756d657261626c653a20676c6f62616c20696e646578206f60008201527f7574206f6620626f756e64730000000000000000000000000000000000000000602082015250565b7f455243373231456e756d657261626c653a20636f6e736563757469766520747260008201527f616e7366657273206e6f7420737570706f727465640000000000000000000000602082015250565b61330481612cf2565b811461330f57600080fd5b50565b61331b81612d04565b811461332657600080fd5b50565b61333281612d10565b811461333d57600080fd5b50565b61334981612d5c565b811461335457600080fd5b5056fea264697066735822122039aa5d76fa2199f0f3401ca9a77bffafd46d08d89735e47572a2dc1d1f891ac564736f6c63430008040033",
  "linkReferences": {},
  "deployedLinkReferences": {}
}