{
  "_format": "hh-sol-artifact-1",
  "contractName": "Marketplace",
  "sourceName": "src/backend/contracts/Marketplace.sol",
  "abi": [
    {
      "inputs": [
        {
          "internalType": "uint256",
          "name": "_feePercent",
          "type": "uint256"
        }
      ],
      "stateMutability": "nonpayable",
      "type": "constructor"
    },
    {
      "anonymous": false,
      "inputs": [
        {
          "indexed": false,
          "internalType": "uint256",
          "name": "auctionId",
          "type": "uint256"
        },
        {
          "indexed": false,
          "internalType": "address",
          "name": "nft",
          "type": "address"
        },
        {
          "indexed": true,
          "internalType": "uint256",
          "name": "tokenId",
          "type": "uint256"
        },
        {
          "indexed": false,
          "internalType": "uint256",
          "name": "price",
          "type": "uint256"
        },
        {
          "indexed": true,
          "internalType": "address",
          "name": "seller",
          "type": "address"
        },
        {
          "indexed": true,
          "internalType": "address",
          "name": "buyer",
          "type": "address"
        }
      ],
      "name": "AuctionEnded",
      "type": "event"
    },
    {
      "anonymous": false,
      "inputs": [
        {
          "indexed": false,
          "internalType": "uint256",
          "name": "auctionId",
          "type": "uint256"
        },
        {
          "indexed": false,
          "internalType": "address",
          "name": "nft",
          "type": "address"
        },
        {
          "indexed": true,
          "internalType": "uint256",
          "name": "tokenId",
          "type": "uint256"
        },
        {
          "indexed": false,
          "internalType": "uint256",
          "name": "price",
          "type": "uint256"
        },
        {
          "indexed": false,
          "internalType": "uint256",
          "name": "timeToEnd",
          "type": "uint256"
        },
        {
          "indexed": true,
          "internalType": "address",
          "name": "seller",
          "type": "address"
        }
      ],
      "name": "AuctionStarted",
      "type": "event"
    },
    {
      "anonymous": false,
      "inputs": [
        {
          "indexed": false,
          "internalType": "uint256",
          "name": "itemId",
          "type": "uint256"
        },
        {
          "indexed": false,
          "internalType": "address",
          "name": "nft",
          "type": "address"
        },
        {
          "indexed": true,
          "internalType": "uint256",
          "name": "tokenId",
          "type": "uint256"
        },
        {
          "indexed": false,
          "internalType": "uint256",
          "name": "price",
          "type": "uint256"
        },
        {
          "indexed": true,
          "internalType": "address",
          "name": "seller",
          "type": "address"
        },
        {
          "indexed": true,
          "internalType": "address",
          "name": "buyer",
          "type": "address"
        }
      ],
      "name": "Bought",
      "type": "event"
    },
    {
      "anonymous": false,
      "inputs": [
        {
          "indexed": false,
          "internalType": "uint256",
          "name": "itemId",
          "type": "uint256"
        },
        {
          "indexed": false,
          "internalType": "address",
          "name": "nft",
          "type": "address"
        },
        {
          "indexed": true,
          "internalType": "uint256",
          "name": "tokenId",
          "type": "uint256"
        },
        {
          "indexed": false,
          "internalType": "uint256",
          "name": "price",
          "type": "uint256"
        },
        {
          "indexed": true,
          "internalType": "address",
          "name": "seller",
          "type": "address"
        }
      ],
      "name": "Offered",
      "type": "event"
    },
    {
      "stateMutability": "nonpayable",
      "type": "fallback"
    },
    {
      "inputs": [],
      "name": "auctionItemCount",
      "outputs": [
        {
          "internalType": "uint256",
          "name": "",
          "type": "uint256"
        }
      ],
      "stateMutability": "view",
      "type": "function"
    },
    {
      "inputs": [
        {
          "internalType": "uint256",
          "name": "",
          "type": "uint256"
        }
      ],
      "name": "auctionItems",
      "outputs": [
        {
          "internalType": "uint256",
          "name": "auctionId",
          "type": "uint256"
        },
        {
          "internalType": "contract IERC721",
          "name": "nft",
          "type": "address"
        },
        {
          "internalType": "uint256",
          "name": "tokenId",
          "type": "uint256"
        },
        {
          "internalType": "uint256",
          "name": "price",
          "type": "uint256"
        },
        {
          "internalType": "uint256",
          "name": "timeToEnd",
          "type": "uint256"
        },
        {
          "internalType": "address payable",
          "name": "winner",
          "type": "address"
        },
        {
          "internalType": "address payable",
          "name": "seller",
          "type": "address"
        },
        {
          "internalType": "uint256",
          "name": "deposited",
          "type": "uint256"
        },
        {
          "internalType": "bool",
          "name": "claimed",
          "type": "bool"
        }
      ],
      "stateMutability": "view",
      "type": "function"
    },
    {
      "inputs": [
        {
          "internalType": "uint256",
          "name": "_auctionId",
          "type": "uint256"
        }
      ],
      "name": "cancelAuction",
      "outputs": [],
      "stateMutability": "payable",
      "type": "function"
    },
    {
      "inputs": [
        {
          "internalType": "uint256",
          "name": "_itemId",
          "type": "uint256"
        }
      ],
      "name": "cancelOffered",
      "outputs": [],
      "stateMutability": "nonpayable",
      "type": "function"
    },
    {
      "inputs": [
        {
          "internalType": "uint256",
          "name": "_auctionId",
          "type": "uint256"
        }
      ],
      "name": "claimNFT",
      "outputs": [],
      "stateMutability": "nonpayable",
      "type": "function"
    },
    {
      "inputs": [],
      "name": "feeAccount",
      "outputs": [
        {
          "internalType": "address payable",
          "name": "",
          "type": "address"
        }
      ],
      "stateMutability": "view",
      "type": "function"
    },
    {
      "inputs": [],
      "name": "feePercent",
      "outputs": [
        {
          "internalType": "uint256",
          "name": "",
          "type": "uint256"
        }
      ],
      "stateMutability": "view",
      "type": "function"
    },
    {
      "inputs": [
        {
          "internalType": "uint256",
          "name": "_itemId",
          "type": "uint256"
        }
      ],
      "name": "getTotalPrice",
      "outputs": [
        {
          "internalType": "uint256",
          "name": "",
          "type": "uint256"
        }
      ],
      "stateMutability": "view",
      "type": "function"
    },
    {
      "inputs": [],
      "name": "itemCount",
      "outputs": [
        {
          "internalType": "uint256",
          "name": "",
          "type": "uint256"
        }
      ],
      "stateMutability": "view",
      "type": "function"
    },
    {
      "inputs": [
        {
          "internalType": "uint256",
          "name": "",
          "type": "uint256"
        }
      ],
      "name": "items",
      "outputs": [
        {
          "internalType": "uint256",
          "name": "itemId",
          "type": "uint256"
        },
        {
          "internalType": "contract IERC721",
          "name": "nft",
          "type": "address"
        },
        {
          "internalType": "uint256",
          "name": "tokenId",
          "type": "uint256"
        },
        {
          "internalType": "uint256",
          "name": "price",
          "type": "uint256"
        },
        {
          "internalType": "address payable",
          "name": "seller",
          "type": "address"
        },
        {
          "internalType": "bool",
          "name": "sold",
          "type": "bool"
        }
      ],
      "stateMutability": "view",
      "type": "function"
    },
    {
      "inputs": [
        {
          "internalType": "contract IERC721",
          "name": "_nft",
          "type": "address"
        },
        {
          "internalType": "uint256",
          "name": "_tokenId",
          "type": "uint256"
        },
        {
          "internalType": "uint256",
          "name": "_price",
          "type": "uint256"
        }
      ],
      "name": "makeItem",
      "outputs": [],
      "stateMutability": "nonpayable",
      "type": "function"
    },
    {
      "inputs": [
        {
          "internalType": "uint256",
          "name": "_auctionId",
          "type": "uint256"
        }
      ],
      "name": "makeOffer",
      "outputs": [],
      "stateMutability": "payable",
      "type": "function"
    },
    {
      "inputs": [
        {
          "internalType": "uint256",
          "name": "_itemId",
          "type": "uint256"
        }
      ],
      "name": "purchaseItem",
      "outputs": [],
      "stateMutability": "payable",
      "type": "function"
    },
    {
      "inputs": [
        {
          "internalType": "contract IERC721",
          "name": "_nft",
          "type": "address"
        },
        {
          "internalType": "uint256",
          "name": "_tokenId",
          "type": "uint256"
        },
        {
          "internalType": "uint256",
          "name": "_price",
          "type": "uint256"
        },
        {
          "internalType": "uint256",
          "name": "_timeToEnd",
          "type": "uint256"
        }
      ],
      "name": "startAuction",
      "outputs": [],
      "stateMutability": "nonpayable",
      "type": "function"
    }
  ],
  "bytecode": "0x60c06040523480156200001157600080fd5b5060405162002e5638038062002e5683398181016040528101906200003791906200009c565b60016000819055503373ffffffffffffffffffffffffffffffffffffffff1660808173ffffffffffffffffffffffffffffffffffffffff1660601b815250508060a0818152505050620000ec565b6000815190506200009681620000d2565b92915050565b600060208284031215620000af57600080fd5b6000620000bf8482850162000085565b91505092915050565b6000819050919050565b620000dd81620000c8565b8114620000e957600080fd5b50565b60805160601c60a051612d336200012360003960008181610669015261106101526000818161035b01526112fc0152612d336000f3fe6080604052600436106100e15760003560e01c8063bfb231d21161007f578063d38ea5bf11610059578063d38ea5bf146102c0578063fa00afc7146102dc578063fe5c873a14610305578063fe6d7a6e1461032e576100e2565b8063bfb231d2146101fc578063ca7dd3751461023e578063d2c069f01461027b576100e2565b80637fd6f15c116100bb5780637fd6f15c1461017057806396b5a7551461019b5780639a2f6474146101b75780639c166273146101d3576100e2565b806365e17c9d146100f15780636bfb0d011461011c5780637ee53f0f14610147576100e2565b5b3480156100ee57600080fd5b50005b3480156100fd57600080fd5b50610106610359565b604051610113919061217f565b60405180910390f35b34801561012857600080fd5b5061013161037d565b60405161013e9190612448565b60405180910390f35b34801561015357600080fd5b5061016e60048036038101906101699190611e86565b610383565b005b34801561017c57600080fd5b50610185610667565b6040516101929190612448565b60405180910390f35b6101b560048036038101906101b09190611e86565b61068b565b005b6101d160048036038101906101cc9190611e86565b610a8c565b005b3480156101df57600080fd5b506101fa60048036038101906101f59190611e23565b610cd3565b005b34801561020857600080fd5b50610223600480360381019061021e9190611e86565b610fd2565b604051610235969594939291906124df565b60405180910390f35b34801561024a57600080fd5b5061026560048036038101906102609190611e86565b61105b565b6040516102729190612448565b60405180910390f35b34801561028757600080fd5b506102a2600480360381019061029d9190611e86565b6110be565b6040516102b799989796959493929190612540565b60405180910390f35b6102da60048036038101906102d59190611e86565b611179565b005b3480156102e857600080fd5b5061030360048036038101906102fe9190611dd4565b6114eb565b005b34801561031157600080fd5b5061032c60048036038101906103279190611e86565b611761565b005b34801561033a57600080fd5b50610343611c82565b6040516103509190612448565b60405180910390f35b7f000000000000000000000000000000000000000000000000000000000000000081565b60015481565b61038b611c88565b600081116103ce576040517f08c379a00000000000000000000000000000000000000000000000000000000081526004016103c590612308565b60405180910390fd5b3373ffffffffffffffffffffffffffffffffffffffff166003600083815260200190815260200160002060040160009054906101000a900473ffffffffffffffffffffffffffffffffffffffff1673ffffffffffffffffffffffffffffffffffffffff1614610472576040517f08c379a0000000000000000000000000000000000000000000000000000000008152600401610469906123c8565b60405180910390fd5b6003600082815260200190815260200160002060040160149054906101000a900460ff16156104d6576040517f08c379a00000000000000000000000000000000000000000000000000000000081526004016104cd906123a8565b60405180910390fd5b600060036000838152602001908152602001600020905060018160040160146101000a81548160ff0219169083151502179055508060010160009054906101000a900473ffffffffffffffffffffffffffffffffffffffff1673ffffffffffffffffffffffffffffffffffffffff166323b872dd303384600201546040518463ffffffff1660e01b815260040161056f939291906121d1565b600060405180830381600087803b15801561058957600080fd5b505af115801561059d573d6000803e3d6000fd5b505050503373ffffffffffffffffffffffffffffffffffffffff168160040160009054906101000a900473ffffffffffffffffffffffffffffffffffffffff1673ffffffffffffffffffffffffffffffffffffffff1682600201547f8b4c9c8a607d67b321582dd8461041b1dc2ceeca70c8b7f37f8e02095cf2e76d858560010160009054906101000a900473ffffffffffffffffffffffffffffffffffffffff16866003015460405161065393929190612463565b60405180910390a450610664611cd8565b50565b7f000000000000000000000000000000000000000000000000000000000000000081565b610693611c88565b600081116106d6576040517f08c379a00000000000000000000000000000000000000000000000000000000081526004016106cd906122c8565b60405180910390fd5b3373ffffffffffffffffffffffffffffffffffffffff166004600083815260200190815260200160002060060160009054906101000a900473ffffffffffffffffffffffffffffffffffffffff1673ffffffffffffffffffffffffffffffffffffffff161461077a576040517f08c379a000000000000000000000000000000000000000000000000000000000815260040161077190612428565b60405180910390fd5b6004600082815260200190815260200160002060080160009054906101000a900460ff16156107de576040517f08c379a00000000000000000000000000000000000000000000000000000000081526004016107d5906122a8565b60405180910390fd5b60046000828152602001908152602001600020600401544210610836576040517f08c379a000000000000000000000000000000000000000000000000000000000815260040161082d90612208565b60405180910390fd5b60006004600083815260200190815260200160002090508060010160009054906101000a900473ffffffffffffffffffffffffffffffffffffffff1673ffffffffffffffffffffffffffffffffffffffff166323b872dd308360060160009054906101000a900473ffffffffffffffffffffffffffffffffffffffff1684600201546040518463ffffffff1660e01b81526004016108d69392919061219a565b600060405180830381600087803b1580156108f057600080fd5b505af1158015610904573d6000803e3d6000fd5b50505050600081600701541115610985578060050160009054906101000a900473ffffffffffffffffffffffffffffffffffffffff1673ffffffffffffffffffffffffffffffffffffffff166108fc82600701549081150290604051600060405180830381858888f19350505050158015610983573d6000803e3d6000fd5b505b60018160080160006101000a81548160ff0219169083151502179055508060050160009054906101000a900473ffffffffffffffffffffffffffffffffffffffff1673ffffffffffffffffffffffffffffffffffffffff168160060160009054906101000a900473ffffffffffffffffffffffffffffffffffffffff1673ffffffffffffffffffffffffffffffffffffffff1682600201547fe9c76f3cd26822fab39fde36b56736739a684a806c8c0cf5eacd75511797ca7b858560010160009054906101000a900473ffffffffffffffffffffffffffffffffffffffff168660030154604051610a7893929190612463565b60405180910390a450610a89611cd8565b50565b610a94611c88565b60008111610ad7576040517f08c379a0000000000000000000000000000000000000000000000000000000008152600401610ace906122c8565b60405180910390fd5b60046000828152602001908152602001600020600301543411610b2f576040517f08c379a0000000000000000000000000000000000000000000000000000000008152600401610b26906123e8565b60405180910390fd5b60046000828152602001908152602001600020600401544210610b87576040517f08c379a0000000000000000000000000000000000000000000000000000000008152600401610b7e90612208565b60405180910390fd5b610ba881346004600085815260200190815260200160002060030154611ce2565b600060046000838152602001908152602001600020600701541115610c5b576004600082815260200190815260200160002060050160009054906101000a900473ffffffffffffffffffffffffffffffffffffffff1673ffffffffffffffffffffffffffffffffffffffff166108fc60046000848152602001908152602001600020600701549081150290604051600060405180830381858888f19350505050158015610c59573d6000803e3d6000fd5b505b6000600460008381526020019081526020016000209050348160030181905550338160050160006101000a81548173ffffffffffffffffffffffffffffffffffffffff021916908373ffffffffffffffffffffffffffffffffffffffff16021790555034816007018190555050610cd0611cd8565b50565b610cdb611c88565b60008211610d1e576040517f08c379a0000000000000000000000000000000000000000000000000000000008152600401610d1590612388565b60405180910390fd5b60026000815480929190610d31906127f0565b91905055508373ffffffffffffffffffffffffffffffffffffffff166323b872dd3330866040518463ffffffff1660e01b8152600401610d73939291906121d1565b600060405180830381600087803b158015610d8d57600080fd5b505af1158015610da1573d6000803e3d6000fd5b5050505060405180610120016040528060025481526020018573ffffffffffffffffffffffffffffffffffffffff1681526020018481526020018381526020018281526020013373ffffffffffffffffffffffffffffffffffffffff1681526020013373ffffffffffffffffffffffffffffffffffffffff16815260200160008152602001600015158152506004600060025481526020019081526020016000206000820151816000015560208201518160010160006101000a81548173ffffffffffffffffffffffffffffffffffffffff021916908373ffffffffffffffffffffffffffffffffffffffff16021790555060408201518160020155606082015181600301556080820151816004015560a08201518160050160006101000a81548173ffffffffffffffffffffffffffffffffffffffff021916908373ffffffffffffffffffffffffffffffffffffffff16021790555060c08201518160060160006101000a81548173ffffffffffffffffffffffffffffffffffffffff021916908373ffffffffffffffffffffffffffffffffffffffff16021790555060e082015181600701556101008201518160080160006101000a81548160ff0219169083151502179055509050503373ffffffffffffffffffffffffffffffffffffffff16837fd184fdb1358a28e5370b7ea6f753efc3313b7fd11d6750f270cf79f109a63f17600254878686604051610fbc949392919061249a565b60405180910390a3610fcc611cd8565b50505050565b60036020528060005260406000206000915090508060000154908060010160009054906101000a900473ffffffffffffffffffffffffffffffffffffffff16908060020154908060030154908060040160009054906101000a900473ffffffffffffffffffffffffffffffffffffffff16908060040160149054906101000a900460ff16905086565b600060647f0000000000000000000000000000000000000000000000000000000000000000606461108c9190612615565b60036000858152602001908152602001600020600301546110ad919061269c565b6110b7919061266b565b9050919050565b60046020528060005260406000206000915090508060000154908060010160009054906101000a900473ffffffffffffffffffffffffffffffffffffffff16908060020154908060030154908060040154908060050160009054906101000a900473ffffffffffffffffffffffffffffffffffffffff16908060060160009054906101000a900473ffffffffffffffffffffffffffffffffffffffff16908060070154908060080160009054906101000a900460ff16905089565b611181611c88565b600061118c8261105b565b905060006003600084815260200190815260200160002090506000831180156111b757506001548311155b6111f6576040517f08c379a00000000000000000000000000000000000000000000000000000000081526004016111ed906122e8565b60405180910390fd5b81341015611239576040517f08c379a000000000000000000000000000000000000000000000000000000000815260040161123090612288565b60405180910390fd5b8060040160149054906101000a900460ff161561128b576040517f08c379a000000000000000000000000000000000000000000000000000000000815260040161128290612228565b60405180910390fd5b8060040160009054906101000a900473ffffffffffffffffffffffffffffffffffffffff1673ffffffffffffffffffffffffffffffffffffffff166108fc82600301549081150290604051600060405180830381858888f193505050501580156112f9573d6000803e3d6000fd5b507f000000000000000000000000000000000000000000000000000000000000000073ffffffffffffffffffffffffffffffffffffffff166108fc82600301548461134491906126f6565b9081150290604051600060405180830381858888f1935050505015801561136f573d6000803e3d6000fd5b5060018160040160146101000a81548160ff0219169083151502179055508060010160009054906101000a900473ffffffffffffffffffffffffffffffffffffffff1673ffffffffffffffffffffffffffffffffffffffff166323b872dd303384600201546040518463ffffffff1660e01b81526004016113f2939291906121d1565b600060405180830381600087803b15801561140c57600080fd5b505af1158015611420573d6000803e3d6000fd5b505050503373ffffffffffffffffffffffffffffffffffffffff168160040160009054906101000a900473ffffffffffffffffffffffffffffffffffffffff1673ffffffffffffffffffffffffffffffffffffffff1682600201547f8b4c9c8a607d67b321582dd8461041b1dc2ceeca70c8b7f37f8e02095cf2e76d868560010160009054906101000a900473ffffffffffffffffffffffffffffffffffffffff1686600301546040516114d693929190612463565b60405180910390a450506114e8611cd8565b50565b6114f3611c88565b60008111611536576040517f08c379a000000000000000000000000000000000000000000000000000000000815260040161152d90612248565b60405180910390fd5b60016000815480929190611549906127f0565b91905055508273ffffffffffffffffffffffffffffffffffffffff166323b872dd3330856040518463ffffffff1660e01b815260040161158b939291906121d1565b600060405180830381600087803b1580156115a557600080fd5b505af11580156115b9573d6000803e3d6000fd5b505050506040518060c0016040528060015481526020018473ffffffffffffffffffffffffffffffffffffffff1681526020018381526020018281526020013373ffffffffffffffffffffffffffffffffffffffff168152602001600015158152506003600060015481526020019081526020016000206000820151816000015560208201518160010160006101000a81548173ffffffffffffffffffffffffffffffffffffffff021916908373ffffffffffffffffffffffffffffffffffffffff160217905550604082015181600201556060820151816003015560808201518160040160006101000a81548173ffffffffffffffffffffffffffffffffffffffff021916908373ffffffffffffffffffffffffffffffffffffffff16021790555060a08201518160040160146101000a81548160ff0219169083151502179055509050503373ffffffffffffffffffffffffffffffffffffffff16827f655a0cf9c8db81512be9a76dc1c5ae5380b8816ce6ad659cd61b715e2999d59a600154868560405161174c93929190612463565b60405180910390a361175c611cd8565b505050565b611769611c88565b600081116117ac576040517f08c379a00000000000000000000000000000000000000000000000000000000081526004016117a390612368565b60405180910390fd5b6004600082815260200190815260200160002060040154421015611805576040517f08c379a00000000000000000000000000000000000000000000000000000000081526004016117fc90612328565b60405180910390fd5b3373ffffffffffffffffffffffffffffffffffffffff166004600083815260200190815260200160002060050160009054906101000a900473ffffffffffffffffffffffffffffffffffffffff1673ffffffffffffffffffffffffffffffffffffffff1614806118d657503373ffffffffffffffffffffffffffffffffffffffff166004600083815260200190815260200160002060060160009054906101000a900473ffffffffffffffffffffffffffffffffffffffff1673ffffffffffffffffffffffffffffffffffffffff16145b611915576040517f08c379a000000000000000000000000000000000000000000000000000000000815260040161190c90612348565b60405180910390fd5b6004600082815260200190815260200160002060080160009054906101000a900460ff1615611979576040517f08c379a000000000000000000000000000000000000000000000000000000000815260040161197090612268565b60405180910390fd5b60006004600083815260200190815260200160002060405180610120016040529081600082015481526020016001820160009054906101000a900473ffffffffffffffffffffffffffffffffffffffff1673ffffffffffffffffffffffffffffffffffffffff1673ffffffffffffffffffffffffffffffffffffffff1681526020016002820154815260200160038201548152602001600482015481526020016005820160009054906101000a900473ffffffffffffffffffffffffffffffffffffffff1673ffffffffffffffffffffffffffffffffffffffff1673ffffffffffffffffffffffffffffffffffffffff1681526020016006820160009054906101000a900473ffffffffffffffffffffffffffffffffffffffff1673ffffffffffffffffffffffffffffffffffffffff1673ffffffffffffffffffffffffffffffffffffffff168152602001600782015481526020016008820160009054906101000a900460ff1615151515815250509050806020015173ffffffffffffffffffffffffffffffffffffffff166323b872dd308360a0015184604001516040518463ffffffff1660e01b8152600401611b349392919061219a565b600060405180830381600087803b158015611b4e57600080fd5b505af1158015611b62573d6000803e3d6000fd5b5050505060008160e001511115611bc3578060c0015173ffffffffffffffffffffffffffffffffffffffff166108fc8260e001519081150290604051600060405180830381858888f19350505050158015611bc1573d6000803e3d6000fd5b505b600060046000848152602001908152602001600020905060018160080160006101000a81548160ff0219169083151502179055508160a0015173ffffffffffffffffffffffffffffffffffffffff168260c0015173ffffffffffffffffffffffffffffffffffffffff1683604001517fe9c76f3cd26822fab39fde36b56736739a684a806c8c0cf5eacd75511797ca7b8686602001518760600151604051611c6d93929190612463565b60405180910390a45050611c7f611cd8565b50565b60025481565b60026000541415611cce576040517f08c379a0000000000000000000000000000000000000000000000000000000008152600401611cc590612408565b60405180910390fd5b6002600081905550565b6001600081905550565b611d7c838383604051602401611cfa939291906125cd565b6040516020818303038152906040527fd1ed7a3c000000000000000000000000000000000000000000000000000000007bffffffffffffffffffffffffffffffffffffffffffffffffffffffff19166020820180517bffffffffffffffffffffffffffffffffffffffffffffffffffffffff8381831617835250505050611d81565b505050565b60008151905060006a636f6e736f6c652e6c6f679050602083016000808483855afa5050505050565b600081359050611db981612ccf565b92915050565b600081359050611dce81612ce6565b92915050565b600080600060608486031215611de957600080fd5b6000611df786828701611daa565b9350506020611e0886828701611dbf565b9250506040611e1986828701611dbf565b9150509250925092565b60008060008060808587031215611e3957600080fd5b6000611e4787828801611daa565b9450506020611e5887828801611dbf565b9350506040611e6987828801611dbf565b9250506060611e7a87828801611dbf565b91505092959194509250565b600060208284031215611e9857600080fd5b6000611ea684828501611dbf565b91505092915050565b611eb881612796565b82525050565b611ec78161273c565b82525050565b611ed68161272a565b82525050565b611ee58161274e565b82525050565b611ef4816127a8565b82525050565b6000611f07601c83612604565b9150611f1282612897565b602082019050919050565b6000611f2a601183612604565b9150611f35826128c0565b602082019050919050565b6000611f4d601f83612604565b9150611f58826128e9565b602082019050919050565b6000611f70601783612604565b9150611f7b82612912565b602082019050919050565b6000611f93603383612604565b9150611f9e8261293b565b604082019050919050565b6000611fb6601b83612604565b9150611fc18261298a565b602082019050919050565b6000611fd9602683612604565b9150611fe4826129b3565b604082019050919050565b6000611ffc601283612604565b915061200782612a02565b602082019050919050565b600061201f602383612604565b915061202a82612a2b565b604082019050919050565b6000612042601983612604565b915061204d82612a7a565b602082019050919050565b6000612065602c83612604565b915061207082612aa3565b604082019050919050565b6000612088602583612604565b915061209382612af2565b604082019050919050565b60006120ab602183612604565b91506120b682612b41565b604082019050919050565b60006120ce601583612604565b91506120d982612b90565b602082019050919050565b60006120f1602183612604565b91506120fc82612bb9565b604082019050919050565b6000612114602b83612604565b915061211f82612c08565b604082019050919050565b6000612137601f83612604565b915061214282612c57565b602082019050919050565b600061215a602483612604565b915061216582612c80565b604082019050919050565b6121798161278c565b82525050565b60006020820190506121946000830184611ebe565b92915050565b60006060820190506121af6000830186611ecd565b6121bc6020830185611eaf565b6121c96040830184612170565b949350505050565b60006060820190506121e66000830186611ecd565b6121f36020830185611ecd565b6122006040830184612170565b949350505050565b6000602082019050818103600083015261222181611efa565b9050919050565b6000602082019050818103600083015261224181611f1d565b9050919050565b6000602082019050818103600083015261226181611f40565b9050919050565b6000602082019050818103600083015261228181611f63565b9050919050565b600060208201905081810360008301526122a181611f86565b9050919050565b600060208201905081810360008301526122c181611fa9565b9050919050565b600060208201905081810360008301526122e181611fcc565b9050919050565b6000602082019050818103600083015261230181611fef565b9050919050565b6000602082019050818103600083015261232181612012565b9050919050565b6000602082019050818103600083015261234181612035565b9050919050565b6000602082019050818103600083015261236181612058565b9050919050565b600060208201905081810360008301526123818161207b565b9050919050565b600060208201905081810360008301526123a18161209e565b9050919050565b600060208201905081810360008301526123c1816120c1565b9050919050565b600060208201905081810360008301526123e1816120e4565b9050919050565b6000602082019050818103600083015261240181612107565b9050919050565b600060208201905081810360008301526124218161212a565b9050919050565b600060208201905081810360008301526124418161214d565b9050919050565b600060208201905061245d6000830184612170565b92915050565b60006060820190506124786000830186612170565b6124856020830185611ecd565b6124926040830184612170565b949350505050565b60006080820190506124af6000830187612170565b6124bc6020830186611ecd565b6124c96040830185612170565b6124d66060830184612170565b95945050505050565b600060c0820190506124f46000830189612170565b6125016020830188611eeb565b61250e6040830187612170565b61251b6060830186612170565b6125286080830185611ebe565b61253560a0830184611edc565b979650505050505050565b600061012082019050612556600083018c612170565b612563602083018b611eeb565b612570604083018a612170565b61257d6060830189612170565b61258a6080830188612170565b61259760a0830187611ebe565b6125a460c0830186611ebe565b6125b160e0830185612170565b6125bf610100830184611edc565b9a9950505050505050505050565b60006060820190506125e26000830186612170565b6125ef6020830185612170565b6125fc6040830184612170565b949350505050565b600082825260208201905092915050565b60006126208261278c565b915061262b8361278c565b9250827fffffffffffffffffffffffffffffffffffffffffffffffffffffffffffffffff038211156126605761265f612839565b5b828201905092915050565b60006126768261278c565b91506126818361278c565b92508261269157612690612868565b5b828204905092915050565b60006126a78261278c565b91506126b28361278c565b9250817fffffffffffffffffffffffffffffffffffffffffffffffffffffffffffffffff04831182151516156126eb576126ea612839565b5b828202905092915050565b60006127018261278c565b915061270c8361278c565b92508282101561271f5761271e612839565b5b828203905092915050565b60006127358261276c565b9050919050565b60006127478261276c565b9050919050565b60008115159050919050565b60006127658261272a565b9050919050565b600073ffffffffffffffffffffffffffffffffffffffff82169050919050565b6000819050919050565b60006127a1826127cc565b9050919050565b60006127b3826127ba565b9050919050565b60006127c58261276c565b9050919050565b60006127d7826127de565b9050919050565b60006127e98261276c565b9050919050565b60006127fb8261278c565b91507fffffffffffffffffffffffffffffffffffffffffffffffffffffffffffffffff82141561282e5761282d612839565b5b600182019050919050565b7f4e487b7100000000000000000000000000000000000000000000000000000000600052601160045260246000fd5b7f4e487b7100000000000000000000000000000000000000000000000000000000600052601260045260246000fd5b7f41756374696f6e2073686f756c64206e6f7420626520656e6465642e00000000600082015250565b7f6974656d20616c726561647920736f6c64000000000000000000000000000000600082015250565b7f5072696365206d7573742062652067726561746572207468616e207a65726f00600082015250565b7f4e465420697320616c726561647920636c61696d65642e000000000000000000600082015250565b7f6e6f7420656e6f75676820657468657220746f20636f766572206974656d207060008201527f7269636520616e64206d61726b65742066656500000000000000000000000000602082015250565b7f41756374696f6e20697320616c726561647920636c61696d65642e0000000000600082015250565b7f41756374696f6e2069642073686f756c6420626520626967676572207468616e60008201527f207a65726f2e0000000000000000000000000000000000000000000000000000602082015250565b7f6974656d20646f65736e27742065786973740000000000000000000000000000600082015250565b7f4974656d2069642073686f756c6420626520626967676572207468616e207a6560008201527f726f2e0000000000000000000000000000000000000000000000000000000000602082015250565b7f41756374696f6e2073686f756c6420656e642066697273742e00000000000000600082015250565b7f4f6e6c792077696e6e6572206f722073656c6c65722063616e2072756e20746860008201527f69732066756e6374696f6e2e0000000000000000000000000000000000000000602082015250565b7f41756374696f6e2069642073686f756c6420626520626967676572207468616e60008201527f207a65726f000000000000000000000000000000000000000000000000000000602082015250565b7f70726963652073686f756c642062652067726561746572207468616e207a657260008201527f6f00000000000000000000000000000000000000000000000000000000000000602082015250565b7f4974656d20697320616c726561647920736f6c642e0000000000000000000000600082015250565b7f4f6e6c792073656c6c65722063616e2063616e63656c2074686973206974656d60008201527f2e00000000000000000000000000000000000000000000000000000000000000602082015250565b7f50726963652073686f756c642062652067726561746572207468616e2063757260008201527f72656e742070726963652e000000000000000000000000000000000000000000602082015250565b7f5265656e7472616e637947756172643a207265656e7472616e742063616c6c00600082015250565b7f4f6e6c792073656c6c65722063616e2063616e63656c2074686973206175637460008201527f696f6e2e00000000000000000000000000000000000000000000000000000000602082015250565b612cd88161275a565b8114612ce357600080fd5b50565b612cef8161278c565b8114612cfa57600080fd5b5056fea2646970667358221220da5b749963100436feddd3bd4c8d8e5053a8c0d97c42dc4b67964509c7b952de64736f6c63430008040033",
  "linkReferences": {},
  "deployedLinkReferences": {}
}