{
  "_format": "hh-sol-artifact-1",
  "contractName": "NFT",
  "sourceName": "libs/contracts/src/contracts/NFT.sol",
  "abi": [
    {
      "inputs": [],
      "stateMutability": "nonpayable",
      "type": "constructor"
    },
    {
      "anonymous": false,
      "inputs": [
        {
          "indexed": true,
          "internalType": "address",
          "name": "owner",
          "type": "address"
        },
        {
          "indexed": true,
          "internalType": "address",
          "name": "approved",
          "type": "address"
        },
        {
          "indexed": true,
          "internalType": "uint256",
          "name": "tokenId",
          "type": "uint256"
        }
      ],
      "name": "Approval",
      "type": "event"
    },
    {
      "anonymous": false,
      "inputs": [
        {
          "indexed": true,
          "internalType": "address",
          "name": "owner",
          "type": "address"
        },
        {
          "indexed": true,
          "internalType": "address",
          "name": "operator",
          "type": "address"
        },
        {
          "indexed": false,
          "internalType": "bool",
          "name": "approved",
          "type": "bool"
        }
      ],
      "name": "ApprovalForAll",
      "type": "event"
    },
    {
      "anonymous": false,
      "inputs": [
        {
          "indexed": true,
          "internalType": "address",
          "name": "from",
          "type": "address"
        },
        {
          "indexed": true,
          "internalType": "address",
          "name": "to",
          "type": "address"
        },
        {
          "indexed": true,
          "internalType": "uint256",
          "name": "tokenId",
          "type": "uint256"
        }
      ],
      "name": "Transfer",
      "type": "event"
    },
    {
      "inputs": [
        {
          "internalType": "address",
          "name": "to",
          "type": "address"
        },
        {
          "internalType": "uint256",
          "name": "tokenId",
          "type": "uint256"
        }
      ],
      "name": "approve",
      "outputs": [],
      "stateMutability": "nonpayable",
      "type": "function"
    },
    {
      "inputs": [
        {
          "internalType": "address",
          "name": "owner",
          "type": "address"
        }
      ],
      "name": "balanceOf",
      "outputs": [
        {
          "internalType": "uint256",
          "name": "",
          "type": "uint256"
        }
      ],
      "stateMutability": "view",
      "type": "function"
    },
    {
      "inputs": [
        {
          "internalType": "uint256",
          "name": "tokenId",
          "type": "uint256"
        }
      ],
      "name": "getApproved",
      "outputs": [
        {
          "internalType": "address",
          "name": "",
          "type": "address"
        }
      ],
      "stateMutability": "view",
      "type": "function"
    },
    {
      "inputs": [
        {
          "internalType": "address",
          "name": "owner",
          "type": "address"
        },
        {
          "internalType": "address",
          "name": "operator",
          "type": "address"
        }
      ],
      "name": "isApprovedForAll",
      "outputs": [
        {
          "internalType": "bool",
          "name": "",
          "type": "bool"
        }
      ],
      "stateMutability": "view",
      "type": "function"
    },
    {
      "inputs": [
        {
          "internalType": "string",
          "name": "_tokenURI",
          "type": "string"
        }
      ],
      "name": "mintNFT",
      "outputs": [
        {
          "internalType": "uint256",
          "name": "",
          "type": "uint256"
        }
      ],
      "stateMutability": "nonpayable",
      "type": "function"
    },
    {
      "inputs": [],
      "name": "name",
      "outputs": [
        {
          "internalType": "string",
          "name": "",
          "type": "string"
        }
      ],
      "stateMutability": "view",
      "type": "function"
    },
    {
      "inputs": [
        {
          "internalType": "uint256",
          "name": "tokenId",
          "type": "uint256"
        }
      ],
      "name": "ownerOf",
      "outputs": [
        {
          "internalType": "address",
          "name": "",
          "type": "address"
        }
      ],
      "stateMutability": "view",
      "type": "function"
    },
    {
      "inputs": [
        {
          "internalType": "address",
          "name": "from",
          "type": "address"
        },
        {
          "internalType": "address",
          "name": "to",
          "type": "address"
        },
        {
          "internalType": "uint256",
          "name": "tokenId",
          "type": "uint256"
        }
      ],
      "name": "safeTransferFrom",
      "outputs": [],
      "stateMutability": "nonpayable",
      "type": "function"
    },
    {
      "inputs": [
        {
          "internalType": "address",
          "name": "from",
          "type": "address"
        },
        {
          "internalType": "address",
          "name": "to",
          "type": "address"
        },
        {
          "internalType": "uint256",
          "name": "tokenId",
          "type": "uint256"
        },
        {
          "internalType": "bytes",
          "name": "data",
          "type": "bytes"
        }
      ],
      "name": "safeTransferFrom",
      "outputs": [],
      "stateMutability": "nonpayable",
      "type": "function"
    },
    {
      "inputs": [
        {
          "internalType": "address",
          "name": "operator",
          "type": "address"
        },
        {
          "internalType": "bool",
          "name": "approved",
          "type": "bool"
        }
      ],
      "name": "setApprovalForAll",
      "outputs": [],
      "stateMutability": "nonpayable",
      "type": "function"
    },
    {
      "inputs": [
        {
          "internalType": "bytes4",
          "name": "interfaceId",
          "type": "bytes4"
        }
      ],
      "name": "supportsInterface",
      "outputs": [
        {
          "internalType": "bool",
          "name": "",
          "type": "bool"
        }
      ],
      "stateMutability": "view",
      "type": "function"
    },
    {
      "inputs": [],
      "name": "symbol",
      "outputs": [
        {
          "internalType": "string",
          "name": "",
          "type": "string"
        }
      ],
      "stateMutability": "view",
      "type": "function"
    },
    {
      "inputs": [
        {
          "internalType": "uint256",
          "name": "index",
          "type": "uint256"
        }
      ],
      "name": "tokenByIndex",
      "outputs": [
        {
          "internalType": "uint256",
          "name": "",
          "type": "uint256"
        }
      ],
      "stateMutability": "view",
      "type": "function"
    },
    {
      "inputs": [],
      "name": "tokenCounter",
      "outputs": [
        {
          "internalType": "uint256",
          "name": "",
          "type": "uint256"
        }
      ],
      "stateMutability": "view",
      "type": "function"
    },
    {
      "inputs": [
        {
          "internalType": "address",
          "name": "owner",
          "type": "address"
        },
        {
          "internalType": "uint256",
          "name": "index",
          "type": "uint256"
        }
      ],
      "name": "tokenOfOwnerByIndex",
      "outputs": [
        {
          "internalType": "uint256",
          "name": "",
          "type": "uint256"
        }
      ],
      "stateMutability": "view",
      "type": "function"
    },
    {
      "inputs": [
        {
          "internalType": "uint256",
          "name": "tokenId",
          "type": "uint256"
        }
      ],
      "name": "tokenURI",
      "outputs": [
        {
          "internalType": "string",
          "name": "",
          "type": "string"
        }
      ],
      "stateMutability": "view",
      "type": "function"
    },
    {
      "inputs": [],
      "name": "totalSupply",
      "outputs": [
        {
          "internalType": "uint256",
          "name": "",
          "type": "uint256"
        }
      ],
      "stateMutability": "view",
      "type": "function"
    },
    {
      "inputs": [
        {
          "internalType": "address",
          "name": "from",
          "type": "address"
        },
        {
          "internalType": "address",
          "name": "to",
          "type": "address"
        },
        {
          "internalType": "uint256",
          "name": "tokenId",
          "type": "uint256"
        }
      ],
      "name": "transferFrom",
      "outputs": [],
      "stateMutability": "nonpayable",
      "type": "function"
    }
  ],
  "bytecode": "0x60806040523480156200001157600080fd5b506040518060400160405280600381526020017f4e465400000000000000000000000000000000000000000000000000000000008152506040518060400160405280600381526020017f4e4654000000000000000000000000000000000000000000000000000000000081525081600090816200008f919062000324565b508060019081620000a1919062000324565b5050506200040b565b600081519050919050565b7f4e487b7100000000000000000000000000000000000000000000000000000000600052604160045260246000fd5b7f4e487b7100000000000000000000000000000000000000000000000000000000600052602260045260246000fd5b600060028204905060018216806200012c57607f821691505b602082108103620001425762000141620000e4565b5b50919050565b60008190508160005260206000209050919050565b60006020601f8301049050919050565b600082821b905092915050565b600060088302620001ac7fffffffffffffffffffffffffffffffffffffffffffffffffffffffffffffffff826200016d565b620001b886836200016d565b95508019841693508086168417925050509392505050565b6000819050919050565b6000819050919050565b600062000205620001ff620001f984620001d0565b620001da565b620001d0565b9050919050565b6000819050919050565b6200022183620001e4565b6200023962000230826200020c565b8484546200017a565b825550505050565b600090565b6200025062000241565b6200025d81848462000216565b505050565b5b8181101562000285576200027960008262000246565b60018101905062000263565b5050565b601f821115620002d4576200029e8162000148565b620002a9846200015d565b81016020851015620002b9578190505b620002d1620002c8856200015d565b83018262000262565b50505b505050565b600082821c905092915050565b6000620002f960001984600802620002d9565b1980831691505092915050565b6000620003148383620002e6565b9150826002028217905092915050565b6200032f82620000aa565b67ffffffffffffffff8111156200034b576200034a620000b5565b5b62000357825462000113565b6200036482828562000289565b600060209050601f8311600181146200039c576000841562000387578287015190505b62000393858262000306565b86555062000403565b601f198416620003ac8662000148565b60005b82811015620003d657848901518255600182019150602085019450602081019050620003af565b86831015620003f65784890151620003f2601f891682620002e6565b8355505b6001600288020188555050505b505050505050565b61345a806200041b6000396000f3fe608060405234801561001057600080fd5b50600436106101165760003560e01c80636352211e116100a2578063b88d4fde11610071578063b88d4fde14610305578063c87b56dd14610321578063d082e38114610351578063e985e9c51461036f578063fb37e8831461039f57610116565b80636352211e1461026b57806370a082311461029b57806395d89b41146102cb578063a22cb465146102e957610116565b806318160ddd116100e957806318160ddd146101b557806323b872dd146101d35780632f745c59146101ef57806342842e0e1461021f5780634f6ccce71461023b57610116565b806301ffc9a71461011b57806306fdde031461014b578063081812fc14610169578063095ea7b314610199575b600080fd5b610135600480360381019061013091906120da565b6103cf565b6040516101429190612122565b60405180910390f35b6101536103e1565b60405161016091906121cd565b60405180910390f35b610183600480360381019061017e9190612225565b610473565b6040516101909190612293565b60405180910390f35b6101b360048036038101906101ae91906122da565b6104b9565b005b6101bd6105d0565b6040516101ca9190612329565b60405180910390f35b6101ed60048036038101906101e89190612344565b6105dd565b005b610209600480360381019061020491906122da565b61063d565b6040516102169190612329565b60405180910390f35b61023960048036038101906102349190612344565b6106e2565b005b61025560048036038101906102509190612225565b610702565b6040516102629190612329565b60405180910390f35b61028560048036038101906102809190612225565b610773565b6040516102929190612293565b60405180910390f35b6102b560048036038101906102b09190612397565b6107f9565b6040516102c29190612329565b60405180910390f35b6102d36108b0565b6040516102e091906121cd565b60405180910390f35b61030360048036038101906102fe91906123f0565b610942565b005b61031f600480360381019061031a9190612565565b610958565b005b61033b60048036038101906103369190612225565b6109ba565b60405161034891906121cd565b60405180910390f35b6103596109cc565b6040516103669190612329565b60405180910390f35b610389600480360381019061038491906125e8565b6109d2565b6040516103969190612122565b60405180910390f35b6103b960048036038101906103b49190612688565b610a66565b6040516103c69190612329565b60405180910390f35b60006103da82610ae7565b9050919050565b6060600080546103f090612704565b80601f016020809104026020016040519081016040528092919081815260200182805461041c90612704565b80156104695780601f1061043e57610100808354040283529160200191610469565b820191906000526020600020905b81548152906001019060200180831161044c57829003601f168201915b5050505050905090565b600061047e82610b61565b6004600083815260200190815260200160002060009054906101000a900473ffffffffffffffffffffffffffffffffffffffff169050919050565b60006104c482610773565b90508073ffffffffffffffffffffffffffffffffffffffff168373ffffffffffffffffffffffffffffffffffffffff1603610534576040517f08c379a000000000000000000000000000000000000000000000000000000000815260040161052b906127a7565b60405180910390fd5b8073ffffffffffffffffffffffffffffffffffffffff16610553610bac565b73ffffffffffffffffffffffffffffffffffffffff16148061058257506105818161057c610bac565b6109d2565b5b6105c1576040517f08c379a00000000000000000000000000000000000000000000000000000000081526004016105b890612839565b60405180910390fd5b6105cb8383610bb4565b505050565b6000600980549050905090565b6105ee6105e8610bac565b82610c6d565b61062d576040517f08c379a0000000000000000000000000000000000000000000000000000000008152600401610624906128cb565b60405180910390fd5b610638838383610d02565b505050565b6000610648836107f9565b8210610689576040517f08c379a00000000000000000000000000000000000000000000000000000000081526004016106809061295d565b60405180910390fd5b600760008473ffffffffffffffffffffffffffffffffffffffff1673ffffffffffffffffffffffffffffffffffffffff168152602001908152602001600020600083815260200190815260200160002054905092915050565b6106fd83838360405180602001604052806000815250610958565b505050565b600061070c6105d0565b821061074d576040517f08c379a0000000000000000000000000000000000000000000000000000000008152600401610744906129ef565b60405180910390fd5b6009828154811061076157610760612a0f565b5b90600052602060002001549050919050565b60008061077f83610ffb565b9050600073ffffffffffffffffffffffffffffffffffffffff168173ffffffffffffffffffffffffffffffffffffffff16036107f0576040517f08c379a00000000000000000000000000000000000000000000000000000000081526004016107e790612a8a565b60405180910390fd5b80915050919050565b60008073ffffffffffffffffffffffffffffffffffffffff168273ffffffffffffffffffffffffffffffffffffffff1603610869576040517f08c379a000000000000000000000000000000000000000000000000000000000815260040161086090612b1c565b60405180910390fd5b600360008373ffffffffffffffffffffffffffffffffffffffff1673ffffffffffffffffffffffffffffffffffffffff168152602001908152602001600020549050919050565b6060600180546108bf90612704565b80601f01602080910402602001604051908101604052809291908181526020018280546108eb90612704565b80156109385780601f1061090d57610100808354040283529160200191610938565b820191906000526020600020905b81548152906001019060200180831161091b57829003601f168201915b5050505050905090565b61095461094d610bac565b8383611038565b5050565b610969610963610bac565b83610c6d565b6109a8576040517f08c379a000000000000000000000000000000000000000000000000000000000815260040161099f906128cb565b60405180910390fd5b6109b4848484846111a4565b50505050565b60606109c582611200565b9050919050565b600b5481565b6000600560008473ffffffffffffffffffffffffffffffffffffffff1673ffffffffffffffffffffffffffffffffffffffff16815260200190815260200160002060008373ffffffffffffffffffffffffffffffffffffffff1673ffffffffffffffffffffffffffffffffffffffff16815260200190815260200160002060009054906101000a900460ff16905092915050565b6000600b6000815480929190610a7b90612b6b565b9190505550610a8c33600b54611312565b610adc600b5484848080601f016020809104026020016040519081016040528093929190818152602001838380828437600081840152601f19601f82011690508083019250505050505050611330565b600b54905092915050565b60007f780e9d63000000000000000000000000000000000000000000000000000000007bffffffffffffffffffffffffffffffffffffffffffffffffffffffff1916827bffffffffffffffffffffffffffffffffffffffffffffffffffffffff19161480610b5a5750610b598261139d565b5b9050919050565b610b6a8161147f565b610ba9576040517f08c379a0000000000000000000000000000000000000000000000000000000008152600401610ba090612a8a565b60405180910390fd5b50565b600033905090565b816004600083815260200190815260200160002060006101000a81548173ffffffffffffffffffffffffffffffffffffffff021916908373ffffffffffffffffffffffffffffffffffffffff160217905550808273ffffffffffffffffffffffffffffffffffffffff16610c2783610773565b73ffffffffffffffffffffffffffffffffffffffff167f8c5be1e5ebec7d5bd14f71427d1e84f3dd0314c0f7b2291e5b200ac8c7c3b92560405160405180910390a45050565b600080610c7983610773565b90508073ffffffffffffffffffffffffffffffffffffffff168473ffffffffffffffffffffffffffffffffffffffff161480610cbb5750610cba81856109d2565b5b80610cf957508373ffffffffffffffffffffffffffffffffffffffff16610ce184610473565b73ffffffffffffffffffffffffffffffffffffffff16145b91505092915050565b8273ffffffffffffffffffffffffffffffffffffffff16610d2282610773565b73ffffffffffffffffffffffffffffffffffffffff1614610d78576040517f08c379a0000000000000000000000000000000000000000000000000000000008152600401610d6f90612c25565b60405180910390fd5b600073ffffffffffffffffffffffffffffffffffffffff168273ffffffffffffffffffffffffffffffffffffffff1603610de7576040517f08c379a0000000000000000000000000000000000000000000000000000000008152600401610dde90612cb7565b60405180910390fd5b610df483838360016114c0565b8273ffffffffffffffffffffffffffffffffffffffff16610e1482610773565b73ffffffffffffffffffffffffffffffffffffffff1614610e6a576040517f08c379a0000000000000000000000000000000000000000000000000000000008152600401610e6190612c25565b60405180910390fd5b6004600082815260200190815260200160002060006101000a81549073ffffffffffffffffffffffffffffffffffffffff02191690556001600360008573ffffffffffffffffffffffffffffffffffffffff1673ffffffffffffffffffffffffffffffffffffffff168152602001908152602001600020600082825403925050819055506001600360008473ffffffffffffffffffffffffffffffffffffffff1673ffffffffffffffffffffffffffffffffffffffff16815260200190815260200160002060008282540192505081905550816002600083815260200190815260200160002060006101000a81548173ffffffffffffffffffffffffffffffffffffffff021916908373ffffffffffffffffffffffffffffffffffffffff160217905550808273ffffffffffffffffffffffffffffffffffffffff168473ffffffffffffffffffffffffffffffffffffffff167fddf252ad1be2c89b69c2b068fc378daa952ba7f163c4a11628f55a4df523b3ef60405160405180910390a4610ff683838360016114d2565b505050565b60006002600083815260200190815260200160002060009054906101000a900473ffffffffffffffffffffffffffffffffffffffff169050919050565b8173ffffffffffffffffffffffffffffffffffffffff168373ffffffffffffffffffffffffffffffffffffffff16036110a6576040517f08c379a000000000000000000000000000000000000000000000000000000000815260040161109d90612d23565b60405180910390fd5b80600560008573ffffffffffffffffffffffffffffffffffffffff1673ffffffffffffffffffffffffffffffffffffffff16815260200190815260200160002060008473ffffffffffffffffffffffffffffffffffffffff1673ffffffffffffffffffffffffffffffffffffffff16815260200190815260200160002060006101000a81548160ff0219169083151502179055508173ffffffffffffffffffffffffffffffffffffffff168373ffffffffffffffffffffffffffffffffffffffff167f17307eab39ab6107e8899845ad3d59bd9653f200f220920489ca2b5937696c31836040516111979190612122565b60405180910390a3505050565b6111af848484610d02565b6111bb848484846114d8565b6111fa576040517f08c379a00000000000000000000000000000000000000000000000000000000081526004016111f190612db5565b60405180910390fd5b50505050565b606061120b82610b61565b600060066000848152602001908152602001600020805461122b90612704565b80601f016020809104026020016040519081016040528092919081815260200182805461125790612704565b80156112a45780601f10611279576101008083540402835291602001916112a4565b820191906000526020600020905b81548152906001019060200180831161128757829003601f168201915b5050505050905060006112b561165f565b905060008151036112ca57819250505061130d565b6000825111156112ff5780826040516020016112e7929190612e11565b6040516020818303038152906040529250505061130d565b61130884611676565b925050505b919050565b61132c8282604051806020016040528060008152506116de565b5050565b6113398261147f565b611378576040517f08c379a000000000000000000000000000000000000000000000000000000000815260040161136f90612ea7565b60405180910390fd5b806006600084815260200190815260200160002090816113989190613073565b505050565b60007f80ac58cd000000000000000000000000000000000000000000000000000000007bffffffffffffffffffffffffffffffffffffffffffffffffffffffff1916827bffffffffffffffffffffffffffffffffffffffffffffffffffffffff1916148061146857507f5b5e139f000000000000000000000000000000000000000000000000000000007bffffffffffffffffffffffffffffffffffffffffffffffffffffffff1916827bffffffffffffffffffffffffffffffffffffffffffffffffffffffff1916145b80611478575061147782611739565b5b9050919050565b60008073ffffffffffffffffffffffffffffffffffffffff166114a183610ffb565b73ffffffffffffffffffffffffffffffffffffffff1614159050919050565b6114cc848484846117a3565b50505050565b50505050565b60006114f98473ffffffffffffffffffffffffffffffffffffffff16611901565b15611652578373ffffffffffffffffffffffffffffffffffffffff1663150b7a02611522610bac565b8786866040518563ffffffff1660e01b8152600401611544949392919061319a565b6020604051808303816000875af192505050801561158057506040513d601f19601f8201168201806040525081019061157d91906131fb565b60015b611602573d80600081146115b0576040519150601f19603f3d011682016040523d82523d6000602084013e6115b5565b606091505b5060008151036115fa576040517f08c379a00000000000000000000000000000000000000000000000000000000081526004016115f190612db5565b60405180910390fd5b805181602001fd5b63150b7a0260e01b7bffffffffffffffffffffffffffffffffffffffffffffffffffffffff1916817bffffffffffffffffffffffffffffffffffffffffffffffffffffffff191614915050611657565b600190505b949350505050565b606060405180602001604052806000815250905090565b606061168182610b61565b600061168b61165f565b905060008151116116ab57604051806020016040528060008152506116d6565b806116b584611924565b6040516020016116c6929190612e11565b6040516020818303038152906040525b915050919050565b6116e883836119f2565b6116f560008484846114d8565b611734576040517f08c379a000000000000000000000000000000000000000000000000000000000815260040161172b90612db5565b60405180910390fd5b505050565b60007f01ffc9a7000000000000000000000000000000000000000000000000000000007bffffffffffffffffffffffffffffffffffffffffffffffffffffffff1916827bffffffffffffffffffffffffffffffffffffffffffffffffffffffff1916149050919050565b6117af84848484611c0f565b60018111156117f3576040517f08c379a00000000000000000000000000000000000000000000000000000000081526004016117ea9061329a565b60405180910390fd5b6000829050600073ffffffffffffffffffffffffffffffffffffffff168573ffffffffffffffffffffffffffffffffffffffff160361183a5761183581611c15565b611879565b8373ffffffffffffffffffffffffffffffffffffffff168573ffffffffffffffffffffffffffffffffffffffff1614611878576118778582611c5e565b5b5b600073ffffffffffffffffffffffffffffffffffffffff168473ffffffffffffffffffffffffffffffffffffffff16036118bb576118b681611dcb565b6118fa565b8473ffffffffffffffffffffffffffffffffffffffff168473ffffffffffffffffffffffffffffffffffffffff16146118f9576118f88482611e9c565b5b5b5050505050565b6000808273ffffffffffffffffffffffffffffffffffffffff163b119050919050565b60606000600161193384611f1b565b01905060008167ffffffffffffffff8111156119525761195161243a565b5b6040519080825280601f01601f1916602001820160405280156119845781602001600182028036833780820191505090505b509050600082602001820190505b6001156119e7578080600190039150507f3031323334353637383961626364656600000000000000000000000000000000600a86061a8153600a85816119db576119da6132ba565b5b04945060008503611992575b819350505050919050565b600073ffffffffffffffffffffffffffffffffffffffff168273ffffffffffffffffffffffffffffffffffffffff1603611a61576040517f08c379a0000000000000000000000000000000000000000000000000000000008152600401611a5890613335565b60405180910390fd5b611a6a8161147f565b15611aaa576040517f08c379a0000000000000000000000000000000000000000000000000000000008152600401611aa1906133a1565b60405180910390fd5b611ab86000838360016114c0565b611ac18161147f565b15611b01576040517f08c379a0000000000000000000000000000000000000000000000000000000008152600401611af8906133a1565b60405180910390fd5b6001600360008473ffffffffffffffffffffffffffffffffffffffff1673ffffffffffffffffffffffffffffffffffffffff16815260200190815260200160002060008282540192505081905550816002600083815260200190815260200160002060006101000a81548173ffffffffffffffffffffffffffffffffffffffff021916908373ffffffffffffffffffffffffffffffffffffffff160217905550808273ffffffffffffffffffffffffffffffffffffffff16600073ffffffffffffffffffffffffffffffffffffffff167fddf252ad1be2c89b69c2b068fc378daa952ba7f163c4a11628f55a4df523b3ef60405160405180910390a4611c0b6000838360016114d2565b5050565b50505050565b600980549050600a600083815260200190815260200160002081905550600981908060018154018082558091505060019003906000526020600020016000909190919091505550565b60006001611c6b846107f9565b611c7591906133c1565b9050600060086000848152602001908152602001600020549050818114611d5a576000600760008673ffffffffffffffffffffffffffffffffffffffff1673ffffffffffffffffffffffffffffffffffffffff168152602001908152602001600020600084815260200190815260200160002054905080600760008773ffffffffffffffffffffffffffffffffffffffff1673ffffffffffffffffffffffffffffffffffffffff168152602001908152602001600020600084815260200190815260200160002081905550816008600083815260200190815260200160002081905550505b6008600084815260200190815260200160002060009055600760008573ffffffffffffffffffffffffffffffffffffffff1673ffffffffffffffffffffffffffffffffffffffff16815260200190815260200160002060008381526020019081526020016000206000905550505050565b60006001600980549050611ddf91906133c1565b90506000600a6000848152602001908152602001600020549050600060098381548110611e0f57611e0e612a0f565b5b906000526020600020015490508060098381548110611e3157611e30612a0f565b5b906000526020600020018190555081600a600083815260200190815260200160002081905550600a6000858152602001908152602001600020600090556009805480611e8057611e7f6133f5565b5b6001900381819060005260206000200160009055905550505050565b6000611ea7836107f9565b905081600760008573ffffffffffffffffffffffffffffffffffffffff1673ffffffffffffffffffffffffffffffffffffffff168152602001908152602001600020600083815260200190815260200160002081905550806008600084815260200190815260200160002081905550505050565b600080600090507a184f03e93ff9f4daa797ed6e38ed64bf6a1f0100000000000000008310611f79577a184f03e93ff9f4daa797ed6e38ed64bf6a1f0100000000000000008381611f6f57611f6e6132ba565b5b0492506040810190505b6d04ee2d6d415b85acef81000000008310611fb6576d04ee2d6d415b85acef81000000008381611fac57611fab6132ba565b5b0492506020810190505b662386f26fc100008310611fe557662386f26fc100008381611fdb57611fda6132ba565b5b0492506010810190505b6305f5e100831061200e576305f5e1008381612004576120036132ba565b5b0492506008810190505b6127108310612033576127108381612029576120286132ba565b5b0492506004810190505b60648310612056576064838161204c5761204b6132ba565b5b0492506002810190505b600a8310612065576001810190505b80915050919050565b6000604051905090565b600080fd5b600080fd5b60007fffffffff0000000000000000000000000000000000000000000000000000000082169050919050565b6120b781612082565b81146120c257600080fd5b50565b6000813590506120d4816120ae565b92915050565b6000602082840312156120f0576120ef612078565b5b60006120fe848285016120c5565b91505092915050565b60008115159050919050565b61211c81612107565b82525050565b60006020820190506121376000830184612113565b92915050565b600081519050919050565b600082825260208201905092915050565b60005b8381101561217757808201518184015260208101905061215c565b60008484015250505050565b6000601f19601f8301169050919050565b600061219f8261213d565b6121a98185612148565b93506121b9818560208601612159565b6121c281612183565b840191505092915050565b600060208201905081810360008301526121e78184612194565b905092915050565b6000819050919050565b612202816121ef565b811461220d57600080fd5b50565b60008135905061221f816121f9565b92915050565b60006020828403121561223b5761223a612078565b5b600061224984828501612210565b91505092915050565b600073ffffffffffffffffffffffffffffffffffffffff82169050919050565b600061227d82612252565b9050919050565b61228d81612272565b82525050565b60006020820190506122a86000830184612284565b92915050565b6122b781612272565b81146122c257600080fd5b50565b6000813590506122d4816122ae565b92915050565b600080604083850312156122f1576122f0612078565b5b60006122ff858286016122c5565b925050602061231085828601612210565b9150509250929050565b612323816121ef565b82525050565b600060208201905061233e600083018461231a565b92915050565b60008060006060848603121561235d5761235c612078565b5b600061236b868287016122c5565b935050602061237c868287016122c5565b925050604061238d86828701612210565b9150509250925092565b6000602082840312156123ad576123ac612078565b5b60006123bb848285016122c5565b91505092915050565b6123cd81612107565b81146123d857600080fd5b50565b6000813590506123ea816123c4565b92915050565b6000806040838503121561240757612406612078565b5b6000612415858286016122c5565b9250506020612426858286016123db565b9150509250929050565b600080fd5b600080fd5b7f4e487b7100000000000000000000000000000000000000000000000000000000600052604160045260246000fd5b61247282612183565b810181811067ffffffffffffffff821117156124915761249061243a565b5b80604052505050565b60006124a461206e565b90506124b08282612469565b919050565b600067ffffffffffffffff8211156124d0576124cf61243a565b5b6124d982612183565b9050602081019050919050565b82818337600083830152505050565b6000612508612503846124b5565b61249a565b90508281526020810184848401111561252457612523612435565b5b61252f8482856124e6565b509392505050565b600082601f83011261254c5761254b612430565b5b813561255c8482602086016124f5565b91505092915050565b6000806000806080858703121561257f5761257e612078565b5b600061258d878288016122c5565b945050602061259e878288016122c5565b93505060406125af87828801612210565b925050606085013567ffffffffffffffff8111156125d0576125cf61207d565b5b6125dc87828801612537565b91505092959194509250565b600080604083850312156125ff576125fe612078565b5b600061260d858286016122c5565b925050602061261e858286016122c5565b9150509250929050565b600080fd5b600080fd5b60008083601f84011261264857612647612430565b5b8235905067ffffffffffffffff81111561266557612664612628565b5b6020830191508360018202830111156126815761268061262d565b5b9250929050565b6000806020838503121561269f5761269e612078565b5b600083013567ffffffffffffffff8111156126bd576126bc61207d565b5b6126c985828601612632565b92509250509250929050565b7f4e487b7100000000000000000000000000000000000000000000000000000000600052602260045260246000fd5b6000600282049050600182168061271c57607f821691505b60208210810361272f5761272e6126d5565b5b50919050565b7f4552433732313a20617070726f76616c20746f2063757272656e74206f776e6560008201527f7200000000000000000000000000000000000000000000000000000000000000602082015250565b6000612791602183612148565b915061279c82612735565b604082019050919050565b600060208201905081810360008301526127c081612784565b9050919050565b7f4552433732313a20617070726f76652063616c6c6572206973206e6f7420746f60008201527f6b656e206f776e6572206f7220617070726f76656420666f7220616c6c000000602082015250565b6000612823603d83612148565b915061282e826127c7565b604082019050919050565b6000602082019050818103600083015261285281612816565b9050919050565b7f4552433732313a2063616c6c6572206973206e6f7420746f6b656e206f776e6560008201527f72206f7220617070726f76656400000000000000000000000000000000000000602082015250565b60006128b5602d83612148565b91506128c082612859565b604082019050919050565b600060208201905081810360008301526128e4816128a8565b9050919050565b7f455243373231456e756d657261626c653a206f776e657220696e646578206f7560008201527f74206f6620626f756e6473000000000000000000000000000000000000000000602082015250565b6000612947602b83612148565b9150612952826128eb565b604082019050919050565b600060208201905081810360008301526129768161293a565b9050919050565b7f455243373231456e756d657261626c653a20676c6f62616c20696e646578206f60008201527f7574206f6620626f756e64730000000000000000000000000000000000000000602082015250565b60006129d9602c83612148565b91506129e48261297d565b604082019050919050565b60006020820190508181036000830152612a08816129cc565b9050919050565b7f4e487b7100000000000000000000000000000000000000000000000000000000600052603260045260246000fd5b7f4552433732313a20696e76616c696420746f6b656e2049440000000000000000600082015250565b6000612a74601883612148565b9150612a7f82612a3e565b602082019050919050565b60006020820190508181036000830152612aa381612a67565b9050919050565b7f4552433732313a2061646472657373207a65726f206973206e6f74206120766160008201527f6c6964206f776e65720000000000000000000000000000000000000000000000602082015250565b6000612b06602983612148565b9150612b1182612aaa565b604082019050919050565b60006020820190508181036000830152612b3581612af9565b9050919050565b7f4e487b7100000000000000000000000000000000000000000000000000000000600052601160045260246000fd5b6000612b76826121ef565b91507fffffffffffffffffffffffffffffffffffffffffffffffffffffffffffffffff8203612ba857612ba7612b3c565b5b600182019050919050565b7f4552433732313a207472616e736665722066726f6d20696e636f72726563742060008201527f6f776e6572000000000000000000000000000000000000000000000000000000602082015250565b6000612c0f602583612148565b9150612c1a82612bb3565b604082019050919050565b60006020820190508181036000830152612c3e81612c02565b9050919050565b7f4552433732313a207472616e7366657220746f20746865207a65726f2061646460008201527f7265737300000000000000000000000000000000000000000000000000000000602082015250565b6000612ca1602483612148565b9150612cac82612c45565b604082019050919050565b60006020820190508181036000830152612cd081612c94565b9050919050565b7f4552433732313a20617070726f766520746f2063616c6c657200000000000000600082015250565b6000612d0d601983612148565b9150612d1882612cd7565b602082019050919050565b60006020820190508181036000830152612d3c81612d00565b9050919050565b7f4552433732313a207472616e7366657220746f206e6f6e20455243373231526560008201527f63656976657220696d706c656d656e7465720000000000000000000000000000602082015250565b6000612d9f603283612148565b9150612daa82612d43565b604082019050919050565b60006020820190508181036000830152612dce81612d92565b9050919050565b600081905092915050565b6000612deb8261213d565b612df58185612dd5565b9350612e05818560208601612159565b80840191505092915050565b6000612e1d8285612de0565b9150612e298284612de0565b91508190509392505050565b7f45524337323155524953746f726167653a2055524920736574206f66206e6f6e60008201527f6578697374656e7420746f6b656e000000000000000000000000000000000000602082015250565b6000612e91602e83612148565b9150612e9c82612e35565b604082019050919050565b60006020820190508181036000830152612ec081612e84565b9050919050565b60008190508160005260206000209050919050565b60006020601f8301049050919050565b600082821b905092915050565b600060088302612f297fffffffffffffffffffffffffffffffffffffffffffffffffffffffffffffffff82612eec565b612f338683612eec565b95508019841693508086168417925050509392505050565b6000819050919050565b6000612f70612f6b612f66846121ef565b612f4b565b6121ef565b9050919050565b6000819050919050565b612f8a83612f55565b612f9e612f9682612f77565b848454612ef9565b825550505050565b600090565b612fb3612fa6565b612fbe818484612f81565b505050565b5b81811015612fe257612fd7600082612fab565b600181019050612fc4565b5050565b601f82111561302757612ff881612ec7565b61300184612edc565b81016020851015613010578190505b61302461301c85612edc565b830182612fc3565b50505b505050565b600082821c905092915050565b600061304a6000198460080261302c565b1980831691505092915050565b60006130638383613039565b9150826002028217905092915050565b61307c8261213d565b67ffffffffffffffff8111156130955761309461243a565b5b61309f8254612704565b6130aa828285612fe6565b600060209050601f8311600181146130dd57600084156130cb578287015190505b6130d58582613057565b86555061313d565b601f1984166130eb86612ec7565b60005b82811015613113578489015182556001820191506020850194506020810190506130ee565b86831015613130578489015161312c601f891682613039565b8355505b6001600288020188555050505b505050505050565b600081519050919050565b600082825260208201905092915050565b600061316c82613145565b6131768185613150565b9350613186818560208601612159565b61318f81612183565b840191505092915050565b60006080820190506131af6000830187612284565b6131bc6020830186612284565b6131c9604083018561231a565b81810360608301526131db8184613161565b905095945050505050565b6000815190506131f5816120ae565b92915050565b60006020828403121561321157613210612078565b5b600061321f848285016131e6565b91505092915050565b7f455243373231456e756d657261626c653a20636f6e736563757469766520747260008201527f616e7366657273206e6f7420737570706f727465640000000000000000000000602082015250565b6000613284603583612148565b915061328f82613228565b604082019050919050565b600060208201905081810360008301526132b381613277565b9050919050565b7f4e487b7100000000000000000000000000000000000000000000000000000000600052601260045260246000fd5b7f4552433732313a206d696e7420746f20746865207a65726f2061646472657373600082015250565b600061331f602083612148565b915061332a826132e9565b602082019050919050565b6000602082019050818103600083015261334e81613312565b9050919050565b7f4552433732313a20746f6b656e20616c7265616479206d696e74656400000000600082015250565b600061338b601c83612148565b915061339682613355565b602082019050919050565b600060208201905081810360008301526133ba8161337e565b9050919050565b60006133cc826121ef565b91506133d7836121ef565b92508282039050818111156133ef576133ee612b3c565b5b92915050565b7f4e487b7100000000000000000000000000000000000000000000000000000000600052603160045260246000fdfea26469706673582212209c9bc4f2291cec00d60ab0b270b82b873d2a8fc406c788c5397222bb962a217a64736f6c63430008120033",
  "linkReferences": {},
  "deployedLinkReferences": {}
}