{
  "_format": "hh-sol-artifact-1",
  "contractName": "wETH",
  "sourceName": "libs/contracts/src/contracts/wETH.sol",
  "abi": [
    {
      "inputs": [],
      "stateMutability": "nonpayable",
      "type": "constructor"
    },
    {
      "anonymous": false,
      "inputs": [
        {
          "indexed": true,
          "internalType": "address",
          "name": "owner",
          "type": "address"
        },
        {
          "indexed": true,
          "internalType": "address",
          "name": "spender",
          "type": "address"
        },
        {
          "indexed": false,
          "internalType": "uint256",
          "name": "value",
          "type": "uint256"
        }
      ],
      "name": "Approval",
      "type": "event"
    },
    {
      "anonymous": false,
      "inputs": [
        {
          "indexed": true,
          "internalType": "address",
          "name": "from",
          "type": "address"
        },
        {
          "indexed": true,
          "internalType": "address",
          "name": "to",
          "type": "address"
        },
        {
          "indexed": false,
          "internalType": "uint256",
          "name": "value",
          "type": "uint256"
        }
      ],
      "name": "Transfer",
      "type": "event"
    },
    {
      "stateMutability": "payable",
      "type": "fallback"
    },
    {
      "inputs": [],
      "name": "DOMAIN_SEPARATOR",
      "outputs": [
        {
          "internalType": "bytes32",
          "name": "",
          "type": "bytes32"
        }
      ],
      "stateMutability": "view",
      "type": "function"
    },
    {
      "inputs": [
        {
          "internalType": "address",
          "name": "owner",
          "type": "address"
        },
        {
          "internalType": "address",
          "name": "spender",
          "type": "address"
        }
      ],
      "name": "allowance",
      "outputs": [
        {
          "internalType": "uint256",
          "name": "",
          "type": "uint256"
        }
      ],
      "stateMutability": "view",
      "type": "function"
    },
    {
      "inputs": [
        {
          "internalType": "address",
          "name": "spender",
          "type": "address"
        },
        {
          "internalType": "uint256",
          "name": "amount",
          "type": "uint256"
        }
      ],
      "name": "approve",
      "outputs": [
        {
          "internalType": "bool",
          "name": "",
          "type": "bool"
        }
      ],
      "stateMutability": "nonpayable",
      "type": "function"
    },
    {
      "inputs": [
        {
          "internalType": "address",
          "name": "account",
          "type": "address"
        }
      ],
      "name": "balanceOf",
      "outputs": [
        {
          "internalType": "uint256",
          "name": "",
          "type": "uint256"
        }
      ],
      "stateMutability": "view",
      "type": "function"
    },
    {
      "inputs": [],
      "name": "decimals",
      "outputs": [
        {
          "internalType": "uint8",
          "name": "",
          "type": "uint8"
        }
      ],
      "stateMutability": "view",
      "type": "function"
    },
    {
      "inputs": [
        {
          "internalType": "address",
          "name": "spender",
          "type": "address"
        },
        {
          "internalType": "uint256",
          "name": "subtractedValue",
          "type": "uint256"
        }
      ],
      "name": "decreaseAllowance",
      "outputs": [
        {
          "internalType": "bool",
          "name": "",
          "type": "bool"
        }
      ],
      "stateMutability": "nonpayable",
      "type": "function"
    },
    {
      "inputs": [
        {
          "internalType": "address",
          "name": "spender",
          "type": "address"
        },
        {
          "internalType": "uint256",
          "name": "addedValue",
          "type": "uint256"
        }
      ],
      "name": "increaseAllowance",
      "outputs": [
        {
          "internalType": "bool",
          "name": "",
          "type": "bool"
        }
      ],
      "stateMutability": "nonpayable",
      "type": "function"
    },
    {
      "inputs": [],
      "name": "name",
      "outputs": [
        {
          "internalType": "string",
          "name": "",
          "type": "string"
        }
      ],
      "stateMutability": "view",
      "type": "function"
    },
    {
      "inputs": [
        {
          "internalType": "address",
          "name": "owner",
          "type": "address"
        }
      ],
      "name": "nonces",
      "outputs": [
        {
          "internalType": "uint256",
          "name": "",
          "type": "uint256"
        }
      ],
      "stateMutability": "view",
      "type": "function"
    },
    {
      "inputs": [
        {
          "internalType": "address",
          "name": "owner",
          "type": "address"
        },
        {
          "internalType": "address",
          "name": "spender",
          "type": "address"
        },
        {
          "internalType": "uint256",
          "name": "value",
          "type": "uint256"
        },
        {
          "internalType": "uint256",
          "name": "deadline",
          "type": "uint256"
        },
        {
          "internalType": "uint8",
          "name": "v",
          "type": "uint8"
        },
        {
          "internalType": "bytes32",
          "name": "r",
          "type": "bytes32"
        },
        {
          "internalType": "bytes32",
          "name": "s",
          "type": "bytes32"
        }
      ],
      "name": "permit",
      "outputs": [],
      "stateMutability": "nonpayable",
      "type": "function"
    },
    {
      "inputs": [],
      "name": "symbol",
      "outputs": [
        {
          "internalType": "string",
          "name": "",
          "type": "string"
        }
      ],
      "stateMutability": "view",
      "type": "function"
    },
    {
      "inputs": [],
      "name": "totalSupply",
      "outputs": [
        {
          "internalType": "uint256",
          "name": "",
          "type": "uint256"
        }
      ],
      "stateMutability": "view",
      "type": "function"
    },
    {
      "inputs": [
        {
          "internalType": "address",
          "name": "to",
          "type": "address"
        },
        {
          "internalType": "uint256",
          "name": "amount",
          "type": "uint256"
        }
      ],
      "name": "transfer",
      "outputs": [
        {
          "internalType": "bool",
          "name": "",
          "type": "bool"
        }
      ],
      "stateMutability": "nonpayable",
      "type": "function"
    },
    {
      "inputs": [
        {
          "internalType": "address",
          "name": "from",
          "type": "address"
        },
        {
          "internalType": "address",
          "name": "to",
          "type": "address"
        },
        {
          "internalType": "uint256",
          "name": "amount",
          "type": "uint256"
        }
      ],
      "name": "transferFrom",
      "outputs": [
        {
          "internalType": "bool",
          "name": "",
          "type": "bool"
        }
      ],
      "stateMutability": "nonpayable",
      "type": "function"
    },
    {
      "inputs": [
        {
          "internalType": "uint256",
          "name": "amount",
          "type": "uint256"
        }
      ],
      "name": "unwrap",
      "outputs": [],
      "stateMutability": "nonpayable",
      "type": "function"
    },
    {
      "inputs": [],
      "name": "wrap",
      "outputs": [],
      "stateMutability": "payable",
      "type": "function"
    }
  ],
  "bytecode": "0x6101406040523480156200001257600080fd5b506040518060400160405280600481526020017f7745544800000000000000000000000000000000000000000000000000000000815250806040518060400160405280600181526020017f31000000000000000000000000000000000000000000000000000000000000008152506040518060400160405280600481526020017f77455448000000000000000000000000000000000000000000000000000000008152506040518060400160405280600481526020017f77455448000000000000000000000000000000000000000000000000000000008152508160039081620000fd919062000481565b5080600490816200010f919062000481565b50505060008280519060200120905060008280519060200120905060007f8b73c3c69bb8fe3d512ecc4cf759cc79239f7b179b0ffacaa9a75d522b39400f90508260e081815250508161010081815250504660a081815250506200017b818484620001cb60201b60201c565b608081815250503073ffffffffffffffffffffffffffffffffffffffff1660c08173ffffffffffffffffffffffffffffffffffffffff168152505080610120818152505050505050505062000636565b60008383834630604051602001620001e8959493929190620005d9565b6040516020818303038152906040528051906020012090509392505050565b600081519050919050565b7f4e487b7100000000000000000000000000000000000000000000000000000000600052604160045260246000fd5b7f4e487b7100000000000000000000000000000000000000000000000000000000600052602260045260246000fd5b600060028204905060018216806200028957607f821691505b6020821081036200029f576200029e62000241565b5b50919050565b60008190508160005260206000209050919050565b60006020601f8301049050919050565b600082821b905092915050565b600060088302620003097fffffffffffffffffffffffffffffffffffffffffffffffffffffffffffffffff82620002ca565b620003158683620002ca565b95508019841693508086168417925050509392505050565b6000819050919050565b6000819050919050565b6000620003626200035c62000356846200032d565b62000337565b6200032d565b9050919050565b6000819050919050565b6200037e8362000341565b620003966200038d8262000369565b848454620002d7565b825550505050565b600090565b620003ad6200039e565b620003ba81848462000373565b505050565b5b81811015620003e257620003d6600082620003a3565b600181019050620003c0565b5050565b601f8211156200043157620003fb81620002a5565b6200040684620002ba565b8101602085101562000416578190505b6200042e6200042585620002ba565b830182620003bf565b50505b505050565b600082821c905092915050565b6000620004566000198460080262000436565b1980831691505092915050565b600062000471838362000443565b9150826002028217905092915050565b6200048c8262000207565b67ffffffffffffffff811115620004a857620004a762000212565b5b620004b4825462000270565b620004c1828285620003e6565b600060209050601f831160018114620004f95760008415620004e4578287015190505b620004f0858262000463565b86555062000560565b601f1984166200050986620002a5565b60005b8281101562000533578489015182556001820191506020850194506020810190506200050c565b868310156200055357848901516200054f601f89168262000443565b8355505b6001600288020188555050505b505050505050565b6000819050919050565b6200057d8162000568565b82525050565b6200058e816200032d565b82525050565b600073ffffffffffffffffffffffffffffffffffffffff82169050919050565b6000620005c18262000594565b9050919050565b620005d381620005b4565b82525050565b600060a082019050620005f0600083018862000572565b620005ff602083018762000572565b6200060e604083018662000572565b6200061d606083018562000583565b6200062c6080830184620005c8565b9695505050505050565b60805160a05160c05160e05161010051610120516125976200068660003960006110b0015260006110f2015260006110d1015260006110060152600061105c0152600061108501526125976000f3fe6080604052600436106100f75760003560e01c80637ecebe001161008a578063d46eb11911610059578063d46eb11914610386578063d505accf14610390578063dd62ed3e146103b9578063de0e9a3e146103f6576100f8565b80637ecebe00146102a457806395d89b41146102e1578063a457c2d71461030c578063a9059cbb14610349576100f8565b8063313ce567116100c6578063313ce567146101d45780633644e515146101ff578063395093511461022a57806370a0823114610267576100f8565b806306fdde0314610104578063095ea7b31461012f57806318160ddd1461016c57806323b872dd14610197576100f8565b5b610102333461041f565b005b34801561011057600080fd5b50610119610575565b60405161012691906116f5565b60405180910390f35b34801561013b57600080fd5b50610156600480360381019061015191906117b0565b610607565b604051610163919061180b565b60405180910390f35b34801561017857600080fd5b5061018161062a565b60405161018e9190611835565b60405180910390f35b3480156101a357600080fd5b506101be60048036038101906101b99190611850565b610634565b6040516101cb919061180b565b60405180910390f35b3480156101e057600080fd5b506101e9610663565b6040516101f691906118bf565b60405180910390f35b34801561020b57600080fd5b5061021461066c565b60405161022191906118f3565b60405180910390f35b34801561023657600080fd5b50610251600480360381019061024c91906117b0565b61067b565b60405161025e919061180b565b60405180910390f35b34801561027357600080fd5b5061028e6004803603810190610289919061190e565b6106b2565b60405161029b9190611835565b60405180910390f35b3480156102b057600080fd5b506102cb60048036038101906102c6919061190e565b6106fa565b6040516102d89190611835565b60405180910390f35b3480156102ed57600080fd5b506102f661074a565b60405161030391906116f5565b60405180910390f35b34801561031857600080fd5b50610333600480360381019061032e91906117b0565b6107dc565b604051610340919061180b565b60405180910390f35b34801561035557600080fd5b50610370600480360381019061036b91906117b0565b610853565b60405161037d919061180b565b60405180910390f35b61038e610876565b005b34801561039c57600080fd5b506103b760048036038101906103b29190611993565b6108c5565b005b3480156103c557600080fd5b506103e060048036038101906103db9190611a35565b610a07565b6040516103ed9190611835565b60405180910390f35b34801561040257600080fd5b5061041d60048036038101906104189190611a75565b610a8e565b005b600073ffffffffffffffffffffffffffffffffffffffff168273ffffffffffffffffffffffffffffffffffffffff160361048e576040517f08c379a000000000000000000000000000000000000000000000000000000000815260040161048590611aee565b60405180910390fd5b61049a60008383610b25565b80600260008282546104ac9190611b3d565b92505081905550806000808473ffffffffffffffffffffffffffffffffffffffff1673ffffffffffffffffffffffffffffffffffffffff168152602001908152602001600020600082825401925050819055508173ffffffffffffffffffffffffffffffffffffffff16600073ffffffffffffffffffffffffffffffffffffffff167fddf252ad1be2c89b69c2b068fc378daa952ba7f163c4a11628f55a4df523b3ef8360405161055d9190611835565b60405180910390a361057160008383610b2a565b5050565b60606003805461058490611ba0565b80601f01602080910402602001604051908101604052809291908181526020018280546105b090611ba0565b80156105fd5780601f106105d2576101008083540402835291602001916105fd565b820191906000526020600020905b8154815290600101906020018083116105e057829003601f168201915b5050505050905090565b600080610612610b2f565b905061061f818585610b37565b600191505092915050565b6000600254905090565b60008061063f610b2f565b905061064c858285610d00565b610657858585610d8c565b60019150509392505050565b60006012905090565b6000610676611002565b905090565b600080610686610b2f565b90506106a78185856106988589610a07565b6106a29190611b3d565b610b37565b600191505092915050565b60008060008373ffffffffffffffffffffffffffffffffffffffff1673ffffffffffffffffffffffffffffffffffffffff168152602001908152602001600020549050919050565b6000610743600560008473ffffffffffffffffffffffffffffffffffffffff1673ffffffffffffffffffffffffffffffffffffffff16815260200190815260200160002061111c565b9050919050565b60606004805461075990611ba0565b80601f016020809104026020016040519081016040528092919081815260200182805461078590611ba0565b80156107d25780601f106107a7576101008083540402835291602001916107d2565b820191906000526020600020905b8154815290600101906020018083116107b557829003601f168201915b5050505050905090565b6000806107e7610b2f565b905060006107f58286610a07565b90508381101561083a576040517f08c379a000000000000000000000000000000000000000000000000000000000815260040161083190611c43565b60405180910390fd5b6108478286868403610b37565b60019250505092915050565b60008061085e610b2f565b905061086b818585610d8c565b600191505092915050565b600034116108b9576040517f08c379a00000000000000000000000000000000000000000000000000000000081526004016108b090611caf565b60405180910390fd5b6108c3333461041f565b565b83421115610908576040517f08c379a00000000000000000000000000000000000000000000000000000000081526004016108ff90611d1b565b60405180910390fd5b60007f6e71edae12b1b97f4d1f60370fef10105fa2faae0126114a169c64845d6126c98888886109378c61112a565b8960405160200161094d96959493929190611d4a565b604051602081830303815290604052805190602001209050600061097082611188565b90506000610980828787876111a2565b90508973ffffffffffffffffffffffffffffffffffffffff168173ffffffffffffffffffffffffffffffffffffffff16146109f0576040517f08c379a00000000000000000000000000000000000000000000000000000000081526004016109e790611df7565b60405180910390fd5b6109fb8a8a8a610b37565b50505050505050505050565b6000600160008473ffffffffffffffffffffffffffffffffffffffff1673ffffffffffffffffffffffffffffffffffffffff16815260200190815260200160002060008373ffffffffffffffffffffffffffffffffffffffff1673ffffffffffffffffffffffffffffffffffffffff16815260200190815260200160002054905092915050565b60008111610ad1576040517f08c379a0000000000000000000000000000000000000000000000000000000008152600401610ac890611caf565b60405180910390fd5b610adb33826111cd565b3373ffffffffffffffffffffffffffffffffffffffff166108fc829081150290604051600060405180830381858888f19350505050158015610b21573d6000803e3d6000fd5b5050565b505050565b505050565b600033905090565b600073ffffffffffffffffffffffffffffffffffffffff168373ffffffffffffffffffffffffffffffffffffffff1603610ba6576040517f08c379a0000000000000000000000000000000000000000000000000000000008152600401610b9d90611e89565b60405180910390fd5b600073ffffffffffffffffffffffffffffffffffffffff168273ffffffffffffffffffffffffffffffffffffffff1603610c15576040517f08c379a0000000000000000000000000000000000000000000000000000000008152600401610c0c90611f1b565b60405180910390fd5b80600160008573ffffffffffffffffffffffffffffffffffffffff1673ffffffffffffffffffffffffffffffffffffffff16815260200190815260200160002060008473ffffffffffffffffffffffffffffffffffffffff1673ffffffffffffffffffffffffffffffffffffffff168152602001908152602001600020819055508173ffffffffffffffffffffffffffffffffffffffff168373ffffffffffffffffffffffffffffffffffffffff167f8c5be1e5ebec7d5bd14f71427d1e84f3dd0314c0f7b2291e5b200ac8c7c3b92583604051610cf39190611835565b60405180910390a3505050565b6000610d0c8484610a07565b90507fffffffffffffffffffffffffffffffffffffffffffffffffffffffffffffffff8114610d865781811015610d78576040517f08c379a0000000000000000000000000000000000000000000000000000000008152600401610d6f90611f87565b60405180910390fd5b610d858484848403610b37565b5b50505050565b600073ffffffffffffffffffffffffffffffffffffffff168373ffffffffffffffffffffffffffffffffffffffff1603610dfb576040517f08c379a0000000000000000000000000000000000000000000000000000000008152600401610df290612019565b60405180910390fd5b600073ffffffffffffffffffffffffffffffffffffffff168273ffffffffffffffffffffffffffffffffffffffff1603610e6a576040517f08c379a0000000000000000000000000000000000000000000000000000000008152600401610e61906120ab565b60405180910390fd5b610e75838383610b25565b60008060008573ffffffffffffffffffffffffffffffffffffffff1673ffffffffffffffffffffffffffffffffffffffff16815260200190815260200160002054905081811015610efb576040517f08c379a0000000000000000000000000000000000000000000000000000000008152600401610ef29061213d565b60405180910390fd5b8181036000808673ffffffffffffffffffffffffffffffffffffffff1673ffffffffffffffffffffffffffffffffffffffff16815260200190815260200160002081905550816000808573ffffffffffffffffffffffffffffffffffffffff1673ffffffffffffffffffffffffffffffffffffffff168152602001908152602001600020600082825401925050819055508273ffffffffffffffffffffffffffffffffffffffff168473ffffffffffffffffffffffffffffffffffffffff167fddf252ad1be2c89b69c2b068fc378daa952ba7f163c4a11628f55a4df523b3ef84604051610fe99190611835565b60405180910390a3610ffc848484610b2a565b50505050565b60007f000000000000000000000000000000000000000000000000000000000000000073ffffffffffffffffffffffffffffffffffffffff163073ffffffffffffffffffffffffffffffffffffffff1614801561107e57507f000000000000000000000000000000000000000000000000000000000000000046145b156110ab577f00000000000000000000000000000000000000000000000000000000000000009050611119565b6111167f00000000000000000000000000000000000000000000000000000000000000007f00000000000000000000000000000000000000000000000000000000000000007f000000000000000000000000000000000000000000000000000000000000000061139a565b90505b90565b600081600001549050919050565b600080600560008473ffffffffffffffffffffffffffffffffffffffff1673ffffffffffffffffffffffffffffffffffffffff16815260200190815260200160002090506111778161111c565b9150611182816113d4565b50919050565b600061119b611195611002565b836113ea565b9050919050565b60008060006111b38787878761141d565b915091506111c0816114ff565b8192505050949350505050565b600073ffffffffffffffffffffffffffffffffffffffff168273ffffffffffffffffffffffffffffffffffffffff160361123c576040517f08c379a0000000000000000000000000000000000000000000000000000000008152600401611233906121cf565b60405180910390fd5b61124882600083610b25565b60008060008473ffffffffffffffffffffffffffffffffffffffff1673ffffffffffffffffffffffffffffffffffffffff168152602001908152602001600020549050818110156112ce576040517f08c379a00000000000000000000000000000000000000000000000000000000081526004016112c590612261565b60405180910390fd5b8181036000808573ffffffffffffffffffffffffffffffffffffffff1673ffffffffffffffffffffffffffffffffffffffff1681526020019081526020016000208190555081600260008282540392505081905550600073ffffffffffffffffffffffffffffffffffffffff168373ffffffffffffffffffffffffffffffffffffffff167fddf252ad1be2c89b69c2b068fc378daa952ba7f163c4a11628f55a4df523b3ef846040516113819190611835565b60405180910390a361139583600084610b2a565b505050565b600083838346306040516020016113b5959493929190612281565b6040516020818303038152906040528051906020012090509392505050565b6001816000016000828254019250508190555050565b600082826040516020016113ff92919061234c565b60405160208183030381529060405280519060200120905092915050565b6000807f7fffffffffffffffffffffffffffffff5d576e7357a4501ddfe92f46681b20a08360001c11156114585760006003915091506114f6565b60006001878787876040516000815260200160405260405161147d9493929190612383565b6020604051602081039080840390855afa15801561149f573d6000803e3d6000fd5b505050602060405103519050600073ffffffffffffffffffffffffffffffffffffffff168173ffffffffffffffffffffffffffffffffffffffff16036114ed576000600192509250506114f6565b80600092509250505b94509492505050565b60006004811115611513576115126123c8565b5b816004811115611526576115256123c8565b5b031561166257600160048111156115405761153f6123c8565b5b816004811115611553576115526123c8565b5b03611593576040517f08c379a000000000000000000000000000000000000000000000000000000000815260040161158a90612443565b60405180910390fd5b600260048111156115a7576115a66123c8565b5b8160048111156115ba576115b96123c8565b5b036115fa576040517f08c379a00000000000000000000000000000000000000000000000000000000081526004016115f1906124af565b60405180910390fd5b6003600481111561160e5761160d6123c8565b5b816004811115611621576116206123c8565b5b03611661576040517f08c379a000000000000000000000000000000000000000000000000000000000815260040161165890612541565b60405180910390fd5b5b50565b600081519050919050565b600082825260208201905092915050565b60005b8381101561169f578082015181840152602081019050611684565b60008484015250505050565b6000601f19601f8301169050919050565b60006116c782611665565b6116d18185611670565b93506116e1818560208601611681565b6116ea816116ab565b840191505092915050565b6000602082019050818103600083015261170f81846116bc565b905092915050565b600080fd5b600073ffffffffffffffffffffffffffffffffffffffff82169050919050565b60006117478261171c565b9050919050565b6117578161173c565b811461176257600080fd5b50565b6000813590506117748161174e565b92915050565b6000819050919050565b61178d8161177a565b811461179857600080fd5b50565b6000813590506117aa81611784565b92915050565b600080604083850312156117c7576117c6611717565b5b60006117d585828601611765565b92505060206117e68582860161179b565b9150509250929050565b60008115159050919050565b611805816117f0565b82525050565b600060208201905061182060008301846117fc565b92915050565b61182f8161177a565b82525050565b600060208201905061184a6000830184611826565b92915050565b60008060006060848603121561186957611868611717565b5b600061187786828701611765565b935050602061188886828701611765565b92505060406118998682870161179b565b9150509250925092565b600060ff82169050919050565b6118b9816118a3565b82525050565b60006020820190506118d460008301846118b0565b92915050565b6000819050919050565b6118ed816118da565b82525050565b600060208201905061190860008301846118e4565b92915050565b60006020828403121561192457611923611717565b5b600061193284828501611765565b91505092915050565b611944816118a3565b811461194f57600080fd5b50565b6000813590506119618161193b565b92915050565b611970816118da565b811461197b57600080fd5b50565b60008135905061198d81611967565b92915050565b600080600080600080600060e0888a0312156119b2576119b1611717565b5b60006119c08a828b01611765565b97505060206119d18a828b01611765565b96505060406119e28a828b0161179b565b95505060606119f38a828b0161179b565b9450506080611a048a828b01611952565b93505060a0611a158a828b0161197e565b92505060c0611a268a828b0161197e565b91505092959891949750929550565b60008060408385031215611a4c57611a4b611717565b5b6000611a5a85828601611765565b9250506020611a6b85828601611765565b9150509250929050565b600060208284031215611a8b57611a8a611717565b5b6000611a998482850161179b565b91505092915050565b7f45524332303a206d696e7420746f20746865207a65726f206164647265737300600082015250565b6000611ad8601f83611670565b9150611ae382611aa2565b602082019050919050565b60006020820190508181036000830152611b0781611acb565b9050919050565b7f4e487b7100000000000000000000000000000000000000000000000000000000600052601160045260246000fd5b6000611b488261177a565b9150611b538361177a565b9250828201905080821115611b6b57611b6a611b0e565b5b92915050565b7f4e487b7100000000000000000000000000000000000000000000000000000000600052602260045260246000fd5b60006002820490506001821680611bb857607f821691505b602082108103611bcb57611bca611b71565b5b50919050565b7f45524332303a2064656372656173656420616c6c6f77616e63652062656c6f7760008201527f207a65726f000000000000000000000000000000000000000000000000000000602082015250565b6000611c2d602583611670565b9150611c3882611bd1565b604082019050919050565b60006020820190508181036000830152611c5c81611c20565b9050919050565b7f416d6f756e74206d7573742062652067726561746572207468616e2030000000600082015250565b6000611c99601d83611670565b9150611ca482611c63565b602082019050919050565b60006020820190508181036000830152611cc881611c8c565b9050919050565b7f45524332305065726d69743a206578706972656420646561646c696e65000000600082015250565b6000611d05601d83611670565b9150611d1082611ccf565b602082019050919050565b60006020820190508181036000830152611d3481611cf8565b9050919050565b611d448161173c565b82525050565b600060c082019050611d5f60008301896118e4565b611d6c6020830188611d3b565b611d796040830187611d3b565b611d866060830186611826565b611d936080830185611826565b611da060a0830184611826565b979650505050505050565b7f45524332305065726d69743a20696e76616c6964207369676e61747572650000600082015250565b6000611de1601e83611670565b9150611dec82611dab565b602082019050919050565b60006020820190508181036000830152611e1081611dd4565b9050919050565b7f45524332303a20617070726f76652066726f6d20746865207a65726f2061646460008201527f7265737300000000000000000000000000000000000000000000000000000000602082015250565b6000611e73602483611670565b9150611e7e82611e17565b604082019050919050565b60006020820190508181036000830152611ea281611e66565b9050919050565b7f45524332303a20617070726f766520746f20746865207a65726f20616464726560008201527f7373000000000000000000000000000000000000000000000000000000000000602082015250565b6000611f05602283611670565b9150611f1082611ea9565b604082019050919050565b60006020820190508181036000830152611f3481611ef8565b9050919050565b7f45524332303a20696e73756666696369656e7420616c6c6f77616e6365000000600082015250565b6000611f71601d83611670565b9150611f7c82611f3b565b602082019050919050565b60006020820190508181036000830152611fa081611f64565b9050919050565b7f45524332303a207472616e736665722066726f6d20746865207a65726f20616460008201527f6472657373000000000000000000000000000000000000000000000000000000602082015250565b6000612003602583611670565b915061200e82611fa7565b604082019050919050565b6000602082019050818103600083015261203281611ff6565b9050919050565b7f45524332303a207472616e7366657220746f20746865207a65726f206164647260008201527f6573730000000000000000000000000000000000000000000000000000000000602082015250565b6000612095602383611670565b91506120a082612039565b604082019050919050565b600060208201905081810360008301526120c481612088565b9050919050565b7f45524332303a207472616e7366657220616d6f756e742065786365656473206260008201527f616c616e63650000000000000000000000000000000000000000000000000000602082015250565b6000612127602683611670565b9150612132826120cb565b604082019050919050565b600060208201905081810360008301526121568161211a565b9050919050565b7f45524332303a206275726e2066726f6d20746865207a65726f2061646472657360008201527f7300000000000000000000000000000000000000000000000000000000000000602082015250565b60006121b9602183611670565b91506121c48261215d565b604082019050919050565b600060208201905081810360008301526121e8816121ac565b9050919050565b7f45524332303a206275726e20616d6f756e7420657863656564732062616c616e60008201527f6365000000000000000000000000000000000000000000000000000000000000602082015250565b600061224b602283611670565b9150612256826121ef565b604082019050919050565b6000602082019050818103600083015261227a8161223e565b9050919050565b600060a08201905061229660008301886118e4565b6122a360208301876118e4565b6122b060408301866118e4565b6122bd6060830185611826565b6122ca6080830184611d3b565b9695505050505050565b600081905092915050565b7f1901000000000000000000000000000000000000000000000000000000000000600082015250565b60006123156002836122d4565b9150612320826122df565b600282019050919050565b6000819050919050565b612346612341826118da565b61232b565b82525050565b600061235782612308565b91506123638285612335565b6020820191506123738284612335565b6020820191508190509392505050565b600060808201905061239860008301876118e4565b6123a560208301866118b0565b6123b260408301856118e4565b6123bf60608301846118e4565b95945050505050565b7f4e487b7100000000000000000000000000000000000000000000000000000000600052602160045260246000fd5b7f45434453413a20696e76616c6964207369676e61747572650000000000000000600082015250565b600061242d601883611670565b9150612438826123f7565b602082019050919050565b6000602082019050818103600083015261245c81612420565b9050919050565b7f45434453413a20696e76616c6964207369676e6174757265206c656e67746800600082015250565b6000612499601f83611670565b91506124a482612463565b602082019050919050565b600060208201905081810360008301526124c88161248c565b9050919050565b7f45434453413a20696e76616c6964207369676e6174757265202773272076616c60008201527f7565000000000000000000000000000000000000000000000000000000000000602082015250565b600061252b602283611670565b9150612536826124cf565b604082019050919050565b6000602082019050818103600083015261255a8161251e565b905091905056fea2646970667358221220a2277b748ceb9412fd55afa7fbf7f626f000ab43fbf5d8d0c292af845b9e960364736f6c63430008120033",
  "linkReferences": {},
  "deployedLinkReferences": {}
}