{
  "_format": "hh-sol-artifact-1",
  "contractName": "Marketplace",
  "sourceName": "src/backend/contracts/Marketplace.sol",
  "abi": [
    {
      "inputs": [
        {
          "internalType": "uint256",
          "name": "_feePercent",
          "type": "uint256"
        }
      ],
      "stateMutability": "nonpayable",
      "type": "constructor"
    },
    {
      "anonymous": false,
      "inputs": [
        {
          "indexed": false,
          "internalType": "uint256",
          "name": "auctionId",
          "type": "uint256"
        },
        {
          "indexed": false,
          "internalType": "address",
          "name": "nft",
          "type": "address"
        },
        {
          "indexed": true,
          "internalType": "uint256",
          "name": "tokenId",
          "type": "uint256"
        },
        {
          "indexed": false,
          "internalType": "uint256",
          "name": "price",
          "type": "uint256"
        },
        {
          "indexed": true,
          "internalType": "address",
          "name": "seller",
          "type": "address"
        },
        {
          "indexed": true,
          "internalType": "address",
          "name": "buyer",
          "type": "address"
        }
      ],
      "name": "AuctionEnded",
      "type": "event"
    },
    {
      "anonymous": false,
      "inputs": [
        {
          "indexed": false,
          "internalType": "uint256",
          "name": "auctionId",
          "type": "uint256"
        },
        {
          "indexed": false,
          "internalType": "address",
          "name": "nft",
          "type": "address"
        },
        {
          "indexed": true,
          "internalType": "uint256",
          "name": "tokenId",
          "type": "uint256"
        },
        {
          "indexed": false,
          "internalType": "uint256",
          "name": "price",
          "type": "uint256"
        },
        {
          "indexed": false,
          "internalType": "uint256",
          "name": "timeToEnd",
          "type": "uint256"
        },
        {
          "indexed": true,
          "internalType": "address",
          "name": "seller",
          "type": "address"
        }
      ],
      "name": "AuctionStarted",
      "type": "event"
    },
    {
      "anonymous": false,
      "inputs": [
        {
          "indexed": false,
          "internalType": "uint256",
          "name": "itemId",
          "type": "uint256"
        },
        {
          "indexed": false,
          "internalType": "address",
          "name": "nft",
          "type": "address"
        },
        {
          "indexed": true,
          "internalType": "uint256",
          "name": "tokenId",
          "type": "uint256"
        },
        {
          "indexed": false,
          "internalType": "uint256",
          "name": "price",
          "type": "uint256"
        },
        {
          "indexed": true,
          "internalType": "address",
          "name": "seller",
          "type": "address"
        },
        {
          "indexed": true,
          "internalType": "address",
          "name": "buyer",
          "type": "address"
        }
      ],
      "name": "Bought",
      "type": "event"
    },
    {
      "anonymous": false,
      "inputs": [
        {
          "indexed": false,
          "internalType": "uint256",
          "name": "itemId",
          "type": "uint256"
        },
        {
          "indexed": false,
          "internalType": "address",
          "name": "nft",
          "type": "address"
        },
        {
          "indexed": true,
          "internalType": "uint256",
          "name": "tokenId",
          "type": "uint256"
        },
        {
          "indexed": false,
          "internalType": "uint256",
          "name": "price",
          "type": "uint256"
        },
        {
          "indexed": true,
          "internalType": "address",
          "name": "seller",
          "type": "address"
        }
      ],
      "name": "Offered",
      "type": "event"
    },
    {
      "stateMutability": "nonpayable",
      "type": "fallback"
    },
    {
      "inputs": [],
      "name": "activeAuctionItemCount",
      "outputs": [
        {
          "internalType": "uint256",
          "name": "",
          "type": "uint256"
        }
      ],
      "stateMutability": "view",
      "type": "function"
    },
    {
      "inputs": [
        {
          "internalType": "uint256",
          "name": "",
          "type": "uint256"
        }
      ],
      "name": "activeAuctionItemIds",
      "outputs": [
        {
          "internalType": "uint256",
          "name": "",
          "type": "uint256"
        }
      ],
      "stateMutability": "view",
      "type": "function"
    },
    {
      "inputs": [],
      "name": "activeListedItemCount",
      "outputs": [
        {
          "internalType": "uint256",
          "name": "",
          "type": "uint256"
        }
      ],
      "stateMutability": "view",
      "type": "function"
    },
    {
      "inputs": [
        {
          "internalType": "uint256",
          "name": "",
          "type": "uint256"
        }
      ],
      "name": "activeListedItemIds",
      "outputs": [
        {
          "internalType": "uint256",
          "name": "",
          "type": "uint256"
        }
      ],
      "stateMutability": "view",
      "type": "function"
    },
    {
      "inputs": [],
      "name": "auctionItemCount",
      "outputs": [
        {
          "internalType": "uint256",
          "name": "",
          "type": "uint256"
        }
      ],
      "stateMutability": "view",
      "type": "function"
    },
    {
      "inputs": [
        {
          "internalType": "uint256",
          "name": "",
          "type": "uint256"
        }
      ],
      "name": "auctionItems",
      "outputs": [
        {
          "internalType": "uint256",
          "name": "auctionId",
          "type": "uint256"
        },
        {
          "internalType": "contract IERC721",
          "name": "nft",
          "type": "address"
        },
        {
          "internalType": "uint256",
          "name": "tokenId",
          "type": "uint256"
        },
        {
          "internalType": "uint256",
          "name": "price",
          "type": "uint256"
        },
        {
          "internalType": "uint256",
          "name": "timeToEnd",
          "type": "uint256"
        },
        {
          "internalType": "address payable",
          "name": "winner",
          "type": "address"
        },
        {
          "internalType": "address payable",
          "name": "seller",
          "type": "address"
        },
        {
          "internalType": "uint256",
          "name": "deposited",
          "type": "uint256"
        },
        {
          "internalType": "bool",
          "name": "claimed",
          "type": "bool"
        },
        {
          "internalType": "bool",
          "name": "canceled",
          "type": "bool"
        }
      ],
      "stateMutability": "view",
      "type": "function"
    },
    {
      "inputs": [
        {
          "internalType": "uint256",
          "name": "_auctionId",
          "type": "uint256"
        }
      ],
      "name": "cancelAuction",
      "outputs": [],
      "stateMutability": "payable",
      "type": "function"
    },
    {
      "inputs": [
        {
          "internalType": "uint256",
          "name": "_itemId",
          "type": "uint256"
        }
      ],
      "name": "cancelOffered",
      "outputs": [],
      "stateMutability": "nonpayable",
      "type": "function"
    },
    {
      "inputs": [
        {
          "internalType": "uint256",
          "name": "_auctionId",
          "type": "uint256"
        }
      ],
      "name": "claimNFT",
      "outputs": [],
      "stateMutability": "nonpayable",
      "type": "function"
    },
    {
      "inputs": [],
      "name": "feeAccount",
      "outputs": [
        {
          "internalType": "address payable",
          "name": "",
          "type": "address"
        }
      ],
      "stateMutability": "view",
      "type": "function"
    },
    {
      "inputs": [],
      "name": "feePercent",
      "outputs": [
        {
          "internalType": "uint256",
          "name": "",
          "type": "uint256"
        }
      ],
      "stateMutability": "view",
      "type": "function"
    },
    {
      "inputs": [
        {
          "internalType": "uint256",
          "name": "_startFrom",
          "type": "uint256"
        }
      ],
      "name": "getActiveListedItemIds",
      "outputs": [
        {
          "internalType": "uint256[]",
          "name": "",
          "type": "uint256[]"
        }
      ],
      "stateMutability": "view",
      "type": "function"
    },
    {
      "inputs": [
        {
          "internalType": "uint256",
          "name": "_itemId",
          "type": "uint256"
        }
      ],
      "name": "getTotalPrice",
      "outputs": [
        {
          "internalType": "uint256",
          "name": "",
          "type": "uint256"
        }
      ],
      "stateMutability": "view",
      "type": "function"
    },
    {
      "inputs": [],
      "name": "itemCount",
      "outputs": [
        {
          "internalType": "uint256",
          "name": "",
          "type": "uint256"
        }
      ],
      "stateMutability": "view",
      "type": "function"
    },
    {
      "inputs": [
        {
          "internalType": "uint256",
          "name": "",
          "type": "uint256"
        }
      ],
      "name": "items",
      "outputs": [
        {
          "internalType": "uint256",
          "name": "itemId",
          "type": "uint256"
        },
        {
          "internalType": "contract IERC721",
          "name": "nft",
          "type": "address"
        },
        {
          "internalType": "uint256",
          "name": "tokenId",
          "type": "uint256"
        },
        {
          "internalType": "uint256",
          "name": "price",
          "type": "uint256"
        },
        {
          "internalType": "address payable",
          "name": "seller",
          "type": "address"
        },
        {
          "internalType": "bool",
          "name": "sold",
          "type": "bool"
        },
        {
          "internalType": "bool",
          "name": "canceled",
          "type": "bool"
        }
      ],
      "stateMutability": "view",
      "type": "function"
    },
    {
      "inputs": [
        {
          "internalType": "contract IERC721",
          "name": "_nft",
          "type": "address"
        },
        {
          "internalType": "uint256",
          "name": "_tokenId",
          "type": "uint256"
        },
        {
          "internalType": "uint256",
          "name": "_price",
          "type": "uint256"
        }
      ],
      "name": "makeItem",
      "outputs": [],
      "stateMutability": "nonpayable",
      "type": "function"
    },
    {
      "inputs": [
        {
          "internalType": "uint256",
          "name": "_auctionId",
          "type": "uint256"
        }
      ],
      "name": "makeOffer",
      "outputs": [],
      "stateMutability": "payable",
      "type": "function"
    },
    {
      "inputs": [
        {
          "internalType": "uint256",
          "name": "_itemId",
          "type": "uint256"
        }
      ],
      "name": "purchaseItem",
      "outputs": [],
      "stateMutability": "payable",
      "type": "function"
    },
    {
      "inputs": [
        {
          "internalType": "contract IERC721",
          "name": "_nft",
          "type": "address"
        },
        {
          "internalType": "uint256",
          "name": "_tokenId",
          "type": "uint256"
        },
        {
          "internalType": "uint256",
          "name": "_price",
          "type": "uint256"
        },
        {
          "internalType": "uint256",
          "name": "_timeToEnd",
          "type": "uint256"
        }
      ],
      "name": "startAuction",
      "outputs": [],
      "stateMutability": "nonpayable",
      "type": "function"
    }
  ],
  "bytecode": "0x60c06040523480156200001157600080fd5b50604051620034073803806200340783398181016040528101906200003791906200009c565b60016000819055503373ffffffffffffffffffffffffffffffffffffffff1660808173ffffffffffffffffffffffffffffffffffffffff1660601b815250508060a0818152505050620000ec565b6000815190506200009681620000d2565b92915050565b600060208284031215620000af57600080fd5b6000620000bf8482850162000085565b91505092915050565b6000819050919050565b620000dd81620000c8565b8114620000e957600080fd5b50565b60805160601c60a0516132e4620001236000396000818161092e015261133401526000818161064a015261162101526132e46000f3fe6080604052600436106101185760003560e01c80639c166273116100a0578063d38ea5bf11610064578063d38ea5bf146103db578063fa00afc7146103f7578063fc610f3114610420578063fe5c873a1461044b578063fe6d7a6e1461047457610119565b80639c166273146102af578063bfb231d2146102d8578063ca7dd3751461031b578063cf44e2aa14610358578063d2c069f01461039557610119565b80637b90da24116100e75780637b90da24146101e65780637ee53f0f146102235780637fd6f15c1461024c57806396b5a755146102775780639a2f64741461029357610119565b806344b38a5e1461012857806348a0624c1461015357806365e17c9d146101905780636bfb0d01146101bb57610119565b5b34801561012557600080fd5b50005b34801561013457600080fd5b5061013d61049f565b60405161014a9190612979565b60405180910390f35b34801561015f57600080fd5b5061017a60048036038101906101759190612310565b6104a5565b6040516101879190612717565b60405180910390f35b34801561019c57600080fd5b506101a5610648565b6040516101b2919061268e565b60405180910390f35b3480156101c757600080fd5b506101d061066c565b6040516101dd9190612979565b60405180910390f35b3480156101f257600080fd5b5061020d60048036038101906102089190612310565b610672565b60405161021a9190612979565b60405180910390f35b34801561022f57600080fd5b5061024a60048036038101906102459190612310565b610696565b005b34801561025857600080fd5b5061026161092c565b60405161026e9190612979565b60405180910390f35b610291600480360381019061028c9190612310565b610950565b005b6102ad60048036038101906102a89190612310565b610cdf565b005b3480156102bb57600080fd5b506102d660048036038101906102d191906122ad565b610f26565b005b3480156102e457600080fd5b506102ff60048036038101906102fa9190612310565b611292565b6040516103129796959493929190612a10565b60405180910390f35b34801561032757600080fd5b50610342600480360381019061033d9190612310565b61132e565b60405161034f9190612979565b60405180910390f35b34801561036457600080fd5b5061037f600480360381019061037a9190612310565b611391565b60405161038c9190612979565b60405180910390f35b3480156103a157600080fd5b506103bc60048036038101906103b79190612310565b6113b5565b6040516103d29a99989796959493929190612a7f565b60405180910390f35b6103f560048036038101906103f09190612310565b611483565b005b34801561040357600080fd5b5061041e6004803603810190610419919061225e565b61187c565b005b34801561042c57600080fd5b50610435611b5e565b6040516104429190612979565b60405180910390f35b34801561045757600080fd5b50610472600480360381019061046d9190612310565b611b64565b005b34801561048057600080fd5b5061048961210c565b6040516104969190612979565b60405180910390f35b60035481565b60606000600567ffffffffffffffff8111156104ea577f4e487b7100000000000000000000000000000000000000000000000000000000600052604160045260246000fd5b6040519080825280602002602001820160405280156105185781602001602082028036833780820191505090505b5090506000808490505b6000811061063c57600060058281548110610566577f4e487b7100000000000000000000000000000000000000000000000000000000600052603260045260246000fd5b9060005260206000200154141561057c57610629565b600581815481106105b6577f4e487b7100000000000000000000000000000000000000000000000000000000600052603260045260246000fd5b90600052602060002001548383815181106105fa577f4e487b7100000000000000000000000000000000000000000000000000000000600052603260045260246000fd5b602002602001018181525050818061061190612da1565b925050600582141561062857829350505050610643565b5b808061063490612d77565b915050610522565b5081925050505b919050565b7f000000000000000000000000000000000000000000000000000000000000000081565b60015481565b6006818154811061068257600080fd5b906000526020600020016000915090505481565b61069e612112565b600081116106e1576040517f08c379a00000000000000000000000000000000000000000000000000000000081526004016106d890612819565b60405180910390fd5b3373ffffffffffffffffffffffffffffffffffffffff166007600083815260200190815260200160002060040160009054906101000a900473ffffffffffffffffffffffffffffffffffffffff1673ffffffffffffffffffffffffffffffffffffffff1614610785576040517f08c379a000000000000000000000000000000000000000000000000000000000815260040161077c906128d9565b60405180910390fd5b6007600082815260200190815260200160002060040160149054906101000a900460ff16156107e9576040517f08c379a00000000000000000000000000000000000000000000000000000000081526004016107e0906128b9565b60405180910390fd5b600060076000838152602001908152602001600020905060018160040160156101000a81548160ff0219169083151502179055508060010160009054906101000a900473ffffffffffffffffffffffffffffffffffffffff1673ffffffffffffffffffffffffffffffffffffffff166323b872dd303384600201546040518463ffffffff1660e01b8152600401610882939291906126e0565b600060405180830381600087803b15801561089c57600080fd5b505af11580156108b0573d6000803e3d6000fd5b50505050600360008154809291906108c790612d77565b919050555060056001836108db9190612c7d565b81548110610912577f4e487b7100000000000000000000000000000000000000000000000000000000600052603260045260246000fd5b906000526020600020016000905550610929612162565b50565b7f000000000000000000000000000000000000000000000000000000000000000081565b610958612112565b6000811161099b576040517f08c379a0000000000000000000000000000000000000000000000000000000008152600401610992906127d9565b60405180910390fd5b3373ffffffffffffffffffffffffffffffffffffffff166008600083815260200190815260200160002060060160009054906101000a900473ffffffffffffffffffffffffffffffffffffffff1673ffffffffffffffffffffffffffffffffffffffff1614610a3f576040517f08c379a0000000000000000000000000000000000000000000000000000000008152600401610a3690612959565b60405180910390fd5b6008600082815260200190815260200160002060080160009054906101000a900460ff1615610aa3576040517f08c379a0000000000000000000000000000000000000000000000000000000008152600401610a9a906127b9565b60405180910390fd5b60086000828152602001908152602001600020600401544210610afb576040517f08c379a0000000000000000000000000000000000000000000000000000000008152600401610af290612739565b60405180910390fd5b60006008600083815260200190815260200160002090508060010160009054906101000a900473ffffffffffffffffffffffffffffffffffffffff1673ffffffffffffffffffffffffffffffffffffffff166323b872dd308360060160009054906101000a900473ffffffffffffffffffffffffffffffffffffffff1684600201546040518463ffffffff1660e01b8152600401610b9b939291906126a9565b600060405180830381600087803b158015610bb557600080fd5b505af1158015610bc9573d6000803e3d6000fd5b50505050600081600701541115610c4a578060050160009054906101000a900473ffffffffffffffffffffffffffffffffffffffff1673ffffffffffffffffffffffffffffffffffffffff166108fc82600701549081150290604051600060405180830381858888f19350505050158015610c48573d6000803e3d6000fd5b505b60018160080160016101000a81548160ff02191690831515021790555060046000815480929190610c7a90612d77565b91905055506006600183610c8e9190612c7d565b81548110610cc5577f4e487b7100000000000000000000000000000000000000000000000000000000600052603260045260246000fd5b906000526020600020016000905550610cdc612162565b50565b610ce7612112565b60008111610d2a576040517f08c379a0000000000000000000000000000000000000000000000000000000008152600401610d21906127d9565b60405180910390fd5b60086000828152602001908152602001600020600301543411610d82576040517f08c379a0000000000000000000000000000000000000000000000000000000008152600401610d79906128f9565b60405180910390fd5b60086000828152602001908152602001600020600401544210610dda576040517f08c379a0000000000000000000000000000000000000000000000000000000008152600401610dd190612739565b60405180910390fd5b610dfb8134600860008581526020019081526020016000206003015461216c565b600060086000838152602001908152602001600020600701541115610eae576008600082815260200190815260200160002060050160009054906101000a900473ffffffffffffffffffffffffffffffffffffffff1673ffffffffffffffffffffffffffffffffffffffff166108fc60086000848152602001908152602001600020600701549081150290604051600060405180830381858888f19350505050158015610eac573d6000803e3d6000fd5b505b6000600860008381526020019081526020016000209050348160030181905550338160050160006101000a81548173ffffffffffffffffffffffffffffffffffffffff021916908373ffffffffffffffffffffffffffffffffffffffff16021790555034816007018190555050610f23612162565b50565b610f2e612112565b60008211610f71576040517f08c379a0000000000000000000000000000000000000000000000000000000008152600401610f6890612899565b60405180910390fd5b60026000815480929190610f8490612da1565b919050555060046000815480929190610f9c90612da1565b9190505550600660025490806001815401808255809150506001900390600052602060002001600090919091909150558373ffffffffffffffffffffffffffffffffffffffff166323b872dd3330866040518463ffffffff1660e01b8152600401611009939291906126e0565b600060405180830381600087803b15801561102357600080fd5b505af1158015611037573d6000803e3d6000fd5b5050505060405180610140016040528060025481526020018573ffffffffffffffffffffffffffffffffffffffff1681526020018481526020018381526020018281526020013373ffffffffffffffffffffffffffffffffffffffff1681526020013373ffffffffffffffffffffffffffffffffffffffff16815260200160008152602001600015158152602001600015158152506008600060025481526020019081526020016000206000820151816000015560208201518160010160006101000a81548173ffffffffffffffffffffffffffffffffffffffff021916908373ffffffffffffffffffffffffffffffffffffffff16021790555060408201518160020155606082015181600301556080820151816004015560a08201518160050160006101000a81548173ffffffffffffffffffffffffffffffffffffffff021916908373ffffffffffffffffffffffffffffffffffffffff16021790555060c08201518160060160006101000a81548173ffffffffffffffffffffffffffffffffffffffff021916908373ffffffffffffffffffffffffffffffffffffffff16021790555060e082015181600701556101008201518160080160006101000a81548160ff0219169083151502179055506101208201518160080160016101000a81548160ff0219169083151502179055509050503373ffffffffffffffffffffffffffffffffffffffff16837fd184fdb1358a28e5370b7ea6f753efc3313b7fd11d6750f270cf79f109a63f1760025487868660405161127c94939291906129cb565b60405180910390a361128c612162565b50505050565b60076020528060005260406000206000915090508060000154908060010160009054906101000a900473ffffffffffffffffffffffffffffffffffffffff16908060020154908060030154908060040160009054906101000a900473ffffffffffffffffffffffffffffffffffffffff16908060040160149054906101000a900460ff16908060040160159054906101000a900460ff16905087565b600060647f0000000000000000000000000000000000000000000000000000000000000000606461135f9190612b9c565b60076000858152602001908152602001600020600301546113809190612c23565b61138a9190612bf2565b9050919050565b600581815481106113a157600080fd5b906000526020600020016000915090505481565b60086020528060005260406000206000915090508060000154908060010160009054906101000a900473ffffffffffffffffffffffffffffffffffffffff16908060020154908060030154908060040154908060050160009054906101000a900473ffffffffffffffffffffffffffffffffffffffff16908060060160009054906101000a900473ffffffffffffffffffffffffffffffffffffffff16908060070154908060080160009054906101000a900460ff16908060080160019054906101000a900460ff1690508a565b61148b612112565b60006114968261132e565b905060006007600084815260200190815260200160002090506000831180156114c157506001548311155b611500576040517f08c379a00000000000000000000000000000000000000000000000000000000081526004016114f7906127f9565b60405180910390fd5b81341015611543576040517f08c379a000000000000000000000000000000000000000000000000000000000815260040161153a90612799565b60405180910390fd5b8060040160149054906101000a900460ff1615801561157157508060040160159054906101000a900460ff16155b6115b0576040517f08c379a00000000000000000000000000000000000000000000000000000000081526004016115a790612939565b60405180910390fd5b8060040160009054906101000a900473ffffffffffffffffffffffffffffffffffffffff1673ffffffffffffffffffffffffffffffffffffffff166108fc82600301549081150290604051600060405180830381858888f1935050505015801561161e573d6000803e3d6000fd5b507f000000000000000000000000000000000000000000000000000000000000000073ffffffffffffffffffffffffffffffffffffffff166108fc8260030154846116699190612c7d565b9081150290604051600060405180830381858888f19350505050158015611694573d6000803e3d6000fd5b5060018160040160146101000a81548160ff0219169083151502179055508060010160009054906101000a900473ffffffffffffffffffffffffffffffffffffffff1673ffffffffffffffffffffffffffffffffffffffff166323b872dd303384600201546040518463ffffffff1660e01b8152600401611717939291906126e0565b600060405180830381600087803b15801561173157600080fd5b505af1158015611745573d6000803e3d6000fd5b505050506003600081548092919061175c90612d77565b919050555060056001846117709190612c7d565b815481106117a7577f4e487b7100000000000000000000000000000000000000000000000000000000600052603260045260246000fd5b90600052602060002001600090553373ffffffffffffffffffffffffffffffffffffffff168160040160009054906101000a900473ffffffffffffffffffffffffffffffffffffffff1673ffffffffffffffffffffffffffffffffffffffff1682600201547f8b4c9c8a607d67b321582dd8461041b1dc2ceeca70c8b7f37f8e02095cf2e76d868560010160009054906101000a900473ffffffffffffffffffffffffffffffffffffffff16866003015460405161186793929190612994565b60405180910390a45050611879612162565b50565b611884612112565b600081116118c7576040517f08c379a00000000000000000000000000000000000000000000000000000000081526004016118be90612759565b60405180910390fd5b600160008154809291906118da90612da1565b9190505550600360008154809291906118f290612da1565b9190505550600560015490806001815401808255809150506001900390600052602060002001600090919091909150558273ffffffffffffffffffffffffffffffffffffffff166323b872dd3330856040518463ffffffff1660e01b815260040161195f939291906126e0565b600060405180830381600087803b15801561197957600080fd5b505af115801561198d573d6000803e3d6000fd5b505050506040518060e0016040528060015481526020018473ffffffffffffffffffffffffffffffffffffffff1681526020018381526020018281526020013373ffffffffffffffffffffffffffffffffffffffff168152602001600015158152602001600015158152506007600060015481526020019081526020016000206000820151816000015560208201518160010160006101000a81548173ffffffffffffffffffffffffffffffffffffffff021916908373ffffffffffffffffffffffffffffffffffffffff160217905550604082015181600201556060820151816003015560808201518160040160006101000a81548173ffffffffffffffffffffffffffffffffffffffff021916908373ffffffffffffffffffffffffffffffffffffffff16021790555060a08201518160040160146101000a81548160ff02191690831515021790555060c08201518160040160156101000a81548160ff0219169083151502179055509050503373ffffffffffffffffffffffffffffffffffffffff16827f655a0cf9c8db81512be9a76dc1c5ae5380b8816ce6ad659cd61b715e2999d59a6001548685604051611b4993929190612994565b60405180910390a3611b59612162565b505050565b60045481565b611b6c612112565b60008111611baf576040517f08c379a0000000000000000000000000000000000000000000000000000000008152600401611ba690612879565b60405180910390fd5b6008600082815260200190815260200160002060040154421015611c08576040517f08c379a0000000000000000000000000000000000000000000000000000000008152600401611bff90612839565b60405180910390fd5b3373ffffffffffffffffffffffffffffffffffffffff166008600083815260200190815260200160002060050160009054906101000a900473ffffffffffffffffffffffffffffffffffffffff1673ffffffffffffffffffffffffffffffffffffffff161480611cd957503373ffffffffffffffffffffffffffffffffffffffff166008600083815260200190815260200160002060060160009054906101000a900473ffffffffffffffffffffffffffffffffffffffff1673ffffffffffffffffffffffffffffffffffffffff16145b611d18576040517f08c379a0000000000000000000000000000000000000000000000000000000008152600401611d0f90612859565b60405180910390fd5b6008600082815260200190815260200160002060080160009054906101000a900460ff1615611d7c576040517f08c379a0000000000000000000000000000000000000000000000000000000008152600401611d7390612779565b60405180910390fd5b60006008600083815260200190815260200160002060405180610140016040529081600082015481526020016001820160009054906101000a900473ffffffffffffffffffffffffffffffffffffffff1673ffffffffffffffffffffffffffffffffffffffff1673ffffffffffffffffffffffffffffffffffffffff1681526020016002820154815260200160038201548152602001600482015481526020016005820160009054906101000a900473ffffffffffffffffffffffffffffffffffffffff1673ffffffffffffffffffffffffffffffffffffffff1673ffffffffffffffffffffffffffffffffffffffff1681526020016006820160009054906101000a900473ffffffffffffffffffffffffffffffffffffffff1673ffffffffffffffffffffffffffffffffffffffff1673ffffffffffffffffffffffffffffffffffffffff168152602001600782015481526020016008820160009054906101000a900460ff161515151581526020016008820160019054906101000a900460ff1615151515815250509050806020015173ffffffffffffffffffffffffffffffffffffffff166323b872dd308360a0015184604001516040518463ffffffff1660e01b8152600401611f52939291906126a9565b600060405180830381600087803b158015611f6c57600080fd5b505af1158015611f80573d6000803e3d6000fd5b5050505060008160e001511115611fe1578060c0015173ffffffffffffffffffffffffffffffffffffffff166108fc8260e001519081150290604051600060405180830381858888f19350505050158015611fdf573d6000803e3d6000fd5b505b600060086000848152602001908152602001600020905060018160080160006101000a81548160ff0219169083151502179055506004600081548092919061202890612d77565b9190505550600660018461203c9190612c7d565b81548110612073577f4e487b7100000000000000000000000000000000000000000000000000000000600052603260045260246000fd5b90600052602060002001600090558160a0015173ffffffffffffffffffffffffffffffffffffffff168260c0015173ffffffffffffffffffffffffffffffffffffffff1683604001517fe9c76f3cd26822fab39fde36b56736739a684a806c8c0cf5eacd75511797ca7b86866020015187606001516040516120f793929190612994565b60405180910390a45050612109612162565b50565b60025481565b60026000541415612158576040517f08c379a000000000000000000000000000000000000000000000000000000000815260040161214f90612919565b60405180910390fd5b6002600081905550565b6001600081905550565b61220683838360405160240161218493929190612b1b565b6040516020818303038152906040527fd1ed7a3c000000000000000000000000000000000000000000000000000000007bffffffffffffffffffffffffffffffffffffffffffffffffffffffff19166020820180517bffffffffffffffffffffffffffffffffffffffffffffffffffffffff838183161783525050505061220b565b505050565b60008151905060006a636f6e736f6c652e6c6f679050602083016000808483855afa5050505050565b60008135905061224381613280565b92915050565b60008135905061225881613297565b92915050565b60008060006060848603121561227357600080fd5b600061228186828701612234565b935050602061229286828701612249565b92505060406122a386828701612249565b9150509250925092565b600080600080608085870312156122c357600080fd5b60006122d187828801612234565b94505060206122e287828801612249565b93505060406122f387828801612249565b925050606061230487828801612249565b91505092959194509250565b60006020828403121561232257600080fd5b600061233084828501612249565b91505092915050565b60006123458383612670565b60208301905092915050565b61235a81612d1d565b82525050565b61236981612cc3565b82525050565b61237881612cb1565b82525050565b600061238982612b62565b6123938185612b7a565b935061239e83612b52565b8060005b838110156123cf5781516123b68882612339565b97506123c183612b6d565b9250506001810190506123a2565b5085935050505092915050565b6123e581612cd5565b82525050565b6123f481612d2f565b82525050565b6000612407601c83612b8b565b915061241282612e48565b602082019050919050565b600061242a601f83612b8b565b915061243582612e71565b602082019050919050565b600061244d601783612b8b565b915061245882612e9a565b602082019050919050565b6000612470603383612b8b565b915061247b82612ec3565b604082019050919050565b6000612493601b83612b8b565b915061249e82612f12565b602082019050919050565b60006124b6602683612b8b565b91506124c182612f3b565b604082019050919050565b60006124d9601283612b8b565b91506124e482612f8a565b602082019050919050565b60006124fc602383612b8b565b915061250782612fb3565b604082019050919050565b600061251f601983612b8b565b915061252a82613002565b602082019050919050565b6000612542602c83612b8b565b915061254d8261302b565b604082019050919050565b6000612565602583612b8b565b91506125708261307a565b604082019050919050565b6000612588602183612b8b565b9150612593826130c9565b604082019050919050565b60006125ab601583612b8b565b91506125b682613118565b602082019050919050565b60006125ce602183612b8b565b91506125d982613141565b604082019050919050565b60006125f1602b83612b8b565b91506125fc82613190565b604082019050919050565b6000612614601f83612b8b565b915061261f826131df565b602082019050919050565b6000612637601d83612b8b565b915061264282613208565b602082019050919050565b600061265a602483612b8b565b915061266582613231565b604082019050919050565b61267981612d13565b82525050565b61268881612d13565b82525050565b60006020820190506126a36000830184612360565b92915050565b60006060820190506126be600083018661236f565b6126cb6020830185612351565b6126d8604083018461267f565b949350505050565b60006060820190506126f5600083018661236f565b612702602083018561236f565b61270f604083018461267f565b949350505050565b60006020820190508181036000830152612731818461237e565b905092915050565b60006020820190508181036000830152612752816123fa565b9050919050565b600060208201905081810360008301526127728161241d565b9050919050565b6000602082019050818103600083015261279281612440565b9050919050565b600060208201905081810360008301526127b281612463565b9050919050565b600060208201905081810360008301526127d281612486565b9050919050565b600060208201905081810360008301526127f2816124a9565b9050919050565b60006020820190508181036000830152612812816124cc565b9050919050565b60006020820190508181036000830152612832816124ef565b9050919050565b6000602082019050818103600083015261285281612512565b9050919050565b6000602082019050818103600083015261287281612535565b9050919050565b6000602082019050818103600083015261289281612558565b9050919050565b600060208201905081810360008301526128b28161257b565b9050919050565b600060208201905081810360008301526128d28161259e565b9050919050565b600060208201905081810360008301526128f2816125c1565b9050919050565b60006020820190508181036000830152612912816125e4565b9050919050565b6000602082019050818103600083015261293281612607565b9050919050565b600060208201905081810360008301526129528161262a565b9050919050565b600060208201905081810360008301526129728161264d565b9050919050565b600060208201905061298e600083018461267f565b92915050565b60006060820190506129a9600083018661267f565b6129b6602083018561236f565b6129c3604083018461267f565b949350505050565b60006080820190506129e0600083018761267f565b6129ed602083018661236f565b6129fa604083018561267f565b612a07606083018461267f565b95945050505050565b600060e082019050612a25600083018a61267f565b612a3260208301896123eb565b612a3f604083018861267f565b612a4c606083018761267f565b612a596080830186612360565b612a6660a08301856123dc565b612a7360c08301846123dc565b98975050505050505050565b600061014082019050612a95600083018d61267f565b612aa2602083018c6123eb565b612aaf604083018b61267f565b612abc606083018a61267f565b612ac9608083018961267f565b612ad660a0830188612360565b612ae360c0830187612360565b612af060e083018661267f565b612afe6101008301856123dc565b612b0c6101208301846123dc565b9b9a5050505050505050505050565b6000606082019050612b30600083018661267f565b612b3d602083018561267f565b612b4a604083018461267f565b949350505050565b6000819050602082019050919050565b600081519050919050565b6000602082019050919050565b600082825260208201905092915050565b600082825260208201905092915050565b6000612ba782612d13565b9150612bb283612d13565b9250827fffffffffffffffffffffffffffffffffffffffffffffffffffffffffffffffff03821115612be757612be6612dea565b5b828201905092915050565b6000612bfd82612d13565b9150612c0883612d13565b925082612c1857612c17612e19565b5b828204905092915050565b6000612c2e82612d13565b9150612c3983612d13565b9250817fffffffffffffffffffffffffffffffffffffffffffffffffffffffffffffffff0483118215151615612c7257612c71612dea565b5b828202905092915050565b6000612c8882612d13565b9150612c9383612d13565b925082821015612ca657612ca5612dea565b5b828203905092915050565b6000612cbc82612cf3565b9050919050565b6000612cce82612cf3565b9050919050565b60008115159050919050565b6000612cec82612cb1565b9050919050565b600073ffffffffffffffffffffffffffffffffffffffff82169050919050565b6000819050919050565b6000612d2882612d53565b9050919050565b6000612d3a82612d41565b9050919050565b6000612d4c82612cf3565b9050919050565b6000612d5e82612d65565b9050919050565b6000612d7082612cf3565b9050919050565b6000612d8282612d13565b91506000821415612d9657612d95612dea565b5b600182039050919050565b6000612dac82612d13565b91507fffffffffffffffffffffffffffffffffffffffffffffffffffffffffffffffff821415612ddf57612dde612dea565b5b600182019050919050565b7f4e487b7100000000000000000000000000000000000000000000000000000000600052601160045260246000fd5b7f4e487b7100000000000000000000000000000000000000000000000000000000600052601260045260246000fd5b7f41756374696f6e2073686f756c64206e6f7420626520656e6465642e00000000600082015250565b7f5072696365206d7573742062652067726561746572207468616e207a65726f00600082015250565b7f4e465420697320616c726561647920636c61696d65642e000000000000000000600082015250565b7f6e6f7420656e6f75676820657468657220746f20636f766572206974656d207060008201527f7269636520616e64206d61726b65742066656500000000000000000000000000602082015250565b7f41756374696f6e20697320616c726561647920636c61696d65642e0000000000600082015250565b7f41756374696f6e2069642073686f756c6420626520626967676572207468616e60008201527f207a65726f2e0000000000000000000000000000000000000000000000000000602082015250565b7f6974656d20646f65736e27742065786973740000000000000000000000000000600082015250565b7f4974656d2069642073686f756c6420626520626967676572207468616e207a6560008201527f726f2e0000000000000000000000000000000000000000000000000000000000602082015250565b7f41756374696f6e2073686f756c6420656e642066697273742e00000000000000600082015250565b7f4f6e6c792077696e6e6572206f722073656c6c65722063616e2072756e20746860008201527f69732066756e6374696f6e2e0000000000000000000000000000000000000000602082015250565b7f41756374696f6e2069642073686f756c6420626520626967676572207468616e60008201527f207a65726f000000000000000000000000000000000000000000000000000000602082015250565b7f70726963652073686f756c642062652067726561746572207468616e207a657260008201527f6f00000000000000000000000000000000000000000000000000000000000000602082015250565b7f4974656d20697320616c726561647920736f6c642e0000000000000000000000600082015250565b7f4f6e6c792073656c6c65722063616e2063616e63656c2074686973206974656d60008201527f2e00000000000000000000000000000000000000000000000000000000000000602082015250565b7f50726963652073686f756c642062652067726561746572207468616e2063757260008201527f72656e742070726963652e000000000000000000000000000000000000000000602082015250565b7f5265656e7472616e637947756172643a207265656e7472616e742063616c6c00600082015250565b7f6974656d20616c726561647920736f6c64206f722063616e63656c6564000000600082015250565b7f4f6e6c792073656c6c65722063616e2063616e63656c2074686973206175637460008201527f696f6e2e00000000000000000000000000000000000000000000000000000000602082015250565b61328981612ce1565b811461329457600080fd5b50565b6132a081612d13565b81146132ab57600080fd5b5056fea26469706673582212206f035ec7d54f9489f03686c6833424d92e7998949c1eb0f0d045a19a210d5da664736f6c63430008040033",
  "linkReferences": {},
  "deployedLinkReferences": {}
}