{
  "_format": "hh-sol-artifact-1",
  "contractName": "Marketplace",
  "sourceName": "src/backend/contracts/Marketplace.sol",
  "abi": [
    {
      "inputs": [
        {
          "internalType": "uint256",
          "name": "_feePercent",
          "type": "uint256"
        }
      ],
      "stateMutability": "nonpayable",
      "type": "constructor"
    },
    {
      "anonymous": false,
      "inputs": [
        {
          "indexed": false,
          "internalType": "uint256",
          "name": "auctionId",
          "type": "uint256"
        },
        {
          "indexed": false,
          "internalType": "address",
          "name": "nft",
          "type": "address"
        },
        {
          "indexed": true,
          "internalType": "uint256",
          "name": "tokenId",
          "type": "uint256"
        },
        {
          "indexed": false,
          "internalType": "uint256",
          "name": "price",
          "type": "uint256"
        },
        {
          "indexed": true,
          "internalType": "address",
          "name": "seller",
          "type": "address"
        },
        {
          "indexed": true,
          "internalType": "address",
          "name": "buyer",
          "type": "address"
        }
      ],
      "name": "AuctionEnded",
      "type": "event"
    },
    {
      "anonymous": false,
      "inputs": [
        {
          "indexed": false,
          "internalType": "uint256",
          "name": "auctionId",
          "type": "uint256"
        },
        {
          "indexed": false,
          "internalType": "address",
          "name": "nft",
          "type": "address"
        },
        {
          "indexed": true,
          "internalType": "uint256",
          "name": "tokenId",
          "type": "uint256"
        },
        {
          "indexed": false,
          "internalType": "uint256",
          "name": "price",
          "type": "uint256"
        },
        {
          "indexed": false,
          "internalType": "uint256",
          "name": "timeToEnd",
          "type": "uint256"
        },
        {
          "indexed": true,
          "internalType": "address",
          "name": "seller",
          "type": "address"
        }
      ],
      "name": "AuctionStarted",
      "type": "event"
    },
    {
      "anonymous": false,
      "inputs": [
        {
          "indexed": false,
          "internalType": "uint256",
          "name": "itemId",
          "type": "uint256"
        },
        {
          "indexed": false,
          "internalType": "address",
          "name": "nft",
          "type": "address"
        },
        {
          "indexed": true,
          "internalType": "uint256",
          "name": "tokenId",
          "type": "uint256"
        },
        {
          "indexed": false,
          "internalType": "uint256",
          "name": "price",
          "type": "uint256"
        },
        {
          "indexed": true,
          "internalType": "address",
          "name": "seller",
          "type": "address"
        },
        {
          "indexed": true,
          "internalType": "address",
          "name": "buyer",
          "type": "address"
        }
      ],
      "name": "Bought",
      "type": "event"
    },
    {
      "anonymous": false,
      "inputs": [
        {
          "indexed": false,
          "internalType": "uint256",
          "name": "itemId",
          "type": "uint256"
        },
        {
          "indexed": false,
          "internalType": "address",
          "name": "nft",
          "type": "address"
        },
        {
          "indexed": true,
          "internalType": "uint256",
          "name": "tokenId",
          "type": "uint256"
        },
        {
          "indexed": false,
          "internalType": "uint256",
          "name": "price",
          "type": "uint256"
        },
        {
          "indexed": true,
          "internalType": "address",
          "name": "seller",
          "type": "address"
        }
      ],
      "name": "Offered",
      "type": "event"
    },
    {
      "stateMutability": "nonpayable",
      "type": "fallback"
    },
    {
      "inputs": [],
      "name": "auctionItemCount",
      "outputs": [
        {
          "internalType": "uint256",
          "name": "",
          "type": "uint256"
        }
      ],
      "stateMutability": "view",
      "type": "function"
    },
    {
      "inputs": [
        {
          "internalType": "uint256",
          "name": "",
          "type": "uint256"
        }
      ],
      "name": "auctionItems",
      "outputs": [
        {
          "internalType": "uint256",
          "name": "auctionId",
          "type": "uint256"
        },
        {
          "internalType": "contract IERC721",
          "name": "nft",
          "type": "address"
        },
        {
          "internalType": "uint256",
          "name": "tokenId",
          "type": "uint256"
        },
        {
          "internalType": "uint256",
          "name": "price",
          "type": "uint256"
        },
        {
          "internalType": "uint256",
          "name": "timeToEnd",
          "type": "uint256"
        },
        {
          "internalType": "address payable",
          "name": "winner",
          "type": "address"
        },
        {
          "internalType": "address payable",
          "name": "seller",
          "type": "address"
        },
        {
          "internalType": "uint256",
          "name": "deposited",
          "type": "uint256"
        },
        {
          "internalType": "bool",
          "name": "claimed",
          "type": "bool"
        }
      ],
      "stateMutability": "view",
      "type": "function"
    },
    {
      "inputs": [
        {
          "internalType": "uint256",
          "name": "_auctionId",
          "type": "uint256"
        }
      ],
      "name": "claimNFT",
      "outputs": [],
      "stateMutability": "nonpayable",
      "type": "function"
    },
    {
      "inputs": [],
      "name": "feeAccount",
      "outputs": [
        {
          "internalType": "address payable",
          "name": "",
          "type": "address"
        }
      ],
      "stateMutability": "view",
      "type": "function"
    },
    {
      "inputs": [],
      "name": "feePercent",
      "outputs": [
        {
          "internalType": "uint256",
          "name": "",
          "type": "uint256"
        }
      ],
      "stateMutability": "view",
      "type": "function"
    },
    {
      "inputs": [
        {
          "internalType": "uint256",
          "name": "_itemId",
          "type": "uint256"
        }
      ],
      "name": "getTotalPrice",
      "outputs": [
        {
          "internalType": "uint256",
          "name": "",
          "type": "uint256"
        }
      ],
      "stateMutability": "view",
      "type": "function"
    },
    {
      "inputs": [],
      "name": "itemCount",
      "outputs": [
        {
          "internalType": "uint256",
          "name": "",
          "type": "uint256"
        }
      ],
      "stateMutability": "view",
      "type": "function"
    },
    {
      "inputs": [
        {
          "internalType": "uint256",
          "name": "",
          "type": "uint256"
        }
      ],
      "name": "items",
      "outputs": [
        {
          "internalType": "uint256",
          "name": "itemId",
          "type": "uint256"
        },
        {
          "internalType": "contract IERC721",
          "name": "nft",
          "type": "address"
        },
        {
          "internalType": "uint256",
          "name": "tokenId",
          "type": "uint256"
        },
        {
          "internalType": "uint256",
          "name": "price",
          "type": "uint256"
        },
        {
          "internalType": "address payable",
          "name": "seller",
          "type": "address"
        },
        {
          "internalType": "bool",
          "name": "sold",
          "type": "bool"
        }
      ],
      "stateMutability": "view",
      "type": "function"
    },
    {
      "inputs": [
        {
          "internalType": "contract IERC721",
          "name": "_nft",
          "type": "address"
        },
        {
          "internalType": "uint256",
          "name": "_tokenId",
          "type": "uint256"
        },
        {
          "internalType": "uint256",
          "name": "_price",
          "type": "uint256"
        }
      ],
      "name": "makeItem",
      "outputs": [],
      "stateMutability": "nonpayable",
      "type": "function"
    },
    {
      "inputs": [
        {
          "internalType": "uint256",
          "name": "_auctionId",
          "type": "uint256"
        }
      ],
      "name": "makeOffer",
      "outputs": [],
      "stateMutability": "payable",
      "type": "function"
    },
    {
      "inputs": [
        {
          "internalType": "uint256",
          "name": "_itemId",
          "type": "uint256"
        }
      ],
      "name": "purchaseItem",
      "outputs": [],
      "stateMutability": "payable",
      "type": "function"
    },
    {
      "inputs": [
        {
          "internalType": "contract IERC721",
          "name": "_nft",
          "type": "address"
        },
        {
          "internalType": "uint256",
          "name": "_tokenId",
          "type": "uint256"
        },
        {
          "internalType": "uint256",
          "name": "_price",
          "type": "uint256"
        },
        {
          "internalType": "uint256",
          "name": "_timeToEnd",
          "type": "uint256"
        }
      ],
      "name": "startAuction",
      "outputs": [],
      "stateMutability": "nonpayable",
      "type": "function"
    }
  ],
  "bytecode": "0x60c06040523480156200001157600080fd5b50604051620024683803806200246883398181016040528101906200003791906200009c565b60016000819055503373ffffffffffffffffffffffffffffffffffffffff1660808173ffffffffffffffffffffffffffffffffffffffff1660601b815250508060a0818152505050620000ec565b6000815190506200009681620000d2565b92915050565b600060208284031215620000af57600080fd5b6000620000bf8482850162000085565b91505092915050565b6000819050919050565b620000dd81620000c8565b8114620000e957600080fd5b50565b60805160601c60a051612345620001236000396000818161030a01526109010152600081816102e00152610b9c01526123456000f3fe6080604052600436106100ab5760003560e01c8063ca7dd37511610064578063ca7dd375146101c3578063d2c069f014610200578063d38ea5bf14610245578063fa00afc714610261578063fe5c873a1461028a578063fe6d7a6e146102b3576100ac565b806365e17c9d146100bb5780636bfb0d01146100e65780637fd6f15c146101115780639a2f64741461013c5780639c16627314610158578063bfb231d214610181576100ac565b5b3480156100b857600080fd5b50005b3480156100c757600080fd5b506100d06102de565b6040516100dd9190611970565b60405180910390f35b3480156100f257600080fd5b506100fb610302565b6040516101089190611b99565b60405180910390f35b34801561011d57600080fd5b50610126610308565b6040516101339190611b99565b60405180910390f35b61015660048036038101906101519190611726565b61032c565b005b34801561016457600080fd5b5061017f600480360381019061017a91906116c3565b610573565b005b34801561018d57600080fd5b506101a860048036038101906101a39190611726565b610872565b6040516101ba96959493929190611c30565b60405180910390f35b3480156101cf57600080fd5b506101ea60048036038101906101e59190611726565b6108fb565b6040516101f79190611b99565b60405180910390f35b34801561020c57600080fd5b5061022760048036038101906102229190611726565b61095e565b60405161023c99989796959493929190611c91565b60405180910390f35b61025f600480360381019061025a9190611726565b610a19565b005b34801561026d57600080fd5b5061028860048036038101906102839190611674565b610d8b565b005b34801561029657600080fd5b506102b160048036038101906102ac9190611726565b611001565b005b3480156102bf57600080fd5b506102c8611522565b6040516102d59190611b99565b60405180910390f35b7f000000000000000000000000000000000000000000000000000000000000000081565b60015481565b7f000000000000000000000000000000000000000000000000000000000000000081565b610334611528565b60008111610377576040517f08c379a000000000000000000000000000000000000000000000000000000000815260040161036e90611a99565b60405180910390fd5b600460008281526020019081526020016000206003015434116103cf576040517f08c379a00000000000000000000000000000000000000000000000000000000081526004016103c690611b59565b60405180910390fd5b60046000828152602001908152602001600020600401544210610427576040517f08c379a000000000000000000000000000000000000000000000000000000000815260040161041e906119f9565b60405180910390fd5b61044881346004600085815260200190815260200160002060030154611578565b6000600460008381526020019081526020016000206007015411156104fb576004600082815260200190815260200160002060050160009054906101000a900473ffffffffffffffffffffffffffffffffffffffff1673ffffffffffffffffffffffffffffffffffffffff166108fc60046000848152602001908152602001600020600701549081150290604051600060405180830381858888f193505050501580156104f9573d6000803e3d6000fd5b505b6000600460008381526020019081526020016000209050348160030181905550338160050160006101000a81548173ffffffffffffffffffffffffffffffffffffffff021916908373ffffffffffffffffffffffffffffffffffffffff16021790555034816007018190555050610570611617565b50565b61057b611528565b600082116105be576040517f08c379a00000000000000000000000000000000000000000000000000000000081526004016105b590611b39565b60405180910390fd5b600260008154809291906105d190611f41565b91905055508373ffffffffffffffffffffffffffffffffffffffff166323b872dd3330866040518463ffffffff1660e01b8152600401610613939291906119c2565b600060405180830381600087803b15801561062d57600080fd5b505af1158015610641573d6000803e3d6000fd5b5050505060405180610120016040528060025481526020018573ffffffffffffffffffffffffffffffffffffffff1681526020018481526020018381526020018281526020013373ffffffffffffffffffffffffffffffffffffffff1681526020013373ffffffffffffffffffffffffffffffffffffffff16815260200160008152602001600015158152506004600060025481526020019081526020016000206000820151816000015560208201518160010160006101000a81548173ffffffffffffffffffffffffffffffffffffffff021916908373ffffffffffffffffffffffffffffffffffffffff16021790555060408201518160020155606082015181600301556080820151816004015560a08201518160050160006101000a81548173ffffffffffffffffffffffffffffffffffffffff021916908373ffffffffffffffffffffffffffffffffffffffff16021790555060c08201518160060160006101000a81548173ffffffffffffffffffffffffffffffffffffffff021916908373ffffffffffffffffffffffffffffffffffffffff16021790555060e082015181600701556101008201518160080160006101000a81548160ff0219169083151502179055509050503373ffffffffffffffffffffffffffffffffffffffff16837fd184fdb1358a28e5370b7ea6f753efc3313b7fd11d6750f270cf79f109a63f1760025487868660405161085c9493929190611beb565b60405180910390a361086c611617565b50505050565b60036020528060005260406000206000915090508060000154908060010160009054906101000a900473ffffffffffffffffffffffffffffffffffffffff16908060020154908060030154908060040160009054906101000a900473ffffffffffffffffffffffffffffffffffffffff16908060040160149054906101000a900460ff16905086565b600060647f0000000000000000000000000000000000000000000000000000000000000000606461092c9190611d66565b600360008581526020019081526020016000206003015461094d9190611ded565b6109579190611dbc565b9050919050565b60046020528060005260406000206000915090508060000154908060010160009054906101000a900473ffffffffffffffffffffffffffffffffffffffff16908060020154908060030154908060040154908060050160009054906101000a900473ffffffffffffffffffffffffffffffffffffffff16908060060160009054906101000a900473ffffffffffffffffffffffffffffffffffffffff16908060070154908060080160009054906101000a900460ff16905089565b610a21611528565b6000610a2c826108fb565b90506000600360008481526020019081526020016000209050600083118015610a5757506001548311155b610a96576040517f08c379a0000000000000000000000000000000000000000000000000000000008152600401610a8d90611ab9565b60405180910390fd5b81341015610ad9576040517f08c379a0000000000000000000000000000000000000000000000000000000008152600401610ad090611a79565b60405180910390fd5b8060040160149054906101000a900460ff1615610b2b576040517f08c379a0000000000000000000000000000000000000000000000000000000008152600401610b2290611a19565b60405180910390fd5b8060040160009054906101000a900473ffffffffffffffffffffffffffffffffffffffff1673ffffffffffffffffffffffffffffffffffffffff166108fc82600301549081150290604051600060405180830381858888f19350505050158015610b99573d6000803e3d6000fd5b507f000000000000000000000000000000000000000000000000000000000000000073ffffffffffffffffffffffffffffffffffffffff166108fc826003015484610be49190611e47565b9081150290604051600060405180830381858888f19350505050158015610c0f573d6000803e3d6000fd5b5060018160040160146101000a81548160ff0219169083151502179055508060010160009054906101000a900473ffffffffffffffffffffffffffffffffffffffff1673ffffffffffffffffffffffffffffffffffffffff166323b872dd303384600201546040518463ffffffff1660e01b8152600401610c92939291906119c2565b600060405180830381600087803b158015610cac57600080fd5b505af1158015610cc0573d6000803e3d6000fd5b505050503373ffffffffffffffffffffffffffffffffffffffff168160040160009054906101000a900473ffffffffffffffffffffffffffffffffffffffff1673ffffffffffffffffffffffffffffffffffffffff1682600201547f8b4c9c8a607d67b321582dd8461041b1dc2ceeca70c8b7f37f8e02095cf2e76d868560010160009054906101000a900473ffffffffffffffffffffffffffffffffffffffff168660030154604051610d7693929190611bb4565b60405180910390a45050610d88611617565b50565b610d93611528565b60008111610dd6576040517f08c379a0000000000000000000000000000000000000000000000000000000008152600401610dcd90611a39565b60405180910390fd5b60016000815480929190610de990611f41565b91905055508273ffffffffffffffffffffffffffffffffffffffff166323b872dd3330856040518463ffffffff1660e01b8152600401610e2b939291906119c2565b600060405180830381600087803b158015610e4557600080fd5b505af1158015610e59573d6000803e3d6000fd5b505050506040518060c0016040528060015481526020018473ffffffffffffffffffffffffffffffffffffffff1681526020018381526020018281526020013373ffffffffffffffffffffffffffffffffffffffff168152602001600015158152506003600060015481526020019081526020016000206000820151816000015560208201518160010160006101000a81548173ffffffffffffffffffffffffffffffffffffffff021916908373ffffffffffffffffffffffffffffffffffffffff160217905550604082015181600201556060820151816003015560808201518160040160006101000a81548173ffffffffffffffffffffffffffffffffffffffff021916908373ffffffffffffffffffffffffffffffffffffffff16021790555060a08201518160040160146101000a81548160ff0219169083151502179055509050503373ffffffffffffffffffffffffffffffffffffffff16827f655a0cf9c8db81512be9a76dc1c5ae5380b8816ce6ad659cd61b715e2999d59a6001548685604051610fec93929190611bb4565b60405180910390a3610ffc611617565b505050565b611009611528565b6000811161104c576040517f08c379a000000000000000000000000000000000000000000000000000000000815260040161104390611b19565b60405180910390fd5b60046000828152602001908152602001600020600401544210156110a5576040517f08c379a000000000000000000000000000000000000000000000000000000000815260040161109c90611ad9565b60405180910390fd5b3373ffffffffffffffffffffffffffffffffffffffff166004600083815260200190815260200160002060050160009054906101000a900473ffffffffffffffffffffffffffffffffffffffff1673ffffffffffffffffffffffffffffffffffffffff16148061117657503373ffffffffffffffffffffffffffffffffffffffff166004600083815260200190815260200160002060060160009054906101000a900473ffffffffffffffffffffffffffffffffffffffff1673ffffffffffffffffffffffffffffffffffffffff16145b6111b5576040517f08c379a00000000000000000000000000000000000000000000000000000000081526004016111ac90611af9565b60405180910390fd5b6004600082815260200190815260200160002060080160009054906101000a900460ff1615611219576040517f08c379a000000000000000000000000000000000000000000000000000000000815260040161121090611a59565b60405180910390fd5b60006004600083815260200190815260200160002060405180610120016040529081600082015481526020016001820160009054906101000a900473ffffffffffffffffffffffffffffffffffffffff1673ffffffffffffffffffffffffffffffffffffffff1673ffffffffffffffffffffffffffffffffffffffff1681526020016002820154815260200160038201548152602001600482015481526020016005820160009054906101000a900473ffffffffffffffffffffffffffffffffffffffff1673ffffffffffffffffffffffffffffffffffffffff1673ffffffffffffffffffffffffffffffffffffffff1681526020016006820160009054906101000a900473ffffffffffffffffffffffffffffffffffffffff1673ffffffffffffffffffffffffffffffffffffffff1673ffffffffffffffffffffffffffffffffffffffff168152602001600782015481526020016008820160009054906101000a900460ff1615151515815250509050806020015173ffffffffffffffffffffffffffffffffffffffff166323b872dd308360a0015184604001516040518463ffffffff1660e01b81526004016113d49392919061198b565b600060405180830381600087803b1580156113ee57600080fd5b505af1158015611402573d6000803e3d6000fd5b5050505060008160e001511115611463578060c0015173ffffffffffffffffffffffffffffffffffffffff166108fc8260e001519081150290604051600060405180830381858888f19350505050158015611461573d6000803e3d6000fd5b505b600060046000848152602001908152602001600020905060018160080160006101000a81548160ff0219169083151502179055508160a0015173ffffffffffffffffffffffffffffffffffffffff168260c0015173ffffffffffffffffffffffffffffffffffffffff1683604001517fe9c76f3cd26822fab39fde36b56736739a684a806c8c0cf5eacd75511797ca7b868660200151876060015160405161150d93929190611bb4565b60405180910390a4505061151f611617565b50565b60025481565b6002600054141561156e576040517f08c379a000000000000000000000000000000000000000000000000000000000815260040161156590611b79565b60405180910390fd5b6002600081905550565b61161283838360405160240161159093929190611d1e565b6040516020818303038152906040527fd1ed7a3c000000000000000000000000000000000000000000000000000000007bffffffffffffffffffffffffffffffffffffffffffffffffffffffff19166020820180517bffffffffffffffffffffffffffffffffffffffffffffffffffffffff8381831617835250505050611621565b505050565b6001600081905550565b60008151905060006a636f6e736f6c652e6c6f679050602083016000808483855afa5050505050565b600081359050611659816122e1565b92915050565b60008135905061166e816122f8565b92915050565b60008060006060848603121561168957600080fd5b60006116978682870161164a565b93505060206116a88682870161165f565b92505060406116b98682870161165f565b9150509250925092565b600080600080608085870312156116d957600080fd5b60006116e78782880161164a565b94505060206116f88782880161165f565b93505060406117098782880161165f565b925050606061171a8782880161165f565b91505092959194509250565b60006020828403121561173857600080fd5b60006117468482850161165f565b91505092915050565b61175881611ee7565b82525050565b61176781611e8d565b82525050565b61177681611e7b565b82525050565b61178581611e9f565b82525050565b61179481611ef9565b82525050565b60006117a7601c83611d55565b91506117b282611fe8565b602082019050919050565b60006117ca601183611d55565b91506117d582612011565b602082019050919050565b60006117ed601f83611d55565b91506117f88261203a565b602082019050919050565b6000611810601783611d55565b915061181b82612063565b602082019050919050565b6000611833603383611d55565b915061183e8261208c565b604082019050919050565b6000611856602683611d55565b9150611861826120db565b604082019050919050565b6000611879601283611d55565b91506118848261212a565b602082019050919050565b600061189c601983611d55565b91506118a782612153565b602082019050919050565b60006118bf602c83611d55565b91506118ca8261217c565b604082019050919050565b60006118e2602583611d55565b91506118ed826121cb565b604082019050919050565b6000611905602183611d55565b91506119108261221a565b604082019050919050565b6000611928602b83611d55565b915061193382612269565b604082019050919050565b600061194b601f83611d55565b9150611956826122b8565b602082019050919050565b61196a81611edd565b82525050565b6000602082019050611985600083018461175e565b92915050565b60006060820190506119a0600083018661176d565b6119ad602083018561174f565b6119ba6040830184611961565b949350505050565b60006060820190506119d7600083018661176d565b6119e4602083018561176d565b6119f16040830184611961565b949350505050565b60006020820190508181036000830152611a128161179a565b9050919050565b60006020820190508181036000830152611a32816117bd565b9050919050565b60006020820190508181036000830152611a52816117e0565b9050919050565b60006020820190508181036000830152611a7281611803565b9050919050565b60006020820190508181036000830152611a9281611826565b9050919050565b60006020820190508181036000830152611ab281611849565b9050919050565b60006020820190508181036000830152611ad28161186c565b9050919050565b60006020820190508181036000830152611af28161188f565b9050919050565b60006020820190508181036000830152611b12816118b2565b9050919050565b60006020820190508181036000830152611b32816118d5565b9050919050565b60006020820190508181036000830152611b52816118f8565b9050919050565b60006020820190508181036000830152611b728161191b565b9050919050565b60006020820190508181036000830152611b928161193e565b9050919050565b6000602082019050611bae6000830184611961565b92915050565b6000606082019050611bc96000830186611961565b611bd6602083018561176d565b611be36040830184611961565b949350505050565b6000608082019050611c006000830187611961565b611c0d602083018661176d565b611c1a6040830185611961565b611c276060830184611961565b95945050505050565b600060c082019050611c456000830189611961565b611c52602083018861178b565b611c5f6040830187611961565b611c6c6060830186611961565b611c79608083018561175e565b611c8660a083018461177c565b979650505050505050565b600061012082019050611ca7600083018c611961565b611cb4602083018b61178b565b611cc1604083018a611961565b611cce6060830189611961565b611cdb6080830188611961565b611ce860a083018761175e565b611cf560c083018661175e565b611d0260e0830185611961565b611d1061010083018461177c565b9a9950505050505050505050565b6000606082019050611d336000830186611961565b611d406020830185611961565b611d4d6040830184611961565b949350505050565b600082825260208201905092915050565b6000611d7182611edd565b9150611d7c83611edd565b9250827fffffffffffffffffffffffffffffffffffffffffffffffffffffffffffffffff03821115611db157611db0611f8a565b5b828201905092915050565b6000611dc782611edd565b9150611dd283611edd565b925082611de257611de1611fb9565b5b828204905092915050565b6000611df882611edd565b9150611e0383611edd565b9250817fffffffffffffffffffffffffffffffffffffffffffffffffffffffffffffffff0483118215151615611e3c57611e3b611f8a565b5b828202905092915050565b6000611e5282611edd565b9150611e5d83611edd565b925082821015611e7057611e6f611f8a565b5b828203905092915050565b6000611e8682611ebd565b9050919050565b6000611e9882611ebd565b9050919050565b60008115159050919050565b6000611eb682611e7b565b9050919050565b600073ffffffffffffffffffffffffffffffffffffffff82169050919050565b6000819050919050565b6000611ef282611f1d565b9050919050565b6000611f0482611f0b565b9050919050565b6000611f1682611ebd565b9050919050565b6000611f2882611f2f565b9050919050565b6000611f3a82611ebd565b9050919050565b6000611f4c82611edd565b91507fffffffffffffffffffffffffffffffffffffffffffffffffffffffffffffffff821415611f7f57611f7e611f8a565b5b600182019050919050565b7f4e487b7100000000000000000000000000000000000000000000000000000000600052601160045260246000fd5b7f4e487b7100000000000000000000000000000000000000000000000000000000600052601260045260246000fd5b7f41756374696f6e2073686f756c64206e6f7420626520656e6465642e00000000600082015250565b7f6974656d20616c726561647920736f6c64000000000000000000000000000000600082015250565b7f5072696365206d7573742062652067726561746572207468616e207a65726f00600082015250565b7f4e465420697320616c726561647920636c61696d65642e000000000000000000600082015250565b7f6e6f7420656e6f75676820657468657220746f20636f766572206974656d207060008201527f7269636520616e64206d61726b65742066656500000000000000000000000000602082015250565b7f41756374696f6e2069642073686f756c6420626520626967676572207468616e60008201527f207a65726f2e0000000000000000000000000000000000000000000000000000602082015250565b7f6974656d20646f65736e27742065786973740000000000000000000000000000600082015250565b7f41756374696f6e2073686f756c6420656e642066697273742e00000000000000600082015250565b7f4f6e6c792077696e6e6572206f722073656c6c65722063616e2072756e20746860008201527f69732066756e6374696f6e2e0000000000000000000000000000000000000000602082015250565b7f41756374696f6e2069642073686f756c6420626520626967676572207468616e60008201527f207a65726f000000000000000000000000000000000000000000000000000000602082015250565b7f70726963652073686f756c642062652067726561746572207468616e207a657260008201527f6f00000000000000000000000000000000000000000000000000000000000000602082015250565b7f50726963652073686f756c642062652067726561746572207468616e2063757260008201527f72656e742070726963652e000000000000000000000000000000000000000000602082015250565b7f5265656e7472616e637947756172643a207265656e7472616e742063616c6c00600082015250565b6122ea81611eab565b81146122f557600080fd5b50565b61230181611edd565b811461230c57600080fd5b5056fea26469706673582212205f0b9b92123c6155e089c4ba60ed3585d2f0b1724eebdce4f721fde8bd6c002e64736f6c63430008040033",
  "linkReferences": {},
  "deployedLinkReferences": {}
}