{
  "_format": "hh-sol-artifact-1",
  "contractName": "Marketplace",
  "sourceName": "src/backend/contracts/Marketplace.sol",
  "abi": [
    {
      "inputs": [
        {
          "internalType": "uint256",
          "name": "_feePercent",
          "type": "uint256"
        }
      ],
      "stateMutability": "nonpayable",
      "type": "constructor"
    },
    {
      "anonymous": false,
      "inputs": [
        {
          "indexed": false,
          "internalType": "uint256",
          "name": "auctionId",
          "type": "uint256"
        },
        {
          "indexed": true,
          "internalType": "address",
          "name": "nft",
          "type": "address"
        },
        {
          "indexed": false,
          "internalType": "uint256",
          "name": "tokenId",
          "type": "uint256"
        },
        {
          "indexed": false,
          "internalType": "uint256",
          "name": "price",
          "type": "uint256"
        },
        {
          "indexed": false,
          "internalType": "uint256",
          "name": "timeToEnd",
          "type": "uint256"
        },
        {
          "indexed": true,
          "internalType": "address",
          "name": "seller",
          "type": "address"
        }
      ],
      "name": "AuctionStarted",
      "type": "event"
    },
    {
      "anonymous": false,
      "inputs": [
        {
          "indexed": false,
          "internalType": "uint256",
          "name": "itemId",
          "type": "uint256"
        },
        {
          "indexed": true,
          "internalType": "address",
          "name": "nft",
          "type": "address"
        },
        {
          "indexed": false,
          "internalType": "uint256",
          "name": "tokenId",
          "type": "uint256"
        },
        {
          "indexed": false,
          "internalType": "uint256",
          "name": "price",
          "type": "uint256"
        },
        {
          "indexed": true,
          "internalType": "address",
          "name": "seller",
          "type": "address"
        },
        {
          "indexed": true,
          "internalType": "address",
          "name": "buyer",
          "type": "address"
        }
      ],
      "name": "Bought",
      "type": "event"
    },
    {
      "anonymous": false,
      "inputs": [
        {
          "indexed": false,
          "internalType": "uint256",
          "name": "itemId",
          "type": "uint256"
        },
        {
          "indexed": true,
          "internalType": "address",
          "name": "nft",
          "type": "address"
        },
        {
          "indexed": false,
          "internalType": "uint256",
          "name": "tokenId",
          "type": "uint256"
        },
        {
          "indexed": false,
          "internalType": "uint256",
          "name": "price",
          "type": "uint256"
        },
        {
          "indexed": true,
          "internalType": "address",
          "name": "seller",
          "type": "address"
        }
      ],
      "name": "Offered",
      "type": "event"
    },
    {
      "stateMutability": "nonpayable",
      "type": "fallback"
    },
    {
      "inputs": [],
      "name": "auctionItemCount",
      "outputs": [
        {
          "internalType": "uint256",
          "name": "",
          "type": "uint256"
        }
      ],
      "stateMutability": "view",
      "type": "function"
    },
    {
      "inputs": [
        {
          "internalType": "uint256",
          "name": "",
          "type": "uint256"
        }
      ],
      "name": "auctionItems",
      "outputs": [
        {
          "internalType": "uint256",
          "name": "auctionId",
          "type": "uint256"
        },
        {
          "internalType": "contract IERC721",
          "name": "nft",
          "type": "address"
        },
        {
          "internalType": "uint256",
          "name": "tokenId",
          "type": "uint256"
        },
        {
          "internalType": "uint256",
          "name": "price",
          "type": "uint256"
        },
        {
          "internalType": "uint256",
          "name": "timeToEnd",
          "type": "uint256"
        },
        {
          "internalType": "address payable",
          "name": "winner",
          "type": "address"
        },
        {
          "internalType": "address payable",
          "name": "seller",
          "type": "address"
        },
        {
          "internalType": "uint256",
          "name": "deposited",
          "type": "uint256"
        },
        {
          "internalType": "bool",
          "name": "claimed",
          "type": "bool"
        }
      ],
      "stateMutability": "view",
      "type": "function"
    },
    {
      "inputs": [
        {
          "internalType": "uint256",
          "name": "_auctionId",
          "type": "uint256"
        }
      ],
      "name": "claimNFT",
      "outputs": [],
      "stateMutability": "nonpayable",
      "type": "function"
    },
    {
      "inputs": [],
      "name": "feeAccount",
      "outputs": [
        {
          "internalType": "address payable",
          "name": "",
          "type": "address"
        }
      ],
      "stateMutability": "view",
      "type": "function"
    },
    {
      "inputs": [],
      "name": "feePercent",
      "outputs": [
        {
          "internalType": "uint256",
          "name": "",
          "type": "uint256"
        }
      ],
      "stateMutability": "view",
      "type": "function"
    },
    {
      "inputs": [
        {
          "internalType": "uint256",
          "name": "_itemId",
          "type": "uint256"
        }
      ],
      "name": "getTotalPrice",
      "outputs": [
        {
          "internalType": "uint256",
          "name": "",
          "type": "uint256"
        }
      ],
      "stateMutability": "view",
      "type": "function"
    },
    {
      "inputs": [],
      "name": "itemCount",
      "outputs": [
        {
          "internalType": "uint256",
          "name": "",
          "type": "uint256"
        }
      ],
      "stateMutability": "view",
      "type": "function"
    },
    {
      "inputs": [
        {
          "internalType": "uint256",
          "name": "",
          "type": "uint256"
        }
      ],
      "name": "items",
      "outputs": [
        {
          "internalType": "uint256",
          "name": "itemId",
          "type": "uint256"
        },
        {
          "internalType": "contract IERC721",
          "name": "nft",
          "type": "address"
        },
        {
          "internalType": "uint256",
          "name": "tokenId",
          "type": "uint256"
        },
        {
          "internalType": "uint256",
          "name": "price",
          "type": "uint256"
        },
        {
          "internalType": "address payable",
          "name": "seller",
          "type": "address"
        },
        {
          "internalType": "bool",
          "name": "sold",
          "type": "bool"
        }
      ],
      "stateMutability": "view",
      "type": "function"
    },
    {
      "inputs": [
        {
          "internalType": "contract IERC721",
          "name": "_nft",
          "type": "address"
        },
        {
          "internalType": "uint256",
          "name": "_tokenId",
          "type": "uint256"
        },
        {
          "internalType": "uint256",
          "name": "_price",
          "type": "uint256"
        }
      ],
      "name": "makeItem",
      "outputs": [],
      "stateMutability": "nonpayable",
      "type": "function"
    },
    {
      "inputs": [
        {
          "internalType": "uint256",
          "name": "_auctionId",
          "type": "uint256"
        }
      ],
      "name": "makeOffer",
      "outputs": [],
      "stateMutability": "payable",
      "type": "function"
    },
    {
      "inputs": [
        {
          "internalType": "uint256",
          "name": "_itemId",
          "type": "uint256"
        }
      ],
      "name": "purchaseItem",
      "outputs": [],
      "stateMutability": "payable",
      "type": "function"
    },
    {
      "inputs": [
        {
          "internalType": "contract IERC721",
          "name": "_nft",
          "type": "address"
        },
        {
          "internalType": "uint256",
          "name": "_tokenId",
          "type": "uint256"
        },
        {
          "internalType": "uint256",
          "name": "_price",
          "type": "uint256"
        },
        {
          "internalType": "uint256",
          "name": "_timeToEnd",
          "type": "uint256"
        }
      ],
      "name": "startAuction",
      "outputs": [],
      "stateMutability": "nonpayable",
      "type": "function"
    }
  ],
  "bytecode": "0x60c06040523480156200001157600080fd5b506040516200229c3803806200229c83398181016040528101906200003791906200009c565b60016000819055503373ffffffffffffffffffffffffffffffffffffffff1660808173ffffffffffffffffffffffffffffffffffffffff1660601b815250508060a0818152505050620000ec565b6000815190506200009681620000d2565b92915050565b600060208284031215620000af57600080fd5b6000620000bf8482850162000085565b91505092915050565b6000819050919050565b620000dd81620000c8565b8114620000e957600080fd5b50565b60805160601c60a051612179620001236000396000818161030a01526109170152600081816102e00152610bb201526121796000f3fe6080604052600436106100ab5760003560e01c8063ca7dd37511610064578063ca7dd375146101c3578063d2c069f014610200578063d38ea5bf14610245578063fa00afc714610261578063fe5c873a1461028a578063fe6d7a6e146102b3576100ac565b806365e17c9d146100bb5780636bfb0d01146100e65780637fd6f15c146101115780639a2f64741461013c5780639c16627314610158578063bfb231d214610181576100ac565b5b3480156100b857600080fd5b50005b3480156100c757600080fd5b506100d06102de565b6040516100dd9190611848565b60405180910390f35b3480156100f257600080fd5b506100fb610302565b6040516101089190611a3a565b60405180910390f35b34801561011d57600080fd5b50610126610308565b6040516101339190611a3a565b60405180910390f35b6101566004803603810190610151919061160d565b61032c565b005b34801561016457600080fd5b5061017f600480360381019061017a91906115aa565b610573565b005b34801561018d57600080fd5b506101a860048036038101906101a3919061160d565b610888565b6040516101ba96959493929190611a55565b60405180910390f35b3480156101cf57600080fd5b506101ea60048036038101906101e5919061160d565b610911565b6040516101f79190611a3a565b60405180910390f35b34801561020c57600080fd5b506102276004803603810190610222919061160d565b610974565b60405161023c99989796959493929190611ab6565b60405180910390f35b61025f600480360381019061025a919061160d565b610a2f565b005b34801561026d57600080fd5b506102886004803603810190610283919061155b565b610db7565b005b34801561029657600080fd5b506102b160048036038101906102ac919061160d565b611043565b005b3480156102bf57600080fd5b506102c8611409565b6040516102d59190611a3a565b60405180910390f35b7f000000000000000000000000000000000000000000000000000000000000000081565b60015481565b7f000000000000000000000000000000000000000000000000000000000000000081565b61033461140f565b60008111610377576040517f08c379a000000000000000000000000000000000000000000000000000000000815260040161036e9061193a565b60405180910390fd5b600460008281526020019081526020016000206003015434116103cf576040517f08c379a00000000000000000000000000000000000000000000000000000000081526004016103c6906119fa565b60405180910390fd5b60046000828152602001908152602001600020600401544210610427576040517f08c379a000000000000000000000000000000000000000000000000000000000815260040161041e9061189a565b60405180910390fd5b6104488134600460008581526020019081526020016000206003015461145f565b6000600460008381526020019081526020016000206007015411156104fb576004600082815260200190815260200160002060050160009054906101000a900473ffffffffffffffffffffffffffffffffffffffff1673ffffffffffffffffffffffffffffffffffffffff166108fc60046000848152602001908152602001600020600701549081150290604051600060405180830381858888f193505050501580156104f9573d6000803e3d6000fd5b505b6000600460008381526020019081526020016000209050348160030181905550338160050160006101000a81548173ffffffffffffffffffffffffffffffffffffffff021916908373ffffffffffffffffffffffffffffffffffffffff160217905550348160070181905550506105706114fe565b50565b61057b61140f565b600082116105be576040517f08c379a00000000000000000000000000000000000000000000000000000000081526004016105b5906119da565b60405180910390fd5b600260008154809291906105d190611d75565b91905055508373ffffffffffffffffffffffffffffffffffffffff166323b872dd3330866040518463ffffffff1660e01b815260040161061393929190611863565b600060405180830381600087803b15801561062d57600080fd5b505af1158015610641573d6000803e3d6000fd5b5050505060405180610120016040528060025481526020018573ffffffffffffffffffffffffffffffffffffffff1681526020018481526020018381526020018281526020013373ffffffffffffffffffffffffffffffffffffffff1681526020013373ffffffffffffffffffffffffffffffffffffffff16815260200160008152602001600015158152506004600060025481526020019081526020016000206000820151816000015560208201518160010160006101000a81548173ffffffffffffffffffffffffffffffffffffffff021916908373ffffffffffffffffffffffffffffffffffffffff16021790555060408201518160020155606082015181600301556080820151816004015560a08201518160050160006101000a81548173ffffffffffffffffffffffffffffffffffffffff021916908373ffffffffffffffffffffffffffffffffffffffff16021790555060c08201518160060160006101000a81548173ffffffffffffffffffffffffffffffffffffffff021916908373ffffffffffffffffffffffffffffffffffffffff16021790555060e082015181600701556101008201518160080160006101000a81548160ff0219169083151502179055509050503373ffffffffffffffffffffffffffffffffffffffff168473ffffffffffffffffffffffffffffffffffffffff167fd184fdb1358a28e5370b7ea6f753efc3313b7fd11d6750f270cf79f109a63f176002548686866040516108729493929190611b7a565b60405180910390a36108826114fe565b50505050565b60036020528060005260406000206000915090508060000154908060010160009054906101000a900473ffffffffffffffffffffffffffffffffffffffff16908060020154908060030154908060040160009054906101000a900473ffffffffffffffffffffffffffffffffffffffff16908060040160149054906101000a900460ff16905086565b600060647f000000000000000000000000000000000000000000000000000000000000000060646109429190611bd0565b60036000858152602001908152602001600020600301546109639190611c57565b61096d9190611c26565b9050919050565b60046020528060005260406000206000915090508060000154908060010160009054906101000a900473ffffffffffffffffffffffffffffffffffffffff16908060020154908060030154908060040154908060050160009054906101000a900473ffffffffffffffffffffffffffffffffffffffff16908060060160009054906101000a900473ffffffffffffffffffffffffffffffffffffffff16908060070154908060080160009054906101000a900460ff16905089565b610a3761140f565b6000610a4282610911565b90506000600360008481526020019081526020016000209050600083118015610a6d57506001548311155b610aac576040517f08c379a0000000000000000000000000000000000000000000000000000000008152600401610aa39061195a565b60405180910390fd5b81341015610aef576040517f08c379a0000000000000000000000000000000000000000000000000000000008152600401610ae69061191a565b60405180910390fd5b8060040160149054906101000a900460ff1615610b41576040517f08c379a0000000000000000000000000000000000000000000000000000000008152600401610b38906118ba565b60405180910390fd5b8060040160009054906101000a900473ffffffffffffffffffffffffffffffffffffffff1673ffffffffffffffffffffffffffffffffffffffff166108fc82600301549081150290604051600060405180830381858888f19350505050158015610baf573d6000803e3d6000fd5b507f000000000000000000000000000000000000000000000000000000000000000073ffffffffffffffffffffffffffffffffffffffff166108fc826003015484610bfa9190611cb1565b9081150290604051600060405180830381858888f19350505050158015610c25573d6000803e3d6000fd5b5060018160040160146101000a81548160ff0219169083151502179055508060010160009054906101000a900473ffffffffffffffffffffffffffffffffffffffff1673ffffffffffffffffffffffffffffffffffffffff166323b872dd303384600201546040518463ffffffff1660e01b8152600401610ca893929190611863565b600060405180830381600087803b158015610cc257600080fd5b505af1158015610cd6573d6000803e3d6000fd5b505050503373ffffffffffffffffffffffffffffffffffffffff168160040160009054906101000a900473ffffffffffffffffffffffffffffffffffffffff1673ffffffffffffffffffffffffffffffffffffffff168260010160009054906101000a900473ffffffffffffffffffffffffffffffffffffffff1673ffffffffffffffffffffffffffffffffffffffff167f8b4c9c8a607d67b321582dd8461041b1dc2ceeca70c8b7f37f8e02095cf2e76d8685600201548660030154604051610da293929190611b43565b60405180910390a45050610db46114fe565b50565b610dbf61140f565b60008111610e02576040517f08c379a0000000000000000000000000000000000000000000000000000000008152600401610df9906118da565b60405180910390fd5b60016000815480929190610e1590611d75565b91905055508273ffffffffffffffffffffffffffffffffffffffff166323b872dd3330856040518463ffffffff1660e01b8152600401610e5793929190611863565b600060405180830381600087803b158015610e7157600080fd5b505af1158015610e85573d6000803e3d6000fd5b505050506040518060c0016040528060015481526020018473ffffffffffffffffffffffffffffffffffffffff1681526020018381526020018281526020013373ffffffffffffffffffffffffffffffffffffffff168152602001600015158152506003600060015481526020019081526020016000206000820151816000015560208201518160010160006101000a81548173ffffffffffffffffffffffffffffffffffffffff021916908373ffffffffffffffffffffffffffffffffffffffff160217905550604082015181600201556060820151816003015560808201518160040160006101000a81548173ffffffffffffffffffffffffffffffffffffffff021916908373ffffffffffffffffffffffffffffffffffffffff16021790555060a08201518160040160146101000a81548160ff0219169083151502179055509050503373ffffffffffffffffffffffffffffffffffffffff168373ffffffffffffffffffffffffffffffffffffffff167f655a0cf9c8db81512be9a76dc1c5ae5380b8816ce6ad659cd61b715e2999d59a600154858560405161102e93929190611b43565b60405180910390a361103e6114fe565b505050565b61104b61140f565b6000811161108e576040517f08c379a0000000000000000000000000000000000000000000000000000000008152600401611085906119ba565b60405180910390fd5b60046000828152602001908152602001600020600401544210156110e7576040517f08c379a00000000000000000000000000000000000000000000000000000000081526004016110de9061197a565b60405180910390fd5b3373ffffffffffffffffffffffffffffffffffffffff166004600083815260200190815260200160002060050160009054906101000a900473ffffffffffffffffffffffffffffffffffffffff1673ffffffffffffffffffffffffffffffffffffffff1614806111b857503373ffffffffffffffffffffffffffffffffffffffff166004600083815260200190815260200160002060060160009054906101000a900473ffffffffffffffffffffffffffffffffffffffff1673ffffffffffffffffffffffffffffffffffffffff16145b6111f7576040517f08c379a00000000000000000000000000000000000000000000000000000000081526004016111ee9061199a565b60405180910390fd5b6004600082815260200190815260200160002060080160009054906101000a900460ff161561125b576040517f08c379a0000000000000000000000000000000000000000000000000000000008152600401611252906118fa565b60405180910390fd5b6004600082815260200190815260200160002060010160009054906101000a900473ffffffffffffffffffffffffffffffffffffffff1673ffffffffffffffffffffffffffffffffffffffff166323b872dd303360046000868152602001908152602001600020600201546040518463ffffffff1660e01b81526004016112e493929190611863565b600060405180830381600087803b1580156112fe57600080fd5b505af1158015611312573d6000803e3d6000fd5b505050506000600460008381526020019081526020016000206007015411156113c9576004600082815260200190815260200160002060060160009054906101000a900473ffffffffffffffffffffffffffffffffffffffff1673ffffffffffffffffffffffffffffffffffffffff166108fc60046000848152602001908152602001600020600701549081150290604051600060405180830381858888f193505050501580156113c7573d6000803e3d6000fd5b505b600060046000838152602001908152602001600020905060018160080160006101000a81548160ff021916908315150217905550506114066114fe565b50565b60025481565b60026000541415611455576040517f08c379a000000000000000000000000000000000000000000000000000000000815260040161144c90611a1a565b60405180910390fd5b6002600081905550565b6114f983838360405160240161147793929190611b43565b6040516020818303038152906040527fd1ed7a3c000000000000000000000000000000000000000000000000000000007bffffffffffffffffffffffffffffffffffffffffffffffffffffffff19166020820180517bffffffffffffffffffffffffffffffffffffffffffffffffffffffff8381831617835250505050611508565b505050565b6001600081905550565b60008151905060006a636f6e736f6c652e6c6f679050602083016000808483855afa5050505050565b60008135905061154081612115565b92915050565b6000813590506115558161212c565b92915050565b60008060006060848603121561157057600080fd5b600061157e86828701611531565b935050602061158f86828701611546565b92505060406115a086828701611546565b9150509250925092565b600080600080608085870312156115c057600080fd5b60006115ce87828801611531565b94505060206115df87828801611546565b93505060406115f087828801611546565b925050606061160187828801611546565b91505092959194509250565b60006020828403121561161f57600080fd5b600061162d84828501611546565b91505092915050565b61163f81611cf7565b82525050565b61164e81611ce5565b82525050565b61165d81611d09565b82525050565b61166c81611d51565b82525050565b600061167f601c83611bbf565b915061168a82611e1c565b602082019050919050565b60006116a2601183611bbf565b91506116ad82611e45565b602082019050919050565b60006116c5601f83611bbf565b91506116d082611e6e565b602082019050919050565b60006116e8601783611bbf565b91506116f382611e97565b602082019050919050565b600061170b603383611bbf565b915061171682611ec0565b604082019050919050565b600061172e602683611bbf565b915061173982611f0f565b604082019050919050565b6000611751601283611bbf565b915061175c82611f5e565b602082019050919050565b6000611774601983611bbf565b915061177f82611f87565b602082019050919050565b6000611797602c83611bbf565b91506117a282611fb0565b604082019050919050565b60006117ba602583611bbf565b91506117c582611fff565b604082019050919050565b60006117dd602183611bbf565b91506117e88261204e565b604082019050919050565b6000611800602b83611bbf565b915061180b8261209d565b604082019050919050565b6000611823601f83611bbf565b915061182e826120ec565b602082019050919050565b61184281611d47565b82525050565b600060208201905061185d6000830184611636565b92915050565b60006060820190506118786000830186611645565b6118856020830185611645565b6118926040830184611839565b949350505050565b600060208201905081810360008301526118b381611672565b9050919050565b600060208201905081810360008301526118d381611695565b9050919050565b600060208201905081810360008301526118f3816116b8565b9050919050565b60006020820190508181036000830152611913816116db565b9050919050565b60006020820190508181036000830152611933816116fe565b9050919050565b6000602082019050818103600083015261195381611721565b9050919050565b6000602082019050818103600083015261197381611744565b9050919050565b6000602082019050818103600083015261199381611767565b9050919050565b600060208201905081810360008301526119b38161178a565b9050919050565b600060208201905081810360008301526119d3816117ad565b9050919050565b600060208201905081810360008301526119f3816117d0565b9050919050565b60006020820190508181036000830152611a13816117f3565b9050919050565b60006020820190508181036000830152611a3381611816565b9050919050565b6000602082019050611a4f6000830184611839565b92915050565b600060c082019050611a6a6000830189611839565b611a776020830188611663565b611a846040830187611839565b611a916060830186611839565b611a9e6080830185611636565b611aab60a0830184611654565b979650505050505050565b600061012082019050611acc600083018c611839565b611ad9602083018b611663565b611ae6604083018a611839565b611af36060830189611839565b611b006080830188611839565b611b0d60a0830187611636565b611b1a60c0830186611636565b611b2760e0830185611839565b611b35610100830184611654565b9a9950505050505050505050565b6000606082019050611b586000830186611839565b611b656020830185611839565b611b726040830184611839565b949350505050565b6000608082019050611b8f6000830187611839565b611b9c6020830186611839565b611ba96040830185611839565b611bb66060830184611839565b95945050505050565b600082825260208201905092915050565b6000611bdb82611d47565b9150611be683611d47565b9250827fffffffffffffffffffffffffffffffffffffffffffffffffffffffffffffffff03821115611c1b57611c1a611dbe565b5b828201905092915050565b6000611c3182611d47565b9150611c3c83611d47565b925082611c4c57611c4b611ded565b5b828204905092915050565b6000611c6282611d47565b9150611c6d83611d47565b9250817fffffffffffffffffffffffffffffffffffffffffffffffffffffffffffffffff0483118215151615611ca657611ca5611dbe565b5b828202905092915050565b6000611cbc82611d47565b9150611cc783611d47565b925082821015611cda57611cd9611dbe565b5b828203905092915050565b6000611cf082611d27565b9050919050565b6000611d0282611d27565b9050919050565b60008115159050919050565b6000611d2082611ce5565b9050919050565b600073ffffffffffffffffffffffffffffffffffffffff82169050919050565b6000819050919050565b6000611d5c82611d63565b9050919050565b6000611d6e82611d27565b9050919050565b6000611d8082611d47565b91507fffffffffffffffffffffffffffffffffffffffffffffffffffffffffffffffff821415611db357611db2611dbe565b5b600182019050919050565b7f4e487b7100000000000000000000000000000000000000000000000000000000600052601160045260246000fd5b7f4e487b7100000000000000000000000000000000000000000000000000000000600052601260045260246000fd5b7f41756374696f6e2073686f756c64206e6f7420626520656e6465642e00000000600082015250565b7f6974656d20616c726561647920736f6c64000000000000000000000000000000600082015250565b7f5072696365206d7573742062652067726561746572207468616e207a65726f00600082015250565b7f4e465420697320616c726561647920636c61696d65642e000000000000000000600082015250565b7f6e6f7420656e6f75676820657468657220746f20636f766572206974656d207060008201527f7269636520616e64206d61726b65742066656500000000000000000000000000602082015250565b7f41756374696f6e2069642073686f756c6420626520626967676572207468616e60008201527f207a65726f2e0000000000000000000000000000000000000000000000000000602082015250565b7f6974656d20646f65736e27742065786973740000000000000000000000000000600082015250565b7f41756374696f6e2073686f756c6420656e642066697273742e00000000000000600082015250565b7f4f6e6c792077696e6e6572206f722073656c6c65722063616e2072756e20746860008201527f69732066756e6374696f6e2e0000000000000000000000000000000000000000602082015250565b7f41756374696f6e2069642073686f756c6420626520626967676572207468616e60008201527f207a65726f000000000000000000000000000000000000000000000000000000602082015250565b7f70726963652073686f756c642062652067726561746572207468616e207a657260008201527f6f00000000000000000000000000000000000000000000000000000000000000602082015250565b7f50726963652073686f756c642062652067726561746572207468616e2063757260008201527f72656e742070726963652e000000000000000000000000000000000000000000602082015250565b7f5265656e7472616e637947756172643a207265656e7472616e742063616c6c00600082015250565b61211e81611d15565b811461212957600080fd5b50565b61213581611d47565b811461214057600080fd5b5056fea26469706673582212203d9c3b2b8bebbaca9da1eec56a04e147ab4b1b998fa668928fcf7247d0fbffab64736f6c63430008040033",
  "linkReferences": {},
  "deployedLinkReferences": {}
}